{
  "_format": "hh-sol-artifact-1",
  "contractName": "VerifierTest",
  "sourceName": "contracts/Verifier.test.sol",
  "abi": [
    {
      "inputs": [
        {
          "internalType": "bytes32",
          "name": "networkIndex",
          "type": "bytes32"
        }
      ],
      "stateMutability": "nonpayable",
      "type": "constructor"
    },
    {
      "anonymous": false,
      "inputs": [
        {
          "indexed": true,
          "internalType": "address",
          "name": "previousOwner",
          "type": "address"
        },
        {
          "indexed": true,
          "internalType": "address",
          "name": "newOwner",
          "type": "address"
        }
      ],
      "name": "OwnershipTransferred",
      "type": "event"
    },
    {
      "inputs": [],
      "name": "HALF_N_FULL_ROUNDS",
      "outputs": [
        {
          "internalType": "uint256",
          "name": "",
          "type": "uint256"
        }
      ],
      "stateMutability": "view",
      "type": "function"
    },
    {
      "inputs": [
        {
          "internalType": "bytes32",
          "name": "nonce",
          "type": "bytes32"
        },
        {
          "internalType": "bytes32[]",
          "name": "recipientMerkleSiblings",
          "type": "bytes32[]"
        },
        {
          "components": [
            {
              "internalType": "uint256",
              "name": "index",
              "type": "uint256"
            },
            {
              "internalType": "bytes32",
              "name": "value",
              "type": "bytes32"
            },
            {
              "internalType": "bytes32[]",
              "name": "siblings",
              "type": "bytes32[]"
            }
          ],
          "internalType": "struct MerkleTree.MerkleProof",
          "name": "diffTreeInclusionProof",
          "type": "tuple"
        },
        {
          "components": [
            {
              "internalType": "uint256",
              "name": "blockNumber",
              "type": "uint256"
            },
            {
              "internalType": "bytes32",
              "name": "prevBlockHash",
              "type": "bytes32"
            },
            {
              "internalType": "bytes32",
              "name": "blockHeadersDigest",
              "type": "bytes32"
            },
            {
              "internalType": "bytes32",
              "name": "transactionsDigest",
              "type": "bytes32"
            },
            {
              "internalType": "bytes32",
              "name": "depositDigest",
              "type": "bytes32"
            },
            {
              "internalType": "bytes32",
              "name": "proposedWorldStateDigest",
              "type": "bytes32"
            },
            {
              "internalType": "bytes32",
              "name": "approvedWorldStateDigest",
              "type": "bytes32"
            },
            {
              "internalType": "bytes32",
              "name": "latestAccountDigest",
              "type": "bytes32"
            }
          ],
          "internalType": "struct VerifierInterface.BlockHeader",
          "name": "blockHeader",
          "type": "tuple"
        }
      ],
      "name": "calcWitness",
      "outputs": [
        {
          "internalType": "bytes",
          "name": "witness",
          "type": "bytes"
        }
      ],
      "stateMutability": "pure",
      "type": "function"
    },
    {
      "inputs": [
        {
          "internalType": "bytes32",
          "name": "encoded",
          "type": "bytes32"
        }
      ],
      "name": "decodeHashOut",
      "outputs": [
        {
          "internalType": "uint256[4]",
          "name": "output",
          "type": "uint256[4]"
        }
      ],
      "stateMutability": "pure",
      "type": "function"
    },
    {
      "inputs": [
        {
          "internalType": "uint256[4]",
          "name": "value",
          "type": "uint256[4]"
        }
      ],
      "name": "encodeHashOut",
      "outputs": [
        {
          "internalType": "bytes32",
          "name": "encoded",
          "type": "bytes32"
        }
      ],
      "stateMutability": "pure",
      "type": "function"
    },
    {
      "inputs": [
        {
          "internalType": "uint256[]",
          "name": "input",
          "type": "uint256[]"
        },
        {
          "internalType": "uint256",
          "name": "num_outputs",
          "type": "uint256"
        }
      ],
      "name": "hash_n_to_m_no_pad",
      "outputs": [
        {
          "internalType": "uint256[]",
          "name": "",
          "type": "uint256[]"
        }
      ],
      "stateMutability": "view",
      "type": "function"
    },
    {
      "inputs": [],
      "name": "networkIndex",
      "outputs": [
        {
          "internalType": "bytes32",
          "name": "",
          "type": "bytes32"
        }
      ],
      "stateMutability": "view",
      "type": "function"
    },
    {
      "inputs": [],
      "name": "owner",
      "outputs": [
        {
          "internalType": "address",
          "name": "",
          "type": "address"
        }
      ],
      "stateMutability": "view",
      "type": "function"
    },
    {
      "inputs": [
        {
          "internalType": "uint256[12]",
          "name": "state",
          "type": "uint256[12]"
        }
      ],
      "name": "permute",
      "outputs": [
        {
          "internalType": "uint256[12]",
          "name": "",
          "type": "uint256[12]"
        }
      ],
      "stateMutability": "view",
      "type": "function"
    },
    {
      "inputs": [],
      "name": "renounceOwnership",
      "outputs": [],
      "stateMutability": "nonpayable",
      "type": "function"
    },
    {
      "inputs": [
        {
          "components": [
            {
              "internalType": "bytes32",
              "name": "tokenAddress",
              "type": "bytes32"
            },
            {
              "internalType": "uint256",
              "name": "tokenId",
              "type": "uint256"
            },
            {
              "internalType": "uint256",
              "name": "amount",
              "type": "uint256"
            }
          ],
          "internalType": "struct VerifierInterface.Asset",
          "name": "asset",
          "type": "tuple"
        },
        {
          "internalType": "bytes32",
          "name": "recipient",
          "type": "bytes32"
        },
        {
          "internalType": "bytes32",
          "name": "transactionsDigest",
          "type": "bytes32"
        },
        {
          "internalType": "bytes32",
          "name": "nonce",
          "type": "bytes32"
        },
        {
          "internalType": "bytes32[]",
          "name": "recipientMerkleSiblings",
          "type": "bytes32[]"
        },
        {
          "components": [
            {
              "internalType": "uint256",
              "name": "index",
              "type": "uint256"
            },
            {
              "internalType": "bytes32",
              "name": "value",
              "type": "bytes32"
            },
            {
              "internalType": "bytes32[]",
              "name": "siblings",
              "type": "bytes32[]"
            }
          ],
          "internalType": "struct MerkleTree.MerkleProof",
          "name": "diffTreeInclusionProof",
          "type": "tuple"
        }
      ],
      "name": "testVerifyAsset",
      "outputs": [
        {
          "internalType": "bool",
          "name": "ok",
          "type": "bool"
        }
      ],
      "stateMutability": "view",
      "type": "function"
    },
    {
      "inputs": [
        {
          "internalType": "uint256",
          "name": "",
          "type": "uint256"
        }
      ],
      "name": "transactionsDigestHistory",
      "outputs": [
        {
          "internalType": "bytes32",
          "name": "",
          "type": "bytes32"
        }
      ],
      "stateMutability": "view",
      "type": "function"
    },
    {
      "inputs": [
        {
          "internalType": "address",
          "name": "newOwner",
          "type": "address"
        }
      ],
      "name": "transferOwnership",
      "outputs": [],
      "stateMutability": "nonpayable",
      "type": "function"
    },
    {
      "inputs": [
        {
          "internalType": "bytes32",
          "name": "left",
          "type": "bytes32"
        },
        {
          "internalType": "bytes32",
          "name": "right",
          "type": "bytes32"
        }
      ],
      "name": "two_to_one",
      "outputs": [
        {
          "internalType": "bytes32",
          "name": "hash_out",
          "type": "bytes32"
        }
      ],
      "stateMutability": "view",
      "type": "function"
    },
    {
      "inputs": [
        {
          "components": [
            {
              "internalType": "uint256",
              "name": "blockNumber",
              "type": "uint256"
            },
            {
              "internalType": "bytes32",
              "name": "prevBlockHash",
              "type": "bytes32"
            },
            {
              "internalType": "bytes32",
              "name": "blockHeadersDigest",
              "type": "bytes32"
            },
            {
              "internalType": "bytes32",
              "name": "transactionsDigest",
              "type": "bytes32"
            },
            {
              "internalType": "bytes32",
              "name": "depositDigest",
              "type": "bytes32"
            },
            {
              "internalType": "bytes32",
              "name": "proposedWorldStateDigest",
              "type": "bytes32"
            },
            {
              "internalType": "bytes32",
              "name": "approvedWorldStateDigest",
              "type": "bytes32"
            },
            {
              "internalType": "bytes32",
              "name": "latestAccountDigest",
              "type": "bytes32"
            }
          ],
          "internalType": "struct VerifierInterface.BlockHeader",
          "name": "blockHeader",
          "type": "tuple"
        },
        {
          "internalType": "bytes",
          "name": "witness",
          "type": "bytes"
        }
      ],
      "name": "updateTransactionsDigest",
      "outputs": [],
      "stateMutability": "nonpayable",
      "type": "function"
    },
    {
      "inputs": [
        {
          "components": [
            {
              "internalType": "bytes32",
              "name": "tokenAddress",
              "type": "bytes32"
            },
            {
              "internalType": "uint256",
              "name": "tokenId",
              "type": "uint256"
            },
            {
              "internalType": "uint256",
              "name": "amount",
              "type": "uint256"
            }
          ],
          "internalType": "struct VerifierInterface.Asset[]",
          "name": "assets",
          "type": "tuple[]"
        },
        {
          "internalType": "bytes32",
          "name": "recipient",
          "type": "bytes32"
        },
        {
          "internalType": "bytes",
          "name": "witness",
          "type": "bytes"
        }
      ],
      "name": "verifyAssets",
      "outputs": [
        {
          "internalType": "bool",
          "name": "ok",
          "type": "bool"
        }
      ],
      "stateMutability": "view",
      "type": "function"
    },
    {
      "inputs": [
        {
          "internalType": "bytes32",
          "name": "blockHash",
          "type": "bytes32"
        },
        {
          "internalType": "bytes",
          "name": "witness",
          "type": "bytes"
        }
      ],
      "name": "verifyBlockHash",
      "outputs": [
        {
          "internalType": "bool",
          "name": "ok",
          "type": "bool"
        }
      ],
      "stateMutability": "view",
      "type": "function"
    }
  ],
  "bytecode": "0x610220604052601160a0908152600f60c052602960e052601061010052600261012052601c61014052600d6101608190526101805260276101a05260126101c05260226101e0526014610200526200005c90600090600c62001693565b50604080516101808101825260088152600060208201819052918101829052606081018290526080810182905260a0810182905260c0810182905260e08101829052610100810182905261012081018290526101408101829052610160810191909152620000ce90600c908162001693565b5060408051612d008101825267b585f766f21444058152677746a55f43921ad7602082015267b2fb0d31cee799b491810191909152670f6760a4803427d7606082015267e10d666650f4e0126080820152678cae14cb07d09bf160a082015267d438539c95f63e9f60c082015267ef781c7ce35b4c3d60e082015267cdc4a239b0c4442661010082015267277fa208bf337bff61012082015267e17653a29da578a161014082015267c54302f225db2c766101608201526786287821f722c8816101808201526759cd1a8a41c18e556101a082015267c3b919ad495dc5746101c082015267a484c4c5ef6a07816101e082015267308bbd23dc5416cc610200820152676e4a40c18f30c09c610220820152679a2eedb70d8f8cfa61024082015267e360c6e0ae486f3861026082015267d5c7718fbfc647fb61028082015267c35eae071903ff0b6102a082015267849c2656969c4be76102c082015267c0572c8c08cbbbad6102e082015267e9fa634a21de008261030082015267f56f6d48959a600d61032082015267f7d713e806391165610340820152678297132b32825daf61036082015267ad6805e0e30b2c8a61038082015267ac51d9f5fcf8535e6103a082015267502ad7dc18c2ad876103c08201526757a1550c110b30416103e08201526766bbd30e6ce0e583610400820152670da2abef589d644e61042082015267f061274fdb150d616104408201526728b8ec3ae9c296336104608201526792a756e67e2b94136104808201526770e741ebfee965866104a082015267019d5ee2af82ec1c6104c0820152676f6f2ed7724663526104e0820152677cf416cfe7e14ca16105008201526761df517b86a464396105208201526785dc499b11d77b75610540820152674b959b48b9c1073361056082015267e8be3e5da8043e5761058082015267f5c0bc1de6da86996105a08201526740b12cbf09ef74bf6105c082015267a637093ecb2ad6316105e0820152673cc3f892184df408610600820152672e479dc157bf31bb610620820152676f49de07a623434661064082015267213ce7bede378d7b610660820152675b0431345d4dea8361068082015267a2de45780344d6a16106a0820152677103aaf94a7bf3086106c0820152675326fc0d972793016106e082015267a9ceb74fec0247476107008201526727f8ec88bb21b1a361072082015267fceb4fda1ded089361074082015267fac6ff1346a41675610760820152677131aa45268d7d8c610780820152679351036095630f9f6107a082015267ad535b24afc26bfb6107c0820152674627f5c6993e44be6107e082015267645cf794b8f1cc5861080082015267241c70ed0af6161761082082015267acb8e076647905f1610840820152673737e9db4c4f474d61086082015267e7ea5e33e75fffb66108808201526790dee49fc9bfc23a6108a082015267d1b1edf76bc09c926108c0820152670b65481ba645c6026108e08201526799ad1aab0814283b61090082015267438a7c91d416ca4d61092082015267b60de3bcc5ea751c61094082015267c99cab6aef6f58bc6109608201526769a5ed92a72ee4ff610980820152675e7b329c1ed4ad716109a0820152675fc0ac08001448856109c08201526732db829239774eca6109e0820152670ade699c5830f310610a00820152677cc5583b10415f21610a208201526785df9ed2e166d64f610a40820152676604df4fee32bcb1610a6082015267eb84f608da56ef48610a8082015267da608834c40e603d610aa0820152678f97fe408061f183610ac082015267a93f485c96f37b89610ae0820152676704e8ee8f18d563610b0082015267cee3e9ac1e072119610b2082015267510d0e65e2b470c1610b4082015267f6323f486b9038f0610b60820152670b508cdeffa5ceef610b8082015267f2417089e4fb3cbd610ba08201526760e75c2890d15730610bc082015267a6217d8bf660f29c610be0820152677159cd30c3ac118e610c0082015267839b4e8fafead540610c20820152670d3f3e5e82920adc610c40820152678f7d83bddee7bba8610c6082015267780f2243ea071d06610c8082015267eb915845f3de1634610ca082015267d19e120d26b6f386610cc082015267016ee53a7e5fecc6610ce082015267cb5fd54e7933e477610d0082015267acb8417879fd449f610d20820152679c22190be7f74732610d40820152675d693c1ba3ba3621610d6082015267dcef0797c2b69ec7610d80820152673d639263da827b13610da082015267e273fd971bc8d0e7610dc082015267418f02702d227ed5610de0820152678c25fda3b503038c610e00820152672cbaed4daec8c07c610e20820152675f58e6afcdd6ddc2610e4082015267284650ac5e1b0eba610e6082015267635b337ee819dab5610e80820152679f9a036ed4f2d49f610ea082015267b93e260cae5c170e610ec082015267b0a7eae879ddb76d610ee082015267d0762cbc8ca6570c610f008201526734c6efb812b04bf5610f208201526740bf0ab5fa14c112610f4082015267b6b570fc7c5740d3610f60820152675a27b9002de33454610f8082015267b1a5b165b6d2b2d2610fa0820152678722e0ace9d1be22610fc082015267788ee3b37e5680fb610fe08201526714a726661551e2846110008201526798b7672f9ef3b41961102082015267bb93ae776bb30e3a6110408201526728fd3b046380f8506110608201526730a468059325838761108082015267337dc00c61bd9ce16110a082015267d5eca244c7a4ff1d6110c0820152677762638264d279bd6110e082015267c1e434bedeefd767611100820152670299351a53b8ec2261112082015267b2d456e4ad251b80611140820152673e9ed1fda49cea0b611160820152672972a92ba450bed86111808201526720216dd77be493de6111a082015267adffe8cf28449ec66111c0820152671c4dbb1c4c27d2436111e08201526715a16a8a8322d45861120082015267388a128b7fd9a609611220820152672300e5d6baedf0fb611240820152672f63aa8647e1510461126082015267f1c36ce86ecec2696112808201526727181125183970c96112a082015267e584029370dca96d6112c0820152674d9bbc3e02f1cfb26112e082015267ea35bc29692af6f86113008201526718e21b4beabb4137611320820152671e3b9fc625b554f46113408201526725d64362697828fd611360820152675a3f1bb1c53a964561138082015267db7f023869fb8d386113a082015267b462065911d4e1fc6113c08201526749c24ae4437d80306113e082015267d793862c112b056661140082015267aadd1106730d8feb61142082015267c43b6e0e97b0d56861144082015267e29024c18ee6fca2611460820152675e50c27535b88c666114808201526710383f20a4ff9a876114a08201526738e8ee9d71a45af86114c082015267dd5118375bf1a9b96114e082015267775005982d74d7f76115008201526786ab99b4dde6c8b061152082015267b1204f603f51c08061154082015267ef61ac8470250ecf611560820152671bbcd90f132c603f611580820152670cd1dabd964db5576115a08201526711a3ae5beb9d1ec96115c082015267f755bfeea585d11d6115e082015267a3b83250268ea4d761160082015267516306f4927c93af61162082015267ddb4ac49c9efa1da6116408201526764bb6dec369d441861166082015267f9cc95c22b4c1fcc6116808201526708d37f755f4ae9f66116a082015267eec49b613478675b6116c082015267f143933aed25e0b06116e082015267e4c5dd8255dfc62261170082015267e7ad7756f193198e6117208201526792c2318b87fff9cb61174082015267739c25f8fd73596d611760820152675636cac9f16dfed061178082015267dd8f909a938e01726117a082015267c6401fe115063f5b6117c0820152678ad97b33f1ac14556117e0820152670c49366bb25e8513611800820152670784d3d2f169830961182082015267530fb67ea1809a8161184082015267410492299bb01f4961186082015267139542347424b9ac611880820152679cb0bd5ea1a1115e6118a08201526702e3f615c38f49a16118c082015267985d4f4a9c5291ef6118e082015267775b9feafdcd26e761190082015267304265a6384f0f2d61192082015267593664c39773012c611940820152674f0a2e5fb028f2ce61196082015267dd611f1000c1744261198082015267d8185f9adfea4fd06119a082015267ef87139ca9a3ab1e6119c0820152673ba71336c34ee1336119e0820152677d3a455d56b70238611a0082015267660d32e130182684611a2082015267297a863f48cd1f43611a408201526790e0a736a751ebb7611a6082015267549f80ce550c4fd3611a80820152670f73b2922f38bd64611aa08201526716bf1f73fb7a9c3f611ac0820152676d1f5a59005bec17611ae08201526702ff876fa5ef97c4611b0082015267c5cb72a2a51159b0611b20820152678470f39d2d5c900e611b408201526725abb3f1d39fcb76611b608201526723eb8cc9b372442f611b8082015267d687ba55c64f6364611ba082015267da8d9e90fd8ff158611bc082015267e3cbdc7d2fe45ea7611be082015267b9a8c9b3aee52297611c0082015267c0d28a5c10960bd3611c208201526745d7ac9b68f71a34611c4082015267eeb76e397069e804611c60820152673d06c8bd1514e2d9611c80820152679c9c98207cb10767611ca08201526765700b51aedfb5ef611cc082015267911f451539869408611ce0820152677ae6849fbc3a0ec6611d00820152673bb340eba06afe7e611d2082015267b46e9d8b682ea65e611d40820152678dcf22f9a3b34356611d608201526777bdaeda586257a7611d8082015267f19e400a5104d20d611da082015267c368a348e46d950f611dc0820152679ef1cd60e679f284611de082015267e89cd854d5d01d33611e00820152675cd377dc8bb882a2611e2082015267a7b0fb7883eee860611e40820152677684403ec392950d611e60820152675fa3f06f4fed3b52611e80820152678df57ac11bc04831611ea0820152672db01efa1e1e1897611ec08201526754846de4aadb9ca2611ee082015267ba6745385893c784611f0082015267541d496344d2c75b611f2082015267e909678474e687fe611f4082015267dfe89923f6c9c2ff611f6082015267ece5a71e0cfedc75611f80820152675ff98fd5d51fe610611fa08201526783e8941918964615611fc0820152675922040b47f150c1611fe082015267f97d750e3dd94521612000820152675080d4c2b86f56d761202082015267a7de115b56c78d70612040820152676a9242ac8753819461206082015267f7856ef7f9173e44612080820152672265fc92feb0dc096120a08201526717dfc8e4f7ba8a576120c0820152679001a64209f21db86120e08201526790004c1371b893c561210082015267b932b7cf752e554561212082015267a0b1df81b6fe59fc612140820152678ef1dd26770af2c2612160820152670541a4f9cfbeed35612180820152679e61106178bfc5306121a082015267b3767e80935d8af26121c08201526698d5782065af066121e08201526731d191cd5c1466c761220082015267410fefafa319ac9d61222082015267bdf8f242e316c4ab612240820152679e8cd55b57637ed061226082015267de122bebe9a39368612280820152674d001fd58f0025266122a082015267ca6637000eb4a9f86122c0820152672f2339d624f91f786122e0820152676d1a7918c80df51861230082015267df9a4939342308e961232082015267ebc2151ee6c8398c6123408201526703cc2ba8a111651561236082015267d341d037e840cf8361238082015267387cb5d25af4afcc6123a082015267bba2515f22909e876123c0820152677248fe7705f38e476123e0820152674d61e56a525d225a61240082015267262e963c8da05d3d6124208201526759e89b094d220ec261244082015267055d5b52b78b9c5e6124608201526782b27eb33514ef9961248082015267d30094ca96b7ce7b6124a082015267cf5cb381cd0a15356124c082015267feed4db6919e5a7c6124e08201526741703f53753be59f612500820152675eeea940fcde8b6f612520820152674cd1f1b175100206612540820152674a20358574454ec0612560820152671478d361dbbf9fac612580820152676f02dc07d141875c6125a082015267296a202ed8e556a26125c0820152672afd67999bf32ee56125e0820152677acfd96efa95491d612600820152676798ba0c0abb2c6d6126208201526734c6f57b26c92122612640820152675736e1bad206b5de6126608201526720057d2a0056521b612680820152673dea5bd5d0578bd76126a08201526716e50d897d4634ac6126c08201526729bff3ecb9b7a6e36126e082015267475cd3205a3bdcde6127008201526718a42105c31b7e8861272082015267023e7414af6630686127408201526715147108121967d761276082015267e4a3dff1d7d6fef96127808201526701a8d1a5880857376127a08201526711b4c74eda62beef6127c082015267e587cc0d69a733466127e0820152671ff7327017aa2a6e61280082015267594e29c42473d06b61282082015267f6f31db1899b12d561284082015267c02ac5e47312d3ca61286082015267e70201e960cb78b8612880820152676f90ff3b6a65f1086128a08201526742747a7245e7fa846128c082015267d1f507e43ab749b26128e0820152671c86d265f15750cd612900820152673996ce73dd832c1c612920820152678e7fba02983224bd61294082015267ba0dec7103255dd4612960820152679e9cbd781628fc5b61298082015267dae8645996edd6a56129a082015267debe0853b1a1d3786129c082015267a49229d24d0143436129e0820152677be5b9ffda905e1c612a0082015267a3c95eaec244aa30612a20820152670230bca8f4df0544612a40820152674135c2bebfe148c6612a6082015267166fc0cc438a3c72612a80820152673762b59a8ae83efa612aa082015267e8928a4c89114750612ac0820152672a440b51a4945ee5612ae08201526780cefd2b7d99ff83612b0082015267bb9879c6e61fd62a612b20820152676e7c8f1a84265034612b4082015267164bb2de1bbeddc8612b6082015267f3c12fe54d5c653b612b808201526740b9e922ed9771e2612ba082015267551f5b0fbe7b1840612bc08201526725032aa7c4cb1811612be082015267aaed34074b164346612c00820152678ffd96bbf9c9c81d612c208201526770fc91eb5937085c612c40820152677f795e2a5f915440612c60820152674543d9df5476d3cb612c8082015267f172d73e004fc90d612ca082015267dfd1c4febcc81238612cc082015267bc8dfb627fe558fc612ce0820152620015f990601890610168620016db565b503480156200160757600080fd5b5060405162003d7138038062003d718339810160408190526200162a916200172f565b80620016363362001640565b6080525062001749565b61018080546001600160a01b038381166001600160a01b0319831681179093556040519116919082907f8be0079c531659141344cd1fd0a4f28419497f9722a3daafe3b4186f6b6457e090600090a35050565b82600c8101928215620016c9579160200282015b82811115620016c9578251829060ff16905591602001919060010190620016a7565b50620016d792915062001718565b5090565b826101688101928215620016c9579160200282015b82811115620016c957825182906001600160401b0316905591602001919060010190620016f0565b5b80821115620016d7576000815560010162001719565b6000602082840312156200174257600080fd5b5051919050565b60805161260c62001765600039600061024c015261260c6000f3fe608060405234801561001057600080fd5b50600436106101005760003560e01c80638da5cb5b11610097578063dae0384711610066578063dae0384714610247578063f112b89f1461026e578063f2fde38b14610281578063f89785791461029457600080fd5b80638da5cb5b146101ca578063975f4aa6146101e6578063b932039414610207578063bbb621471461022757600080fd5b8063496f3b22116100d3578063496f3b221461017a5780634f1202c01461019a5780635f6fb58a146101ad578063715018a6146101c057600080fd5b806309a64441146101055780630f91e6ad1461012e578063397bb6161461015157806342ed725f14610164575b600080fd5b610118610113366004611b76565b6102a7565b6040516101259190611c07565b60405180910390f35b61014161013c366004611c55565b6102dc565b6040519015158152602001610125565b61014161015f366004611d2e565b610343565b61016c600481565b604051908152602001610125565b61018d610188366004611dbf565b61035a565b6040516101259190611e3d565b6101416101a8366004611e6f565b610371565b61016c6101bb366004611f16565b6104a1565b6101c8610553565b005b610180546040516001600160a01b039091168152602001610125565b61016c6101f4366004611f38565b6101816020526000908152604090205481565b61021a610215366004611f74565b610567565b604051610125919061200f565b61023a610235366004611f38565b61076c565b6040516101259190612053565b61016c7f000000000000000000000000000000000000000000000000000000000000000081565b6101c861027c36600461210a565b6107f8565b6101c861028f366004612146565b61082c565b61016c6102a2366004612176565b6108a5565b606085858585856040516020016102c2959493929190612225565b604051602081830303815290604052905095945050505050565b6000610337866102f1368b90038b018b612317565b898888888080602002602001604051908101604052809392919081815260200183836020028082843760009201919091525061033292508a91506124459050565b610916565b98975050505050505050565b6000610350848484610a58565b5060019392505050565b610362611ae3565b61036b82610b80565b92915050565b60008080808061038386880188612451565b80516000908152610181602052604090205493975091955093509150806104005760405162461bcd60e51b815260206004820152602660248201527f5472616e73616374696f6e732064696765737420776173206e6f7420726567696044820152651cdd195c995960d21b60648201526084015b60405180910390fd5b60018a1461045c5760405162461bcd60e51b815260206004820152602360248201527f4f6e6c79206f6e652074797065206f6620617373657420697320617661696c61604482015262626c6560e81b60648201526084016103f7565b610492818c8c6000818110610473576104736124d0565b9050606002018036038101906104899190612317565b8b888888610916565b9b9a5050505050505050505050565b6000806104ad8461076c565b905060006104ba8461076c565b90506104c4611ae3565b82518152602080840151828201526040808501518184015260608086015181850152845160808501529184015160a084015283015160c083015282015160e082015261050f81610b80565b9050610519611b02565b81518152602080830151908201526040808301519082015260608201518160035b6020020152610548816108a5565b979650505050505050565b61055b610c3f565b6105656000610c9a565b565b6060610571611ae3565b60005b600c8110156105a85760008282600c8110610591576105916124d0565b6020020152806105a0816124fc565b915050610574565b506000600885516105b9919061252b565b90506000600886516105cb919061253f565b905060005b8281101561065a5760005b600881101561063c5787816105f1600885612553565b6105fb919061256a565b8151811061060b5761060b6124d0565b60200260200101518582600c8110610625576106256124d0565b602002015280610634816124fc565b9150506105db565b5061064684610b80565b935080610652816124fc565b9150506105d0565b5060005b818110156106be578681610673600886612553565b61067d919061256a565b8151811061068d5761068d6124d0565b60200260200101518482600c81106106a7576106a76124d0565b6020020152806106b6816124fc565b91505061065e565b506106c883610b80565b92506000856001600160401b038111156106e4576106e4611d79565b60405190808252806020026020018201604052801561070d578160200160208202803683370190505b50905060005b86811015610761578481600c811061072d5761072d6124d0565b6020020151828281518110610744576107446124d0565b602090810291909101015280610759816124fc565b915050610713565b509695505050505050565b610774611b02565b60008260405160200161078991815260200190565b6040516020818303038152906040528060200190518101906107ab919061257d565b90506107bb600160401b8261253f565b825260401c6107ce600160401b8261253f565b602083015260401c6107e4600160401b8261253f565b6040808401919091521c6060820152919050565b600061080384610ced565b9050610810818484610a58565b5050506060810151905160009081526101816020526040902055565b610834610c3f565b6001600160a01b0381166108995760405162461bcd60e51b815260206004820152602660248201527f4f776e61626c653a206e6577206f776e657220697320746865207a65726f206160448201526564647265737360d01b60648201526084016103f7565b6108a281610c9a565b50565b6060810151604080830151602080850151855184516001600160c01b031960c097881b81169482019490945293861b8316602885015290851b8216603084015290931b90921660388301526000910160405160208183030381529060405280602001905181019061036b919061257d565b604080516001808252818301909252600091829190816020015b60408051606081018252600080825260208083018290529282015282526000199092019101816109305790505090508681600081518110610973576109736124d0565b6020026020010181905250600061098c82888789610da8565b9050836020015181146109e15760405162461bcd60e51b815260206004820152601f60248201527f4661696c20746f20766572696679207472616e73616374696f6e20686173680060448201526064016103f7565b60006109ec85610f2a565b9050898114610a485760405162461bcd60e51b815260206004820152602260248201527f4661696c20746f20766572696679207472616e73616374696f6e7320646967656044820152611cdd60f21b60648201526084016103f7565b5060019998505050505050505050565b6000610ab1846040517f19457468657265756d205369676e6564204d6573736167653a0a3332000000006020820152603c8101829052600090605c01604051602081830303815290604052805190602001209050919050565b90506000610af58285858080601f016020809104026020016040519081016040528093929190818152602001838380828437600092019190915250610fc892505050565b9050610b0a610180546001600160a01b031690565b6001600160a01b0316816001600160a01b031614610b795760405162461bcd60e51b815260206004820152602660248201527f4661696c20746f207665726966792061676772656761746f722773207369676e60448201526530ba3ab9329760d11b60648201526084016103f7565b5050505050565b610b88611ae3565b6000610b948382610fec565b9093509050610ba3838261103e565b9093509050610bb28382610fec565b909350905060005b600c811015610c1457610beb8482600c8110610bd857610bd86124d0565b602002015167ffffffff00000001900690565b8482600c8110610bfd57610bfd6124d0565b602002015280610c0c816124fc565b915050610bba565b506016610c2360046002612553565b610c2d919061256a565b8114610c3857600080fd5b5090919050565b610180546001600160a01b031633146105655760405162461bcd60e51b815260206004820181905260248201527f4f776e61626c653a2063616c6c6572206973206e6f7420746865206f776e657260448201526064016103f7565b61018080546001600160a01b038381166001600160a01b0319831681179093556040519116919082907f8be0079c531659141344cd1fd0a4f28419497f9722a3daafe3b4186f6b6457e090600090a35050565b6000610d01826060015183608001516104a1565b905060008260000151604051602001610d1c91815260200190565b604051602081830303815290604052806020019051810190610d3e919061257d565b90506000610d50828560e001516104a1565b90506000610d66856080015186606001516104a1565b90506000610d7483836104a1565b90506000610d8a8760a001518860c001516104a1565b90506000610d9883836104a1565b90506103378860400151826104a1565b60008451600114610db857600080fd5b600085600081518110610dcd57610dcd6124d0565b602002602001015160200151604051602001610deb91815260200190565b604051602081830303815290604052806020019051810190610e0d919061257d565b9050600086600081518110610e2457610e246124d0565b602002602001015160400151604051602001610e4291815260200190565b604051602081830303815290604052806020019051810190610e64919061257d565b90506000610e728383611099565b90506000610e9e89600081518110610e8c57610e8c6124d0565b60200260200101516000015183611099565b90506000610eac8983611099565b9050600089604051602001610ec391815260200190565b604051602081830303815290604052806020019051810190610ee5919061257d565b60408051606081018252828152602081018590529081018b90529091506000610f0d82611348565b9050610f19818b6104a1565b9d9c50505050505050505050505050565b6020810151815160009190825b846040015151811015610fbf57600182811c92811690819003610f8257610f7b86604001518381518110610f6d57610f6d6124d0565b6020026020010151856104a1565b9350610fac565b610fa98487604001518481518110610f9c57610f9c6124d0565b60200260200101516104a1565b93505b5080610fb7816124fc565b915050610f37565b50909392505050565b6000806000610fd785856113f0565b91509150610fe481611432565b509392505050565b610ff4611ae3565b6000805b600481101561102f5761100b858561157c565b945061101685611752565b9450611021856117a0565b945060019384019301610ff8565b508383915091505b9250929050565b611046611ae3565b6000805b601681101561102f5761105d858561157c565b94506110808560005b602002015167ffffffff0000000181800282020680020290565b855261108b856117a0565b94506001938401930161104a565b6000806110a58461076c565b905060006110b28461076c565b60408051600c8082526101a08201909252919250600091906020820161018080368337505084518251929350918391506000906110f1576110f16124d0565b6020908102919091010152826001602002015181600181518110611117576111176124d0565b602090810291909101015282600260200201518160028151811061113d5761113d6124d0565b6020908102919091010152826003602002015181600381518110611163576111636124d0565b60209081029190910101528151815182906004908110611185576111856124d0565b60209081029190910101528160016020020151816005815181106111ab576111ab6124d0565b60209081029190910101528160026020020151816006815181106111d1576111d16124d0565b60209081029190910101528160036020020151816007815181106111f7576111f76124d0565b602002602001018181525050600181600881518110611218576112186124d0565b602002602001018181525050600181600981518110611239576112396124d0565b602002602001018181525050600181600b8151811061125a5761125a6124d0565b602002602001018181525050611271816004610567565b905061127b611b02565b8160008151811061128e5761128e6124d0565b6020026020010151816000600481106112a9576112a96124d0565b60200201528151829060019081106112c3576112c36124d0565b6020026020010151816001600481106112de576112de6124d0565b60200201528151829060029081106112f8576112f86124d0565b602002602001015181600260048110611313576113136124d0565b602002015281518290600390811061132d5761132d6124d0565b60200260200101518160036004811061053a5761053a6124d0565b602081015160408201515160009190829061136590610100612596565b8451604086015151911b91505b8015610fbf57600182811b9260ff1c908190036113b45760408601516113ad9061139d600185612596565b81518110610f6d57610f6d6124d0565b93506113dd565b6113da8487604001516001856113ca9190612596565b81518110610f9c57610f9c6124d0565b93505b50806113e8816125a9565b915050611372565b60008082516041036114265760208301516040840151606085015160001a61141a8782858561186e565b94509450505050611037565b50600090506002611037565b6000816004811115611446576114466125c0565b0361144e5750565b6001816004811115611462576114626125c0565b036114af5760405162461bcd60e51b815260206004820152601860248201527f45434453413a20696e76616c6964207369676e6174757265000000000000000060448201526064016103f7565b60028160048111156114c3576114c36125c0565b036115105760405162461bcd60e51b815260206004820152601f60248201527f45434453413a20696e76616c6964207369676e6174757265206c656e6774680060448201526064016103f7565b6003816004811115611524576115246125c0565b036108a25760405162461bcd60e51b815260206004820152602260248201527f45434453413a20696e76616c6964207369676e6174757265202773272076616c604482015261756560f01b60648201526084016103f7565b611584611ae3565b8251600c8302906115aa9060188361016881106115a3576115a36124d0565b0154611932565b825260208401516115cc9060186001840161016881106115a3576115a36124d0565b602083015260408401516115f19060186002840161016881106115a3576115a36124d0565b604083015260608401516116169060186003840161016881106115a3576115a36124d0565b6060830152608084015161163b9060186004840161016881106115a3576115a36124d0565b608083015260a08401516116609060186005840161016881106115a3576115a36124d0565b60a083015260c08401516116859060186006840161016881106115a3576115a36124d0565b60c083015260e08401516116aa9060186007840161016881106115a3576115a36124d0565b60e08301526101008401516116d09060186008840161016881106115a3576115a36124d0565b6101008301526101208401516116f79060186009840161016881106115a3576115a36124d0565b61012083015261014084015161171e906018600a840161016881106115a3576115a36124d0565b610140830152610160840151611745906018600b840161016881106115a3576115a36124d0565b6101608301525092915050565b61175a611ae3565b60005b600c81101561179a5761177b8382600c8110611066576110666124d0565b8282600c811061178d5761178d6124d0565b602002015260010161175d565b50919050565b6117a8611ae3565b6117b3600083611947565b81526117c0600183611947565b60208201526117d0600283611947565b60408201526117e0600383611947565b60608201526117f0600483611947565b6080820152611800600583611947565b60a0820152611810600683611947565b60c0820152611820600783611947565b60e0820152611830600883611947565b610100820152611841600983611947565b610120820152611852600a83611947565b610140820152611863600b83611947565b610160820152919050565b6000807f7fffffffffffffffffffffffffffffff5d576e7357a4501ddfe92f46681b20a08311156118a55750600090506003611929565b6040805160008082526020820180845289905260ff881692820192909252606081018690526080810185905260019060a0016020604051602081039080840390855afa1580156118f9573d6000803e3d6000fd5b5050604051601f1901519150506001600160a01b03811661192257600060019250925050611929565b9150600090505b94509492505050565b600067ffffffff000000018284089392505050565b600060118284600c811061195d5761195d6124d0565b60200201510201600f82600c6001860106600c811061197e5761197e6124d0565b60200201510201602982600c6002860106600c811061199f5761199f6124d0565b60200201510201601082600c6003860106600c81106119c0576119c06124d0565b60200201510201600282600c6004860106600c81106119e1576119e16124d0565b60200201510201601c82600c6005860106600c8110611a0257611a026124d0565b60200201510201600d82600c6006860106600c8110611a2357611a236124d0565b60200201510201600d82600c6007860106600c8110611a4457611a446124d0565b60200201510201602782600c6008860106600c8110611a6557611a656124d0565b60200201510201601282600c6009860106600c8110611a8657611a866124d0565b60200201510201602282600c600a860106600c8110611aa757611aa76124d0565b60200201510201601482600c600b860106600c8110611ac857611ac86124d0565b60200201510201600083900361036b57905160080201919050565b604051806101800160405280600c906020820280368337509192915050565b60405180608001604052806004906020820280368337509192915050565b60008083601f840112611b3257600080fd5b5081356001600160401b03811115611b4957600080fd5b6020830191508360208260051b850101111561103757600080fd5b60006060828403121561179a57600080fd5b6000806000806000858703610160811215611b9057600080fd5b8635955060208701356001600160401b0380821115611bae57600080fd5b611bba8a838b01611b20565b90975095506040890135915080821115611bd357600080fd5b50611be089828a01611b64565b935050610100605f1982011215611bf657600080fd5b506060860190509295509295909350565b600060208083528351808285015260005b81811015611c3457858101830151858201604001528201611c18565b506000604082860101526040601f19601f8301168501019250505092915050565b6000806000806000806000610100888a031215611c7157600080fd5b611c7b8989611b64565b9650606088013595506080880135945060a0880135935060c08801356001600160401b0380821115611cac57600080fd5b611cb88b838c01611b20565b909550935060e08a0135915080821115611cd157600080fd5b50611cde8a828b01611b64565b91505092959891949750929550565b60008083601f840112611cff57600080fd5b5081356001600160401b03811115611d1657600080fd5b60208301915083602082850101111561103757600080fd5b600080600060408486031215611d4357600080fd5b8335925060208401356001600160401b03811115611d6057600080fd5b611d6c86828701611ced565b9497909650939450505050565b634e487b7160e01b600052604160045260246000fd5b604051601f8201601f191681016001600160401b0381118282101715611db757611db7611d79565b604052919050565b6000610180808385031215611dd357600080fd5b83601f840112611de257600080fd5b6040518181018181106001600160401b0382111715611e0357611e03611d79565b604052908301908085831115611e1857600080fd5b845b83811015611e32578035825260209182019101611e1a565b509095945050505050565b6101808101818360005b600c811015611e66578151835260209283019290910190600101611e47565b50505092915050565b600080600080600060608688031215611e8757600080fd5b85356001600160401b0380821115611e9e57600080fd5b818801915088601f830112611eb257600080fd5b813581811115611ec157600080fd5b896020606083028501011115611ed657600080fd5b60209283019750955090870135935060408701359080821115611ef857600080fd5b50611f0588828901611ced565b969995985093965092949392505050565b60008060408385031215611f2957600080fd5b50508035926020909101359150565b600060208284031215611f4a57600080fd5b5035919050565b60006001600160401b03821115611f6a57611f6a611d79565b5060051b60200190565b60008060408385031215611f8757600080fd5b82356001600160401b03811115611f9d57600080fd5b8301601f81018513611fae57600080fd5b80356020611fc3611fbe83611f51565b611d8f565b82815260059290921b83018101918181019088841115611fe257600080fd5b938201935b8385101561200057843582529382019390820190611fe7565b98969091013596505050505050565b6020808252825182820181905260009190848201906040850190845b818110156120475783518352928401929184019160010161202b565b50909695505050505050565b60808101818360005b6004811015611e6657815183526020928301929091019060010161205c565b600061010080838503121561208f57600080fd5b604051908101906001600160401b03821181831017156120b1576120b1611d79565b81604052809250833581526020840135602082015260408401356040820152606084013560608201526080840135608082015260a084013560a082015260c084013560c082015260e084013560e0820152505092915050565b6000806000610120848603121561212057600080fd5b61212a858561207b565b92506101008401356001600160401b03811115611d6057600080fd5b60006020828403121561215857600080fd5b81356001600160a01b038116811461216f57600080fd5b9392505050565b60006080828403121561218857600080fd5b82601f83011261219757600080fd5b604051608081018181106001600160401b03821117156121b9576121b9611d79565b6040528060808401858111156121ce57600080fd5b845b818110156121e85780358352602092830192016121d0565b509195945050505050565b81835260006001600160fb1b0383111561220c57600080fd5b8260051b80836020870137939093016020019392505050565b600061016087835280602084015261224081840187896121f3565b9050828103604084015284358152602085013560208201526040850135601e1986360301811261226f57600080fd5b85016020810190356001600160401b0381111561228b57600080fd5b8060051b360382131561229d57600080fd5b606060408401526122b26060840182846121f3565b935050505061230d6060830184803582526020810135602083015260408101356040830152606081013560608301526080810135608083015260a081013560a083015260c081013560c083015260e081013560e08301525050565b9695505050505050565b60006060828403121561232957600080fd5b604051606081018181106001600160401b038211171561234b5761234b611d79565b80604052508235815260208301356020820152604083013560408201528091505092915050565b600082601f83011261238357600080fd5b81356020612393611fbe83611f51565b82815260059290921b840181019181810190868411156123b257600080fd5b8286015b8481101561076157803583529183019183016123b6565b6000606082840312156123df57600080fd5b604051606081016001600160401b03828210818311171561240257612402611d79565b816040528293508435835260208501356020840152604085013591508082111561242b57600080fd5b5061243885828601612372565b6040830152505092915050565b600061036b36836123cd565b600080600080610160858703121561246857600080fd5b8435935060208501356001600160401b038082111561248657600080fd5b61249288838901612372565b945060408701359150808211156124a857600080fd5b506124b5878288016123cd565b9250506124c5866060870161207b565b905092959194509250565b634e487b7160e01b600052603260045260246000fd5b634e487b7160e01b600052601160045260246000fd5b60006001820161250e5761250e6124e6565b5060010190565b634e487b7160e01b600052601260045260246000fd5b60008261253a5761253a612515565b500490565b60008261254e5761254e612515565b500690565b808202811582820484141761036b5761036b6124e6565b8082018082111561036b5761036b6124e6565b60006020828403121561258f57600080fd5b5051919050565b8181038181111561036b5761036b6124e6565b6000816125b8576125b86124e6565b506000190190565b634e487b7160e01b600052602160045260246000fdfea264697066735822122056faf3ef8bf7be8677d04747bb7e4645507d9b0fdf28f99226e400cd408270ca64736f6c63430008110033",
  "linkReferences": {},
  "deployedLinkReferences": {}
}