{
  "_format": "hh-sol-artifact-1",
  "contractName": "VerifierTest",
  "sourceName": "contracts/Verifier.test.sol",
  "abi": [
    {
      "inputs": [
        {
          "internalType": "bytes32",
          "name": "networkIndex",
          "type": "bytes32"
        }
      ],
      "stateMutability": "nonpayable",
      "type": "constructor"
    },
    {
      "anonymous": false,
      "inputs": [
        {
          "indexed": false,
          "internalType": "uint8",
          "name": "version",
          "type": "uint8"
        }
      ],
      "name": "Initialized",
      "type": "event"
    },
    {
      "anonymous": false,
      "inputs": [
        {
          "indexed": true,
          "internalType": "address",
          "name": "previousOwner",
          "type": "address"
        },
        {
          "indexed": true,
          "internalType": "address",
          "name": "newOwner",
          "type": "address"
        }
      ],
      "name": "OwnershipTransferred",
      "type": "event"
    },
    {
      "inputs": [],
      "name": "HALF_N_FULL_ROUNDS",
      "outputs": [
        {
          "internalType": "uint256",
          "name": "",
          "type": "uint256"
        }
      ],
      "stateMutability": "view",
      "type": "function"
    },
    {
      "inputs": [
        {
          "internalType": "bytes32",
          "name": "nonce",
          "type": "bytes32"
        },
        {
          "internalType": "bytes32[]",
          "name": "recipientMerkleSiblings",
          "type": "bytes32[]"
        },
        {
          "components": [
            {
              "internalType": "uint256",
              "name": "index",
              "type": "uint256"
            },
            {
              "internalType": "bytes32",
              "name": "value",
              "type": "bytes32"
            },
            {
              "internalType": "bytes32[]",
              "name": "siblings",
              "type": "bytes32[]"
            }
          ],
          "internalType": "struct MerkleTreeInterface.MerkleProof",
          "name": "diffTreeInclusionProof",
          "type": "tuple"
        },
        {
          "components": [
            {
              "internalType": "uint256",
              "name": "blockNumber",
              "type": "uint256"
            },
            {
              "internalType": "bytes32",
              "name": "prevBlockHash",
              "type": "bytes32"
            },
            {
              "internalType": "bytes32",
              "name": "blockHeadersDigest",
              "type": "bytes32"
            },
            {
              "internalType": "bytes32",
              "name": "transactionsDigest",
              "type": "bytes32"
            },
            {
              "internalType": "bytes32",
              "name": "depositDigest",
              "type": "bytes32"
            },
            {
              "internalType": "bytes32",
              "name": "proposedWorldStateDigest",
              "type": "bytes32"
            },
            {
              "internalType": "bytes32",
              "name": "approvedWorldStateDigest",
              "type": "bytes32"
            },
            {
              "internalType": "bytes32",
              "name": "latestAccountDigest",
              "type": "bytes32"
            }
          ],
          "internalType": "struct VerifierInterface.BlockHeader",
          "name": "blockHeader",
          "type": "tuple"
        }
      ],
      "name": "calcWitness",
      "outputs": [
        {
          "internalType": "bytes",
          "name": "witness",
          "type": "bytes"
        }
      ],
      "stateMutability": "pure",
      "type": "function"
    },
    {
      "inputs": [
        {
          "internalType": "bytes32",
          "name": "encoded",
          "type": "bytes32"
        }
      ],
      "name": "decodeHashOut",
      "outputs": [
        {
          "internalType": "uint256[4]",
          "name": "output",
          "type": "uint256[4]"
        }
      ],
      "stateMutability": "pure",
      "type": "function"
    },
    {
      "inputs": [
        {
          "internalType": "uint256[4]",
          "name": "value",
          "type": "uint256[4]"
        }
      ],
      "name": "encodeHashOut",
      "outputs": [
        {
          "internalType": "bytes32",
          "name": "encoded",
          "type": "bytes32"
        }
      ],
      "stateMutability": "pure",
      "type": "function"
    },
    {
      "inputs": [
        {
          "internalType": "uint256[]",
          "name": "input",
          "type": "uint256[]"
        },
        {
          "internalType": "uint256",
          "name": "num_outputs",
          "type": "uint256"
        }
      ],
      "name": "hash_n_to_m_no_pad",
      "outputs": [
        {
          "internalType": "uint256[]",
          "name": "",
          "type": "uint256[]"
        }
      ],
      "stateMutability": "view",
      "type": "function"
    },
    {
      "inputs": [
        {
          "internalType": "bytes32",
          "name": "networkIndex_",
          "type": "bytes32"
        }
      ],
      "name": "initialize",
      "outputs": [],
      "stateMutability": "nonpayable",
      "type": "function"
    },
    {
      "inputs": [],
      "name": "networkIndex",
      "outputs": [
        {
          "internalType": "bytes32",
          "name": "",
          "type": "bytes32"
        }
      ],
      "stateMutability": "view",
      "type": "function"
    },
    {
      "inputs": [],
      "name": "owner",
      "outputs": [
        {
          "internalType": "address",
          "name": "",
          "type": "address"
        }
      ],
      "stateMutability": "view",
      "type": "function"
    },
    {
      "inputs": [
        {
          "internalType": "uint256[12]",
          "name": "state",
          "type": "uint256[12]"
        }
      ],
      "name": "permute",
      "outputs": [
        {
          "internalType": "uint256[12]",
          "name": "",
          "type": "uint256[12]"
        }
      ],
      "stateMutability": "view",
      "type": "function"
    },
    {
      "inputs": [],
      "name": "renounceOwnership",
      "outputs": [],
      "stateMutability": "nonpayable",
      "type": "function"
    },
    {
      "inputs": [
        {
          "components": [
            {
              "internalType": "bytes32",
              "name": "tokenAddress",
              "type": "bytes32"
            },
            {
              "internalType": "uint256",
              "name": "tokenId",
              "type": "uint256"
            },
            {
              "internalType": "uint256",
              "name": "amount",
              "type": "uint256"
            }
          ],
          "internalType": "struct VerifierInterface.Asset",
          "name": "asset",
          "type": "tuple"
        },
        {
          "internalType": "bytes32",
          "name": "recipient",
          "type": "bytes32"
        },
        {
          "internalType": "bytes32",
          "name": "transactionsDigest",
          "type": "bytes32"
        },
        {
          "internalType": "bytes32",
          "name": "nonce",
          "type": "bytes32"
        },
        {
          "internalType": "bytes32[]",
          "name": "recipientMerkleSiblings",
          "type": "bytes32[]"
        },
        {
          "components": [
            {
              "internalType": "uint256",
              "name": "index",
              "type": "uint256"
            },
            {
              "internalType": "bytes32",
              "name": "value",
              "type": "bytes32"
            },
            {
              "internalType": "bytes32[]",
              "name": "siblings",
              "type": "bytes32[]"
            }
          ],
          "internalType": "struct MerkleTreeInterface.MerkleProof",
          "name": "diffTreeInclusionProof",
          "type": "tuple"
        }
      ],
      "name": "testVerifyAsset",
      "outputs": [
        {
          "internalType": "bool",
          "name": "ok",
          "type": "bool"
        }
      ],
      "stateMutability": "view",
      "type": "function"
    },
    {
      "inputs": [
        {
          "internalType": "uint256",
          "name": "",
          "type": "uint256"
        }
      ],
      "name": "transactionsDigestHistory",
      "outputs": [
        {
          "internalType": "bytes32",
          "name": "",
          "type": "bytes32"
        }
      ],
      "stateMutability": "view",
      "type": "function"
    },
    {
      "inputs": [
        {
          "internalType": "address",
          "name": "newOwner",
          "type": "address"
        }
      ],
      "name": "transferOwnership",
      "outputs": [],
      "stateMutability": "nonpayable",
      "type": "function"
    },
    {
      "inputs": [
        {
          "internalType": "bytes32",
          "name": "left",
          "type": "bytes32"
        },
        {
          "internalType": "bytes32",
          "name": "right",
          "type": "bytes32"
        }
      ],
      "name": "two_to_one",
      "outputs": [
        {
          "internalType": "bytes32",
          "name": "hash_out",
          "type": "bytes32"
        }
      ],
      "stateMutability": "view",
      "type": "function"
    },
    {
      "inputs": [
        {
          "components": [
            {
              "internalType": "uint256",
              "name": "blockNumber",
              "type": "uint256"
            },
            {
              "internalType": "bytes32",
              "name": "prevBlockHash",
              "type": "bytes32"
            },
            {
              "internalType": "bytes32",
              "name": "blockHeadersDigest",
              "type": "bytes32"
            },
            {
              "internalType": "bytes32",
              "name": "transactionsDigest",
              "type": "bytes32"
            },
            {
              "internalType": "bytes32",
              "name": "depositDigest",
              "type": "bytes32"
            },
            {
              "internalType": "bytes32",
              "name": "proposedWorldStateDigest",
              "type": "bytes32"
            },
            {
              "internalType": "bytes32",
              "name": "approvedWorldStateDigest",
              "type": "bytes32"
            },
            {
              "internalType": "bytes32",
              "name": "latestAccountDigest",
              "type": "bytes32"
            }
          ],
          "internalType": "struct VerifierInterface.BlockHeader",
          "name": "blockHeader",
          "type": "tuple"
        },
        {
          "internalType": "bytes",
          "name": "witness",
          "type": "bytes"
        }
      ],
      "name": "updateTransactionsDigest",
      "outputs": [],
      "stateMutability": "nonpayable",
      "type": "function"
    },
    {
      "inputs": [
        {
          "components": [
            {
              "internalType": "bytes32",
              "name": "tokenAddress",
              "type": "bytes32"
            },
            {
              "internalType": "uint256",
              "name": "tokenId",
              "type": "uint256"
            },
            {
              "internalType": "uint256",
              "name": "amount",
              "type": "uint256"
            }
          ],
          "internalType": "struct VerifierInterface.Asset[]",
          "name": "assets",
          "type": "tuple[]"
        },
        {
          "internalType": "bytes32",
          "name": "recipient",
          "type": "bytes32"
        },
        {
          "internalType": "bytes",
          "name": "witness",
          "type": "bytes"
        }
      ],
      "name": "verifyAssets",
      "outputs": [
        {
          "internalType": "bool",
          "name": "ok",
          "type": "bool"
        }
      ],
      "stateMutability": "view",
      "type": "function"
    },
    {
      "inputs": [
        {
          "internalType": "bytes32",
          "name": "blockHash",
          "type": "bytes32"
        },
        {
          "internalType": "bytes",
          "name": "witness",
          "type": "bytes"
        }
      ],
      "name": "verifyBlockHash",
      "outputs": [
        {
          "internalType": "bool",
          "name": "ok",
          "type": "bool"
        }
      ],
      "stateMutability": "view",
      "type": "function"
    }
  ],
  "bytecode": "0x61020060405260116080908152600f60a052602960c052601060e052600261010052601c61012052600d6101408190526101605260276101805260126101a05260226101c05260146101e0526200005b90606690600c620018ab565b50604080516101808101825260088152600060208201819052918101829052606081018290526080810182905260a0810182905260c0810182905260e08101829052610100810182905261012081018290526101408101829052610160810191909152620000ce90607290600c620018ab565b5060408051612d008101825267b585f766f21444058152677746a55f43921ad7602082015267b2fb0d31cee799b491810191909152670f6760a4803427d7606082015267e10d666650f4e0126080820152678cae14cb07d09bf160a082015267d438539c95f63e9f60c082015267ef781c7ce35b4c3d60e082015267cdc4a239b0c4442661010082015267277fa208bf337bff61012082015267e17653a29da578a161014082015267c54302f225db2c766101608201526786287821f722c8816101808201526759cd1a8a41c18e556101a082015267c3b919ad495dc5746101c082015267a484c4c5ef6a07816101e082015267308bbd23dc5416cc610200820152676e4a40c18f30c09c610220820152679a2eedb70d8f8cfa61024082015267e360c6e0ae486f3861026082015267d5c7718fbfc647fb61028082015267c35eae071903ff0b6102a082015267849c2656969c4be76102c082015267c0572c8c08cbbbad6102e082015267e9fa634a21de008261030082015267f56f6d48959a600d61032082015267f7d713e806391165610340820152678297132b32825daf61036082015267ad6805e0e30b2c8a61038082015267ac51d9f5fcf8535e6103a082015267502ad7dc18c2ad876103c08201526757a1550c110b30416103e08201526766bbd30e6ce0e583610400820152670da2abef589d644e61042082015267f061274fdb150d616104408201526728b8ec3ae9c296336104608201526792a756e67e2b94136104808201526770e741ebfee965866104a082015267019d5ee2af82ec1c6104c0820152676f6f2ed7724663526104e0820152677cf416cfe7e14ca16105008201526761df517b86a464396105208201526785dc499b11d77b75610540820152674b959b48b9c1073361056082015267e8be3e5da8043e5761058082015267f5c0bc1de6da86996105a08201526740b12cbf09ef74bf6105c082015267a637093ecb2ad6316105e0820152673cc3f892184df408610600820152672e479dc157bf31bb610620820152676f49de07a623434661064082015267213ce7bede378d7b610660820152675b0431345d4dea8361068082015267a2de45780344d6a16106a0820152677103aaf94a7bf3086106c0820152675326fc0d972793016106e082015267a9ceb74fec0247476107008201526727f8ec88bb21b1a361072082015267fceb4fda1ded089361074082015267fac6ff1346a41675610760820152677131aa45268d7d8c610780820152679351036095630f9f6107a082015267ad535b24afc26bfb6107c0820152674627f5c6993e44be6107e082015267645cf794b8f1cc5861080082015267241c70ed0af6161761082082015267acb8e076647905f1610840820152673737e9db4c4f474d61086082015267e7ea5e33e75fffb66108808201526790dee49fc9bfc23a6108a082015267d1b1edf76bc09c926108c0820152670b65481ba645c6026108e08201526799ad1aab0814283b61090082015267438a7c91d416ca4d61092082015267b60de3bcc5ea751c61094082015267c99cab6aef6f58bc6109608201526769a5ed92a72ee4ff610980820152675e7b329c1ed4ad716109a0820152675fc0ac08001448856109c08201526732db829239774eca6109e0820152670ade699c5830f310610a00820152677cc5583b10415f21610a208201526785df9ed2e166d64f610a40820152676604df4fee32bcb1610a6082015267eb84f608da56ef48610a8082015267da608834c40e603d610aa0820152678f97fe408061f183610ac082015267a93f485c96f37b89610ae0820152676704e8ee8f18d563610b0082015267cee3e9ac1e072119610b2082015267510d0e65e2b470c1610b4082015267f6323f486b9038f0610b60820152670b508cdeffa5ceef610b8082015267f2417089e4fb3cbd610ba08201526760e75c2890d15730610bc082015267a6217d8bf660f29c610be0820152677159cd30c3ac118e610c0082015267839b4e8fafead540610c20820152670d3f3e5e82920adc610c40820152678f7d83bddee7bba8610c6082015267780f2243ea071d06610c8082015267eb915845f3de1634610ca082015267d19e120d26b6f386610cc082015267016ee53a7e5fecc6610ce082015267cb5fd54e7933e477610d0082015267acb8417879fd449f610d20820152679c22190be7f74732610d40820152675d693c1ba3ba3621610d6082015267dcef0797c2b69ec7610d80820152673d639263da827b13610da082015267e273fd971bc8d0e7610dc082015267418f02702d227ed5610de0820152678c25fda3b503038c610e00820152672cbaed4daec8c07c610e20820152675f58e6afcdd6ddc2610e4082015267284650ac5e1b0eba610e6082015267635b337ee819dab5610e80820152679f9a036ed4f2d49f610ea082015267b93e260cae5c170e610ec082015267b0a7eae879ddb76d610ee082015267d0762cbc8ca6570c610f008201526734c6efb812b04bf5610f208201526740bf0ab5fa14c112610f4082015267b6b570fc7c5740d3610f60820152675a27b9002de33454610f8082015267b1a5b165b6d2b2d2610fa0820152678722e0ace9d1be22610fc082015267788ee3b37e5680fb610fe08201526714a726661551e2846110008201526798b7672f9ef3b41961102082015267bb93ae776bb30e3a6110408201526728fd3b046380f8506110608201526730a468059325838761108082015267337dc00c61bd9ce16110a082015267d5eca244c7a4ff1d6110c0820152677762638264d279bd6110e082015267c1e434bedeefd767611100820152670299351a53b8ec2261112082015267b2d456e4ad251b80611140820152673e9ed1fda49cea0b611160820152672972a92ba450bed86111808201526720216dd77be493de6111a082015267adffe8cf28449ec66111c0820152671c4dbb1c4c27d2436111e08201526715a16a8a8322d45861120082015267388a128b7fd9a609611220820152672300e5d6baedf0fb611240820152672f63aa8647e1510461126082015267f1c36ce86ecec2696112808201526727181125183970c96112a082015267e584029370dca96d6112c0820152674d9bbc3e02f1cfb26112e082015267ea35bc29692af6f86113008201526718e21b4beabb4137611320820152671e3b9fc625b554f46113408201526725d64362697828fd611360820152675a3f1bb1c53a964561138082015267db7f023869fb8d386113a082015267b462065911d4e1fc6113c08201526749c24ae4437d80306113e082015267d793862c112b056661140082015267aadd1106730d8feb61142082015267c43b6e0e97b0d56861144082015267e29024c18ee6fca2611460820152675e50c27535b88c666114808201526710383f20a4ff9a876114a08201526738e8ee9d71a45af86114c082015267dd5118375bf1a9b96114e082015267775005982d74d7f76115008201526786ab99b4dde6c8b061152082015267b1204f603f51c08061154082015267ef61ac8470250ecf611560820152671bbcd90f132c603f611580820152670cd1dabd964db5576115a08201526711a3ae5beb9d1ec96115c082015267f755bfeea585d11d6115e082015267a3b83250268ea4d761160082015267516306f4927c93af61162082015267ddb4ac49c9efa1da6116408201526764bb6dec369d441861166082015267f9cc95c22b4c1fcc6116808201526708d37f755f4ae9f66116a082015267eec49b613478675b6116c082015267f143933aed25e0b06116e082015267e4c5dd8255dfc62261170082015267e7ad7756f193198e6117208201526792c2318b87fff9cb61174082015267739c25f8fd73596d611760820152675636cac9f16dfed061178082015267dd8f909a938e01726117a082015267c6401fe115063f5b6117c0820152678ad97b33f1ac14556117e0820152670c49366bb25e8513611800820152670784d3d2f169830961182082015267530fb67ea1809a8161184082015267410492299bb01f4961186082015267139542347424b9ac611880820152679cb0bd5ea1a1115e6118a08201526702e3f615c38f49a16118c082015267985d4f4a9c5291ef6118e082015267775b9feafdcd26e761190082015267304265a6384f0f2d61192082015267593664c39773012c611940820152674f0a2e5fb028f2ce61196082015267dd611f1000c1744261198082015267d8185f9adfea4fd06119a082015267ef87139ca9a3ab1e6119c0820152673ba71336c34ee1336119e0820152677d3a455d56b70238611a0082015267660d32e130182684611a2082015267297a863f48cd1f43611a408201526790e0a736a751ebb7611a6082015267549f80ce550c4fd3611a80820152670f73b2922f38bd64611aa08201526716bf1f73fb7a9c3f611ac0820152676d1f5a59005bec17611ae08201526702ff876fa5ef97c4611b0082015267c5cb72a2a51159b0611b20820152678470f39d2d5c900e611b408201526725abb3f1d39fcb76611b608201526723eb8cc9b372442f611b8082015267d687ba55c64f6364611ba082015267da8d9e90fd8ff158611bc082015267e3cbdc7d2fe45ea7611be082015267b9a8c9b3aee52297611c0082015267c0d28a5c10960bd3611c208201526745d7ac9b68f71a34611c4082015267eeb76e397069e804611c60820152673d06c8bd1514e2d9611c80820152679c9c98207cb10767611ca08201526765700b51aedfb5ef611cc082015267911f451539869408611ce0820152677ae6849fbc3a0ec6611d00820152673bb340eba06afe7e611d2082015267b46e9d8b682ea65e611d40820152678dcf22f9a3b34356611d608201526777bdaeda586257a7611d8082015267f19e400a5104d20d611da082015267c368a348e46d950f611dc0820152679ef1cd60e679f284611de082015267e89cd854d5d01d33611e00820152675cd377dc8bb882a2611e2082015267a7b0fb7883eee860611e40820152677684403ec392950d611e60820152675fa3f06f4fed3b52611e80820152678df57ac11bc04831611ea0820152672db01efa1e1e1897611ec08201526754846de4aadb9ca2611ee082015267ba6745385893c784611f0082015267541d496344d2c75b611f2082015267e909678474e687fe611f4082015267dfe89923f6c9c2ff611f6082015267ece5a71e0cfedc75611f80820152675ff98fd5d51fe610611fa08201526783e8941918964615611fc0820152675922040b47f150c1611fe082015267f97d750e3dd94521612000820152675080d4c2b86f56d761202082015267a7de115b56c78d70612040820152676a9242ac8753819461206082015267f7856ef7f9173e44612080820152672265fc92feb0dc096120a08201526717dfc8e4f7ba8a576120c0820152679001a64209f21db86120e08201526790004c1371b893c561210082015267b932b7cf752e554561212082015267a0b1df81b6fe59fc612140820152678ef1dd26770af2c2612160820152670541a4f9cfbeed35612180820152679e61106178bfc5306121a082015267b3767e80935d8af26121c08201526698d5782065af066121e08201526731d191cd5c1466c761220082015267410fefafa319ac9d61222082015267bdf8f242e316c4ab612240820152679e8cd55b57637ed061226082015267de122bebe9a39368612280820152674d001fd58f0025266122a082015267ca6637000eb4a9f86122c0820152672f2339d624f91f786122e0820152676d1a7918c80df51861230082015267df9a4939342308e961232082015267ebc2151ee6c8398c6123408201526703cc2ba8a111651561236082015267d341d037e840cf8361238082015267387cb5d25af4afcc6123a082015267bba2515f22909e876123c0820152677248fe7705f38e476123e0820152674d61e56a525d225a61240082015267262e963c8da05d3d6124208201526759e89b094d220ec261244082015267055d5b52b78b9c5e6124608201526782b27eb33514ef9961248082015267d30094ca96b7ce7b6124a082015267cf5cb381cd0a15356124c082015267feed4db6919e5a7c6124e08201526741703f53753be59f612500820152675eeea940fcde8b6f612520820152674cd1f1b175100206612540820152674a20358574454ec0612560820152671478d361dbbf9fac612580820152676f02dc07d141875c6125a082015267296a202ed8e556a26125c0820152672afd67999bf32ee56125e0820152677acfd96efa95491d612600820152676798ba0c0abb2c6d6126208201526734c6f57b26c92122612640820152675736e1bad206b5de6126608201526720057d2a0056521b612680820152673dea5bd5d0578bd76126a08201526716e50d897d4634ac6126c08201526729bff3ecb9b7a6e36126e082015267475cd3205a3bdcde6127008201526718a42105c31b7e8861272082015267023e7414af6630686127408201526715147108121967d761276082015267e4a3dff1d7d6fef96127808201526701a8d1a5880857376127a08201526711b4c74eda62beef6127c082015267e587cc0d69a733466127e0820152671ff7327017aa2a6e61280082015267594e29c42473d06b61282082015267f6f31db1899b12d561284082015267c02ac5e47312d3ca61286082015267e70201e960cb78b8612880820152676f90ff3b6a65f1086128a08201526742747a7245e7fa846128c082015267d1f507e43ab749b26128e0820152671c86d265f15750cd612900820152673996ce73dd832c1c612920820152678e7fba02983224bd61294082015267ba0dec7103255dd4612960820152679e9cbd781628fc5b61298082015267dae8645996edd6a56129a082015267debe0853b1a1d3786129c082015267a49229d24d0143436129e0820152677be5b9ffda905e1c612a0082015267a3c95eaec244aa30612a20820152670230bca8f4df0544612a40820152674135c2bebfe148c6612a6082015267166fc0cc438a3c72612a80820152673762b59a8ae83efa612aa082015267e8928a4c89114750612ac0820152672a440b51a4945ee5612ae08201526780cefd2b7d99ff83612b0082015267bb9879c6e61fd62a612b20820152676e7c8f1a84265034612b4082015267164bb2de1bbeddc8612b6082015267f3c12fe54d5c653b612b808201526740b9e922ed9771e2612ba082015267551f5b0fbe7b1840612bc08201526725032aa7c4cb1811612be082015267aaed34074b164346612c00820152678ffd96bbf9c9c81d612c208201526770fc91eb5937085c612c40820152677f795e2a5f915440612c60820152674543d9df5476d3cb612c8082015267f172d73e004fc90d612ca082015267dfd1c4febcc81238612cc082015267bc8dfb627fe558fc612ce0820152620015f990607e90610168620018f3565b503480156200160757600080fd5b5060405162004169380380620041698339810160408190526200162a9162001947565b8062001641816200164960201b620005661760201c565b505062001961565b600054610100900460ff16158080156200166a5750600054600160ff909116105b806200169a575062001687306200178160201b62000a2c1760201c565b1580156200169a575060005460ff166001145b620017035760405162461bcd60e51b815260206004820152602e60248201527f496e697469616c697a61626c653a20636f6e747261637420697320616c72656160448201526d191e481a5b9a5d1a585b1a5e995960921b60648201526084015b60405180910390fd5b6000805460ff19166001179055801562001727576000805461ff0019166101001790555b60658290556200173662001790565b80156200177d576000805461ff0019169055604051600181527f7f26b83ff96e1f2b6a682f133852f6798a09c465da95921460cefb38474024989060200160405180910390a15b5050565b6001600160a01b03163b151590565b600054610100900460ff16620017ec5760405162461bcd60e51b815260206004820152602b60248201526000805160206200414983398151915260448201526a6e697469616c697a696e6760a81b6064820152608401620016fa565b620017f6620017f8565b565b600054610100900460ff16620018545760405162461bcd60e51b815260206004820152602b60248201526000805160206200414983398151915260448201526a6e697469616c697a696e6760a81b6064820152608401620016fa565b620017f633603380546001600160a01b038381166001600160a01b0319831681179093556040519116919082907f8be0079c531659141344cd1fd0a4f28419497f9722a3daafe3b4186f6b6457e090600090a35050565b82600c8101928215620018e1579160200282015b82811115620018e1578251829060ff16905591602001919060010190620018bf565b50620018ef92915062001930565b5090565b826101688101928215620018e1579160200282015b82811115620018e157825182906001600160401b031690559160200191906001019062001908565b5b80821115620018ef576000815560010162001931565b6000602082840312156200195a57600080fd5b5051919050565b6127d880620019716000396000f3fe608060405234801561001057600080fd5b506004361061010b5760003560e01c80638da5cb5b116100a2578063bbb6214711610071578063bbb6214714610244578063dae0384714610264578063f112b89f1461026d578063f2fde38b14610280578063f89785791461029357600080fd5b80638da5cb5b146101d55780639498bd71146101f0578063975f4aa614610203578063b93203941461022457600080fd5b8063496f3b22116100de578063496f3b22146101855780634f1202c0146101a55780635f6fb58a146101b8578063715018a6146101cb57600080fd5b806309a64441146101105780630f91e6ad14610139578063397bb6161461015c57806342ed725f1461016f575b600080fd5b61012361011e366004611cf7565b6102a6565b6040516101309190611d88565b60405180910390f35b61014c610147366004611dd6565b6102db565b6040519015158152602001610130565b61014c61016a366004611eaf565b610342565b610177600481565b604051908152602001610130565b610198610193366004611f40565b610359565b6040516101309190611fbe565b61014c6101b3366004611ff0565b610370565b6101776101c6366004612097565b6104a0565b6101d3610552565b005b6033546040516001600160a01b039091168152602001610130565b6101d36101fe3660046120b9565b610566565b6101776102113660046120b9565b6101e66020526000908152604090205481565b6102376102323660046120f5565b61067d565b6040516101309190612190565b6102576102523660046120b9565b610882565b60405161013091906121d4565b61017760655481565b6101d361027b36600461228b565b61090e565b6101d361028e3660046122c7565b610942565b6101776102a13660046122f7565b6109bb565b606085858585856040516020016102c19594939291906123a6565b604051602081830303815290604052905095945050505050565b6000610336866102f0368b90038b018b612498565b898888888080602002602001604051908101604052809392919081815260200183836020028082843760009201919091525061033192508a91506125c69050565b610a3b565b98975050505050505050565b600061034f848484610b7d565b5060019392505050565b610361611c64565b61036a82610ca4565b92915050565b600080808080610382868801886125d2565b805160009081526101e6602052604090205493975091955093509150806103ff5760405162461bcd60e51b815260206004820152602660248201527f5472616e73616374696f6e732064696765737420776173206e6f7420726567696044820152651cdd195c995960d21b60648201526084015b60405180910390fd5b60018a1461045b5760405162461bcd60e51b815260206004820152602360248201527f4f6e6c79206f6e652074797065206f6620617373657420697320617661696c61604482015262626c6560e81b60648201526084016103f6565b610491818c8c600081811061047257610472612651565b9050606002018036038101906104889190612498565b8b888888610a3b565b9b9a5050505050505050505050565b6000806104ac84610882565b905060006104b984610882565b90506104c3611c64565b82518152602080840151828201526040808501518184015260608086015181850152845160808501529184015160a084015283015160c083015282015160e082015261050e81610ca4565b9050610518611c83565b81518152602080830151908201526040808301519082015260608201518160035b6020020152610547816109bb565b979650505050505050565b61055a610d63565b6105646000610dbd565b565b600054610100900460ff16158080156105865750600054600160ff909116105b806105a05750303b1580156105a0575060005460ff166001145b6106035760405162461bcd60e51b815260206004820152602e60248201527f496e697469616c697a61626c653a20636f6e747261637420697320616c72656160448201526d191e481a5b9a5d1a585b1a5e995960921b60648201526084016103f6565b6000805460ff191660011790558015610626576000805461ff0019166101001790555b6065829055610633610e0f565b8015610679576000805461ff0019169055604051600181527f7f26b83ff96e1f2b6a682f133852f6798a09c465da95921460cefb38474024989060200160405180910390a15b5050565b6060610687611c64565b60005b600c8110156106be5760008282600c81106106a7576106a7612651565b6020020152806106b68161267d565b91505061068a565b506000600885516106cf91906126ac565b90506000600886516106e191906126c0565b905060005b828110156107705760005b60088110156107525787816107076008856126d4565b61071191906126eb565b8151811061072157610721612651565b60200260200101518582600c811061073b5761073b612651565b60200201528061074a8161267d565b9150506106f1565b5061075c84610ca4565b9350806107688161267d565b9150506106e6565b5060005b818110156107d45786816107896008866126d4565b61079391906126eb565b815181106107a3576107a3612651565b60200260200101518482600c81106107bd576107bd612651565b6020020152806107cc8161267d565b915050610774565b506107de83610ca4565b92506000856001600160401b038111156107fa576107fa611efa565b604051908082528060200260200182016040528015610823578160200160208202803683370190505b50905060005b86811015610877578481600c811061084357610843612651565b602002015182828151811061085a5761085a612651565b60209081029190910101528061086f8161267d565b915050610829565b509695505050505050565b61088a611c83565b60008260405160200161089f91815260200190565b6040516020818303038152906040528060200190518101906108c191906126fe565b90506108d1600160401b826126c0565b825260401c6108e4600160401b826126c0565b602083015260401c6108fa600160401b826126c0565b6040808401919091521c6060820152919050565b600061091984610e3e565b9050610926818484610b7d565b5050506060810151905160009081526101e66020526040902055565b61094a610d63565b6001600160a01b0381166109af5760405162461bcd60e51b815260206004820152602660248201527f4f776e61626c653a206e6577206f776e657220697320746865207a65726f206160448201526564647265737360d01b60648201526084016103f6565b6109b881610dbd565b50565b6060810151604080830151602080850151855184516001600160c01b031960c097881b81169482019490945293861b8316602885015290851b8216603084015290931b90921660388301526000910160405160208183030381529060405280602001905181019061036a91906126fe565b6001600160a01b03163b151590565b604080516001808252818301909252600091829190816020015b6040805160608101825260008082526020808301829052928201528252600019909201910181610a555790505090508681600081518110610a9857610a98612651565b60200260200101819052506000610ab182888789610ef9565b905083602001518114610b065760405162461bcd60e51b815260206004820152601f60248201527f4661696c20746f20766572696679207472616e73616374696f6e20686173680060448201526064016103f6565b6000610b118561107b565b9050898114610b6d5760405162461bcd60e51b815260206004820152602260248201527f4661696c20746f20766572696679207472616e73616374696f6e7320646967656044820152611cdd60f21b60648201526084016103f6565b5060019998505050505050505050565b6000610bd6846040517f19457468657265756d205369676e6564204d6573736167653a0a3332000000006020820152603c8101829052600090605c01604051602081830303815290604052805190602001209050919050565b90506000610c1a8285858080601f01602080910402602001604051908101604052809392919081815260200183838082843760009201919091525061111992505050565b9050610c2e6033546001600160a01b031690565b6001600160a01b0316816001600160a01b031614610c9d5760405162461bcd60e51b815260206004820152602660248201527f4661696c20746f207665726966792061676772656761746f722773207369676e60448201526530ba3ab9329760d11b60648201526084016103f6565b5050505050565b610cac611c64565b6000610cb8838261113d565b9093509050610cc7838261118f565b9093509050610cd6838261113d565b909350905060005b600c811015610d3857610d0f8482600c8110610cfc57610cfc612651565b602002015167ffffffff00000001900690565b8482600c8110610d2157610d21612651565b602002015280610d308161267d565b915050610cde565b506016610d47600460026126d4565b610d5191906126eb565b8114610d5c57600080fd5b5090919050565b6033546001600160a01b031633146105645760405162461bcd60e51b815260206004820181905260248201527f4f776e61626c653a2063616c6c6572206973206e6f7420746865206f776e657260448201526064016103f6565b603380546001600160a01b038381166001600160a01b0319831681179093556040519116919082907f8be0079c531659141344cd1fd0a4f28419497f9722a3daafe3b4186f6b6457e090600090a35050565b600054610100900460ff16610e365760405162461bcd60e51b81526004016103f690612717565b6105646111ea565b6000610e52826060015183608001516104a0565b905060008260000151604051602001610e6d91815260200190565b604051602081830303815290604052806020019051810190610e8f91906126fe565b90506000610ea1828560e001516104a0565b90506000610eb7856080015186606001516104a0565b90506000610ec583836104a0565b90506000610edb8760a001518860c001516104a0565b90506000610ee983836104a0565b90506103368860400151826104a0565b60008451600114610f0957600080fd5b600085600081518110610f1e57610f1e612651565b602002602001015160200151604051602001610f3c91815260200190565b604051602081830303815290604052806020019051810190610f5e91906126fe565b9050600086600081518110610f7557610f75612651565b602002602001015160400151604051602001610f9391815260200190565b604051602081830303815290604052806020019051810190610fb591906126fe565b90506000610fc3838361121a565b90506000610fef89600081518110610fdd57610fdd612651565b6020026020010151600001518361121a565b90506000610ffd898361121a565b905060008960405160200161101491815260200190565b60405160208183030381529060405280602001905181019061103691906126fe565b60408051606081018252828152602081018590529081018b9052909150600061105e826114c9565b905061106a818b6104a0565b9d9c50505050505050505050505050565b6020810151815160009190825b84604001515181101561111057600182811c928116908190036110d3576110cc866040015183815181106110be576110be612651565b6020026020010151856104a0565b93506110fd565b6110fa84876040015184815181106110ed576110ed612651565b60200260200101516104a0565b93505b50806111088161267d565b915050611088565b50909392505050565b60008060006111288585611571565b91509150611135816115b3565b509392505050565b611145611c64565b6000805b60048110156111805761115c85856116fd565b9450611167856118d3565b945061117285611921565b945060019384019301611149565b508383915091505b9250929050565b611197611c64565b6000805b6016811015611180576111ae85856116fd565b94506111d18560005b602002015167ffffffff0000000181800282020680020290565b85526111dc85611921565b94506001938401930161119b565b600054610100900460ff166112115760405162461bcd60e51b81526004016103f690612717565b61056433610dbd565b60008061122684610882565b9050600061123384610882565b60408051600c8082526101a082019092529192506000919060208201610180803683375050845182519293509183915060009061127257611272612651565b602090810291909101015282600160200201518160018151811061129857611298612651565b60209081029190910101528260026020020151816002815181106112be576112be612651565b60209081029190910101528260036020020151816003815181106112e4576112e4612651565b6020908102919091010152815181518290600490811061130657611306612651565b602090810291909101015281600160200201518160058151811061132c5761132c612651565b602090810291909101015281600260200201518160068151811061135257611352612651565b602090810291909101015281600360200201518160078151811061137857611378612651565b60200260200101818152505060018160088151811061139957611399612651565b6020026020010181815250506001816009815181106113ba576113ba612651565b602002602001018181525050600181600b815181106113db576113db612651565b6020026020010181815250506113f281600461067d565b90506113fc611c83565b8160008151811061140f5761140f612651565b60200260200101518160006004811061142a5761142a612651565b602002015281518290600190811061144457611444612651565b60200260200101518160016004811061145f5761145f612651565b602002015281518290600290811061147957611479612651565b60200260200101518160026004811061149457611494612651565b60200201528151829060039081106114ae576114ae612651565b60200260200101518160036004811061053957610539612651565b60208101516040820151516000919082906114e690610100612762565b8451604086015151911b91505b801561111057600182811b9260ff1c9081900361153557604086015161152e9061151e600185612762565b815181106110be576110be612651565b935061155e565b61155b84876040015160018561154b9190612762565b815181106110ed576110ed612651565b93505b508061156981612775565b9150506114f3565b60008082516041036115a75760208301516040840151606085015160001a61159b878285856119ef565b94509450505050611188565b50600090506002611188565b60008160048111156115c7576115c761278c565b036115cf5750565b60018160048111156115e3576115e361278c565b036116305760405162461bcd60e51b815260206004820152601860248201527f45434453413a20696e76616c6964207369676e6174757265000000000000000060448201526064016103f6565b60028160048111156116445761164461278c565b036116915760405162461bcd60e51b815260206004820152601f60248201527f45434453413a20696e76616c6964207369676e6174757265206c656e6774680060448201526064016103f6565b60038160048111156116a5576116a561278c565b036109b85760405162461bcd60e51b815260206004820152602260248201527f45434453413a20696e76616c6964207369676e6174757265202773272076616c604482015261756560f01b60648201526084016103f6565b611705611c64565b8251600c83029061172b90607e83610168811061172457611724612651565b0154611ab3565b8252602084015161174d90607e60018401610168811061172457611724612651565b6020830152604084015161177290607e60028401610168811061172457611724612651565b6040830152606084015161179790607e60038401610168811061172457611724612651565b606083015260808401516117bc90607e60048401610168811061172457611724612651565b608083015260a08401516117e190607e60058401610168811061172457611724612651565b60a083015260c084015161180690607e60068401610168811061172457611724612651565b60c083015260e084015161182b90607e60078401610168811061172457611724612651565b60e083015261010084015161185190607e60088401610168811061172457611724612651565b61010083015261012084015161187890607e60098401610168811061172457611724612651565b61012083015261014084015161189f90607e600a8401610168811061172457611724612651565b6101408301526101608401516118c690607e600b8401610168811061172457611724612651565b6101608301525092915050565b6118db611c64565b60005b600c81101561191b576118fc8382600c81106111b7576111b7612651565b8282600c811061190e5761190e612651565b60200201526001016118de565b50919050565b611929611c64565b611934600083611ac8565b8152611941600183611ac8565b6020820152611951600283611ac8565b6040820152611961600383611ac8565b6060820152611971600483611ac8565b6080820152611981600583611ac8565b60a0820152611991600683611ac8565b60c08201526119a1600783611ac8565b60e08201526119b1600883611ac8565b6101008201526119c2600983611ac8565b6101208201526119d3600a83611ac8565b6101408201526119e4600b83611ac8565b610160820152919050565b6000807f7fffffffffffffffffffffffffffffff5d576e7357a4501ddfe92f46681b20a0831115611a265750600090506003611aaa565b6040805160008082526020820180845289905260ff881692820192909252606081018690526080810185905260019060a0016020604051602081039080840390855afa158015611a7a573d6000803e3d6000fd5b5050604051601f1901519150506001600160a01b038116611aa357600060019250925050611aaa565b9150600090505b94509492505050565b600067ffffffff000000018284089392505050565b600060118284600c8110611ade57611ade612651565b60200201510201600f82600c6001860106600c8110611aff57611aff612651565b60200201510201602982600c6002860106600c8110611b2057611b20612651565b60200201510201601082600c6003860106600c8110611b4157611b41612651565b60200201510201600282600c6004860106600c8110611b6257611b62612651565b60200201510201601c82600c6005860106600c8110611b8357611b83612651565b60200201510201600d82600c6006860106600c8110611ba457611ba4612651565b60200201510201600d82600c6007860106600c8110611bc557611bc5612651565b60200201510201602782600c6008860106600c8110611be657611be6612651565b60200201510201601282600c6009860106600c8110611c0757611c07612651565b60200201510201602282600c600a860106600c8110611c2857611c28612651565b60200201510201601482600c600b860106600c8110611c4957611c49612651565b60200201510201600083900361036a57905160080201919050565b604051806101800160405280600c906020820280368337509192915050565b60405180608001604052806004906020820280368337509192915050565b60008083601f840112611cb357600080fd5b5081356001600160401b03811115611cca57600080fd5b6020830191508360208260051b850101111561118857600080fd5b60006060828403121561191b57600080fd5b6000806000806000858703610160811215611d1157600080fd5b8635955060208701356001600160401b0380821115611d2f57600080fd5b611d3b8a838b01611ca1565b90975095506040890135915080821115611d5457600080fd5b50611d6189828a01611ce5565b935050610100605f1982011215611d7757600080fd5b506060860190509295509295909350565b600060208083528351808285015260005b81811015611db557858101830151858201604001528201611d99565b506000604082860101526040601f19601f8301168501019250505092915050565b6000806000806000806000610100888a031215611df257600080fd5b611dfc8989611ce5565b9650606088013595506080880135945060a0880135935060c08801356001600160401b0380821115611e2d57600080fd5b611e398b838c01611ca1565b909550935060e08a0135915080821115611e5257600080fd5b50611e5f8a828b01611ce5565b91505092959891949750929550565b60008083601f840112611e8057600080fd5b5081356001600160401b03811115611e9757600080fd5b60208301915083602082850101111561118857600080fd5b600080600060408486031215611ec457600080fd5b8335925060208401356001600160401b03811115611ee157600080fd5b611eed86828701611e6e565b9497909650939450505050565b634e487b7160e01b600052604160045260246000fd5b604051601f8201601f191681016001600160401b0381118282101715611f3857611f38611efa565b604052919050565b6000610180808385031215611f5457600080fd5b83601f840112611f6357600080fd5b6040518181018181106001600160401b0382111715611f8457611f84611efa565b604052908301908085831115611f9957600080fd5b845b83811015611fb3578035825260209182019101611f9b565b509095945050505050565b6101808101818360005b600c811015611fe7578151835260209283019290910190600101611fc8565b50505092915050565b60008060008060006060868803121561200857600080fd5b85356001600160401b038082111561201f57600080fd5b818801915088601f83011261203357600080fd5b81358181111561204257600080fd5b89602060608302850101111561205757600080fd5b6020928301975095509087013593506040870135908082111561207957600080fd5b5061208688828901611e6e565b969995985093965092949392505050565b600080604083850312156120aa57600080fd5b50508035926020909101359150565b6000602082840312156120cb57600080fd5b5035919050565b60006001600160401b038211156120eb576120eb611efa565b5060051b60200190565b6000806040838503121561210857600080fd5b82356001600160401b0381111561211e57600080fd5b8301601f8101851361212f57600080fd5b8035602061214461213f836120d2565b611f10565b82815260059290921b8301810191818101908884111561216357600080fd5b938201935b8385101561218157843582529382019390820190612168565b98969091013596505050505050565b6020808252825182820181905260009190848201906040850190845b818110156121c8578351835292840192918401916001016121ac565b50909695505050505050565b60808101818360005b6004811015611fe75781518352602092830192909101906001016121dd565b600061010080838503121561221057600080fd5b604051908101906001600160401b038211818310171561223257612232611efa565b81604052809250833581526020840135602082015260408401356040820152606084013560608201526080840135608082015260a084013560a082015260c084013560c082015260e084013560e0820152505092915050565b600080600061012084860312156122a157600080fd5b6122ab85856121fc565b92506101008401356001600160401b03811115611ee157600080fd5b6000602082840312156122d957600080fd5b81356001600160a01b03811681146122f057600080fd5b9392505050565b60006080828403121561230957600080fd5b82601f83011261231857600080fd5b604051608081018181106001600160401b038211171561233a5761233a611efa565b60405280608084018581111561234f57600080fd5b845b81811015612369578035835260209283019201612351565b509195945050505050565b81835260006001600160fb1b0383111561238d57600080fd5b8260051b80836020870137939093016020019392505050565b60006101608783528060208401526123c18184018789612374565b9050828103604084015284358152602085013560208201526040850135601e198636030181126123f057600080fd5b85016020810190356001600160401b0381111561240c57600080fd5b8060051b360382131561241e57600080fd5b60606040840152612433606084018284612374565b935050505061248e6060830184803582526020810135602083015260408101356040830152606081013560608301526080810135608083015260a081013560a083015260c081013560c083015260e081013560e08301525050565b9695505050505050565b6000606082840312156124aa57600080fd5b604051606081018181106001600160401b03821117156124cc576124cc611efa565b80604052508235815260208301356020820152604083013560408201528091505092915050565b600082601f83011261250457600080fd5b8135602061251461213f836120d2565b82815260059290921b8401810191818101908684111561253357600080fd5b8286015b848110156108775780358352918301918301612537565b60006060828403121561256057600080fd5b604051606081016001600160401b03828210818311171561258357612583611efa565b81604052829350843583526020850135602084015260408501359150808211156125ac57600080fd5b506125b9858286016124f3565b6040830152505092915050565b600061036a368361254e565b60008060008061016085870312156125e957600080fd5b8435935060208501356001600160401b038082111561260757600080fd5b612613888389016124f3565b9450604087013591508082111561262957600080fd5b506126368782880161254e565b92505061264686606087016121fc565b905092959194509250565b634e487b7160e01b600052603260045260246000fd5b634e487b7160e01b600052601160045260246000fd5b60006001820161268f5761268f612667565b5060010190565b634e487b7160e01b600052601260045260246000fd5b6000826126bb576126bb612696565b500490565b6000826126cf576126cf612696565b500690565b808202811582820484141761036a5761036a612667565b8082018082111561036a5761036a612667565b60006020828403121561271057600080fd5b5051919050565b6020808252602b908201527f496e697469616c697a61626c653a20636f6e7472616374206973206e6f74206960408201526a6e697469616c697a696e6760a81b606082015260800190565b8181038181111561036a5761036a612667565b60008161278457612784612667565b506000190190565b634e487b7160e01b600052602160045260246000fdfea26469706673582212208110b14fd65be17bd5919903afc08a71da023fe2c4e526911ffc21165466f30e64736f6c63430008110033496e697469616c697a61626c653a20636f6e7472616374206973206e6f742069",
  "linkReferences": {},
  "deployedLinkReferences": {}
}