{
  "_format": "hh-sol-artifact-1",
  "contractName": "OfferManagerV2Test",
  "sourceName": "contracts/OfferManagerV2.test.sol",
  "abi": [
    {
      "inputs": [],
      "stateMutability": "nonpayable",
      "type": "constructor"
    },
    {
      "anonymous": false,
      "inputs": [
        {
          "indexed": false,
          "internalType": "uint8",
          "name": "version",
          "type": "uint8"
        }
      ],
      "name": "Initialized",
      "type": "event"
    },
    {
      "anonymous": false,
      "inputs": [
        {
          "indexed": true,
          "internalType": "uint256",
          "name": "offerId",
          "type": "uint256"
        },
        {
          "indexed": true,
          "internalType": "bytes32",
          "name": "takerIntmaxAddress",
          "type": "bytes32"
        }
      ],
      "name": "OfferActivated",
      "type": "event"
    },
    {
      "anonymous": false,
      "inputs": [
        {
          "indexed": true,
          "internalType": "uint256",
          "name": "offerId",
          "type": "uint256"
        }
      ],
      "name": "OfferDeactivated",
      "type": "event"
    },
    {
      "anonymous": false,
      "inputs": [
        {
          "indexed": true,
          "internalType": "uint256",
          "name": "offerId",
          "type": "uint256"
        },
        {
          "indexed": true,
          "internalType": "address",
          "name": "maker",
          "type": "address"
        },
        {
          "indexed": false,
          "internalType": "bytes32",
          "name": "makerIntmaxAddress",
          "type": "bytes32"
        },
        {
          "indexed": false,
          "internalType": "uint256",
          "name": "makerAssetId",
          "type": "uint256"
        },
        {
          "indexed": false,
          "internalType": "uint256",
          "name": "makerAmount",
          "type": "uint256"
        },
        {
          "indexed": false,
          "internalType": "address",
          "name": "taker",
          "type": "address"
        },
        {
          "indexed": false,
          "internalType": "address",
          "name": "takerTokenAddress",
          "type": "address"
        },
        {
          "indexed": false,
          "internalType": "uint256",
          "name": "takerAmount",
          "type": "uint256"
        }
      ],
      "name": "OfferRegistered",
      "type": "event"
    },
    {
      "anonymous": false,
      "inputs": [
        {
          "indexed": true,
          "internalType": "uint256",
          "name": "offerId",
          "type": "uint256"
        },
        {
          "indexed": true,
          "internalType": "bytes32",
          "name": "takerIntmaxAddress",
          "type": "bytes32"
        }
      ],
      "name": "OfferTakerUpdated",
      "type": "event"
    },
    {
      "anonymous": false,
      "inputs": [
        {
          "indexed": true,
          "internalType": "address",
          "name": "previousOwner",
          "type": "address"
        },
        {
          "indexed": true,
          "internalType": "address",
          "name": "newOwner",
          "type": "address"
        }
      ],
      "name": "OwnershipTransferred",
      "type": "event"
    },
    {
      "inputs": [
        {
          "internalType": "uint256",
          "name": "offerId",
          "type": "uint256"
        }
      ],
      "name": "activate",
      "outputs": [
        {
          "internalType": "bool",
          "name": "",
          "type": "bool"
        }
      ],
      "stateMutability": "payable",
      "type": "function"
    },
    {
      "inputs": [
        {
          "internalType": "contract VerifierInterface",
          "name": "newVerifier",
          "type": "address"
        }
      ],
      "name": "changeVerifier",
      "outputs": [],
      "stateMutability": "nonpayable",
      "type": "function"
    },
    {
      "inputs": [
        {
          "internalType": "uint256",
          "name": "offerId",
          "type": "uint256"
        },
        {
          "internalType": "bytes",
          "name": "witness",
          "type": "bytes"
        }
      ],
      "name": "checkWitness",
      "outputs": [
        {
          "internalType": "bool",
          "name": "",
          "type": "bool"
        }
      ],
      "stateMutability": "view",
      "type": "function"
    },
    {
      "inputs": [
        {
          "internalType": "uint256",
          "name": "offerId",
          "type": "uint256"
        }
      ],
      "name": "deactivate",
      "outputs": [
        {
          "internalType": "bool",
          "name": "",
          "type": "bool"
        }
      ],
      "stateMutability": "nonpayable",
      "type": "function"
    },
    {
      "inputs": [
        {
          "internalType": "uint256",
          "name": "offerId",
          "type": "uint256"
        }
      ],
      "name": "getOffer",
      "outputs": [
        {
          "internalType": "address",
          "name": "maker",
          "type": "address"
        },
        {
          "internalType": "bytes32",
          "name": "makerIntmaxAddress",
          "type": "bytes32"
        },
        {
          "internalType": "uint256",
          "name": "makerAssetId",
          "type": "uint256"
        },
        {
          "internalType": "uint256",
          "name": "makerAmount",
          "type": "uint256"
        },
        {
          "internalType": "address",
          "name": "taker",
          "type": "address"
        },
        {
          "internalType": "bytes32",
          "name": "takerIntmaxAddress",
          "type": "bytes32"
        },
        {
          "internalType": "address",
          "name": "takerTokenAddress",
          "type": "address"
        },
        {
          "internalType": "uint256",
          "name": "takerAmount",
          "type": "uint256"
        },
        {
          "internalType": "bool",
          "name": "activated",
          "type": "bool"
        }
      ],
      "stateMutability": "view",
      "type": "function"
    },
    {
      "inputs": [],
      "name": "initialize",
      "outputs": [],
      "stateMutability": "nonpayable",
      "type": "function"
    },
    {
      "inputs": [
        {
          "internalType": "address",
          "name": "newOwner",
          "type": "address"
        }
      ],
      "name": "initializeV2",
      "outputs": [],
      "stateMutability": "nonpayable",
      "type": "function"
    },
    {
      "inputs": [
        {
          "internalType": "uint256",
          "name": "offerId",
          "type": "uint256"
        }
      ],
      "name": "isActivated",
      "outputs": [
        {
          "internalType": "bool",
          "name": "",
          "type": "bool"
        }
      ],
      "stateMutability": "view",
      "type": "function"
    },
    {
      "inputs": [
        {
          "internalType": "uint256",
          "name": "offerId",
          "type": "uint256"
        }
      ],
      "name": "isRegistered",
      "outputs": [
        {
          "internalType": "bool",
          "name": "",
          "type": "bool"
        }
      ],
      "stateMutability": "view",
      "type": "function"
    },
    {
      "inputs": [],
      "name": "nextOfferId",
      "outputs": [
        {
          "internalType": "uint256",
          "name": "offerId",
          "type": "uint256"
        }
      ],
      "stateMutability": "view",
      "type": "function"
    },
    {
      "inputs": [],
      "name": "owner",
      "outputs": [
        {
          "internalType": "address",
          "name": "",
          "type": "address"
        }
      ],
      "stateMutability": "view",
      "type": "function"
    },
    {
      "inputs": [
        {
          "internalType": "bytes32",
          "name": "makerIntmaxAddress",
          "type": "bytes32"
        },
        {
          "internalType": "uint256",
          "name": "makerAssetId",
          "type": "uint256"
        },
        {
          "internalType": "uint256",
          "name": "makerAmount",
          "type": "uint256"
        },
        {
          "internalType": "address",
          "name": "taker",
          "type": "address"
        },
        {
          "internalType": "bytes32",
          "name": "takerIntmaxAddress",
          "type": "bytes32"
        },
        {
          "internalType": "address",
          "name": "takerTokenAddress",
          "type": "address"
        },
        {
          "internalType": "uint256",
          "name": "takerAmount",
          "type": "uint256"
        },
        {
          "internalType": "bytes",
          "name": "witness",
          "type": "bytes"
        }
      ],
      "name": "register",
      "outputs": [
        {
          "internalType": "uint256",
          "name": "offerId",
          "type": "uint256"
        }
      ],
      "stateMutability": "nonpayable",
      "type": "function"
    },
    {
      "inputs": [
        {
          "internalType": "bytes32",
          "name": "",
          "type": "bytes32"
        },
        {
          "internalType": "uint256",
          "name": "",
          "type": "uint256"
        },
        {
          "internalType": "uint256",
          "name": "",
          "type": "uint256"
        },
        {
          "internalType": "address",
          "name": "",
          "type": "address"
        },
        {
          "internalType": "bytes32",
          "name": "",
          "type": "bytes32"
        },
        {
          "internalType": "address",
          "name": "",
          "type": "address"
        },
        {
          "internalType": "uint256",
          "name": "",
          "type": "uint256"
        }
      ],
      "name": "register",
      "outputs": [
        {
          "internalType": "uint256",
          "name": "",
          "type": "uint256"
        }
      ],
      "stateMutability": "pure",
      "type": "function"
    },
    {
      "inputs": [],
      "name": "renounceOwnership",
      "outputs": [],
      "stateMutability": "nonpayable",
      "type": "function"
    },
    {
      "inputs": [
        {
          "internalType": "uint256",
          "name": "offerId",
          "type": "uint256"
        }
      ],
      "name": "testActivate",
      "outputs": [
        {
          "internalType": "bool",
          "name": "",
          "type": "bool"
        }
      ],
      "stateMutability": "nonpayable",
      "type": "function"
    },
    {
      "inputs": [
        {
          "internalType": "bytes32",
          "name": "makerIntmaxAddress",
          "type": "bytes32"
        },
        {
          "internalType": "uint256",
          "name": "makerAssetId",
          "type": "uint256"
        },
        {
          "internalType": "uint256",
          "name": "makerAmount",
          "type": "uint256"
        },
        {
          "internalType": "address",
          "name": "taker",
          "type": "address"
        },
        {
          "internalType": "bytes32",
          "name": "takerIntmaxAddress",
          "type": "bytes32"
        },
        {
          "internalType": "address",
          "name": "takerTokenAddress",
          "type": "address"
        },
        {
          "internalType": "uint256",
          "name": "takerAmount",
          "type": "uint256"
        }
      ],
      "name": "testRegister",
      "outputs": [
        {
          "internalType": "uint256",
          "name": "flagId",
          "type": "uint256"
        }
      ],
      "stateMutability": "nonpayable",
      "type": "function"
    },
    {
      "inputs": [
        {
          "internalType": "address",
          "name": "newOwner",
          "type": "address"
        }
      ],
      "name": "transferOwnership",
      "outputs": [],
      "stateMutability": "nonpayable",
      "type": "function"
    },
    {
      "inputs": [
        {
          "internalType": "uint256",
          "name": "offerId",
          "type": "uint256"
        },
        {
          "internalType": "bytes32",
          "name": "newTakerIntmaxAddress",
          "type": "bytes32"
        }
      ],
      "name": "updateTaker",
      "outputs": [],
      "stateMutability": "nonpayable",
      "type": "function"
    },
    {
      "inputs": [
        {
          "internalType": "bytes32",
          "name": "",
          "type": "bytes32"
        }
      ],
      "name": "usedTxHashes",
      "outputs": [
        {
          "internalType": "bool",
          "name": "",
          "type": "bool"
        }
      ],
      "stateMutability": "view",
      "type": "function"
    }
  ],
  "bytecode": "0x60806040523480156200001157600080fd5b506200001c62000022565b620002ea565b620000376200004460201b62000e651760201c565b620000423362000154565b565b600254610100900460ff1615808015620000655750600254600160ff909116105b8062000095575062000082306200021c60201b62000f2e1760201c565b15801562000095575060025460ff166001145b620000ed5760405162461bcd60e51b815260206004820152602e60248201526000805160206200210783398151915260448201526d191e481a5b9a5d1a585b1a5e995960921b60648201526084015b60405180910390fd5b6002805460ff19166001179055801562000111576002805461ff0019166101001790555b6200011b6200022b565b801562000151576002805461ff001916905560405160018152600080516020620021278339815191529060200160405180910390a15b50565b60028054610100900460ff1615801562000175575060025460ff8083169116105b620001c95760405162461bcd60e51b815260206004820152602e60248201526000805160206200210783398151915260448201526d191e481a5b9a5d1a585b1a5e995960921b6064820152608401620000e4565b6002805461ffff191660ff831617610100179055620001e88262000298565b6002805461ff001916905560405160ff82168152600080516020620021278339815191529060200160405180910390a15050565b6001600160a01b03163b151590565b600254610100900460ff16620000425760405162461bcd60e51b815260206004820152602b60248201527f496e697469616c697a61626c653a20636f6e7472616374206973206e6f74206960448201526a6e697469616c697a696e6760a81b6064820152608401620000e4565b603580546001600160a01b038381166001600160a01b0319831681179093556040519116919082907f8be0079c531659141344cd1fd0a4f28419497f9722a3daafe3b4186f6b6457e090600090a35050565b611e0d80620002fa6000396000f3fe6080604052600436106101145760003560e01c80637ec230fd116100a0578063b260c42a11610064578063b260c42a146103d1578063b75c3c01146103e4578063cf04fb9414610404578063cfea677d14610424578063f2fde38b1461044457600080fd5b80637ec230fd146103245780638129fc1c146103545780638da5cb5b14610369578063916b9bef14610391578063b1323557146103b157600080fd5b80634579268a116100e75780634579268a146101d1578063579a6988146102a25780635f5d0655146102da578063715018a6146102ef5780637d2612751461030457600080fd5b806329b6eca9146101195780632e3628e31461013b57806331809dcf1461016e57806337805585146101b1575b600080fd5b34801561012557600080fd5b506101396101343660046116b4565b610464565b005b34801561014757600080fd5b5061015b6101563660046116d8565b61050b565b6040519081526020015b60405180910390f35b34801561017a57600080fd5b506101a1610189366004611741565b60009081526001602052604090206008015460ff1690565b6040519015158152602001610165565b3480156101bd57600080fd5b506101396101cc36600461175a565b610529565b3480156101dd57600080fd5b5061024c6101ec366004611741565b60009081526001602081905260409091208054918101546002820154600383015460048401546005850154600686015460078701546008909701546001600160a01b03988916999698959794969386169592949190921692909160ff1690565b604080516001600160a01b039a8b16815260208101999099528801969096526060870194909452918616608086015260a085015290931660c083015260e082019290925290151561010082015261012001610165565b3480156102ae57600080fd5b506101a16102bd366004611741565b6000908152600160205260409020546001600160a01b0316151590565b3480156102e657600080fd5b5060005461015b565b3480156102fb57600080fd5b50610139610679565b34801561031057600080fd5b5061015b61031f366004611814565b61068d565b34801561033057600080fd5b506101a161033f366004611741565b60686020526000908152604090205460ff1681565b34801561036057600080fd5b506101396108b9565b34801561037557600080fd5b506035546040516001600160a01b039091168152602001610165565b34801561039d57600080fd5b506101a16103ac366004611741565b6108ca565b3480156103bd57600080fd5b506101a16103cc3660046118ea565b61095f565b6101a16103df366004611741565b610a23565b3480156103f057600080fd5b5061015b6103ff3660046116d8565b610d46565b34801561041057600080fd5b5061013961041f3660046116b4565b610db7565b34801561043057600080fd5b506101a161043f366004611741565b610de1565b34801561045057600080fd5b5061013961045f3660046116b4565b610dec565b60028054610100900460ff16158015610484575060025460ff8083169116105b6104a95760405162461bcd60e51b81526004016104a090611966565b60405180910390fd5b6002805461ffff191660ff8316176101001790556104c682610f3d565b6002805461ff001916905560405160ff821681527f7f26b83ff96e1f2b6a682f133852f6798a09c465da95921460cefb38474024989060200160405180910390a15050565b600061051d3389898989898989610f8f565b98975050505050505050565b6000828152600160205260409020546001600160a01b031661055d5760405162461bcd60e51b81526004016104a0906119b4565b6000828152600160205260409020546001600160a01b0316336001600160a01b0316146105d75760405162461bcd60e51b815260206004820152602260248201527f6f66666572732063616e206265207570646174656420627920697473206d616b60448201526132b960f11b60648201526084016104a0565b806106375760405162461bcd60e51b815260206004820152602a60248201527f606e657754616b6572496e746d617841646472657373602073686f756c64206e6044820152696f74206265207a65726f60b01b60648201526084016104a0565b60008281526001602052604080822060050183905551829184917f78f1204b0d8f130e8e8cdf9c2380aa132af9ea05233199057b67ca9ca95294019190a35050565b61068161121c565b61068b6000610f3d565b565b60006001600160a01b03841615610769576000846001600160a01b03166318160ddd6040518163ffffffff1660e01b8152600401602060405180830381865afa1580156106de573d6000803e3d6000fd5b505050506040513d601f19601f8201168201806040525081019061070291906119fa565b9050806000036107675760405162461bcd60e51b815260206004820152602a60248201527f74686520746f74616c20737570706c79206f66204552433230206d757374206e6044820152696f74206265207a65726f60b01b60648201526084016104a0565b505b610779338a8a8a8a8a8a8a610f8f565b90506000828060200190518101906107919190611be8565b505060208082015160008181526068909252604090912054919450925060ff161590506108005760405162461bcd60e51b815260206004820152601a60248201527f476976656e207769746e65737320616c7265616479207573656400000000000060448201526064016104a0565b60008381526001602081815260409283902083516101208101855281546001600160a01b039081168252938201549281019290925260028101549382019390935260038301546060820152600483015482166080820152600583015460a0820152600683015490911660c0820152600782015460e082015260089091015460ff1615156101008201526108939085611276565b6000908152606860205260409020805460ff191660011790555098975050505050505050565b6108c1610e65565b61068b33610464565b6000818152600160205260408120546001600160a01b0316336001600160a01b03161461094e5760405162461bcd60e51b815260206004820152602c60248201527f6f6e6c7920746865206d616b6572206f6620616e206f666665722063616e206460448201526b195858dd1a5d985d19481a5d60a21b60648201526084016104a0565b6109578261146f565b506001919050565b600083815260016020818152604080842081516101208101835281546001600160a01b039081168252948201548185015260028201548184015260038201546060820152600482015485166080820152600582015460a0820152600682015490941660c0850152600781015460e08501526008015460ff1615156101008401528051601f8601839004830281018301909152848152610a199291869086908190840183828082843760009201919091525061127692505050565b5060019392505050565b6000818152600160205260408120600401546001600160a01b03168015610aa857336001600160a01b03821614610aa85760405162461bcd60e51b8152602060048201526024808201527f6f66666572732063616e2062652061637469766174656420627920697473207460448201526330b5b2b960e11b60648201526084016104a0565b60008381526001602081815260409283902083516101208101855281546001600160a01b039081168252938201549281019290925260028101549382019390935260038301546060820152600483015482166080820152600583015460a0820152600683015490911660c0820152600782015460e0820181905260089092015460ff16151561010082015290341015610b8f5760405162461bcd60e51b8152602060048201526024808201527f706c656173652073656e6420656e6f756768206d6f6e657920746f20616374696044820152637661746560e01b60648201526084016104a0565b610b98846114a6565b60c08101516001600160a01b0316610be85780516040516001600160a01b03909116903480156108fc02916000818181858888f19350505050158015610be2573d6000803e3d6000fd5b50610a19565b3415610c4e5760405162461bcd60e51b815260206004820152602f60248201527f7472616e736d697373696f6e206d6574686f64206f74686572207468616e204560448201526e1512081a5cc81cdc1958da599a5959608a1b60648201526084016104a0565b60008160c001516001600160a01b03166323b872dd610c6a3390565b845160e0808701516040519185901b6001600160e01b03191682526001600160a01b03938416600483015292909116602482015260448101919091526064016020604051808303816000875af1158015610cc8573d6000803e3d6000fd5b505050506040513d601f19601f82011682018060405250810190610cec9190611d13565b905080610d3b5760405162461bcd60e51b815260206004820152601c60248201527f6661696c20746f207472616e7366657220455243323020746f6b656e0000000060448201526064016104a0565b505060019392505050565b60405162461bcd60e51b815260206004820152603860248201527f746869732066756e6374696f6e20697320646570726563617465643a2027776960448201527f746e6573732720617267756d656e74207265717569726564000000000000000060648201526000906084016104a0565b610dbf61121c565b606780546001600160a01b0319166001600160a01b0392909216919091179055565b6000610957826114a6565b610df461121c565b6001600160a01b038116610e595760405162461bcd60e51b815260206004820152602660248201527f4f776e61626c653a206e6577206f776e657220697320746865207a65726f206160448201526564647265737360d01b60648201526084016104a0565b610e6281610f3d565b50565b600254610100900460ff1615808015610e855750600254600160ff909116105b80610e9f5750303b158015610e9f575060025460ff166001145b610ebb5760405162461bcd60e51b81526004016104a090611966565b6002805460ff191660011790558015610ede576002805461ff0019166101001790555b610ee66114ef565b8015610e62576002805461ff0019169055604051600181527f7f26b83ff96e1f2b6a682f133852f6798a09c465da95921460cefb38474024989060200160405180910390a150565b6001600160a01b03163b151590565b603580546001600160a01b038381166001600160a01b0319831681179093556040519116919082907f8be0079c531659141344cd1fd0a4f28419497f9722a3daafe3b4186f6b6457e090600090a35050565b60006001600160a01b038916610ff35760405162461bcd60e51b815260206004820152602360248201527f546865206d616b6572206d757374206e6f74206265207a65726f20616464726560448201526239b99760e91b60648201526084016104a0565b506000805480825260016020526040909120546001600160a01b0316156110685760405162461bcd60e51b8152602060048201526024808201527f54686973206f6666657220494420697320616c726561647920726567697374656044820152633932b21760e11b60648201526084016104a0565b60006040518061012001604052808b6001600160a01b031681526020018a8152602001898152602001888152602001876001600160a01b03168152602001868152602001856001600160a01b031681526020018481526020016000151581525090506110d38161155a565b6000828152600160208181526040808420855181546001600160a01b03199081166001600160a01b039283161783559387015182860155918601516002820155606086015160038201556080860151600482018054851691841691909117905560a0860151600582015560c086015160068201805490941692169190911790915560e084015160078201556101008401516008909101805460ff19169115159190911790558154019055604080518a8152602081018a90529081018890526001600160a01b038781166060830152858116608083015260a082018590528b169083907f97e91b5b77af37d6c0e8b82837d7263b92cf6ce511d8129330589df1e11394979060c00160405180910390a3604051859083907f78f1204b0d8f130e8e8cdf9c2380aa132af9ea05233199057b67ca9ca952940190600090a35098975050505050505050565b6035546001600160a01b0316331461068b5760405162461bcd60e51b815260206004820181905260248201527f4f776e61626c653a2063616c6c6572206973206e6f7420746865206f776e657260448201526064016104a0565b6067546040805163dae0384760e01b815290516000926001600160a01b03169163dae038479160048083019260209291908290030181865afa1580156112c0573d6000803e3d6000fd5b505050506040513d601f19601f820116820180604052508101906112e491906119fa565b9050600083604001516040516020016112ff91815260200190565b60405160208183030381529060405280602001905181019061132191906119fa565b6040805160018082528183019092529192506000918291816020015b604080516060810182526000808252602080830182905292820152825260001990920191018161133d579050509050604051806060016040528084815260200183815260200187606001518152508160008151811061139e5761139e611d35565b602090810291909101015260675460405163013c480b60e61b81526000916001600160a01b031690634f1202c0906113de90859089908b90600401611d4b565b602060405180830381865afa1580156113fb573d6000803e3d6000fd5b505050506040513d601f19601f8201168201806040525081019061141f9190611d13565b9050806114665760405162461bcd60e51b81526020600482015260156024820152744661696c20746f207665726966792061737365747360581b60448201526064016104a0565b50505050505050565b611478816115dc565b60405181907ff1b44e492f69c0888dede3ae9e5f0d48199df4e7735ccc87be8c98aa12f8113090600090a250565b6114af816115dc565b600081815260016020526040808220600501549051909183917fd24204a0846309eb47a4c7152aa297a8bbde01aedbf11b47790f2abd9da76c319190a350565b600254610100900460ff1661068b5760405162461bcd60e51b815260206004820152602b60248201527f496e697469616c697a61626c653a20636f6e7472616374206973206e6f74206960448201526a6e697469616c697a696e6760a81b60648201526084016104a0565b67ffffffff0000000081606001511115610e625760405162461bcd60e51b815260206004820152603860248201527f496e76616c6964206f6666657220616d6f756e743a2065786365656473206d6160448201527f78696d756d2072656d697474616e636520616d6f756e742e000000000000000060648201526084016104a0565b6000818152600160205260409020546001600160a01b03166116105760405162461bcd60e51b81526004016104a0906119b4565b60008181526001602052604090206008015460ff161561167e5760405162461bcd60e51b815260206004820152602360248201527f54686973206f6666657220494420697320616c7265616479206163746976617460448201526232b21760e91b60648201526084016104a0565b6000908152600160208190526040909120600801805460ff19169091179055565b6001600160a01b0381168114610e6257600080fd5b6000602082840312156116c657600080fd5b81356116d18161169f565b9392505050565b600080600080600080600060e0888a0312156116f357600080fd5b87359650602088013595506040880135945060608801356117138161169f565b93506080880135925060a088013561172a8161169f565b8092505060c0880135905092959891949750929550565b60006020828403121561175357600080fd5b5035919050565b6000806040838503121561176d57600080fd5b50508035926020909101359150565b634e487b7160e01b600052604160045260246000fd5b6040516060810167ffffffffffffffff811182821017156117b5576117b561177c565b60405290565b604051601f8201601f1916810167ffffffffffffffff811182821017156117e4576117e461177c565b604052919050565b600067ffffffffffffffff8211156118065761180661177c565b50601f01601f191660200190565b600080600080600080600080610100898b03121561183157600080fd5b88359750602089013596506040890135955060608901356118518161169f565b94506080890135935060a08901356118688161169f565b925060c0890135915060e089013567ffffffffffffffff81111561188b57600080fd5b8901601f81018b1361189c57600080fd5b80356118af6118aa826117ec565b6117bb565b8181528c60208385010111156118c457600080fd5b816020840160208301376000602083830101528093505050509295985092959890939650565b6000806000604084860312156118ff57600080fd5b83359250602084013567ffffffffffffffff8082111561191e57600080fd5b818601915086601f83011261193257600080fd5b81358181111561194157600080fd5b87602082850101111561195357600080fd5b6020830194508093505050509250925092565b6020808252602e908201527f496e697469616c697a61626c653a20636f6e747261637420697320616c72656160408201526d191e481a5b9a5d1a585b1a5e995960921b606082015260800190565b60208082526026908201527f54686973206f6666657220494420686173206e6f74206265656e2072656769736040820152653a32b932b21760d11b606082015260800190565b600060208284031215611a0c57600080fd5b5051919050565b600067ffffffffffffffff821115611a2d57611a2d61177c565b5060051b60200190565b600060608284031215611a4957600080fd5b611a51611792565b90508151815260208083015181830152604083015167ffffffffffffffff811115611a7b57600080fd5b8301601f81018513611a8c57600080fd5b8051611a9a6118aa82611a13565b81815260059190911b82018301908381019087831115611ab957600080fd5b928401925b82841015611ad757835182529284019290840190611abe565b6040860152509295945050505050565b6000610100808385031215611afb57600080fd5b6040519081019067ffffffffffffffff82118183101715611b1e57611b1e61177c565b81604052809250835181526020840151602082015260408401516040820152606084015160608201526080840151608082015260a084015160a082015260c084015160c082015260e084015160e0820152505092915050565b60005b83811015611b92578181015183820152602001611b7a565b50506000910152565b600082601f830112611bac57600080fd5b8151611bba6118aa826117ec565b818152846020838601011115611bcf57600080fd5b611be0826020830160208701611b77565b949350505050565b60008060008060006101808688031215611c0157600080fd5b855167ffffffffffffffff80821115611c1957600080fd5b818801915088601f830112611c2d57600080fd5b81516020611c3d6118aa83611a13565b8281526060928302850182019282820191908d851115611c5c57600080fd5b958301955b84871015611ca65780878f031215611c795760008081fd5b611c81611792565b8751815284880151858201526040808901519082015283529586019591830191611c61565b819b50838d01519a5060408d0151965085871115611cc357600080fd5b611ccf8e888f01611a37565b9950611cdd8e828f01611ae7565b98505050505050610160880151915080821115611cf957600080fd5b50611d0688828901611b9b565b9150509295509295909350565b600060208284031215611d2557600080fd5b815180151581146116d157600080fd5b634e487b7160e01b600052603260045260246000fd5b60608082528451828201819052600091906020906080850190828901855b82811015611d99578151805185528581015186860152604090810151908501529285019290840190600101611d69565b5050508682860152848103604086015285519250828152611dbf83838301848901611b77565b601f92909201601f191691909101019594505050505056fea26469706673582212209def529b207e530d68de9d9099846f1162bb59c2604b2b6526dd61615afcb83264736f6c63430008110033496e697469616c697a61626c653a20636f6e747261637420697320616c7265617f26b83ff96e1f2b6a682f133852f6798a09c465da95921460cefb3847402498",
  "linkReferences": {},
  "deployedLinkReferences": {}
}