{
  "_format": "hh-sol-artifact-1",
  "contractName": "SimpleVerifier",
  "sourceName": "contracts/SimpleVerifier.sol",
  "abi": [
    {
      "inputs": [
        {
          "internalType": "bytes32",
          "name": "networkIndex_",
          "type": "bytes32"
        }
      ],
      "stateMutability": "nonpayable",
      "type": "constructor"
    },
    {
      "anonymous": false,
      "inputs": [
        {
          "indexed": true,
          "internalType": "address",
          "name": "previousOwner",
          "type": "address"
        },
        {
          "indexed": true,
          "internalType": "address",
          "name": "newOwner",
          "type": "address"
        }
      ],
      "name": "OwnershipTransferred",
      "type": "event"
    },
    {
      "inputs": [
        {
          "components": [
            {
              "internalType": "bytes32",
              "name": "tokenAddress",
              "type": "bytes32"
            },
            {
              "internalType": "uint256",
              "name": "tokenId",
              "type": "uint256"
            },
            {
              "internalType": "uint256",
              "name": "amount",
              "type": "uint256"
            }
          ],
          "internalType": "struct VerifierInterface.Asset[]",
          "name": "assets",
          "type": "tuple[]"
        },
        {
          "internalType": "bytes32",
          "name": "recipient",
          "type": "bytes32"
        },
        {
          "components": [
            {
              "internalType": "uint256",
              "name": "index",
              "type": "uint256"
            },
            {
              "internalType": "bytes32",
              "name": "value",
              "type": "bytes32"
            },
            {
              "internalType": "bytes32[]",
              "name": "siblings",
              "type": "bytes32[]"
            }
          ],
          "internalType": "struct MerkleTree.MerkleProof",
          "name": "diffTreeInclusionProof",
          "type": "tuple"
        },
        {
          "components": [
            {
              "internalType": "uint256",
              "name": "blockNumber",
              "type": "uint256"
            },
            {
              "internalType": "bytes32",
              "name": "prevBlockHash",
              "type": "bytes32"
            },
            {
              "internalType": "bytes32",
              "name": "blockHeadersDigest",
              "type": "bytes32"
            },
            {
              "internalType": "bytes32",
              "name": "transactionsDigest",
              "type": "bytes32"
            },
            {
              "internalType": "bytes32",
              "name": "depositDigest",
              "type": "bytes32"
            },
            {
              "internalType": "bytes32",
              "name": "proposedWorldStateDigest",
              "type": "bytes32"
            },
            {
              "internalType": "bytes32",
              "name": "approvedWorldStateDigest",
              "type": "bytes32"
            },
            {
              "internalType": "bytes32",
              "name": "latestAccountDigest",
              "type": "bytes32"
            }
          ],
          "internalType": "struct VerifierInterface.BlockHeader",
          "name": "blockHeader",
          "type": "tuple"
        }
      ],
      "name": "calcSingingMessage",
      "outputs": [
        {
          "internalType": "bytes",
          "name": "signature",
          "type": "bytes"
        }
      ],
      "stateMutability": "pure",
      "type": "function"
    },
    {
      "inputs": [
        {
          "components": [
            {
              "internalType": "bytes32",
              "name": "tokenAddress",
              "type": "bytes32"
            },
            {
              "internalType": "uint256",
              "name": "tokenId",
              "type": "uint256"
            },
            {
              "internalType": "uint256",
              "name": "amount",
              "type": "uint256"
            }
          ],
          "internalType": "struct VerifierInterface.Asset[]",
          "name": "assets",
          "type": "tuple[]"
        },
        {
          "internalType": "bytes32",
          "name": "recipient",
          "type": "bytes32"
        },
        {
          "components": [
            {
              "internalType": "uint256",
              "name": "index",
              "type": "uint256"
            },
            {
              "internalType": "bytes32",
              "name": "value",
              "type": "bytes32"
            },
            {
              "internalType": "bytes32[]",
              "name": "siblings",
              "type": "bytes32[]"
            }
          ],
          "internalType": "struct MerkleTree.MerkleProof",
          "name": "diffTreeInclusionProof",
          "type": "tuple"
        },
        {
          "components": [
            {
              "internalType": "uint256",
              "name": "blockNumber",
              "type": "uint256"
            },
            {
              "internalType": "bytes32",
              "name": "prevBlockHash",
              "type": "bytes32"
            },
            {
              "internalType": "bytes32",
              "name": "blockHeadersDigest",
              "type": "bytes32"
            },
            {
              "internalType": "bytes32",
              "name": "transactionsDigest",
              "type": "bytes32"
            },
            {
              "internalType": "bytes32",
              "name": "depositDigest",
              "type": "bytes32"
            },
            {
              "internalType": "bytes32",
              "name": "proposedWorldStateDigest",
              "type": "bytes32"
            },
            {
              "internalType": "bytes32",
              "name": "approvedWorldStateDigest",
              "type": "bytes32"
            },
            {
              "internalType": "bytes32",
              "name": "latestAccountDigest",
              "type": "bytes32"
            }
          ],
          "internalType": "struct VerifierInterface.BlockHeader",
          "name": "blockHeader",
          "type": "tuple"
        },
        {
          "internalType": "bytes",
          "name": "signature",
          "type": "bytes"
        }
      ],
      "name": "calcWitness",
      "outputs": [
        {
          "internalType": "bytes",
          "name": "witness",
          "type": "bytes"
        }
      ],
      "stateMutability": "pure",
      "type": "function"
    },
    {
      "inputs": [],
      "name": "networkIndex",
      "outputs": [
        {
          "internalType": "bytes32",
          "name": "",
          "type": "bytes32"
        }
      ],
      "stateMutability": "view",
      "type": "function"
    },
    {
      "inputs": [],
      "name": "owner",
      "outputs": [
        {
          "internalType": "address",
          "name": "",
          "type": "address"
        }
      ],
      "stateMutability": "view",
      "type": "function"
    },
    {
      "inputs": [],
      "name": "renounceOwnership",
      "outputs": [],
      "stateMutability": "nonpayable",
      "type": "function"
    },
    {
      "inputs": [
        {
          "internalType": "address",
          "name": "newOwner",
          "type": "address"
        }
      ],
      "name": "transferOwnership",
      "outputs": [],
      "stateMutability": "nonpayable",
      "type": "function"
    },
    {
      "inputs": [
        {
          "components": [
            {
              "internalType": "bytes32",
              "name": "tokenAddress",
              "type": "bytes32"
            },
            {
              "internalType": "uint256",
              "name": "tokenId",
              "type": "uint256"
            },
            {
              "internalType": "uint256",
              "name": "amount",
              "type": "uint256"
            }
          ],
          "internalType": "struct VerifierInterface.Asset[]",
          "name": "assets",
          "type": "tuple[]"
        },
        {
          "internalType": "bytes32",
          "name": "recipient",
          "type": "bytes32"
        },
        {
          "internalType": "bytes",
          "name": "witness",
          "type": "bytes"
        }
      ],
      "name": "verifyAssets",
      "outputs": [
        {
          "internalType": "bool",
          "name": "ok",
          "type": "bool"
        }
      ],
      "stateMutability": "view",
      "type": "function"
    }
  ],
  "bytecode": "0x60a060405234801561001057600080fd5b506040516114b43803806114b483398101604081905261002f91610090565b61003833610040565b6080526100a9565b600080546001600160a01b038381166001600160a01b0319831681178455604051919092169283917f8be0079c531659141344cd1fd0a4f28419497f9722a3daafe3b4186f6b6457e09190a35050565b6000602082840312156100a257600080fd5b5051919050565b6080516113f06100c4600039600061010701526113f06000f3fe608060405234801561001057600080fd5b506004361061007d5760003560e01c80638da5cb5b1161005b5780638da5cb5b146100d4578063ab00c163146100ef578063dae0384714610102578063f2fde38b1461013757600080fd5b80634f1202c014610082578063715018a6146100aa5780637de0fbce146100b4575b600080fd5b610095610090366004610a81565b61014a565b60405190151581526020015b60405180910390f35b6100b2610438565b005b6100c76100c2366004610b25565b61044c565b6040516100a19190610bfa565b6000546040516001600160a01b0390911681526020016100a1565b6100c76100fd366004610c2d565b610487565b6101297f000000000000000000000000000000000000000000000000000000000000000081565b6040519081526020016100a1565b6100b2610145366004610cb2565b6104bc565b6000808080808061015d87890189610f25565b945094509450945094508389146101b05760405162461bcd60e51b8152602060048201526012602482015271139bdd081cd85b59481c9958da5c1a595b9d60721b60448201526064015b60405180910390fd5b60005b8a81101561035b578581815181106101cd576101cd61104f565b6020026020010151600001518c8c838181106101eb576101eb61104f565b90506060020160000135146102425760405162461bcd60e51b815260206004820152601c60248201527f4e6f742073616d652061737365743a20746f6b656e416464726573730000000060448201526064016101a7565b8581815181106102545761025461104f565b6020026020010151602001518c8c838181106102725761027261104f565b90506060020160200135146102c95760405162461bcd60e51b815260206004820152601760248201527f4e6f742073616d652061737365743a20746f6b656e496400000000000000000060448201526064016101a7565b8581815181106102db576102db61104f565b6020026020010151604001518c8c838181106102f9576102f961104f565b90506060020160400135146103495760405162461bcd60e51b8152602060048201526016602482015275139bdd081cd85b5948185cdcd95d0e88185b5bdd5b9d60521b60448201526064016101a7565b8061035381611065565b9150506101b3565b5060008b8b8b86866040516020016103779594939291906110d7565b6040516020818303038152906040529050600061039382610535565b905060006103a18285610570565b90506103b56000546001600160a01b031690565b6001600160a01b0316816001600160a01b0316146104245760405162461bcd60e51b815260206004820152602660248201527f4661696c20746f207665726966792061676772656761746f722773207369676e60448201526530ba3ab9329760d11b60648201526084016101a7565b5060019d9c50505050505050505050505050565b610440610594565b61044a60006105ee565b565b60608787878787878760405160200161046b9796959493929190611294565b6040516020818303038152906040529050979650505050505050565b606085858585856040516020016104a295949392919061130a565b604051602081830303815290604052905095945050505050565b6104c4610594565b6001600160a01b0381166105295760405162461bcd60e51b815260206004820152602660248201527f4f776e61626c653a206e6577206f776e657220697320746865207a65726f206160448201526564647265737360d01b60648201526084016101a7565b610532816105ee565b50565b6000610541825161063e565b82604051602001610553929190611349565b604051602081830303815290604052805190602001209050919050565b600080600061057f85856106d0565b9150915061058c81610715565b509392505050565b6000546001600160a01b0316331461044a5760405162461bcd60e51b815260206004820181905260248201527f4f776e61626c653a2063616c6c6572206973206e6f7420746865206f776e657260448201526064016101a7565b600080546001600160a01b038381166001600160a01b0319831681178455604051919092169283917f8be0079c531659141344cd1fd0a4f28419497f9722a3daafe3b4186f6b6457e09190a35050565b6060600061064b8361085f565b60010190506000816001600160401b0381111561066a5761066a610ce2565b6040519080825280601f01601f191660200182016040528015610694576020820181803683370190505b5090508181016020015b600019016f181899199a1a9b1b9c1cb0b131b232b360811b600a86061a8153600a850494508461069e57509392505050565b60008082516041036107065760208301516040840151606085015160001a6106fa87828585610938565b9450945050505061070e565b506000905060025b9250929050565b6000816004811115610729576107296113a4565b036107315750565b6001816004811115610745576107456113a4565b036107925760405162461bcd60e51b815260206004820152601860248201527f45434453413a20696e76616c6964207369676e6174757265000000000000000060448201526064016101a7565b60028160048111156107a6576107a66113a4565b036107f35760405162461bcd60e51b815260206004820152601f60248201527f45434453413a20696e76616c6964207369676e6174757265206c656e6774680060448201526064016101a7565b6003816004811115610807576108076113a4565b036105325760405162461bcd60e51b815260206004820152602260248201527f45434453413a20696e76616c6964207369676e6174757265202773272076616c604482015261756560f01b60648201526084016101a7565b60008072184f03e93ff9f4daa797ed6e38ed64bf6a1f0160401b831061089e5772184f03e93ff9f4daa797ed6e38ed64bf6a1f0160401b830492506040015b6d04ee2d6d415b85acef810000000083106108ca576d04ee2d6d415b85acef8100000000830492506020015b662386f26fc1000083106108e857662386f26fc10000830492506010015b6305f5e1008310610900576305f5e100830492506008015b612710831061091457612710830492506004015b60648310610926576064830492506002015b600a8310610932576001015b92915050565b6000807f7fffffffffffffffffffffffffffffff5d576e7357a4501ddfe92f46681b20a083111561096f57506000905060036109f3565b6040805160008082526020820180845289905260ff881692820192909252606081018690526080810185905260019060a0016020604051602081039080840390855afa1580156109c3573d6000803e3d6000fd5b5050604051601f1901519150506001600160a01b0381166109ec576000600192509250506109f3565b9150600090505b94509492505050565b60008083601f840112610a0e57600080fd5b5081356001600160401b03811115610a2557600080fd5b60208301915083602060608302850101111561070e57600080fd5b60008083601f840112610a5257600080fd5b5081356001600160401b03811115610a6957600080fd5b60208301915083602082850101111561070e57600080fd5b600080600080600060608688031215610a9957600080fd5b85356001600160401b0380821115610ab057600080fd5b610abc89838a016109fc565b9097509550602088013594506040880135915080821115610adc57600080fd5b50610ae988828901610a40565b969995985093965092949392505050565b600060608284031215610b0c57600080fd5b50919050565b60006101008284031215610b0c57600080fd5b6000806000806000806000610180888a031215610b4157600080fd5b87356001600160401b0380821115610b5857600080fd5b610b648b838c016109fc565b909950975060208a0135965060408a0135915080821115610b8457600080fd5b610b908b838c01610afa565b9550610b9f8b60608c01610b12565b94506101608a0135915080821115610bb657600080fd5b50610bc38a828b01610a40565b989b979a50959850939692959293505050565b60005b83811015610bf1578181015183820152602001610bd9565b50506000910152565b6020815260008251806020840152610c19816040850160208701610bd6565b601f01601f19169190910160400192915050565b60008060008060006101608688031215610c4657600080fd5b85356001600160401b0380821115610c5d57600080fd5b610c6989838a016109fc565b9097509550602088013594506040880135915080821115610c8957600080fd5b50610c9688828901610afa565b925050610ca68760608801610b12565b90509295509295909350565b600060208284031215610cc457600080fd5b81356001600160a01b0381168114610cdb57600080fd5b9392505050565b634e487b7160e01b600052604160045260246000fd5b604051606081016001600160401b0381118282101715610d1a57610d1a610ce2565b60405290565b604051601f8201601f191681016001600160401b0381118282101715610d4857610d48610ce2565b604052919050565b60006001600160401b03821115610d6957610d69610ce2565b5060051b60200190565b600060608284031215610d8557600080fd5b610d8d610cf8565b9050813581526020808301358183015260408301356001600160401b03811115610db657600080fd5b8301601f81018513610dc757600080fd5b8035610dda610dd582610d50565b610d20565b81815260059190911b82018301908381019087831115610df957600080fd5b928401925b82841015610e1757833582529284019290840190610dfe565b6040860152509295945050505050565b6000610100808385031215610e3b57600080fd5b604051908101906001600160401b0382118183101715610e5d57610e5d610ce2565b81604052809250833581526020840135602082015260408401356040820152606084013560608201526080840135608082015260a084013560a082015260c084013560c082015260e084013560e0820152505092915050565b600082601f830112610ec757600080fd5b81356001600160401b03811115610ee057610ee0610ce2565b610ef3601f8201601f1916602001610d20565b818152846020838601011115610f0857600080fd5b816020850160208301376000918101602001919091529392505050565b60008060008060006101808688031215610f3e57600080fd5b85356001600160401b0380821115610f5557600080fd5b818801915088601f830112610f6957600080fd5b81356020610f79610dd583610d50565b8281526060928302850182019282820191908d851115610f9857600080fd5b958301955b84871015610fe25780878f031215610fb55760008081fd5b610fbd610cf8565b8735815284880135858201526040808901359082015283529586019591830191610f9d565b819b50838d01359a5060408d0135965085871115610fff57600080fd5b61100b8e888f01610d73565b99506110198e828f01610e27565b9850505050505061016088013591508082111561103557600080fd5b5061104288828901610eb6565b9150509295509295909350565b634e487b7160e01b600052603260045260246000fd5b60006001820161108557634e487b7160e01b600052601160045260246000fd5b5060010190565b8183526000602080850194508260005b858110156110cc57813587528282013583880152604080830135908801526060968701969091019060010161109c565b509495945050505050565b60006101608083526110ec818401888a61108c565b9050602086818501528382036040850152606082018651835281870151828401526040870151606060408501528181518084526080860191508483019550600093505b8084101561114f578551825294840194600193909301929084019061112f565b5080955050505050506111ae6060830184805182526020810151602083015260408101516040830152606081015160608301526080810151608083015260a081015160a083015260c081015160c083015260e081015160e08301525050565b9695505050505050565b803582526020810135602083015260006040820135601e198336030181126111df57600080fd5b82016020810190356001600160401b038111156111fb57600080fd5b8060051b80360383131561120e57600080fd5b60606040870181905286018290526001600160fb1b0382111561123057600080fd5b8083608088013794909401608001949350505050565b803582526020810135602083015260408101356040830152606081013560608301526080810135608083015260a081013560a083015260c081013560c083015260e081013560e08301525050565b60006101808083526112a98184018a8c61108c565b905087602084015282810360408401526112c381886111b8565b90506112d26060840187611246565b828103610160840152838152838560208301376000602085830101526020601f19601f86011682010191505098975050505050505050565b600061016080835261131f818401888a61108c565b9050856020840152828103604084015261133981866111b8565b9150506111ae6060830184611246565b7f19457468657265756d205369676e6564204d6573736167653a0a00000000000081526000835161138181601a850160208801610bd6565b83519083019061139881601a840160208801610bd6565b01601a01949350505050565b634e487b7160e01b600052602160045260246000fdfea26469706673582212209c5bf167dba1b0fb67fcb0c1ed1a63a2051d57f0e40cbfa7f0e156bc78507b9d64736f6c63430008110033",
  "linkReferences": {},
  "deployedLinkReferences": {}
}