{
  "_format": "hh-sol-artifact-1",
  "contractName": "SimpleVerifier",
  "sourceName": "contracts/SimpleVerifier.sol",
  "abi": [
    {
      "anonymous": false,
      "inputs": [
        {
          "indexed": false,
          "internalType": "uint8",
          "name": "version",
          "type": "uint8"
        }
      ],
      "name": "Initialized",
      "type": "event"
    },
    {
      "anonymous": false,
      "inputs": [
        {
          "indexed": true,
          "internalType": "address",
          "name": "previousOwner",
          "type": "address"
        },
        {
          "indexed": true,
          "internalType": "address",
          "name": "newOwner",
          "type": "address"
        }
      ],
      "name": "OwnershipTransferred",
      "type": "event"
    },
    {
      "inputs": [
        {
          "internalType": "bytes32",
          "name": "networkIndex_",
          "type": "bytes32"
        }
      ],
      "name": "initialize",
      "outputs": [],
      "stateMutability": "nonpayable",
      "type": "function"
    },
    {
      "inputs": [],
      "name": "networkIndex",
      "outputs": [
        {
          "internalType": "bytes32",
          "name": "",
          "type": "bytes32"
        }
      ],
      "stateMutability": "view",
      "type": "function"
    },
    {
      "inputs": [],
      "name": "owner",
      "outputs": [
        {
          "internalType": "address",
          "name": "",
          "type": "address"
        }
      ],
      "stateMutability": "view",
      "type": "function"
    },
    {
      "inputs": [],
      "name": "renounceOwnership",
      "outputs": [],
      "stateMutability": "nonpayable",
      "type": "function"
    },
    {
      "inputs": [
        {
          "internalType": "address",
          "name": "newOwner",
          "type": "address"
        }
      ],
      "name": "transferOwnership",
      "outputs": [],
      "stateMutability": "nonpayable",
      "type": "function"
    },
    {
      "inputs": [
        {
          "components": [
            {
              "internalType": "bytes32",
              "name": "tokenAddress",
              "type": "bytes32"
            },
            {
              "internalType": "uint256",
              "name": "tokenId",
              "type": "uint256"
            },
            {
              "internalType": "uint256",
              "name": "amount",
              "type": "uint256"
            }
          ],
          "internalType": "struct VerifierInterface.Asset[]",
          "name": "assets",
          "type": "tuple[]"
        },
        {
          "internalType": "bytes32",
          "name": "recipient",
          "type": "bytes32"
        },
        {
          "internalType": "bytes",
          "name": "witness",
          "type": "bytes"
        }
      ],
      "name": "verifyAssets",
      "outputs": [
        {
          "internalType": "bool",
          "name": "ok",
          "type": "bool"
        }
      ],
      "stateMutability": "view",
      "type": "function"
    }
  ],
  "bytecode": "0x608060405234801561001057600080fd5b506111a1806100206000396000f3fe608060405234801561001057600080fd5b50600436106100625760003560e01c80634f1202c014610067578063715018a61461008f5780638da5cb5b146100995780639498bd71146100b4578063dae03847146100c7578063f2fde38b146100de575b600080fd5b61007a610075366004610aac565b6100f1565b60405190151581526020015b60405180910390f35b6100976103df565b005b6033546040516001600160a01b039091168152602001610086565b6100976100c2366004610b7e565b6103f3565b6100d060655481565b604051908152602001610086565b6100976100ec366004610b97565b61050a565b6000808080808061010487890189610e10565b945094509450945094508389146101575760405162461bcd60e51b8152602060048201526012602482015271139bdd081cd85b59481c9958da5c1a595b9d60721b60448201526064015b60405180910390fd5b60005b8a8110156103025785818151811061017457610174610f3b565b6020026020010151600001518c8c8381811061019257610192610f3b565b90506060020160000135146101e95760405162461bcd60e51b815260206004820152601c60248201527f4e6f742073616d652061737365743a20746f6b656e4164647265737300000000604482015260640161014e565b8581815181106101fb576101fb610f3b565b6020026020010151602001518c8c8381811061021957610219610f3b565b90506060020160200135146102705760405162461bcd60e51b815260206004820152601760248201527f4e6f742073616d652061737365743a20746f6b656e4964000000000000000000604482015260640161014e565b85818151811061028257610282610f3b565b6020026020010151604001518c8c838181106102a0576102a0610f3b565b90506060020160400135146102f05760405162461bcd60e51b8152602060048201526016602482015275139bdd081cd85b5948185cdcd95d0e88185b5bdd5b9d60521b604482015260640161014e565b806102fa81610f51565b91505061015a565b5060008b8b8b868660405160200161031e959493929190610f78565b6040516020818303038152906040529050600061033a82610583565b9050600061034882856105be565b905061035c6033546001600160a01b031690565b6001600160a01b0316816001600160a01b0316146103cb5760405162461bcd60e51b815260206004820152602660248201527f4661696c20746f207665726966792061676772656761746f722773207369676e60448201526530ba3ab9329760d11b606482015260840161014e565b5060019d9c50505050505050505050505050565b6103e76105e2565b6103f1600061063c565b565b600054610100900460ff16158080156104135750600054600160ff909116105b8061042d5750303b15801561042d575060005460ff166001145b6104905760405162461bcd60e51b815260206004820152602e60248201527f496e697469616c697a61626c653a20636f6e747261637420697320616c72656160448201526d191e481a5b9a5d1a585b1a5e995960921b606482015260840161014e565b6000805460ff1916600117905580156104b3576000805461ff0019166101001790555b60658290556104c061068e565b8015610506576000805461ff0019169055604051600181527f7f26b83ff96e1f2b6a682f133852f6798a09c465da95921460cefb38474024989060200160405180910390a15b5050565b6105126105e2565b6001600160a01b0381166105775760405162461bcd60e51b815260206004820152602660248201527f4f776e61626c653a206e6577206f776e657220697320746865207a65726f206160448201526564647265737360d01b606482015260840161014e565b6105808161063c565b50565b600061058f82516106bd565b826040516020016105a19291906110af565b604051602081830303815290604052805190602001209050919050565b60008060006105cd8585610750565b915091506105da81610795565b509392505050565b6033546001600160a01b031633146103f15760405162461bcd60e51b815260206004820181905260248201527f4f776e61626c653a2063616c6c6572206973206e6f7420746865206f776e6572604482015260640161014e565b603380546001600160a01b038381166001600160a01b0319831681179093556040519116919082907f8be0079c531659141344cd1fd0a4f28419497f9722a3daafe3b4186f6b6457e090600090a35050565b600054610100900460ff166106b55760405162461bcd60e51b815260040161014e9061110a565b6103f16108df565b606060006106ca8361090f565b600101905060008167ffffffffffffffff8111156106ea576106ea610bc7565b6040519080825280601f01601f191660200182016040528015610714576020820181803683370190505b5090508181016020015b600019016f181899199a1a9b1b9c1cb0b131b232b360811b600a86061a8153600a850494508461071e57509392505050565b60008082516041036107865760208301516040840151606085015160001a61077a878285856109e8565b9450945050505061078e565b506000905060025b9250929050565b60008160048111156107a9576107a9611155565b036107b15750565b60018160048111156107c5576107c5611155565b036108125760405162461bcd60e51b815260206004820152601860248201527f45434453413a20696e76616c6964207369676e61747572650000000000000000604482015260640161014e565b600281600481111561082657610826611155565b036108735760405162461bcd60e51b815260206004820152601f60248201527f45434453413a20696e76616c6964207369676e6174757265206c656e67746800604482015260640161014e565b600381600481111561088757610887611155565b036105805760405162461bcd60e51b815260206004820152602260248201527f45434453413a20696e76616c6964207369676e6174757265202773272076616c604482015261756560f01b606482015260840161014e565b600054610100900460ff166109065760405162461bcd60e51b815260040161014e9061110a565b6103f13361063c565b60008072184f03e93ff9f4daa797ed6e38ed64bf6a1f0160401b831061094e5772184f03e93ff9f4daa797ed6e38ed64bf6a1f0160401b830492506040015b6d04ee2d6d415b85acef8100000000831061097a576d04ee2d6d415b85acef8100000000830492506020015b662386f26fc10000831061099857662386f26fc10000830492506010015b6305f5e10083106109b0576305f5e100830492506008015b61271083106109c457612710830492506004015b606483106109d6576064830492506002015b600a83106109e2576001015b92915050565b6000807f7fffffffffffffffffffffffffffffff5d576e7357a4501ddfe92f46681b20a0831115610a1f5750600090506003610aa3565b6040805160008082526020820180845289905260ff881692820192909252606081018690526080810185905260019060a0016020604051602081039080840390855afa158015610a73573d6000803e3d6000fd5b5050604051601f1901519150506001600160a01b038116610a9c57600060019250925050610aa3565b9150600090505b94509492505050565b600080600080600060608688031215610ac457600080fd5b853567ffffffffffffffff80821115610adc57600080fd5b818801915088601f830112610af057600080fd5b813581811115610aff57600080fd5b896020606083028501011115610b1457600080fd5b60209283019750955090870135935060408701359080821115610b3657600080fd5b818801915088601f830112610b4a57600080fd5b813581811115610b5957600080fd5b896020828501011115610b6b57600080fd5b9699959850939650602001949392505050565b600060208284031215610b9057600080fd5b5035919050565b600060208284031215610ba957600080fd5b81356001600160a01b0381168114610bc057600080fd5b9392505050565b634e487b7160e01b600052604160045260246000fd5b6040516060810167ffffffffffffffff81118282101715610c0057610c00610bc7565b60405290565b604051601f8201601f1916810167ffffffffffffffff81118282101715610c2f57610c2f610bc7565b604052919050565b600067ffffffffffffffff821115610c5157610c51610bc7565b5060051b60200190565b600060608284031215610c6d57600080fd5b610c75610bdd565b90508135815260208083013581830152604083013567ffffffffffffffff811115610c9f57600080fd5b8301601f81018513610cb057600080fd5b8035610cc3610cbe82610c37565b610c06565b81815260059190911b82018301908381019087831115610ce257600080fd5b928401925b82841015610d0057833582529284019290840190610ce7565b6040860152509295945050505050565b6000610100808385031215610d2457600080fd5b6040519081019067ffffffffffffffff82118183101715610d4757610d47610bc7565b81604052809250833581526020840135602082015260408401356040820152606084013560608201526080840135608082015260a084013560a082015260c084013560c082015260e084013560e0820152505092915050565b600082601f830112610db157600080fd5b813567ffffffffffffffff811115610dcb57610dcb610bc7565b610dde601f8201601f1916602001610c06565b818152846020838601011115610df357600080fd5b816020850160208301376000918101602001919091529392505050565b60008060008060006101808688031215610e2957600080fd5b853567ffffffffffffffff80821115610e4157600080fd5b818801915088601f830112610e5557600080fd5b81356020610e65610cbe83610c37565b8281526060928302850182019282820191908d851115610e8457600080fd5b958301955b84871015610ece5780878f031215610ea15760008081fd5b610ea9610bdd565b8735815284880135858201526040808901359082015283529586019591830191610e89565b819b50838d01359a5060408d0135965085871115610eeb57600080fd5b610ef78e888f01610c5b565b9950610f058e828f01610d10565b98505050505050610160880135915080821115610f2157600080fd5b50610f2e88828901610da0565b9150509295509295909350565b634e487b7160e01b600052603260045260246000fd5b600060018201610f7157634e487b7160e01b600052601160045260246000fd5b5060010190565b61016080825281018590526000610180820187825b88811015610fbf5781358352602080830135908401526040808301359084015260609283019290910190600101610f8d565b5050602086818501528382036040850152606082018651835281870151828401526040870151606060408501528181518084526080860191508483019550600093505b808410156110225785518252948401946001939093019290840190611002565b5080955050505050506110816060830184805182526020810151602083015260408101516040830152606081015160608301526080810151608083015260a081015160a083015260c081015160c083015260e081015160e08301525050565b9695505050505050565b60005b838110156110a657818101518382015260200161108e565b50506000910152565b7f19457468657265756d205369676e6564204d6573736167653a0a0000000000008152600083516110e781601a85016020880161108b565b8351908301906110fe81601a84016020880161108b565b01601a01949350505050565b6020808252602b908201527f496e697469616c697a61626c653a20636f6e7472616374206973206e6f74206960408201526a6e697469616c697a696e6760a81b606082015260800190565b634e487b7160e01b600052602160045260246000fdfea264697066735822122090ac0912299130c381c50ef231f439ead5ef4684c277116f32a363c3212b71a264736f6c63430008110033",
  "linkReferences": {},
  "deployedLinkReferences": {}
}