{
  "_format": "hh-sol-artifact-1",
  "contractName": "Verifier",
  "sourceName": "contracts/Verifier.sol",
  "abi": [
    {
      "inputs": [
        {
          "internalType": "bytes32",
          "name": "networkIndex_",
          "type": "bytes32"
        }
      ],
      "stateMutability": "nonpayable",
      "type": "constructor"
    },
    {
      "anonymous": false,
      "inputs": [
        {
          "indexed": false,
          "internalType": "uint8",
          "name": "version",
          "type": "uint8"
        }
      ],
      "name": "Initialized",
      "type": "event"
    },
    {
      "anonymous": false,
      "inputs": [
        {
          "indexed": true,
          "internalType": "address",
          "name": "previousOwner",
          "type": "address"
        },
        {
          "indexed": true,
          "internalType": "address",
          "name": "newOwner",
          "type": "address"
        }
      ],
      "name": "OwnershipTransferred",
      "type": "event"
    },
    {
      "inputs": [],
      "name": "HALF_N_FULL_ROUNDS",
      "outputs": [
        {
          "internalType": "uint256",
          "name": "",
          "type": "uint256"
        }
      ],
      "stateMutability": "view",
      "type": "function"
    },
    {
      "inputs": [
        {
          "internalType": "bytes32",
          "name": "encoded",
          "type": "bytes32"
        }
      ],
      "name": "decodeHashOut",
      "outputs": [
        {
          "internalType": "uint256[4]",
          "name": "output",
          "type": "uint256[4]"
        }
      ],
      "stateMutability": "pure",
      "type": "function"
    },
    {
      "inputs": [
        {
          "internalType": "uint256[4]",
          "name": "value",
          "type": "uint256[4]"
        }
      ],
      "name": "encodeHashOut",
      "outputs": [
        {
          "internalType": "bytes32",
          "name": "encoded",
          "type": "bytes32"
        }
      ],
      "stateMutability": "pure",
      "type": "function"
    },
    {
      "inputs": [
        {
          "internalType": "uint256[]",
          "name": "input",
          "type": "uint256[]"
        },
        {
          "internalType": "uint256",
          "name": "num_outputs",
          "type": "uint256"
        }
      ],
      "name": "hash_n_to_m_no_pad",
      "outputs": [
        {
          "internalType": "uint256[]",
          "name": "",
          "type": "uint256[]"
        }
      ],
      "stateMutability": "view",
      "type": "function"
    },
    {
      "inputs": [
        {
          "internalType": "bytes32",
          "name": "networkIndex_",
          "type": "bytes32"
        }
      ],
      "name": "initialize",
      "outputs": [],
      "stateMutability": "nonpayable",
      "type": "function"
    },
    {
      "inputs": [],
      "name": "networkIndex",
      "outputs": [
        {
          "internalType": "bytes32",
          "name": "",
          "type": "bytes32"
        }
      ],
      "stateMutability": "view",
      "type": "function"
    },
    {
      "inputs": [],
      "name": "owner",
      "outputs": [
        {
          "internalType": "address",
          "name": "",
          "type": "address"
        }
      ],
      "stateMutability": "view",
      "type": "function"
    },
    {
      "inputs": [
        {
          "internalType": "uint256[12]",
          "name": "state",
          "type": "uint256[12]"
        }
      ],
      "name": "permute",
      "outputs": [
        {
          "internalType": "uint256[12]",
          "name": "",
          "type": "uint256[12]"
        }
      ],
      "stateMutability": "view",
      "type": "function"
    },
    {
      "inputs": [],
      "name": "renounceOwnership",
      "outputs": [],
      "stateMutability": "nonpayable",
      "type": "function"
    },
    {
      "inputs": [
        {
          "internalType": "uint256",
          "name": "",
          "type": "uint256"
        }
      ],
      "name": "transactionsDigestHistory",
      "outputs": [
        {
          "internalType": "bytes32",
          "name": "",
          "type": "bytes32"
        }
      ],
      "stateMutability": "view",
      "type": "function"
    },
    {
      "inputs": [
        {
          "internalType": "address",
          "name": "newOwner",
          "type": "address"
        }
      ],
      "name": "transferOwnership",
      "outputs": [],
      "stateMutability": "nonpayable",
      "type": "function"
    },
    {
      "inputs": [
        {
          "internalType": "bytes32",
          "name": "left",
          "type": "bytes32"
        },
        {
          "internalType": "bytes32",
          "name": "right",
          "type": "bytes32"
        }
      ],
      "name": "two_to_one",
      "outputs": [
        {
          "internalType": "bytes32",
          "name": "hash_out",
          "type": "bytes32"
        }
      ],
      "stateMutability": "view",
      "type": "function"
    },
    {
      "inputs": [
        {
          "components": [
            {
              "internalType": "uint256",
              "name": "blockNumber",
              "type": "uint256"
            },
            {
              "internalType": "bytes32",
              "name": "prevBlockHash",
              "type": "bytes32"
            },
            {
              "internalType": "bytes32",
              "name": "blockHeadersDigest",
              "type": "bytes32"
            },
            {
              "internalType": "bytes32",
              "name": "transactionsDigest",
              "type": "bytes32"
            },
            {
              "internalType": "bytes32",
              "name": "depositDigest",
              "type": "bytes32"
            },
            {
              "internalType": "bytes32",
              "name": "proposedWorldStateDigest",
              "type": "bytes32"
            },
            {
              "internalType": "bytes32",
              "name": "approvedWorldStateDigest",
              "type": "bytes32"
            },
            {
              "internalType": "bytes32",
              "name": "latestAccountDigest",
              "type": "bytes32"
            }
          ],
          "internalType": "struct VerifierInterface.BlockHeader",
          "name": "blockHeader",
          "type": "tuple"
        },
        {
          "internalType": "bytes",
          "name": "witness",
          "type": "bytes"
        }
      ],
      "name": "updateTransactionsDigest",
      "outputs": [],
      "stateMutability": "nonpayable",
      "type": "function"
    },
    {
      "inputs": [
        {
          "components": [
            {
              "internalType": "bytes32",
              "name": "tokenAddress",
              "type": "bytes32"
            },
            {
              "internalType": "uint256",
              "name": "tokenId",
              "type": "uint256"
            },
            {
              "internalType": "uint256",
              "name": "amount",
              "type": "uint256"
            }
          ],
          "internalType": "struct VerifierInterface.Asset[]",
          "name": "assets",
          "type": "tuple[]"
        },
        {
          "internalType": "bytes32",
          "name": "recipient",
          "type": "bytes32"
        },
        {
          "internalType": "bytes",
          "name": "witness",
          "type": "bytes"
        }
      ],
      "name": "verifyAssets",
      "outputs": [
        {
          "internalType": "bool",
          "name": "ok",
          "type": "bool"
        }
      ],
      "stateMutability": "view",
      "type": "function"
    }
  ],
  "bytecode": "0x61020060405260116080908152600f60a052602960c052601060e052600261010052601c61012052600d6101408190526101605260276101805260126101a05260226101c05260146101e0526200005b90606690600c620018a9565b50604080516101808101825260088152600060208201819052918101829052606081018290526080810182905260a0810182905260c0810182905260e08101829052610100810182905261012081018290526101408101829052610160810191909152620000ce90607290600c620018a9565b5060408051612d008101825267b585f766f21444058152677746a55f43921ad7602082015267b2fb0d31cee799b491810191909152670f6760a4803427d7606082015267e10d666650f4e0126080820152678cae14cb07d09bf160a082015267d438539c95f63e9f60c082015267ef781c7ce35b4c3d60e082015267cdc4a239b0c4442661010082015267277fa208bf337bff61012082015267e17653a29da578a161014082015267c54302f225db2c766101608201526786287821f722c8816101808201526759cd1a8a41c18e556101a082015267c3b919ad495dc5746101c082015267a484c4c5ef6a07816101e082015267308bbd23dc5416cc610200820152676e4a40c18f30c09c610220820152679a2eedb70d8f8cfa61024082015267e360c6e0ae486f3861026082015267d5c7718fbfc647fb61028082015267c35eae071903ff0b6102a082015267849c2656969c4be76102c082015267c0572c8c08cbbbad6102e082015267e9fa634a21de008261030082015267f56f6d48959a600d61032082015267f7d713e806391165610340820152678297132b32825daf61036082015267ad6805e0e30b2c8a61038082015267ac51d9f5fcf8535e6103a082015267502ad7dc18c2ad876103c08201526757a1550c110b30416103e08201526766bbd30e6ce0e583610400820152670da2abef589d644e61042082015267f061274fdb150d616104408201526728b8ec3ae9c296336104608201526792a756e67e2b94136104808201526770e741ebfee965866104a082015267019d5ee2af82ec1c6104c0820152676f6f2ed7724663526104e0820152677cf416cfe7e14ca16105008201526761df517b86a464396105208201526785dc499b11d77b75610540820152674b959b48b9c1073361056082015267e8be3e5da8043e5761058082015267f5c0bc1de6da86996105a08201526740b12cbf09ef74bf6105c082015267a637093ecb2ad6316105e0820152673cc3f892184df408610600820152672e479dc157bf31bb610620820152676f49de07a623434661064082015267213ce7bede378d7b610660820152675b0431345d4dea8361068082015267a2de45780344d6a16106a0820152677103aaf94a7bf3086106c0820152675326fc0d972793016106e082015267a9ceb74fec0247476107008201526727f8ec88bb21b1a361072082015267fceb4fda1ded089361074082015267fac6ff1346a41675610760820152677131aa45268d7d8c610780820152679351036095630f9f6107a082015267ad535b24afc26bfb6107c0820152674627f5c6993e44be6107e082015267645cf794b8f1cc5861080082015267241c70ed0af6161761082082015267acb8e076647905f1610840820152673737e9db4c4f474d61086082015267e7ea5e33e75fffb66108808201526790dee49fc9bfc23a6108a082015267d1b1edf76bc09c926108c0820152670b65481ba645c6026108e08201526799ad1aab0814283b61090082015267438a7c91d416ca4d61092082015267b60de3bcc5ea751c61094082015267c99cab6aef6f58bc6109608201526769a5ed92a72ee4ff610980820152675e7b329c1ed4ad716109a0820152675fc0ac08001448856109c08201526732db829239774eca6109e0820152670ade699c5830f310610a00820152677cc5583b10415f21610a208201526785df9ed2e166d64f610a40820152676604df4fee32bcb1610a6082015267eb84f608da56ef48610a8082015267da608834c40e603d610aa0820152678f97fe408061f183610ac082015267a93f485c96f37b89610ae0820152676704e8ee8f18d563610b0082015267cee3e9ac1e072119610b2082015267510d0e65e2b470c1610b4082015267f6323f486b9038f0610b60820152670b508cdeffa5ceef610b8082015267f2417089e4fb3cbd610ba08201526760e75c2890d15730610bc082015267a6217d8bf660f29c610be0820152677159cd30c3ac118e610c0082015267839b4e8fafead540610c20820152670d3f3e5e82920adc610c40820152678f7d83bddee7bba8610c6082015267780f2243ea071d06610c8082015267eb915845f3de1634610ca082015267d19e120d26b6f386610cc082015267016ee53a7e5fecc6610ce082015267cb5fd54e7933e477610d0082015267acb8417879fd449f610d20820152679c22190be7f74732610d40820152675d693c1ba3ba3621610d6082015267dcef0797c2b69ec7610d80820152673d639263da827b13610da082015267e273fd971bc8d0e7610dc082015267418f02702d227ed5610de0820152678c25fda3b503038c610e00820152672cbaed4daec8c07c610e20820152675f58e6afcdd6ddc2610e4082015267284650ac5e1b0eba610e6082015267635b337ee819dab5610e80820152679f9a036ed4f2d49f610ea082015267b93e260cae5c170e610ec082015267b0a7eae879ddb76d610ee082015267d0762cbc8ca6570c610f008201526734c6efb812b04bf5610f208201526740bf0ab5fa14c112610f4082015267b6b570fc7c5740d3610f60820152675a27b9002de33454610f8082015267b1a5b165b6d2b2d2610fa0820152678722e0ace9d1be22610fc082015267788ee3b37e5680fb610fe08201526714a726661551e2846110008201526798b7672f9ef3b41961102082015267bb93ae776bb30e3a6110408201526728fd3b046380f8506110608201526730a468059325838761108082015267337dc00c61bd9ce16110a082015267d5eca244c7a4ff1d6110c0820152677762638264d279bd6110e082015267c1e434bedeefd767611100820152670299351a53b8ec2261112082015267b2d456e4ad251b80611140820152673e9ed1fda49cea0b611160820152672972a92ba450bed86111808201526720216dd77be493de6111a082015267adffe8cf28449ec66111c0820152671c4dbb1c4c27d2436111e08201526715a16a8a8322d45861120082015267388a128b7fd9a609611220820152672300e5d6baedf0fb611240820152672f63aa8647e1510461126082015267f1c36ce86ecec2696112808201526727181125183970c96112a082015267e584029370dca96d6112c0820152674d9bbc3e02f1cfb26112e082015267ea35bc29692af6f86113008201526718e21b4beabb4137611320820152671e3b9fc625b554f46113408201526725d64362697828fd611360820152675a3f1bb1c53a964561138082015267db7f023869fb8d386113a082015267b462065911d4e1fc6113c08201526749c24ae4437d80306113e082015267d793862c112b056661140082015267aadd1106730d8feb61142082015267c43b6e0e97b0d56861144082015267e29024c18ee6fca2611460820152675e50c27535b88c666114808201526710383f20a4ff9a876114a08201526738e8ee9d71a45af86114c082015267dd5118375bf1a9b96114e082015267775005982d74d7f76115008201526786ab99b4dde6c8b061152082015267b1204f603f51c08061154082015267ef61ac8470250ecf611560820152671bbcd90f132c603f611580820152670cd1dabd964db5576115a08201526711a3ae5beb9d1ec96115c082015267f755bfeea585d11d6115e082015267a3b83250268ea4d761160082015267516306f4927c93af61162082015267ddb4ac49c9efa1da6116408201526764bb6dec369d441861166082015267f9cc95c22b4c1fcc6116808201526708d37f755f4ae9f66116a082015267eec49b613478675b6116c082015267f143933aed25e0b06116e082015267e4c5dd8255dfc62261170082015267e7ad7756f193198e6117208201526792c2318b87fff9cb61174082015267739c25f8fd73596d611760820152675636cac9f16dfed061178082015267dd8f909a938e01726117a082015267c6401fe115063f5b6117c0820152678ad97b33f1ac14556117e0820152670c49366bb25e8513611800820152670784d3d2f169830961182082015267530fb67ea1809a8161184082015267410492299bb01f4961186082015267139542347424b9ac611880820152679cb0bd5ea1a1115e6118a08201526702e3f615c38f49a16118c082015267985d4f4a9c5291ef6118e082015267775b9feafdcd26e761190082015267304265a6384f0f2d61192082015267593664c39773012c611940820152674f0a2e5fb028f2ce61196082015267dd611f1000c1744261198082015267d8185f9adfea4fd06119a082015267ef87139ca9a3ab1e6119c0820152673ba71336c34ee1336119e0820152677d3a455d56b70238611a0082015267660d32e130182684611a2082015267297a863f48cd1f43611a408201526790e0a736a751ebb7611a6082015267549f80ce550c4fd3611a80820152670f73b2922f38bd64611aa08201526716bf1f73fb7a9c3f611ac0820152676d1f5a59005bec17611ae08201526702ff876fa5ef97c4611b0082015267c5cb72a2a51159b0611b20820152678470f39d2d5c900e611b408201526725abb3f1d39fcb76611b608201526723eb8cc9b372442f611b8082015267d687ba55c64f6364611ba082015267da8d9e90fd8ff158611bc082015267e3cbdc7d2fe45ea7611be082015267b9a8c9b3aee52297611c0082015267c0d28a5c10960bd3611c208201526745d7ac9b68f71a34611c4082015267eeb76e397069e804611c60820152673d06c8bd1514e2d9611c80820152679c9c98207cb10767611ca08201526765700b51aedfb5ef611cc082015267911f451539869408611ce0820152677ae6849fbc3a0ec6611d00820152673bb340eba06afe7e611d2082015267b46e9d8b682ea65e611d40820152678dcf22f9a3b34356611d608201526777bdaeda586257a7611d8082015267f19e400a5104d20d611da082015267c368a348e46d950f611dc0820152679ef1cd60e679f284611de082015267e89cd854d5d01d33611e00820152675cd377dc8bb882a2611e2082015267a7b0fb7883eee860611e40820152677684403ec392950d611e60820152675fa3f06f4fed3b52611e80820152678df57ac11bc04831611ea0820152672db01efa1e1e1897611ec08201526754846de4aadb9ca2611ee082015267ba6745385893c784611f0082015267541d496344d2c75b611f2082015267e909678474e687fe611f4082015267dfe89923f6c9c2ff611f6082015267ece5a71e0cfedc75611f80820152675ff98fd5d51fe610611fa08201526783e8941918964615611fc0820152675922040b47f150c1611fe082015267f97d750e3dd94521612000820152675080d4c2b86f56d761202082015267a7de115b56c78d70612040820152676a9242ac8753819461206082015267f7856ef7f9173e44612080820152672265fc92feb0dc096120a08201526717dfc8e4f7ba8a576120c0820152679001a64209f21db86120e08201526790004c1371b893c561210082015267b932b7cf752e554561212082015267a0b1df81b6fe59fc612140820152678ef1dd26770af2c2612160820152670541a4f9cfbeed35612180820152679e61106178bfc5306121a082015267b3767e80935d8af26121c08201526698d5782065af066121e08201526731d191cd5c1466c761220082015267410fefafa319ac9d61222082015267bdf8f242e316c4ab612240820152679e8cd55b57637ed061226082015267de122bebe9a39368612280820152674d001fd58f0025266122a082015267ca6637000eb4a9f86122c0820152672f2339d624f91f786122e0820152676d1a7918c80df51861230082015267df9a4939342308e961232082015267ebc2151ee6c8398c6123408201526703cc2ba8a111651561236082015267d341d037e840cf8361238082015267387cb5d25af4afcc6123a082015267bba2515f22909e876123c0820152677248fe7705f38e476123e0820152674d61e56a525d225a61240082015267262e963c8da05d3d6124208201526759e89b094d220ec261244082015267055d5b52b78b9c5e6124608201526782b27eb33514ef9961248082015267d30094ca96b7ce7b6124a082015267cf5cb381cd0a15356124c082015267feed4db6919e5a7c6124e08201526741703f53753be59f612500820152675eeea940fcde8b6f612520820152674cd1f1b175100206612540820152674a20358574454ec0612560820152671478d361dbbf9fac612580820152676f02dc07d141875c6125a082015267296a202ed8e556a26125c0820152672afd67999bf32ee56125e0820152677acfd96efa95491d612600820152676798ba0c0abb2c6d6126208201526734c6f57b26c92122612640820152675736e1bad206b5de6126608201526720057d2a0056521b612680820152673dea5bd5d0578bd76126a08201526716e50d897d4634ac6126c08201526729bff3ecb9b7a6e36126e082015267475cd3205a3bdcde6127008201526718a42105c31b7e8861272082015267023e7414af6630686127408201526715147108121967d761276082015267e4a3dff1d7d6fef96127808201526701a8d1a5880857376127a08201526711b4c74eda62beef6127c082015267e587cc0d69a733466127e0820152671ff7327017aa2a6e61280082015267594e29c42473d06b61282082015267f6f31db1899b12d561284082015267c02ac5e47312d3ca61286082015267e70201e960cb78b8612880820152676f90ff3b6a65f1086128a08201526742747a7245e7fa846128c082015267d1f507e43ab749b26128e0820152671c86d265f15750cd612900820152673996ce73dd832c1c612920820152678e7fba02983224bd61294082015267ba0dec7103255dd4612960820152679e9cbd781628fc5b61298082015267dae8645996edd6a56129a082015267debe0853b1a1d3786129c082015267a49229d24d0143436129e0820152677be5b9ffda905e1c612a0082015267a3c95eaec244aa30612a20820152670230bca8f4df0544612a40820152674135c2bebfe148c6612a6082015267166fc0cc438a3c72612a80820152673762b59a8ae83efa612aa082015267e8928a4c89114750612ac0820152672a440b51a4945ee5612ae08201526780cefd2b7d99ff83612b0082015267bb9879c6e61fd62a612b20820152676e7c8f1a84265034612b4082015267164bb2de1bbeddc8612b6082015267f3c12fe54d5c653b612b808201526740b9e922ed9771e2612ba082015267551f5b0fbe7b1840612bc08201526725032aa7c4cb1811612be082015267aaed34074b164346612c00820152678ffd96bbf9c9c81d612c208201526770fc91eb5937085c612c40820152677f795e2a5f915440612c60820152674543d9df5476d3cb612c8082015267f172d73e004fc90d612ca082015267dfd1c4febcc81238612cc082015267bc8dfb627fe558fc612ce0820152620015f990607e90610168620018f1565b503480156200160757600080fd5b5060405162003d1a38038062003d1a8339810160408190526200162a9162001945565b62001640816200164760201b620004481760201c565b506200195f565b600054610100900460ff1615808015620016685750600054600160ff909116105b8062001698575062001685306200177f60201b6200090e1760201c565b15801562001698575060005460ff166001145b620017015760405162461bcd60e51b815260206004820152602e60248201527f496e697469616c697a61626c653a20636f6e747261637420697320616c72656160448201526d191e481a5b9a5d1a585b1a5e995960921b60648201526084015b60405180910390fd5b6000805460ff19166001179055801562001725576000805461ff0019166101001790555b6065829055620017346200178e565b80156200177b576000805461ff0019169055604051600181527f7f26b83ff96e1f2b6a682f133852f6798a09c465da95921460cefb38474024989060200160405180910390a15b5050565b6001600160a01b03163b151590565b600054610100900460ff16620017ea5760405162461bcd60e51b815260206004820152602b602482015260008051602062003cfa83398151915260448201526a6e697469616c697a696e6760a81b6064820152608401620016f8565b620017f4620017f6565b565b600054610100900460ff16620018525760405162461bcd60e51b815260206004820152602b602482015260008051602062003cfa83398151915260448201526a6e697469616c697a696e6760a81b6064820152608401620016f8565b620017f433603380546001600160a01b038381166001600160a01b0319831681179093556040519116919082907f8be0079c531659141344cd1fd0a4f28419497f9722a3daafe3b4186f6b6457e090600090a35050565b82600c8101928215620018df579160200282015b82811115620018df578251829060ff16905591602001919060010190620018bd565b50620018ed9291506200192e565b5090565b826101688101928215620018df579160200282015b82811115620018df57825182906001600160401b031690559160200191906001019062001906565b5b80821115620018ed57600081556001016200192f565b6000602082840312156200195857600080fd5b5051919050565b61238b806200196f6000396000f3fe608060405234801561001057600080fd5b50600436106100ea5760003560e01c8063975f4aa61161008c578063dae0384711610066578063dae03847146101f9578063f112b89f14610202578063f2fde38b14610215578063f89785791461022857600080fd5b8063975f4aa614610198578063b9320394146101b9578063bbb62147146101d957600080fd5b80635f6fb58a116100c85780635f6fb58a1461014d578063715018a6146101605780638da5cb5b1461016a5780639498bd711461018557600080fd5b806342ed725f146100ef578063496f3b221461010a5780634f1202c01461012a575b600080fd5b6100f7600481565b6040519081526020015b60405180910390f35b61011d610118366004611bfd565b61023b565b6040516101019190611c7b565b61013d610138366004611cee565b610252565b6040519015158152602001610101565b6100f761015b366004611d95565b610382565b610168610434565b005b6033546040516001600160a01b039091168152602001610101565b610168610193366004611db7565b610448565b6100f76101a6366004611db7565b6101e66020526000908152604090205481565b6101cc6101c7366004611df3565b61055f565b6040516101019190611e8e565b6101ec6101e7366004611db7565b610764565b6040516101019190611ed2565b6100f760655481565b610168610210366004611f89565b6107f0565b610168610223366004611fde565b610824565b6100f761023636600461200e565b61089d565b610243611b52565b61024c8261091d565b92915050565b600080808080610264868801886120e6565b805160009081526101e6602052604090205493975091955093509150806102e15760405162461bcd60e51b815260206004820152602660248201527f5472616e73616374696f6e732064696765737420776173206e6f7420726567696044820152651cdd195c995960d21b60648201526084015b60405180910390fd5b60018a1461033d5760405162461bcd60e51b815260206004820152602360248201527f4f6e6c79206f6e652074797065206f6620617373657420697320617661696c61604482015262626c6560e81b60648201526084016102d8565b610373818c8c6000818110610354576103546121a9565b90506060020180360381019061036a91906121bf565b8b8888886109dc565b9b9a5050505050505050505050565b60008061038e84610764565b9050600061039b84610764565b90506103a5611b52565b82518152602080840151828201526040808501518184015260608086015181850152845160808501529184015160a084015283015160c083015282015160e08201526103f08161091d565b90506103fa611b71565b81518152602080830151908201526040808301519082015260608201518160035b60200201526104298161089d565b979650505050505050565b61043c610b1e565b6104466000610b78565b565b600054610100900460ff16158080156104685750600054600160ff909116105b806104825750303b158015610482575060005460ff166001145b6104e55760405162461bcd60e51b815260206004820152602e60248201527f496e697469616c697a61626c653a20636f6e747261637420697320616c72656160448201526d191e481a5b9a5d1a585b1a5e995960921b60648201526084016102d8565b6000805460ff191660011790558015610508576000805461ff0019166101001790555b6065829055610515610bca565b801561055b576000805461ff0019169055604051600181527f7f26b83ff96e1f2b6a682f133852f6798a09c465da95921460cefb38474024989060200160405180910390a15b5050565b6060610569611b52565b60005b600c8110156105a05760008282600c8110610589576105896121a9565b60200201528061059881612230565b91505061056c565b506000600885516105b1919061225f565b90506000600886516105c39190612273565b905060005b828110156106525760005b60088110156106345787816105e9600885612287565b6105f3919061229e565b81518110610603576106036121a9565b60200260200101518582600c811061061d5761061d6121a9565b60200201528061062c81612230565b9150506105d3565b5061063e8461091d565b93508061064a81612230565b9150506105c8565b5060005b818110156106b657868161066b600886612287565b610675919061229e565b81518110610685576106856121a9565b60200260200101518482600c811061069f5761069f6121a9565b6020020152806106ae81612230565b915050610656565b506106c08361091d565b92506000856001600160401b038111156106dc576106dc611b8f565b604051908082528060200260200182016040528015610705578160200160208202803683370190505b50905060005b86811015610759578481600c8110610725576107256121a9565b602002015182828151811061073c5761073c6121a9565b60209081029190910101528061075181612230565b91505061070b565b509695505050505050565b61076c611b71565b60008260405160200161078191815260200190565b6040516020818303038152906040528060200190518101906107a391906122b1565b90506107b3600160401b82612273565b825260401c6107c6600160401b82612273565b602083015260401c6107dc600160401b82612273565b6040808401919091521c6060820152919050565b60006107fb84610bf9565b9050610808818484610cc0565b5050506060810151905160009081526101e66020526040902055565b61082c610b1e565b6001600160a01b0381166108915760405162461bcd60e51b815260206004820152602660248201527f4f776e61626c653a206e6577206f776e657220697320746865207a65726f206160448201526564647265737360d01b60648201526084016102d8565b61089a81610b78565b50565b6060810151604080830151602080850151855184516001600160c01b031960c097881b81169482019490945293861b8316602885015290851b8216603084015290931b90921660388301526000910160405160208183030381529060405280602001905181019061024c91906122b1565b6001600160a01b03163b151590565b610925611b52565b60006109318382610de7565b90935090506109408382610e39565b909350905061094f8382610de7565b909350905060005b600c8110156109b1576109888482600c8110610975576109756121a9565b602002015167ffffffff00000001900690565b8482600c811061099a5761099a6121a9565b6020020152806109a981612230565b915050610957565b5060166109c060046002612287565b6109ca919061229e565b81146109d557600080fd5b5090919050565b604080516001808252818301909252600091829190816020015b60408051606081018252600080825260208083018290529282015282526000199092019101816109f65790505090508681600081518110610a3957610a396121a9565b60200260200101819052506000610a5282888789610e94565b905083602001518114610aa75760405162461bcd60e51b815260206004820152601f60248201527f4661696c20746f20766572696679207472616e73616374696f6e20686173680060448201526064016102d8565b6000610ab285611016565b9050898114610b0e5760405162461bcd60e51b815260206004820152602260248201527f4661696c20746f20766572696679207472616e73616374696f6e7320646967656044820152611cdd60f21b60648201526084016102d8565b5060019998505050505050505050565b6033546001600160a01b031633146104465760405162461bcd60e51b815260206004820181905260248201527f4f776e61626c653a2063616c6c6572206973206e6f7420746865206f776e657260448201526064016102d8565b603380546001600160a01b038381166001600160a01b0319831681179093556040519116919082907f8be0079c531659141344cd1fd0a4f28419497f9722a3daafe3b4186f6b6457e090600090a35050565b600054610100900460ff16610bf15760405162461bcd60e51b81526004016102d8906122ca565b6104466110b4565b6000610c0d82606001518360800151610382565b905060008260000151604051602001610c2891815260200190565b604051602081830303815290604052806020019051810190610c4a91906122b1565b90506000610c5c828560e00151610382565b90506000610c7285608001518660600151610382565b90506000610c808383610382565b90506000610c968760a001518860c00151610382565b90506000610ca48383610382565b9050610cb4886040015182610382565b98975050505050505050565b6000610d19846040517f19457468657265756d205369676e6564204d6573736167653a0a3332000000006020820152603c8101829052600090605c01604051602081830303815290604052805190602001209050919050565b90506000610d5d8285858080601f0160208091040260200160405190810160405280939291908181526020018383808284376000920191909152506110e492505050565b9050610d716033546001600160a01b031690565b6001600160a01b0316816001600160a01b031614610de05760405162461bcd60e51b815260206004820152602660248201527f4661696c20746f207665726966792061676772656761746f722773207369676e60448201526530ba3ab9329760d11b60648201526084016102d8565b5050505050565b610def611b52565b6000805b6004811015610e2a57610e068585611108565b9450610e11856112de565b9450610e1c8561132c565b945060019384019301610df3565b508383915091505b9250929050565b610e41611b52565b6000805b6016811015610e2a57610e588585611108565b9450610e7b8560005b602002015167ffffffff0000000181800282020680020290565b8552610e868561132c565b945060019384019301610e45565b60008451600114610ea457600080fd5b600085600081518110610eb957610eb96121a9565b602002602001015160200151604051602001610ed791815260200190565b604051602081830303815290604052806020019051810190610ef991906122b1565b9050600086600081518110610f1057610f106121a9565b602002602001015160400151604051602001610f2e91815260200190565b604051602081830303815290604052806020019051810190610f5091906122b1565b90506000610f5e83836113fa565b90506000610f8a89600081518110610f7857610f786121a9565b602002602001015160000151836113fa565b90506000610f9889836113fa565b9050600089604051602001610faf91815260200190565b604051602081830303815290604052806020019051810190610fd191906122b1565b60408051606081018252828152602081018590529081018b90529091506000610ff9826116a9565b9050611005818b610382565b9d9c50505050505050505050505050565b6020810151815160009190825b8460400151518110156110ab57600182811c9281169081900361106e5761106786604001518381518110611059576110596121a9565b602002602001015185610382565b9350611098565b6110958487604001518481518110611088576110886121a9565b6020026020010151610382565b93505b50806110a381612230565b915050611023565b50909392505050565b600054610100900460ff166110db5760405162461bcd60e51b81526004016102d8906122ca565b61044633610b78565b60008060006110f38585611751565b9150915061110081611793565b509392505050565b611110611b52565b8251600c83029061113690607e83610168811061112f5761112f6121a9565b01546118dd565b8252602084015161115890607e60018401610168811061112f5761112f6121a9565b6020830152604084015161117d90607e60028401610168811061112f5761112f6121a9565b604083015260608401516111a290607e60038401610168811061112f5761112f6121a9565b606083015260808401516111c790607e60048401610168811061112f5761112f6121a9565b608083015260a08401516111ec90607e60058401610168811061112f5761112f6121a9565b60a083015260c084015161121190607e60068401610168811061112f5761112f6121a9565b60c083015260e084015161123690607e60078401610168811061112f5761112f6121a9565b60e083015261010084015161125c90607e60088401610168811061112f5761112f6121a9565b61010083015261012084015161128390607e60098401610168811061112f5761112f6121a9565b6101208301526101408401516112aa90607e600a8401610168811061112f5761112f6121a9565b6101408301526101608401516112d190607e600b8401610168811061112f5761112f6121a9565b6101608301525092915050565b6112e6611b52565b60005b600c811015611326576113078382600c8110610e6157610e616121a9565b8282600c8110611319576113196121a9565b60200201526001016112e9565b50919050565b611334611b52565b61133f6000836118f2565b815261134c6001836118f2565b602082015261135c6002836118f2565b604082015261136c6003836118f2565b606082015261137c6004836118f2565b608082015261138c6005836118f2565b60a082015261139c6006836118f2565b60c08201526113ac6007836118f2565b60e08201526113bc6008836118f2565b6101008201526113cd6009836118f2565b6101208201526113de600a836118f2565b6101408201526113ef600b836118f2565b610160820152919050565b60008061140684610764565b9050600061141384610764565b60408051600c8082526101a0820190925291925060009190602082016101808036833750508451825192935091839150600090611452576114526121a9565b6020908102919091010152826001602002015181600181518110611478576114786121a9565b602090810291909101015282600260200201518160028151811061149e5761149e6121a9565b60209081029190910101528260036020020151816003815181106114c4576114c46121a9565b602090810291909101015281518151829060049081106114e6576114e66121a9565b602090810291909101015281600160200201518160058151811061150c5761150c6121a9565b6020908102919091010152816002602002015181600681518110611532576115326121a9565b6020908102919091010152816003602002015181600781518110611558576115586121a9565b602002602001018181525050600181600881518110611579576115796121a9565b60200260200101818152505060018160098151811061159a5761159a6121a9565b602002602001018181525050600181600b815181106115bb576115bb6121a9565b6020026020010181815250506115d281600461055f565b90506115dc611b71565b816000815181106115ef576115ef6121a9565b60200260200101518160006004811061160a5761160a6121a9565b6020020152815182906001908110611624576116246121a9565b60200260200101518160016004811061163f5761163f6121a9565b6020020152815182906002908110611659576116596121a9565b602002602001015181600260048110611674576116746121a9565b602002015281518290600390811061168e5761168e6121a9565b60200260200101518160036004811061041b5761041b6121a9565b60208101516040820151516000919082906116c690610100612315565b8451604086015151911b91505b80156110ab57600182811b9260ff1c9081900361171557604086015161170e906116fe600185612315565b81518110611059576110596121a9565b935061173e565b61173b84876040015160018561172b9190612315565b81518110611088576110886121a9565b93505b508061174981612328565b9150506116d3565b60008082516041036117875760208301516040840151606085015160001a61177b87828585611a8e565b94509450505050610e32565b50600090506002610e32565b60008160048111156117a7576117a761233f565b036117af5750565b60018160048111156117c3576117c361233f565b036118105760405162461bcd60e51b815260206004820152601860248201527f45434453413a20696e76616c6964207369676e6174757265000000000000000060448201526064016102d8565b60028160048111156118245761182461233f565b036118715760405162461bcd60e51b815260206004820152601f60248201527f45434453413a20696e76616c6964207369676e6174757265206c656e6774680060448201526064016102d8565b60038160048111156118855761188561233f565b0361089a5760405162461bcd60e51b815260206004820152602260248201527f45434453413a20696e76616c6964207369676e6174757265202773272076616c604482015261756560f01b60648201526084016102d8565b600067ffffffff000000018284089392505050565b600060118284600c8110611908576119086121a9565b60200201510201600f82600c6001860106600c8110611929576119296121a9565b60200201510201602982600c6002860106600c811061194a5761194a6121a9565b60200201510201601082600c6003860106600c811061196b5761196b6121a9565b60200201510201600282600c6004860106600c811061198c5761198c6121a9565b60200201510201601c82600c6005860106600c81106119ad576119ad6121a9565b60200201510201600d82600c6006860106600c81106119ce576119ce6121a9565b60200201510201600d82600c6007860106600c81106119ef576119ef6121a9565b60200201510201602782600c6008860106600c8110611a1057611a106121a9565b60200201510201601282600c6009860106600c8110611a3157611a316121a9565b60200201510201602282600c600a860106600c8110611a5257611a526121a9565b60200201510201601482600c600b860106600c8110611a7357611a736121a9565b60200201510201600083900361024c57905160080201919050565b6000807f7fffffffffffffffffffffffffffffff5d576e7357a4501ddfe92f46681b20a0831115611ac55750600090506003611b49565b6040805160008082526020820180845289905260ff881692820192909252606081018690526080810185905260019060a0016020604051602081039080840390855afa158015611b19573d6000803e3d6000fd5b5050604051601f1901519150506001600160a01b038116611b4257600060019250925050611b49565b9150600090505b94509492505050565b604051806101800160405280600c906020820280368337509192915050565b60405180608001604052806004906020820280368337509192915050565b634e487b7160e01b600052604160045260246000fd5b604051606081016001600160401b0381118282101715611bc757611bc7611b8f565b60405290565b604051601f8201601f191681016001600160401b0381118282101715611bf557611bf5611b8f565b604052919050565b6000610180808385031215611c1157600080fd5b83601f840112611c2057600080fd5b6040518181018181106001600160401b0382111715611c4157611c41611b8f565b604052908301908085831115611c5657600080fd5b845b83811015611c70578035825260209182019101611c58565b509095945050505050565b6101808101818360005b600c811015611ca4578151835260209283019290910190600101611c85565b50505092915050565b60008083601f840112611cbf57600080fd5b5081356001600160401b03811115611cd657600080fd5b602083019150836020828501011115610e3257600080fd5b600080600080600060608688031215611d0657600080fd5b85356001600160401b0380821115611d1d57600080fd5b818801915088601f830112611d3157600080fd5b813581811115611d4057600080fd5b896020606083028501011115611d5557600080fd5b60209283019750955090870135935060408701359080821115611d7757600080fd5b50611d8488828901611cad565b969995985093965092949392505050565b60008060408385031215611da857600080fd5b50508035926020909101359150565b600060208284031215611dc957600080fd5b5035919050565b60006001600160401b03821115611de957611de9611b8f565b5060051b60200190565b60008060408385031215611e0657600080fd5b82356001600160401b03811115611e1c57600080fd5b8301601f81018513611e2d57600080fd5b80356020611e42611e3d83611dd0565b611bcd565b82815260059290921b83018101918181019088841115611e6157600080fd5b938201935b83851015611e7f57843582529382019390820190611e66565b98969091013596505050505050565b6020808252825182820181905260009190848201906040850190845b81811015611ec657835183529284019291840191600101611eaa565b50909695505050505050565b60808101818360005b6004811015611ca4578151835260209283019290910190600101611edb565b6000610100808385031215611f0e57600080fd5b604051908101906001600160401b0382118183101715611f3057611f30611b8f565b81604052809250833581526020840135602082015260408401356040820152606084013560608201526080840135608082015260a084013560a082015260c084013560c082015260e084013560e0820152505092915050565b60008060006101208486031215611f9f57600080fd5b611fa98585611efa565b92506101008401356001600160401b03811115611fc557600080fd5b611fd186828701611cad565b9497909650939450505050565b600060208284031215611ff057600080fd5b81356001600160a01b038116811461200757600080fd5b9392505050565b60006080828403121561202057600080fd5b82601f83011261202f57600080fd5b604051608081018181106001600160401b038211171561205157612051611b8f565b60405280608084018581111561206657600080fd5b845b81811015612080578035835260209283019201612068565b509195945050505050565b600082601f83011261209c57600080fd5b813560206120ac611e3d83611dd0565b82815260059290921b840181019181810190868411156120cb57600080fd5b8286015b8481101561075957803583529183019183016120cf565b60008060008061016085870312156120fd57600080fd5b8435935060208501356001600160401b038082111561211b57600080fd5b6121278883890161208b565b9450604087013591508082111561213d57600080fd5b908601906060828903121561215157600080fd5b612159611ba5565b823581526020830135602082015260408301358281111561217957600080fd5b6121858a82860161208b565b60408301525080945050505061219e8660608701611efa565b905092959194509250565b634e487b7160e01b600052603260045260246000fd5b6000606082840312156121d157600080fd5b604051606081018181106001600160401b03821117156121f3576121f3611b8f565b80604052508235815260208301356020820152604083013560408201528091505092915050565b634e487b7160e01b600052601160045260246000fd5b6000600182016122425761224261221a565b5060010190565b634e487b7160e01b600052601260045260246000fd5b60008261226e5761226e612249565b500490565b60008261228257612282612249565b500690565b808202811582820484141761024c5761024c61221a565b8082018082111561024c5761024c61221a565b6000602082840312156122c357600080fd5b5051919050565b6020808252602b908201527f496e697469616c697a61626c653a20636f6e7472616374206973206e6f74206960408201526a6e697469616c697a696e6760a81b606082015260800190565b8181038181111561024c5761024c61221a565b6000816123375761233761221a565b506000190190565b634e487b7160e01b600052602160045260246000fdfea2646970667358221220f05bb09eca6b8aa06c9300a4e2a0d28ee6677a460d6b0d72e07e47fb49e6c14864736f6c63430008110033496e697469616c697a61626c653a20636f6e7472616374206973206e6f742069",
  "linkReferences": {},
  "deployedLinkReferences": {}
}