{
  "_format": "hh-sol-artifact-1",
  "contractName": "MerkleTree",
  "sourceName": "contracts/utils/MerkleTree.sol",
  "abi": [
    {
      "inputs": [],
      "name": "HALF_N_FULL_ROUNDS",
      "outputs": [
        {
          "internalType": "uint256",
          "name": "",
          "type": "uint256"
        }
      ],
      "stateMutability": "view",
      "type": "function"
    },
    {
      "inputs": [
        {
          "internalType": "bytes32",
          "name": "encoded",
          "type": "bytes32"
        }
      ],
      "name": "decodeHashOut",
      "outputs": [
        {
          "internalType": "uint256[4]",
          "name": "output",
          "type": "uint256[4]"
        }
      ],
      "stateMutability": "pure",
      "type": "function"
    },
    {
      "inputs": [
        {
          "internalType": "uint256[4]",
          "name": "value",
          "type": "uint256[4]"
        }
      ],
      "name": "encodeHashOut",
      "outputs": [
        {
          "internalType": "bytes32",
          "name": "encoded",
          "type": "bytes32"
        }
      ],
      "stateMutability": "pure",
      "type": "function"
    },
    {
      "inputs": [
        {
          "internalType": "uint256[]",
          "name": "input",
          "type": "uint256[]"
        },
        {
          "internalType": "uint256",
          "name": "num_outputs",
          "type": "uint256"
        }
      ],
      "name": "hash_n_to_m_no_pad",
      "outputs": [
        {
          "internalType": "uint256[]",
          "name": "",
          "type": "uint256[]"
        }
      ],
      "stateMutability": "view",
      "type": "function"
    },
    {
      "inputs": [
        {
          "internalType": "uint256[12]",
          "name": "state",
          "type": "uint256[12]"
        }
      ],
      "name": "permute",
      "outputs": [
        {
          "internalType": "uint256[12]",
          "name": "",
          "type": "uint256[12]"
        }
      ],
      "stateMutability": "view",
      "type": "function"
    },
    {
      "inputs": [
        {
          "internalType": "bytes32",
          "name": "left",
          "type": "bytes32"
        },
        {
          "internalType": "bytes32",
          "name": "right",
          "type": "bytes32"
        }
      ],
      "name": "two_to_one",
      "outputs": [
        {
          "internalType": "bytes32",
          "name": "hash_out",
          "type": "bytes32"
        }
      ],
      "stateMutability": "view",
      "type": "function"
    }
  ],
  "bytecode": "0x61020060405260116080908152600f60a052602960c052601060e052600261010052601c61012052600d6101408190526101605260276101805260126101a05260226101c05260146101e0526200005b90600090600c6200160d565b50604080516101808101825260088152600060208201819052918101829052606081018290526080810182905260a0810182905260c0810182905260e08101829052610100810182905261012081018290526101408101829052610160810191909152620000cd90600c90816200160d565b5060408051612d008101825267b585f766f21444058152677746a55f43921ad7602082015267b2fb0d31cee799b491810191909152670f6760a4803427d7606082015267e10d666650f4e0126080820152678cae14cb07d09bf160a082015267d438539c95f63e9f60c082015267ef781c7ce35b4c3d60e082015267cdc4a239b0c4442661010082015267277fa208bf337bff61012082015267e17653a29da578a161014082015267c54302f225db2c766101608201526786287821f722c8816101808201526759cd1a8a41c18e556101a082015267c3b919ad495dc5746101c082015267a484c4c5ef6a07816101e082015267308bbd23dc5416cc610200820152676e4a40c18f30c09c610220820152679a2eedb70d8f8cfa61024082015267e360c6e0ae486f3861026082015267d5c7718fbfc647fb61028082015267c35eae071903ff0b6102a082015267849c2656969c4be76102c082015267c0572c8c08cbbbad6102e082015267e9fa634a21de008261030082015267f56f6d48959a600d61032082015267f7d713e806391165610340820152678297132b32825daf61036082015267ad6805e0e30b2c8a61038082015267ac51d9f5fcf8535e6103a082015267502ad7dc18c2ad876103c08201526757a1550c110b30416103e08201526766bbd30e6ce0e583610400820152670da2abef589d644e61042082015267f061274fdb150d616104408201526728b8ec3ae9c296336104608201526792a756e67e2b94136104808201526770e741ebfee965866104a082015267019d5ee2af82ec1c6104c0820152676f6f2ed7724663526104e0820152677cf416cfe7e14ca16105008201526761df517b86a464396105208201526785dc499b11d77b75610540820152674b959b48b9c1073361056082015267e8be3e5da8043e5761058082015267f5c0bc1de6da86996105a08201526740b12cbf09ef74bf6105c082015267a637093ecb2ad6316105e0820152673cc3f892184df408610600820152672e479dc157bf31bb610620820152676f49de07a623434661064082015267213ce7bede378d7b610660820152675b0431345d4dea8361068082015267a2de45780344d6a16106a0820152677103aaf94a7bf3086106c0820152675326fc0d972793016106e082015267a9ceb74fec0247476107008201526727f8ec88bb21b1a361072082015267fceb4fda1ded089361074082015267fac6ff1346a41675610760820152677131aa45268d7d8c610780820152679351036095630f9f6107a082015267ad535b24afc26bfb6107c0820152674627f5c6993e44be6107e082015267645cf794b8f1cc5861080082015267241c70ed0af6161761082082015267acb8e076647905f1610840820152673737e9db4c4f474d61086082015267e7ea5e33e75fffb66108808201526790dee49fc9bfc23a6108a082015267d1b1edf76bc09c926108c0820152670b65481ba645c6026108e08201526799ad1aab0814283b61090082015267438a7c91d416ca4d61092082015267b60de3bcc5ea751c61094082015267c99cab6aef6f58bc6109608201526769a5ed92a72ee4ff610980820152675e7b329c1ed4ad716109a0820152675fc0ac08001448856109c08201526732db829239774eca6109e0820152670ade699c5830f310610a00820152677cc5583b10415f21610a208201526785df9ed2e166d64f610a40820152676604df4fee32bcb1610a6082015267eb84f608da56ef48610a8082015267da608834c40e603d610aa0820152678f97fe408061f183610ac082015267a93f485c96f37b89610ae0820152676704e8ee8f18d563610b0082015267cee3e9ac1e072119610b2082015267510d0e65e2b470c1610b4082015267f6323f486b9038f0610b60820152670b508cdeffa5ceef610b8082015267f2417089e4fb3cbd610ba08201526760e75c2890d15730610bc082015267a6217d8bf660f29c610be0820152677159cd30c3ac118e610c0082015267839b4e8fafead540610c20820152670d3f3e5e82920adc610c40820152678f7d83bddee7bba8610c6082015267780f2243ea071d06610c8082015267eb915845f3de1634610ca082015267d19e120d26b6f386610cc082015267016ee53a7e5fecc6610ce082015267cb5fd54e7933e477610d0082015267acb8417879fd449f610d20820152679c22190be7f74732610d40820152675d693c1ba3ba3621610d6082015267dcef0797c2b69ec7610d80820152673d639263da827b13610da082015267e273fd971bc8d0e7610dc082015267418f02702d227ed5610de0820152678c25fda3b503038c610e00820152672cbaed4daec8c07c610e20820152675f58e6afcdd6ddc2610e4082015267284650ac5e1b0eba610e6082015267635b337ee819dab5610e80820152679f9a036ed4f2d49f610ea082015267b93e260cae5c170e610ec082015267b0a7eae879ddb76d610ee082015267d0762cbc8ca6570c610f008201526734c6efb812b04bf5610f208201526740bf0ab5fa14c112610f4082015267b6b570fc7c5740d3610f60820152675a27b9002de33454610f8082015267b1a5b165b6d2b2d2610fa0820152678722e0ace9d1be22610fc082015267788ee3b37e5680fb610fe08201526714a726661551e2846110008201526798b7672f9ef3b41961102082015267bb93ae776bb30e3a6110408201526728fd3b046380f8506110608201526730a468059325838761108082015267337dc00c61bd9ce16110a082015267d5eca244c7a4ff1d6110c0820152677762638264d279bd6110e082015267c1e434bedeefd767611100820152670299351a53b8ec2261112082015267b2d456e4ad251b80611140820152673e9ed1fda49cea0b611160820152672972a92ba450bed86111808201526720216dd77be493de6111a082015267adffe8cf28449ec66111c0820152671c4dbb1c4c27d2436111e08201526715a16a8a8322d45861120082015267388a128b7fd9a609611220820152672300e5d6baedf0fb611240820152672f63aa8647e1510461126082015267f1c36ce86ecec2696112808201526727181125183970c96112a082015267e584029370dca96d6112c0820152674d9bbc3e02f1cfb26112e082015267ea35bc29692af6f86113008201526718e21b4beabb4137611320820152671e3b9fc625b554f46113408201526725d64362697828fd611360820152675a3f1bb1c53a964561138082015267db7f023869fb8d386113a082015267b462065911d4e1fc6113c08201526749c24ae4437d80306113e082015267d793862c112b056661140082015267aadd1106730d8feb61142082015267c43b6e0e97b0d56861144082015267e29024c18ee6fca2611460820152675e50c27535b88c666114808201526710383f20a4ff9a876114a08201526738e8ee9d71a45af86114c082015267dd5118375bf1a9b96114e082015267775005982d74d7f76115008201526786ab99b4dde6c8b061152082015267b1204f603f51c08061154082015267ef61ac8470250ecf611560820152671bbcd90f132c603f611580820152670cd1dabd964db5576115a08201526711a3ae5beb9d1ec96115c082015267f755bfeea585d11d6115e082015267a3b83250268ea4d761160082015267516306f4927c93af61162082015267ddb4ac49c9efa1da6116408201526764bb6dec369d441861166082015267f9cc95c22b4c1fcc6116808201526708d37f755f4ae9f66116a082015267eec49b613478675b6116c082015267f143933aed25e0b06116e082015267e4c5dd8255dfc62261170082015267e7ad7756f193198e6117208201526792c2318b87fff9cb61174082015267739c25f8fd73596d611760820152675636cac9f16dfed061178082015267dd8f909a938e01726117a082015267c6401fe115063f5b6117c0820152678ad97b33f1ac14556117e0820152670c49366bb25e8513611800820152670784d3d2f169830961182082015267530fb67ea1809a8161184082015267410492299bb01f4961186082015267139542347424b9ac611880820152679cb0bd5ea1a1115e6118a08201526702e3f615c38f49a16118c082015267985d4f4a9c5291ef6118e082015267775b9feafdcd26e761190082015267304265a6384f0f2d61192082015267593664c39773012c611940820152674f0a2e5fb028f2ce61196082015267dd611f1000c1744261198082015267d8185f9adfea4fd06119a082015267ef87139ca9a3ab1e6119c0820152673ba71336c34ee1336119e0820152677d3a455d56b70238611a0082015267660d32e130182684611a2082015267297a863f48cd1f43611a408201526790e0a736a751ebb7611a6082015267549f80ce550c4fd3611a80820152670f73b2922f38bd64611aa08201526716bf1f73fb7a9c3f611ac0820152676d1f5a59005bec17611ae08201526702ff876fa5ef97c4611b0082015267c5cb72a2a51159b0611b20820152678470f39d2d5c900e611b408201526725abb3f1d39fcb76611b608201526723eb8cc9b372442f611b8082015267d687ba55c64f6364611ba082015267da8d9e90fd8ff158611bc082015267e3cbdc7d2fe45ea7611be082015267b9a8c9b3aee52297611c0082015267c0d28a5c10960bd3611c208201526745d7ac9b68f71a34611c4082015267eeb76e397069e804611c60820152673d06c8bd1514e2d9611c80820152679c9c98207cb10767611ca08201526765700b51aedfb5ef611cc082015267911f451539869408611ce0820152677ae6849fbc3a0ec6611d00820152673bb340eba06afe7e611d2082015267b46e9d8b682ea65e611d40820152678dcf22f9a3b34356611d608201526777bdaeda586257a7611d8082015267f19e400a5104d20d611da082015267c368a348e46d950f611dc0820152679ef1cd60e679f284611de082015267e89cd854d5d01d33611e00820152675cd377dc8bb882a2611e2082015267a7b0fb7883eee860611e40820152677684403ec392950d611e60820152675fa3f06f4fed3b52611e80820152678df57ac11bc04831611ea0820152672db01efa1e1e1897611ec08201526754846de4aadb9ca2611ee082015267ba6745385893c784611f0082015267541d496344d2c75b611f2082015267e909678474e687fe611f4082015267dfe89923f6c9c2ff611f6082015267ece5a71e0cfedc75611f80820152675ff98fd5d51fe610611fa08201526783e8941918964615611fc0820152675922040b47f150c1611fe082015267f97d750e3dd94521612000820152675080d4c2b86f56d761202082015267a7de115b56c78d70612040820152676a9242ac8753819461206082015267f7856ef7f9173e44612080820152672265fc92feb0dc096120a08201526717dfc8e4f7ba8a576120c0820152679001a64209f21db86120e08201526790004c1371b893c561210082015267b932b7cf752e554561212082015267a0b1df81b6fe59fc612140820152678ef1dd26770af2c2612160820152670541a4f9cfbeed35612180820152679e61106178bfc5306121a082015267b3767e80935d8af26121c08201526698d5782065af066121e08201526731d191cd5c1466c761220082015267410fefafa319ac9d61222082015267bdf8f242e316c4ab612240820152679e8cd55b57637ed061226082015267de122bebe9a39368612280820152674d001fd58f0025266122a082015267ca6637000eb4a9f86122c0820152672f2339d624f91f786122e0820152676d1a7918c80df51861230082015267df9a4939342308e961232082015267ebc2151ee6c8398c6123408201526703cc2ba8a111651561236082015267d341d037e840cf8361238082015267387cb5d25af4afcc6123a082015267bba2515f22909e876123c0820152677248fe7705f38e476123e0820152674d61e56a525d225a61240082015267262e963c8da05d3d6124208201526759e89b094d220ec261244082015267055d5b52b78b9c5e6124608201526782b27eb33514ef9961248082015267d30094ca96b7ce7b6124a082015267cf5cb381cd0a15356124c082015267feed4db6919e5a7c6124e08201526741703f53753be59f612500820152675eeea940fcde8b6f612520820152674cd1f1b175100206612540820152674a20358574454ec0612560820152671478d361dbbf9fac612580820152676f02dc07d141875c6125a082015267296a202ed8e556a26125c0820152672afd67999bf32ee56125e0820152677acfd96efa95491d612600820152676798ba0c0abb2c6d6126208201526734c6f57b26c92122612640820152675736e1bad206b5de6126608201526720057d2a0056521b612680820152673dea5bd5d0578bd76126a08201526716e50d897d4634ac6126c08201526729bff3ecb9b7a6e36126e082015267475cd3205a3bdcde6127008201526718a42105c31b7e8861272082015267023e7414af6630686127408201526715147108121967d761276082015267e4a3dff1d7d6fef96127808201526701a8d1a5880857376127a08201526711b4c74eda62beef6127c082015267e587cc0d69a733466127e0820152671ff7327017aa2a6e61280082015267594e29c42473d06b61282082015267f6f31db1899b12d561284082015267c02ac5e47312d3ca61286082015267e70201e960cb78b8612880820152676f90ff3b6a65f1086128a08201526742747a7245e7fa846128c082015267d1f507e43ab749b26128e0820152671c86d265f15750cd612900820152673996ce73dd832c1c612920820152678e7fba02983224bd61294082015267ba0dec7103255dd4612960820152679e9cbd781628fc5b61298082015267dae8645996edd6a56129a082015267debe0853b1a1d3786129c082015267a49229d24d0143436129e0820152677be5b9ffda905e1c612a0082015267a3c95eaec244aa30612a20820152670230bca8f4df0544612a40820152674135c2bebfe148c6612a6082015267166fc0cc438a3c72612a80820152673762b59a8ae83efa612aa082015267e8928a4c89114750612ac0820152672a440b51a4945ee5612ae08201526780cefd2b7d99ff83612b0082015267bb9879c6e61fd62a612b20820152676e7c8f1a84265034612b4082015267164bb2de1bbeddc8612b6082015267f3c12fe54d5c653b612b808201526740b9e922ed9771e2612ba082015267551f5b0fbe7b1840612bc08201526725032aa7c4cb1811612be082015267aaed34074b164346612c00820152678ffd96bbf9c9c81d612c208201526770fc91eb5937085c612c40820152677f795e2a5f915440612c60820152674543d9df5476d3cb612c8082015267f172d73e004fc90d612ca082015267dfd1c4febcc81238612cc082015267bc8dfb627fe558fc612ce0820152620015f89060189061016862001655565b503480156200160657600080fd5b50620016a9565b82600c810192821562001643579160200282015b8281111562001643578251829060ff1690559160200191906001019062001621565b506200165192915062001692565b5090565b82610168810192821562001643579160200282015b828111156200164357825182906001600160401b03169055916020019190600101906200166a565b5b8082111562001651576000815560010162001693565b610edb80620016b96000396000f3fe608060405234801561001057600080fd5b50600436106100625760003560e01c806342ed725f14610067578063496f3b22146100825780635f6fb58a146100a2578063b9320394146100b5578063bbb62147146100d5578063f8978579146100f5575b600080fd5b61006f600481565b6040519081526020015b60405180910390f35b610095610090366004610b5d565b610108565b6040516100799190610bdc565b61006f6100b0366004610c0e565b61011f565b6100c86100c3366004610c30565b6101cd565b6040516100799190610cdc565b6100e86100e3366004610d20565b6103d3565b6040516100799190610d39565b61006f610103366004610d61565b61045f565b610110610ad9565b610119826104d0565b92915050565b60008061012b846103d3565b90506000610138846103d3565b9050610142610ad9565b82518152602080840151828201526040808501518184015260608086015181850152845160808501529184015160a084015283015160c083015282015160e082015261018d816104d0565b9050610197610af8565b815181526020808301519082015260408083015190820152606080830151908201526101c28161045f565b979650505050505050565b60606101d7610ad9565b60005b600c81101561020e5760008282600c81106101f7576101f7610ddf565b60200201528061020681610e0b565b9150506101da565b5060006008855161021f9190610e3a565b90506000600886516102319190610e4e565b905060005b828110156102c05760005b60088110156102a2578781610257600885610e62565b6102619190610e79565b8151811061027157610271610ddf565b60200260200101518582600c811061028b5761028b610ddf565b60200201528061029a81610e0b565b915050610241565b506102ac846104d0565b9350806102b881610e0b565b915050610236565b5060005b818110156103245786816102d9600886610e62565b6102e39190610e79565b815181106102f3576102f3610ddf565b60200260200101518482600c811061030d5761030d610ddf565b60200201528061031c81610e0b565b9150506102c4565b5061032e836104d0565b925060008567ffffffffffffffff81111561034b5761034b610b16565b604051908082528060200260200182016040528015610374578160200160208202803683370190505b50905060005b868110156103c8578481600c811061039457610394610ddf565b60200201518282815181106103ab576103ab610ddf565b6020908102919091010152806103c081610e0b565b91505061037a565b509695505050505050565b6103db610af8565b6000826040516020016103f091815260200190565b6040516020818303038152906040528060200190518101906104129190610e8c565b9050610422600160401b82610e4e565b825260401c610435600160401b82610e4e565b602083015260401c61044b600160401b82610e4e565b6040808401919091521c6060820152919050565b6060810151604080830151602080850151855184516001600160c01b031960c097881b81169482019490945293861b8316602885015290851b8216603084015290931b9092166038830152600091016040516020818303038152906040528060200190518101906101199190610e8c565b6104d8610ad9565b60006104e4838261058f565b90935090506104f383826105db565b9093509050610502838261058f565b909350905060005b600c8110156105645761053b8482600c811061052857610528610ddf565b602002015167ffffffff00000001900690565b8482600c811061054d5761054d610ddf565b60200201528061055c81610e0b565b91505061050a565b50601661057360046002610e62565b61057d9190610e79565b811461058857600080fd5b5090919050565b610597610ad9565b6000805b60048110156105d2576105ae8585610636565b94506105b98561080c565b94506105c48561085a565b94506001938401930161059b565b50929391925050565b6105e3610ad9565b6000805b60168110156105d2576105fa8585610636565b945061061d8560005b602002015167ffffffff0000000181800282020680020290565b85526106288561085a565b9450600193840193016105e7565b61063e610ad9565b8251600c83029061066490601883610168811061065d5761065d610ddf565b0154610928565b8252602084015161068690601860018401610168811061065d5761065d610ddf565b602083015260408401516106ab90601860028401610168811061065d5761065d610ddf565b604083015260608401516106d090601860038401610168811061065d5761065d610ddf565b606083015260808401516106f590601860048401610168811061065d5761065d610ddf565b608083015260a084015161071a90601860058401610168811061065d5761065d610ddf565b60a083015260c084015161073f90601860068401610168811061065d5761065d610ddf565b60c083015260e084015161076490601860078401610168811061065d5761065d610ddf565b60e083015261010084015161078a90601860088401610168811061065d5761065d610ddf565b6101008301526101208401516107b190601860098401610168811061065d5761065d610ddf565b6101208301526101408401516107d8906018600a8401610168811061065d5761065d610ddf565b6101408301526101608401516107ff906018600b8401610168811061065d5761065d610ddf565b6101608301525092915050565b610814610ad9565b60005b600c811015610854576108358382600c811061060357610603610ddf565b8282600c811061084757610847610ddf565b6020020152600101610817565b50919050565b610862610ad9565b61086d60008361093d565b815261087a60018361093d565b602082015261088a60028361093d565b604082015261089a60038361093d565b60608201526108aa60048361093d565b60808201526108ba60058361093d565b60a08201526108ca60068361093d565b60c08201526108da60078361093d565b60e08201526108ea60088361093d565b6101008201526108fb60098361093d565b61012082015261090c600a8361093d565b61014082015261091d600b8361093d565b610160820152919050565b600067ffffffff000000018284089392505050565b600060118284600c811061095357610953610ddf565b60200201510201600f82600c6001860106600c811061097457610974610ddf565b60200201510201602982600c6002860106600c811061099557610995610ddf565b60200201510201601082600c6003860106600c81106109b6576109b6610ddf565b60200201510201600282600c6004860106600c81106109d7576109d7610ddf565b60200201510201601c82600c6005860106600c81106109f8576109f8610ddf565b60200201510201600d82600c6006860106600c8110610a1957610a19610ddf565b60200201510201600d82600c6007860106600c8110610a3a57610a3a610ddf565b60200201510201602782600c6008860106600c8110610a5b57610a5b610ddf565b60200201510201601282600c6009860106600c8110610a7c57610a7c610ddf565b60200201510201602282600c600a860106600c8110610a9d57610a9d610ddf565b60200201510201601482600c600b860106600c8110610abe57610abe610ddf565b60200201510201600083900361011957905160080201919050565b604051806101800160405280600c906020820280368337509192915050565b60405180608001604052806004906020820280368337509192915050565b634e487b7160e01b600052604160045260246000fd5b604051601f8201601f1916810167ffffffffffffffff81118282101715610b5557610b55610b16565b604052919050565b6000610180808385031215610b7157600080fd5b83601f840112610b8057600080fd5b60405181810181811067ffffffffffffffff82111715610ba257610ba2610b16565b604052908301908085831115610bb757600080fd5b845b83811015610bd1578035825260209182019101610bb9565b509095945050505050565b6101808101818360005b600c811015610c05578151835260209283019290910190600101610be6565b50505092915050565b60008060408385031215610c2157600080fd5b50508035926020909101359150565b60008060408385031215610c4357600080fd5b823567ffffffffffffffff80821115610c5b57600080fd5b818501915085601f830112610c6f57600080fd5b8135602082821115610c8357610c83610b16565b8160051b9250610c94818401610b2c565b8281529284018101928181019089851115610cae57600080fd5b948201945b84861015610ccc57853582529482019490820190610cb3565b9997909101359750505050505050565b6020808252825182820181905260009190848201906040850190845b81811015610d1457835183529284019291840191600101610cf8565b50909695505050505050565b600060208284031215610d3257600080fd5b5035919050565b60808101818360005b6004811015610c05578151835260209283019290910190600101610d42565b600060808284031215610d7357600080fd5b82601f830112610d8257600080fd5b6040516080810181811067ffffffffffffffff82111715610da557610da5610b16565b604052806080840185811115610dba57600080fd5b845b81811015610dd4578035835260209283019201610dbc565b509195945050505050565b634e487b7160e01b600052603260045260246000fd5b634e487b7160e01b600052601160045260246000fd5b600060018201610e1d57610e1d610df5565b5060010190565b634e487b7160e01b600052601260045260246000fd5b600082610e4957610e49610e24565b500490565b600082610e5d57610e5d610e24565b500690565b808202811582820484141761011957610119610df5565b8082018082111561011957610119610df5565b600060208284031215610e9e57600080fd5b505191905056fea26469706673582212202aadec8e5b2886c00f87b2f09117491cc2fd6b83ae311b876e29d6acdc1356ba64736f6c63430008110033",
  "linkReferences": {},
  "deployedLinkReferences": {}
}