{
  "_format": "hh-sol-artifact-1",
  "contractName": "OfferManagerV2",
  "sourceName": "contracts/OfferManagerV2.sol",
  "abi": [
    {
      "anonymous": false,
      "inputs": [
        {
          "indexed": false,
          "internalType": "uint8",
          "name": "version",
          "type": "uint8"
        }
      ],
      "name": "Initialized",
      "type": "event"
    },
    {
      "anonymous": false,
      "inputs": [
        {
          "indexed": true,
          "internalType": "uint256",
          "name": "offerId",
          "type": "uint256"
        },
        {
          "indexed": true,
          "internalType": "bytes32",
          "name": "takerIntmaxAddress",
          "type": "bytes32"
        }
      ],
      "name": "OfferActivated",
      "type": "event"
    },
    {
      "anonymous": false,
      "inputs": [
        {
          "indexed": true,
          "internalType": "uint256",
          "name": "offerId",
          "type": "uint256"
        }
      ],
      "name": "OfferDeactivated",
      "type": "event"
    },
    {
      "anonymous": false,
      "inputs": [
        {
          "indexed": true,
          "internalType": "uint256",
          "name": "offerId",
          "type": "uint256"
        },
        {
          "indexed": true,
          "internalType": "address",
          "name": "maker",
          "type": "address"
        },
        {
          "indexed": false,
          "internalType": "bytes32",
          "name": "makerIntmaxAddress",
          "type": "bytes32"
        },
        {
          "indexed": false,
          "internalType": "uint256",
          "name": "makerAssetId",
          "type": "uint256"
        },
        {
          "indexed": false,
          "internalType": "uint256",
          "name": "makerAmount",
          "type": "uint256"
        },
        {
          "indexed": false,
          "internalType": "address",
          "name": "taker",
          "type": "address"
        },
        {
          "indexed": false,
          "internalType": "address",
          "name": "takerTokenAddress",
          "type": "address"
        },
        {
          "indexed": false,
          "internalType": "uint256",
          "name": "takerAmount",
          "type": "uint256"
        }
      ],
      "name": "OfferRegistered",
      "type": "event"
    },
    {
      "anonymous": false,
      "inputs": [
        {
          "indexed": true,
          "internalType": "uint256",
          "name": "offerId",
          "type": "uint256"
        },
        {
          "indexed": true,
          "internalType": "bytes32",
          "name": "takerIntmaxAddress",
          "type": "bytes32"
        }
      ],
      "name": "OfferTakerUpdated",
      "type": "event"
    },
    {
      "anonymous": false,
      "inputs": [
        {
          "indexed": true,
          "internalType": "address",
          "name": "previousOwner",
          "type": "address"
        },
        {
          "indexed": true,
          "internalType": "address",
          "name": "newOwner",
          "type": "address"
        }
      ],
      "name": "OwnershipTransferred",
      "type": "event"
    },
    {
      "inputs": [
        {
          "internalType": "uint256",
          "name": "offerId",
          "type": "uint256"
        }
      ],
      "name": "activate",
      "outputs": [
        {
          "internalType": "bool",
          "name": "",
          "type": "bool"
        }
      ],
      "stateMutability": "payable",
      "type": "function"
    },
    {
      "inputs": [
        {
          "internalType": "contract VerifierInterface",
          "name": "newVerifier",
          "type": "address"
        }
      ],
      "name": "changeVerifier",
      "outputs": [],
      "stateMutability": "nonpayable",
      "type": "function"
    },
    {
      "inputs": [
        {
          "internalType": "uint256",
          "name": "offerId",
          "type": "uint256"
        },
        {
          "internalType": "bytes",
          "name": "witness",
          "type": "bytes"
        }
      ],
      "name": "checkWitness",
      "outputs": [
        {
          "internalType": "bool",
          "name": "",
          "type": "bool"
        }
      ],
      "stateMutability": "view",
      "type": "function"
    },
    {
      "inputs": [
        {
          "internalType": "uint256",
          "name": "offerId",
          "type": "uint256"
        }
      ],
      "name": "deactivate",
      "outputs": [
        {
          "internalType": "bool",
          "name": "",
          "type": "bool"
        }
      ],
      "stateMutability": "nonpayable",
      "type": "function"
    },
    {
      "inputs": [
        {
          "internalType": "uint256",
          "name": "offerId",
          "type": "uint256"
        }
      ],
      "name": "getOffer",
      "outputs": [
        {
          "internalType": "address",
          "name": "maker",
          "type": "address"
        },
        {
          "internalType": "bytes32",
          "name": "makerIntmaxAddress",
          "type": "bytes32"
        },
        {
          "internalType": "uint256",
          "name": "makerAssetId",
          "type": "uint256"
        },
        {
          "internalType": "uint256",
          "name": "makerAmount",
          "type": "uint256"
        },
        {
          "internalType": "address",
          "name": "taker",
          "type": "address"
        },
        {
          "internalType": "bytes32",
          "name": "takerIntmaxAddress",
          "type": "bytes32"
        },
        {
          "internalType": "address",
          "name": "takerTokenAddress",
          "type": "address"
        },
        {
          "internalType": "uint256",
          "name": "takerAmount",
          "type": "uint256"
        },
        {
          "internalType": "bool",
          "name": "activated",
          "type": "bool"
        }
      ],
      "stateMutability": "view",
      "type": "function"
    },
    {
      "inputs": [],
      "name": "initialize",
      "outputs": [],
      "stateMutability": "nonpayable",
      "type": "function"
    },
    {
      "inputs": [
        {
          "internalType": "address",
          "name": "newOwner",
          "type": "address"
        }
      ],
      "name": "initializeV2",
      "outputs": [],
      "stateMutability": "nonpayable",
      "type": "function"
    },
    {
      "inputs": [
        {
          "internalType": "uint256",
          "name": "offerId",
          "type": "uint256"
        }
      ],
      "name": "isActivated",
      "outputs": [
        {
          "internalType": "bool",
          "name": "",
          "type": "bool"
        }
      ],
      "stateMutability": "view",
      "type": "function"
    },
    {
      "inputs": [
        {
          "internalType": "uint256",
          "name": "offerId",
          "type": "uint256"
        }
      ],
      "name": "isRegistered",
      "outputs": [
        {
          "internalType": "bool",
          "name": "",
          "type": "bool"
        }
      ],
      "stateMutability": "view",
      "type": "function"
    },
    {
      "inputs": [],
      "name": "nextOfferId",
      "outputs": [
        {
          "internalType": "uint256",
          "name": "offerId",
          "type": "uint256"
        }
      ],
      "stateMutability": "view",
      "type": "function"
    },
    {
      "inputs": [],
      "name": "owner",
      "outputs": [
        {
          "internalType": "address",
          "name": "",
          "type": "address"
        }
      ],
      "stateMutability": "view",
      "type": "function"
    },
    {
      "inputs": [
        {
          "internalType": "bytes32",
          "name": "makerIntmaxAddress",
          "type": "bytes32"
        },
        {
          "internalType": "uint256",
          "name": "makerAssetId",
          "type": "uint256"
        },
        {
          "internalType": "uint256",
          "name": "makerAmount",
          "type": "uint256"
        },
        {
          "internalType": "address",
          "name": "taker",
          "type": "address"
        },
        {
          "internalType": "bytes32",
          "name": "takerIntmaxAddress",
          "type": "bytes32"
        },
        {
          "internalType": "address",
          "name": "takerTokenAddress",
          "type": "address"
        },
        {
          "internalType": "uint256",
          "name": "takerAmount",
          "type": "uint256"
        },
        {
          "internalType": "bytes",
          "name": "witness",
          "type": "bytes"
        }
      ],
      "name": "register",
      "outputs": [
        {
          "internalType": "uint256",
          "name": "offerId",
          "type": "uint256"
        }
      ],
      "stateMutability": "nonpayable",
      "type": "function"
    },
    {
      "inputs": [
        {
          "internalType": "bytes32",
          "name": "",
          "type": "bytes32"
        },
        {
          "internalType": "uint256",
          "name": "",
          "type": "uint256"
        },
        {
          "internalType": "uint256",
          "name": "",
          "type": "uint256"
        },
        {
          "internalType": "address",
          "name": "",
          "type": "address"
        },
        {
          "internalType": "bytes32",
          "name": "",
          "type": "bytes32"
        },
        {
          "internalType": "address",
          "name": "",
          "type": "address"
        },
        {
          "internalType": "uint256",
          "name": "",
          "type": "uint256"
        }
      ],
      "name": "register",
      "outputs": [
        {
          "internalType": "uint256",
          "name": "",
          "type": "uint256"
        }
      ],
      "stateMutability": "pure",
      "type": "function"
    },
    {
      "inputs": [],
      "name": "renounceOwnership",
      "outputs": [],
      "stateMutability": "nonpayable",
      "type": "function"
    },
    {
      "inputs": [
        {
          "internalType": "address",
          "name": "newOwner",
          "type": "address"
        }
      ],
      "name": "transferOwnership",
      "outputs": [],
      "stateMutability": "nonpayable",
      "type": "function"
    },
    {
      "inputs": [
        {
          "internalType": "uint256",
          "name": "offerId",
          "type": "uint256"
        },
        {
          "internalType": "bytes32",
          "name": "newTakerIntmaxAddress",
          "type": "bytes32"
        }
      ],
      "name": "updateTaker",
      "outputs": [],
      "stateMutability": "nonpayable",
      "type": "function"
    },
    {
      "inputs": [
        {
          "internalType": "bytes32",
          "name": "",
          "type": "bytes32"
        }
      ],
      "name": "usedTxHashes",
      "outputs": [
        {
          "internalType": "bool",
          "name": "",
          "type": "bool"
        }
      ],
      "stateMutability": "view",
      "type": "function"
    }
  ],
  "bytecode": "0x608060405234801561001057600080fd5b50611d7b806100206000396000f3fe6080604052600436106100fe5760003560e01c80637ec230fd11610095578063b132355711610064578063b132355714610377578063b260c42a14610397578063b75c3c01146103aa578063cf04fb94146103ca578063f2fde38b146103ea57600080fd5b80637ec230fd146102ea5780638129fc1c1461031a5780638da5cb5b1461032f578063916b9bef1461035757600080fd5b8063579a6988116100d1578063579a69881461025e5780635f5d065514610296578063715018a6146102b55780637d261275146102ca57600080fd5b806329b6eca91461010357806331809dcf14610125578063378055851461016d5780634579268a1461018d575b600080fd5b34801561010f57600080fd5b5061012361011e366004611622565b61040a565b005b34801561013157600080fd5b50610158610140366004611646565b60009081526001602052604090206008015460ff1690565b60405190151581526020015b60405180910390f35b34801561017957600080fd5b5061012361018836600461165f565b6104b1565b34801561019957600080fd5b506102086101a8366004611646565b60009081526001602081905260409091208054918101546002820154600383015460048401546005850154600686015460078701546008909701546001600160a01b03988916999698959794969386169592949190921692909160ff1690565b604080516001600160a01b039a8b16815260208101999099528801969096526060870194909452918616608086015260a085015290931660c083015260e082019290925290151561010082015261012001610164565b34801561026a57600080fd5b50610158610279366004611646565b6000908152600160205260409020546001600160a01b0316151590565b3480156102a257600080fd5b506000545b604051908152602001610164565b3480156102c157600080fd5b50610123610601565b3480156102d657600080fd5b506102a76102e5366004611719565b610615565b3480156102f657600080fd5b50610158610305366004611646565b60686020526000908152604090205460ff1681565b34801561032657600080fd5b50610123610841565b34801561033b57600080fd5b506035546040516001600160a01b039091168152602001610164565b34801561036357600080fd5b50610158610372366004611646565b610852565b34801561038357600080fd5b506101586103923660046117ef565b6108e7565b6101586103a5366004611646565b6109ab565b3480156103b657600080fd5b506102a76103c536600461186b565b610cce565b3480156103d657600080fd5b506101236103e5366004611622565b610d3f565b3480156103f657600080fd5b50610123610405366004611622565b610d69565b60028054610100900460ff1615801561042a575060025460ff8083169116105b61044f5760405162461bcd60e51b8152600401610446906118d4565b60405180910390fd5b6002805461ffff191660ff83161761010017905561046c82610de2565b6002805461ff001916905560405160ff821681527f7f26b83ff96e1f2b6a682f133852f6798a09c465da95921460cefb38474024989060200160405180910390a15050565b6000828152600160205260409020546001600160a01b03166104e55760405162461bcd60e51b815260040161044690611922565b6000828152600160205260409020546001600160a01b0316336001600160a01b03161461055f5760405162461bcd60e51b815260206004820152602260248201527f6f66666572732063616e206265207570646174656420627920697473206d616b60448201526132b960f11b6064820152608401610446565b806105bf5760405162461bcd60e51b815260206004820152602a60248201527f606e657754616b6572496e746d617841646472657373602073686f756c64206e6044820152696f74206265207a65726f60b01b6064820152608401610446565b60008281526001602052604080822060050183905551829184917f78f1204b0d8f130e8e8cdf9c2380aa132af9ea05233199057b67ca9ca95294019190a35050565b610609610e34565b6106136000610de2565b565b60006001600160a01b038416156106f1576000846001600160a01b03166318160ddd6040518163ffffffff1660e01b8152600401602060405180830381865afa158015610666573d6000803e3d6000fd5b505050506040513d601f19601f8201168201806040525081019061068a9190611968565b9050806000036106ef5760405162461bcd60e51b815260206004820152602a60248201527f74686520746f74616c20737570706c79206f66204552433230206d757374206e6044820152696f74206265207a65726f60b01b6064820152608401610446565b505b610701338a8a8a8a8a8a8a610e8e565b90506000828060200190518101906107199190611b56565b505060208082015160008181526068909252604090912054919450925060ff161590506107885760405162461bcd60e51b815260206004820152601a60248201527f476976656e207769746e65737320616c726561647920757365640000000000006044820152606401610446565b60008381526001602081815260409283902083516101208101855281546001600160a01b039081168252938201549281019290925260028101549382019390935260038301546060820152600483015482166080820152600583015460a0820152600683015490911660c0820152600782015460e082015260089091015460ff16151561010082015261081b908561111b565b6000908152606860205260409020805460ff191660011790555098975050505050505050565b610849611314565b6106133361040a565b6000818152600160205260408120546001600160a01b0316336001600160a01b0316146108d65760405162461bcd60e51b815260206004820152602c60248201527f6f6e6c7920746865206d616b6572206f6620616e206f666665722063616e206460448201526b195858dd1a5d985d19481a5d60a21b6064820152608401610446565b6108df826113dd565b506001919050565b600083815260016020818152604080842081516101208101835281546001600160a01b039081168252948201548185015260028201548184015260038201546060820152600482015485166080820152600582015460a0820152600682015490941660c0850152600781015460e08501526008015460ff1615156101008401528051601f86018390048302810183019091528481526109a19291869086908190840183828082843760009201919091525061111b92505050565b5060019392505050565b6000818152600160205260408120600401546001600160a01b03168015610a3057336001600160a01b03821614610a305760405162461bcd60e51b8152602060048201526024808201527f6f66666572732063616e2062652061637469766174656420627920697473207460448201526330b5b2b960e11b6064820152608401610446565b60008381526001602081815260409283902083516101208101855281546001600160a01b039081168252938201549281019290925260028101549382019390935260038301546060820152600483015482166080820152600583015460a0820152600683015490911660c0820152600782015460e0820181905260089092015460ff16151561010082015290341015610b175760405162461bcd60e51b8152602060048201526024808201527f706c656173652073656e6420656e6f756768206d6f6e657920746f20616374696044820152637661746560e01b6064820152608401610446565b610b2084611414565b60c08101516001600160a01b0316610b705780516040516001600160a01b03909116903480156108fc02916000818181858888f19350505050158015610b6a573d6000803e3d6000fd5b506109a1565b3415610bd65760405162461bcd60e51b815260206004820152602f60248201527f7472616e736d697373696f6e206d6574686f64206f74686572207468616e204560448201526e1512081a5cc81cdc1958da599a5959608a1b6064820152608401610446565b60008160c001516001600160a01b03166323b872dd610bf23390565b845160e0808701516040519185901b6001600160e01b03191682526001600160a01b03938416600483015292909116602482015260448101919091526064016020604051808303816000875af1158015610c50573d6000803e3d6000fd5b505050506040513d601f19601f82011682018060405250810190610c749190611c81565b905080610cc35760405162461bcd60e51b815260206004820152601c60248201527f6661696c20746f207472616e7366657220455243323020746f6b656e000000006044820152606401610446565b505060019392505050565b60405162461bcd60e51b815260206004820152603860248201527f746869732066756e6374696f6e20697320646570726563617465643a2027776960448201527f746e6573732720617267756d656e7420726571756972656400000000000000006064820152600090608401610446565b610d47610e34565b606780546001600160a01b0319166001600160a01b0392909216919091179055565b610d71610e34565b6001600160a01b038116610dd65760405162461bcd60e51b815260206004820152602660248201527f4f776e61626c653a206e6577206f776e657220697320746865207a65726f206160448201526564647265737360d01b6064820152608401610446565b610ddf81610de2565b50565b603580546001600160a01b038381166001600160a01b0319831681179093556040519116919082907f8be0079c531659141344cd1fd0a4f28419497f9722a3daafe3b4186f6b6457e090600090a35050565b6035546001600160a01b031633146106135760405162461bcd60e51b815260206004820181905260248201527f4f776e61626c653a2063616c6c6572206973206e6f7420746865206f776e65726044820152606401610446565b60006001600160a01b038916610ef25760405162461bcd60e51b815260206004820152602360248201527f546865206d616b6572206d757374206e6f74206265207a65726f20616464726560448201526239b99760e91b6064820152608401610446565b506000805480825260016020526040909120546001600160a01b031615610f675760405162461bcd60e51b8152602060048201526024808201527f54686973206f6666657220494420697320616c726561647920726567697374656044820152633932b21760e11b6064820152608401610446565b60006040518061012001604052808b6001600160a01b031681526020018a8152602001898152602001888152602001876001600160a01b03168152602001868152602001856001600160a01b03168152602001848152602001600015158152509050610fd28161145d565b6000828152600160208181526040808420855181546001600160a01b03199081166001600160a01b039283161783559387015182860155918601516002820155606086015160038201556080860151600482018054851691841691909117905560a0860151600582015560c086015160068201805490941692169190911790915560e084015160078201556101008401516008909101805460ff19169115159190911790558154019055604080518a8152602081018a90529081018890526001600160a01b038781166060830152858116608083015260a082018590528b169083907f97e91b5b77af37d6c0e8b82837d7263b92cf6ce511d8129330589df1e11394979060c00160405180910390a3604051859083907f78f1204b0d8f130e8e8cdf9c2380aa132af9ea05233199057b67ca9ca952940190600090a35098975050505050505050565b6067546040805163dae0384760e01b815290516000926001600160a01b03169163dae038479160048083019260209291908290030181865afa158015611165573d6000803e3d6000fd5b505050506040513d601f19601f820116820180604052508101906111899190611968565b9050600083604001516040516020016111a491815260200190565b6040516020818303038152906040528060200190518101906111c69190611968565b6040805160018082528183019092529192506000918291816020015b60408051606081018252600080825260208083018290529282015282526000199092019101816111e2579050509050604051806060016040528084815260200183815260200187606001518152508160008151811061124357611243611ca3565b602090810291909101015260675460405163013c480b60e61b81526000916001600160a01b031690634f1202c09061128390859089908b90600401611cb9565b602060405180830381865afa1580156112a0573d6000803e3d6000fd5b505050506040513d601f19601f820116820180604052508101906112c49190611c81565b90508061130b5760405162461bcd60e51b81526020600482015260156024820152744661696c20746f207665726966792061737365747360581b6044820152606401610446565b50505050505050565b600254610100900460ff16158080156113345750600254600160ff909116105b8061134e5750303b15801561134e575060025460ff166001145b61136a5760405162461bcd60e51b8152600401610446906118d4565b6002805460ff19166001179055801561138d576002805461ff0019166101001790555b6113956114df565b8015610ddf576002805461ff0019169055604051600181527f7f26b83ff96e1f2b6a682f133852f6798a09c465da95921460cefb38474024989060200160405180910390a150565b6113e68161154a565b60405181907ff1b44e492f69c0888dede3ae9e5f0d48199df4e7735ccc87be8c98aa12f8113090600090a250565b61141d8161154a565b600081815260016020526040808220600501549051909183917fd24204a0846309eb47a4c7152aa297a8bbde01aedbf11b47790f2abd9da76c319190a350565b67ffffffff0000000081606001511115610ddf5760405162461bcd60e51b815260206004820152603860248201527f496e76616c6964206f6666657220616d6f756e743a2065786365656473206d6160448201527f78696d756d2072656d697474616e636520616d6f756e742e00000000000000006064820152608401610446565b600254610100900460ff166106135760405162461bcd60e51b815260206004820152602b60248201527f496e697469616c697a61626c653a20636f6e7472616374206973206e6f74206960448201526a6e697469616c697a696e6760a81b6064820152608401610446565b6000818152600160205260409020546001600160a01b031661157e5760405162461bcd60e51b815260040161044690611922565b60008181526001602052604090206008015460ff16156115ec5760405162461bcd60e51b815260206004820152602360248201527f54686973206f6666657220494420697320616c7265616479206163746976617460448201526232b21760e91b6064820152608401610446565b6000908152600160208190526040909120600801805460ff19169091179055565b6001600160a01b0381168114610ddf57600080fd5b60006020828403121561163457600080fd5b813561163f8161160d565b9392505050565b60006020828403121561165857600080fd5b5035919050565b6000806040838503121561167257600080fd5b50508035926020909101359150565b634e487b7160e01b600052604160045260246000fd5b6040516060810167ffffffffffffffff811182821017156116ba576116ba611681565b60405290565b604051601f8201601f1916810167ffffffffffffffff811182821017156116e9576116e9611681565b604052919050565b600067ffffffffffffffff82111561170b5761170b611681565b50601f01601f191660200190565b600080600080600080600080610100898b03121561173657600080fd5b88359750602089013596506040890135955060608901356117568161160d565b94506080890135935060a089013561176d8161160d565b925060c0890135915060e089013567ffffffffffffffff81111561179057600080fd5b8901601f81018b136117a157600080fd5b80356117b46117af826116f1565b6116c0565b8181528c60208385010111156117c957600080fd5b816020840160208301376000602083830101528093505050509295985092959890939650565b60008060006040848603121561180457600080fd5b83359250602084013567ffffffffffffffff8082111561182357600080fd5b818601915086601f83011261183757600080fd5b81358181111561184657600080fd5b87602082850101111561185857600080fd5b6020830194508093505050509250925092565b600080600080600080600060e0888a03121561188657600080fd5b87359650602088013595506040880135945060608801356118a68161160d565b93506080880135925060a08801356118bd8161160d565b8092505060c0880135905092959891949750929550565b6020808252602e908201527f496e697469616c697a61626c653a20636f6e747261637420697320616c72656160408201526d191e481a5b9a5d1a585b1a5e995960921b606082015260800190565b60208082526026908201527f54686973206f6666657220494420686173206e6f74206265656e2072656769736040820152653a32b932b21760d11b606082015260800190565b60006020828403121561197a57600080fd5b5051919050565b600067ffffffffffffffff82111561199b5761199b611681565b5060051b60200190565b6000606082840312156119b757600080fd5b6119bf611697565b90508151815260208083015181830152604083015167ffffffffffffffff8111156119e957600080fd5b8301601f810185136119fa57600080fd5b8051611a086117af82611981565b81815260059190911b82018301908381019087831115611a2757600080fd5b928401925b82841015611a4557835182529284019290840190611a2c565b6040860152509295945050505050565b6000610100808385031215611a6957600080fd5b6040519081019067ffffffffffffffff82118183101715611a8c57611a8c611681565b81604052809250835181526020840151602082015260408401516040820152606084015160608201526080840151608082015260a084015160a082015260c084015160c082015260e084015160e0820152505092915050565b60005b83811015611b00578181015183820152602001611ae8565b50506000910152565b600082601f830112611b1a57600080fd5b8151611b286117af826116f1565b818152846020838601011115611b3d57600080fd5b611b4e826020830160208701611ae5565b949350505050565b60008060008060006101808688031215611b6f57600080fd5b855167ffffffffffffffff80821115611b8757600080fd5b818801915088601f830112611b9b57600080fd5b81516020611bab6117af83611981565b8281526060928302850182019282820191908d851115611bca57600080fd5b958301955b84871015611c145780878f031215611be75760008081fd5b611bef611697565b8751815284880151858201526040808901519082015283529586019591830191611bcf565b819b50838d01519a5060408d0151965085871115611c3157600080fd5b611c3d8e888f016119a5565b9950611c4b8e828f01611a55565b98505050505050610160880151915080821115611c6757600080fd5b50611c7488828901611b09565b9150509295509295909350565b600060208284031215611c9357600080fd5b8151801515811461163f57600080fd5b634e487b7160e01b600052603260045260246000fd5b60608082528451828201819052600091906020906080850190828901855b82811015611d07578151805185528581015186860152604090810151908501529285019290840190600101611cd7565b5050508682860152848103604086015285519250828152611d2d83838301848901611ae5565b601f92909201601f191691909101019594505050505056fea2646970667358221220461acb14855149e8247912acba3d041e4c260c787edc5e9bcfa7d0b700e9906e64736f6c63430008110033",
  "linkReferences": {},
  "deployedLinkReferences": {}
}