{
  "_format": "hh-sol-artifact-1",
  "contractName": "OfferManagerV2",
  "sourceName": "contracts/OfferManagerV2.sol",
  "abi": [
    {
      "anonymous": false,
      "inputs": [
        {
          "indexed": false,
          "internalType": "uint8",
          "name": "version",
          "type": "uint8"
        }
      ],
      "name": "Initialized",
      "type": "event"
    },
    {
      "anonymous": false,
      "inputs": [
        {
          "indexed": true,
          "internalType": "uint256",
          "name": "offerId",
          "type": "uint256"
        },
        {
          "indexed": true,
          "internalType": "bytes32",
          "name": "takerIntmaxAddress",
          "type": "bytes32"
        }
      ],
      "name": "OfferActivated",
      "type": "event"
    },
    {
      "anonymous": false,
      "inputs": [
        {
          "indexed": true,
          "internalType": "uint256",
          "name": "offerId",
          "type": "uint256"
        }
      ],
      "name": "OfferDeactivated",
      "type": "event"
    },
    {
      "anonymous": false,
      "inputs": [
        {
          "indexed": true,
          "internalType": "uint256",
          "name": "offerId",
          "type": "uint256"
        },
        {
          "indexed": true,
          "internalType": "address",
          "name": "maker",
          "type": "address"
        },
        {
          "indexed": false,
          "internalType": "bytes32",
          "name": "makerIntmaxAddress",
          "type": "bytes32"
        },
        {
          "indexed": false,
          "internalType": "uint256",
          "name": "makerAssetId",
          "type": "uint256"
        },
        {
          "indexed": false,
          "internalType": "uint256",
          "name": "makerAmount",
          "type": "uint256"
        },
        {
          "indexed": false,
          "internalType": "address",
          "name": "taker",
          "type": "address"
        },
        {
          "indexed": false,
          "internalType": "address",
          "name": "takerTokenAddress",
          "type": "address"
        },
        {
          "indexed": false,
          "internalType": "uint256",
          "name": "takerAmount",
          "type": "uint256"
        }
      ],
      "name": "OfferRegistered",
      "type": "event"
    },
    {
      "anonymous": false,
      "inputs": [
        {
          "indexed": true,
          "internalType": "uint256",
          "name": "offerId",
          "type": "uint256"
        },
        {
          "indexed": true,
          "internalType": "bytes32",
          "name": "takerIntmaxAddress",
          "type": "bytes32"
        }
      ],
      "name": "OfferTakerUpdated",
      "type": "event"
    },
    {
      "anonymous": false,
      "inputs": [
        {
          "indexed": true,
          "internalType": "address",
          "name": "previousOwner",
          "type": "address"
        },
        {
          "indexed": true,
          "internalType": "address",
          "name": "newOwner",
          "type": "address"
        }
      ],
      "name": "OwnershipTransferred",
      "type": "event"
    },
    {
      "anonymous": false,
      "inputs": [
        {
          "indexed": true,
          "internalType": "address",
          "name": "token",
          "type": "address"
        },
        {
          "indexed": false,
          "internalType": "bool",
          "name": "isAllowed",
          "type": "bool"
        }
      ],
      "name": "TokenAllowListUpdated",
      "type": "event"
    },
    {
      "inputs": [
        {
          "internalType": "uint256",
          "name": "offerId",
          "type": "uint256"
        }
      ],
      "name": "activate",
      "outputs": [
        {
          "internalType": "bool",
          "name": "ok",
          "type": "bool"
        }
      ],
      "stateMutability": "payable",
      "type": "function"
    },
    {
      "inputs": [
        {
          "internalType": "address[]",
          "name": "tokens",
          "type": "address[]"
        }
      ],
      "name": "addTokenAddressToAllowList",
      "outputs": [],
      "stateMutability": "nonpayable",
      "type": "function"
    },
    {
      "inputs": [
        {
          "internalType": "contract VerifierInterface",
          "name": "newVerifier",
          "type": "address"
        }
      ],
      "name": "changeVerifier",
      "outputs": [],
      "stateMutability": "nonpayable",
      "type": "function"
    },
    {
      "inputs": [
        {
          "internalType": "uint256",
          "name": "offerId",
          "type": "uint256"
        },
        {
          "internalType": "bytes",
          "name": "witness",
          "type": "bytes"
        }
      ],
      "name": "checkWitness",
      "outputs": [
        {
          "internalType": "bool",
          "name": "",
          "type": "bool"
        }
      ],
      "stateMutability": "view",
      "type": "function"
    },
    {
      "inputs": [
        {
          "internalType": "uint256",
          "name": "offerId",
          "type": "uint256"
        }
      ],
      "name": "deactivate",
      "outputs": [
        {
          "internalType": "bool",
          "name": "",
          "type": "bool"
        }
      ],
      "stateMutability": "nonpayable",
      "type": "function"
    },
    {
      "inputs": [
        {
          "internalType": "uint256",
          "name": "offerId",
          "type": "uint256"
        }
      ],
      "name": "getOffer",
      "outputs": [
        {
          "internalType": "address",
          "name": "maker",
          "type": "address"
        },
        {
          "internalType": "bytes32",
          "name": "makerIntmaxAddress",
          "type": "bytes32"
        },
        {
          "internalType": "uint256",
          "name": "makerAssetId",
          "type": "uint256"
        },
        {
          "internalType": "uint256",
          "name": "makerAmount",
          "type": "uint256"
        },
        {
          "internalType": "address",
          "name": "taker",
          "type": "address"
        },
        {
          "internalType": "bytes32",
          "name": "takerIntmaxAddress",
          "type": "bytes32"
        },
        {
          "internalType": "address",
          "name": "takerTokenAddress",
          "type": "address"
        },
        {
          "internalType": "uint256",
          "name": "takerAmount",
          "type": "uint256"
        },
        {
          "internalType": "bool",
          "name": "activated",
          "type": "bool"
        }
      ],
      "stateMutability": "view",
      "type": "function"
    },
    {
      "inputs": [],
      "name": "initialize",
      "outputs": [],
      "stateMutability": "nonpayable",
      "type": "function"
    },
    {
      "inputs": [
        {
          "internalType": "address",
          "name": "newOwner",
          "type": "address"
        }
      ],
      "name": "initializeV2",
      "outputs": [],
      "stateMutability": "nonpayable",
      "type": "function"
    },
    {
      "inputs": [
        {
          "internalType": "uint256",
          "name": "offerId",
          "type": "uint256"
        }
      ],
      "name": "isActivated",
      "outputs": [
        {
          "internalType": "bool",
          "name": "",
          "type": "bool"
        }
      ],
      "stateMutability": "view",
      "type": "function"
    },
    {
      "inputs": [
        {
          "internalType": "uint256",
          "name": "offerId",
          "type": "uint256"
        }
      ],
      "name": "isRegistered",
      "outputs": [
        {
          "internalType": "bool",
          "name": "",
          "type": "bool"
        }
      ],
      "stateMutability": "view",
      "type": "function"
    },
    {
      "inputs": [],
      "name": "nextOfferId",
      "outputs": [
        {
          "internalType": "uint256",
          "name": "offerId",
          "type": "uint256"
        }
      ],
      "stateMutability": "view",
      "type": "function"
    },
    {
      "inputs": [
        {
          "internalType": "uint256",
          "name": "offerId",
          "type": "uint256"
        }
      ],
      "name": "offers",
      "outputs": [
        {
          "components": [
            {
              "internalType": "address",
              "name": "maker",
              "type": "address"
            },
            {
              "internalType": "bytes32",
              "name": "makerIntmaxAddress",
              "type": "bytes32"
            },
            {
              "internalType": "uint256",
              "name": "makerAssetId",
              "type": "uint256"
            },
            {
              "internalType": "uint256",
              "name": "makerAmount",
              "type": "uint256"
            },
            {
              "internalType": "address",
              "name": "taker",
              "type": "address"
            },
            {
              "internalType": "bytes32",
              "name": "takerIntmaxAddress",
              "type": "bytes32"
            },
            {
              "internalType": "address",
              "name": "takerTokenAddress",
              "type": "address"
            },
            {
              "internalType": "uint256",
              "name": "takerAmount",
              "type": "uint256"
            },
            {
              "internalType": "bool",
              "name": "isActivated",
              "type": "bool"
            }
          ],
          "internalType": "struct OfferManagerBaseInterface.Offer",
          "name": "",
          "type": "tuple"
        }
      ],
      "stateMutability": "view",
      "type": "function"
    },
    {
      "inputs": [],
      "name": "owner",
      "outputs": [
        {
          "internalType": "address",
          "name": "",
          "type": "address"
        }
      ],
      "stateMutability": "view",
      "type": "function"
    },
    {
      "inputs": [
        {
          "internalType": "bytes32",
          "name": "makerIntmaxAddress",
          "type": "bytes32"
        },
        {
          "internalType": "uint256",
          "name": "makerAssetId",
          "type": "uint256"
        },
        {
          "internalType": "uint256",
          "name": "makerAmount",
          "type": "uint256"
        },
        {
          "internalType": "address",
          "name": "taker",
          "type": "address"
        },
        {
          "internalType": "bytes32",
          "name": "takerIntmaxAddress",
          "type": "bytes32"
        },
        {
          "internalType": "address",
          "name": "takerTokenAddress",
          "type": "address"
        },
        {
          "internalType": "uint256",
          "name": "takerAmount",
          "type": "uint256"
        },
        {
          "internalType": "bytes",
          "name": "witness",
          "type": "bytes"
        }
      ],
      "name": "register",
      "outputs": [
        {
          "internalType": "uint256",
          "name": "offerId",
          "type": "uint256"
        }
      ],
      "stateMutability": "nonpayable",
      "type": "function"
    },
    {
      "inputs": [
        {
          "internalType": "bytes32",
          "name": "",
          "type": "bytes32"
        },
        {
          "internalType": "uint256",
          "name": "",
          "type": "uint256"
        },
        {
          "internalType": "uint256",
          "name": "",
          "type": "uint256"
        },
        {
          "internalType": "address",
          "name": "",
          "type": "address"
        },
        {
          "internalType": "bytes32",
          "name": "",
          "type": "bytes32"
        },
        {
          "internalType": "address",
          "name": "",
          "type": "address"
        },
        {
          "internalType": "uint256",
          "name": "",
          "type": "uint256"
        }
      ],
      "name": "register",
      "outputs": [
        {
          "internalType": "uint256",
          "name": "",
          "type": "uint256"
        }
      ],
      "stateMutability": "pure",
      "type": "function"
    },
    {
      "inputs": [
        {
          "internalType": "address[]",
          "name": "tokens",
          "type": "address[]"
        }
      ],
      "name": "removeTokenAddressFromAllowList",
      "outputs": [],
      "stateMutability": "nonpayable",
      "type": "function"
    },
    {
      "inputs": [],
      "name": "renounceOwnership",
      "outputs": [],
      "stateMutability": "nonpayable",
      "type": "function"
    },
    {
      "inputs": [
        {
          "internalType": "address",
          "name": "",
          "type": "address"
        }
      ],
      "name": "tokenAllowList",
      "outputs": [
        {
          "internalType": "bool",
          "name": "",
          "type": "bool"
        }
      ],
      "stateMutability": "view",
      "type": "function"
    },
    {
      "inputs": [
        {
          "internalType": "address",
          "name": "newOwner",
          "type": "address"
        }
      ],
      "name": "transferOwnership",
      "outputs": [],
      "stateMutability": "nonpayable",
      "type": "function"
    },
    {
      "inputs": [
        {
          "internalType": "uint256",
          "name": "offerId",
          "type": "uint256"
        },
        {
          "internalType": "bytes32",
          "name": "newTakerIntmaxAddress",
          "type": "bytes32"
        }
      ],
      "name": "updateTaker",
      "outputs": [],
      "stateMutability": "nonpayable",
      "type": "function"
    },
    {
      "inputs": [
        {
          "internalType": "bytes32",
          "name": "",
          "type": "bytes32"
        }
      ],
      "name": "usedTxHashes",
      "outputs": [
        {
          "internalType": "bool",
          "name": "",
          "type": "bool"
        }
      ],
      "stateMutability": "view",
      "type": "function"
    }
  ],
  "bytecode": "0x608060405234801561001057600080fd5b50612342806100206000396000f3fe60806040526004361061012a5760003560e01c80638129fc1c116100ab578063b13235571161006f578063b1323557146104f1578063b260c42a14610511578063b75c3c0114610524578063bb218bdd14610544578063cf04fb9414610564578063f2fde38b1461058457600080fd5b80638129fc1c1461037657806385ffdc571461038b5780638a72ea6a146103ab5780638da5cb5b146104a9578063916b9bef146104d157600080fd5b8063579a6988116100f2578063579a6988146102ba5780635f5d0655146102f2578063715018a6146103115780637d261275146103265780637ec230fd1461034657600080fd5b806329b6eca91461012f57806331809dcf1461015157806334e048c01461019957806337805585146101c95780634579268a146101e9575b600080fd5b34801561013b57600080fd5b5061014f61014a366004611aa1565b6105a4565b005b34801561015d57600080fd5b5061018461016c366004611ac5565b60009081526001602052604090206008015460ff1690565b60405190151581526020015b60405180910390f35b3480156101a557600080fd5b506101846101b4366004611aa1565b60696020526000908152604090205460ff1681565b3480156101d557600080fd5b5061014f6101e4366004611ade565b61064b565b3480156101f557600080fd5b50610264610204366004611ac5565b60009081526001602081905260409091208054918101546002820154600383015460048401546005850154600686015460078701546008909701546001600160a01b03988916999698959794969386169592949190921692909160ff1690565b604080516001600160a01b039a8b16815260208101999099528801969096526060870194909452918616608086015260a085015290931660c083015260e082019290925290151561010082015261012001610190565b3480156102c657600080fd5b506101846102d5366004611ac5565b6000908152600160205260409020546001600160a01b0316151590565b3480156102fe57600080fd5b506000545b604051908152602001610190565b34801561031d57600080fd5b5061014f61079b565b34801561033257600080fd5b50610303610341366004611b98565b6107af565b34801561035257600080fd5b50610184610361366004611ac5565b60686020526000908152604090205460ff1681565b34801561038257600080fd5b5061014f610874565b34801561039757600080fd5b5061014f6103a6366004611c6e565b610885565b3480156103b757600080fd5b5061049c6103c6366004611ac5565b6040805161012081018252600080825260208201819052918101829052606081018290526080810182905260a0810182905260c0810182905260e081018290526101008101919091525060009081526001602081815260409283902083516101208101855281546001600160a01b039081168252938201549281019290925260028101549382019390935260038301546060820152600483015482166080820152600583015460a0820152600683015490911660c0820152600782015460e082015260089091015460ff16151561010082015290565b6040516101909190611ce3565b3480156104b557600080fd5b506035546040516001600160a01b039091168152602001610190565b3480156104dd57600080fd5b506101846104ec366004611ac5565b6108de565b3480156104fd57600080fd5b5061018461050c366004611d60565b610973565b61018461051f366004611ac5565b610a37565b34801561053057600080fd5b5061030361053f366004611ddc565b610c52565b34801561055057600080fd5b5061014f61055f366004611c6e565b610cc3565b34801561057057600080fd5b5061014f61057f366004611aa1565b610d17565b34801561059057600080fd5b5061014f61059f366004611aa1565b610d41565b60028054610100900460ff161580156105c4575060025460ff8083169116105b6105e95760405162461bcd60e51b81526004016105e090611e45565b60405180910390fd5b6002805461ffff191660ff83161761010017905561060682610dba565b6002805461ff001916905560405160ff821681527f7f26b83ff96e1f2b6a682f133852f6798a09c465da95921460cefb38474024989060200160405180910390a15050565b6000828152600160205260409020546001600160a01b031661067f5760405162461bcd60e51b81526004016105e090611e93565b6000828152600160205260409020546001600160a01b0316336001600160a01b0316146106f95760405162461bcd60e51b815260206004820152602260248201527f6f66666572732063616e206265207570646174656420627920697473206d616b60448201526132b960f11b60648201526084016105e0565b806107595760405162461bcd60e51b815260206004820152602a60248201527f606e657754616b6572496e746d617841646472657373602073686f756c64206e6044820152696f74206265207a65726f60b01b60648201526084016105e0565b60008281526001602052604080822060050183905551829184917f78f1204b0d8f130e8e8cdf9c2380aa132af9ea05233199057b67ca9ca95294019190a35050565b6107a3610e0c565b6107ad6000610dba565b565b6001600160a01b03831660009081526069602052604081205460ff1661083d5760405162461bcd60e51b815260206004820152603860248201527f7468652074616b6572277320746f6b656e2061646472657373206973206e6f7460448201527f20696e2074686520746f6b656e20616c6c6f77206c697374000000000000000060648201526084016105e0565b61084d338a8a8a8a8a8a8a610e66565b600081815260016020526040902090915061086890836110f3565b98975050505050505050565b61087c611217565b6107ad336105a4565b61088d610e0c565b60005b818110156108d9576108c78383838181106108ad576108ad611ed9565b90506020020160208101906108c29190611aa1565b6112e0565b806108d181611eef565b915050610890565b505050565b6000818152600160205260408120546001600160a01b0316336001600160a01b0316146109625760405162461bcd60e51b815260206004820152602c60248201527f6f6e6c7920746865206d616b6572206f6620616e206f666665722063616e206460448201526b195858dd1a5d985d19481a5d60a21b60648201526084016105e0565b61096b8261133e565b506001919050565b600083815260016020818152604080842081516101208101835281546001600160a01b039081168252948201548185015260028201548184015260038201546060820152600482015485166080820152600582015460a0820152600682015490941660c0850152600781015460e08501526008015460ff1615156101008401528051601f8601839004830281018301909152848152610a2d9291869086908190840183828082843760009201919091525061138992505050565b5060019392505050565b600081815260016020526040812060048101546001600160a01b0316801580610a6857506001600160a01b03811633145b610ac05760405162461bcd60e51b8152602060048201526024808201527f6f66666572732063616e2062652061637469766174656420627920697473207460448201526330b5b2b960e11b60648201526084016105e0565b610ac984611582565b60068201546001600160a01b0316610be05781600701543414610b455760405162461bcd60e51b815260206004820152602e60248201527f706c656173652073656e64206a7573742074686520616d6f756e74206e65656460448201526d656420746f20616374697661746560901b60648201526084016105e0565b81546040516001600160a01b03909116903490600081818185875af1925050503d8060008114610b91576040519150601f19603f3d011682016040523d82523d6000602084013e610b96565b606091505b50508093505082610a2d5760405162461bcd60e51b81526020600482015260146024820152730ccc2d2d840e8de40e8e4c2dce6cccae4408aa8960631b60448201526064016105e0565b3415610c2e5760405162461bcd60e51b815260206004820152601e60248201527f7472616e736d697373696f6e206d6574686f64206973206e6f7420455448000060448201526064016105e0565b610a2d338354600785015460068601546001600160a01b03908116939216906115cb565b60405162461bcd60e51b815260206004820152603860248201527f746869732066756e6374696f6e20697320646570726563617465643a2027776960448201527f746e6573732720617267756d656e74207265717569726564000000000000000060648201526000906084016105e0565b610ccb610e0c565b60005b818110156108d957610d05838383818110610ceb57610ceb611ed9565b9050602002016020810190610d009190611aa1565b61162b565b80610d0f81611eef565b915050610cce565b610d1f610e0c565b606780546001600160a01b0319166001600160a01b0392909216919091179055565b610d49610e0c565b6001600160a01b038116610dae5760405162461bcd60e51b815260206004820152602660248201527f4f776e61626c653a206e6577206f776e657220697320746865207a65726f206160448201526564647265737360d01b60648201526084016105e0565b610db781610dba565b50565b603580546001600160a01b038381166001600160a01b0319831681179093556040519116919082907f8be0079c531659141344cd1fd0a4f28419497f9722a3daafe3b4186f6b6457e090600090a35050565b6035546001600160a01b031633146107ad5760405162461bcd60e51b815260206004820181905260248201527f4f776e61626c653a2063616c6c6572206973206e6f7420746865206f776e657260448201526064016105e0565b60006001600160a01b038916610eca5760405162461bcd60e51b815260206004820152602360248201527f546865206d616b6572206d757374206e6f74206265207a65726f20616464726560448201526239b99760e91b60648201526084016105e0565b506000805480825260016020526040909120546001600160a01b031615610f3f5760405162461bcd60e51b8152602060048201526024808201527f54686973206f6666657220494420697320616c726561647920726567697374656044820152633932b21760e11b60648201526084016105e0565b60006040518061012001604052808b6001600160a01b031681526020018a8152602001898152602001888152602001876001600160a01b03168152602001868152602001856001600160a01b03168152602001848152602001600015158152509050610faa8161167a565b6000828152600160208181526040808420855181546001600160a01b03199081166001600160a01b039283161783559387015182860155918601516002820155606086015160038201556080860151600482018054851691841691909117905560a0860151600582015560c086015160068201805490941692169190911790915560e084015160078201556101008401516008909101805460ff19169115159190911790558154019055604080518a8152602081018a90529081018890526001600160a01b038781166060830152858116608083015260a082018590528b169083907f97e91b5b77af37d6c0e8b82837d7263b92cf6ce511d8129330589df1e11394979060c00160405180910390a3604051859083907f78f1204b0d8f130e8e8cdf9c2380aa132af9ea05233199057b67ca9ca952940190600090a35098975050505050505050565b60008180602001905181019061110991906120e3565b505060208082015160008181526068909252604090912054919450925060ff161590506111785760405162461bcd60e51b815260206004820152601a60248201527f476976656e207769746e65737320616c7265616479207573656400000000000060448201526064016105e0565b604080516101208101825285546001600160a01b0390811682526001870154602083015260028701549282019290925260038601546060820152600486015482166080820152600586015460a0820152600686015490911660c0820152600785015460e0820152600885015460ff1615156101008201526111f99084611389565b6000908152606860205260409020805460ff19166001179055505050565b600254610100900460ff16158080156112375750600254600160ff909116105b806112515750303b158015611251575060025460ff166001145b61126d5760405162461bcd60e51b81526004016105e090611e45565b6002805460ff191660011790558015611290576002805461ff0019166101001790555b6112986116fc565b8015610db7576002805461ff0019169055604051600181527f7f26b83ff96e1f2b6a682f133852f6798a09c465da95921460cefb38474024989060200160405180910390a150565b6001600160a01b038116600081815260696020908152604091829020805460ff1916600190811790915591519182527f46db97cfb5cec0c4481ae6eaad91699beae5943dbe74134f4be23f33163cfa2691015b60405180910390a250565b61134781611767565b6000818152600160208190526040808320909101549051909183917fd24204a0846309eb47a4c7152aa297a8bbde01aedbf11b47790f2abd9da76c319190a350565b6067546040805163dae0384760e01b815290516000926001600160a01b03169163dae038479160048083019260209291908290030181865afa1580156113d3573d6000803e3d6000fd5b505050506040513d601f19601f820116820180604052508101906113f7919061220e565b90506000836040015160405160200161141291815260200190565b604051602081830303815290604052806020019051810190611434919061220e565b6040805160018082528183019092529192506000918291816020015b604080516060810182526000808252602080830182905292820152825260001990920191018161145057905050905060405180606001604052808481526020018381526020018760600151815250816000815181106114b1576114b1611ed9565b602090810291909101015260675460405163013c480b60e61b81526000916001600160a01b031690634f1202c0906114f190859089908b90600401612253565b602060405180830381865afa15801561150e573d6000803e3d6000fd5b505050506040513d601f19601f8201168201806040525081019061153291906122bb565b9050806115795760405162461bcd60e51b81526020600482015260156024820152744661696c20746f207665726966792061737365747360581b60448201526064016105e0565b50505050505050565b61158b81611767565b600081815260016020526040808220600501549051909183917fd24204a0846309eb47a4c7152aa297a8bbde01aedbf11b47790f2abd9da76c319190a350565b604080516001600160a01b0385811660248301528416604482015260648082018490528251808303909101815260849091019091526020810180516001600160e01b03166323b872dd60e01b17905261162590859061182a565b50505050565b6001600160a01b0381166000818152606960209081526040808320805460ff19169055519182527f46db97cfb5cec0c4481ae6eaad91699beae5943dbe74134f4be23f33163cfa269101611333565b67ffffffff0000000081606001511115610db75760405162461bcd60e51b815260206004820152603860248201527f496e76616c6964206f6666657220616d6f756e743a2065786365656473206d6160448201527f78696d756d2072656d697474616e636520616d6f756e742e000000000000000060648201526084016105e0565b600254610100900460ff166107ad5760405162461bcd60e51b815260206004820152602b60248201527f496e697469616c697a61626c653a20636f6e7472616374206973206e6f74206960448201526a6e697469616c697a696e6760a81b60648201526084016105e0565b6000818152600160205260409020546001600160a01b031661179b5760405162461bcd60e51b81526004016105e090611e93565b60008181526001602052604090206008015460ff16156118095760405162461bcd60e51b815260206004820152602360248201527f54686973206f6666657220494420697320616c7265616479206163746976617460448201526232b21760e91b60648201526084016105e0565b6000908152600160208190526040909120600801805460ff19169091179055565b600061187f826040518060400160405280602081526020017f5361666545524332303a206c6f772d6c6576656c2063616c6c206661696c6564815250856001600160a01b03166118fc9092919063ffffffff16565b8051909150156108d9578080602001905181019061189d91906122bb565b6108d95760405162461bcd60e51b815260206004820152602a60248201527f5361666545524332303a204552433230206f7065726174696f6e20646964206e6044820152691bdd081cdd58d8d9595960b21b60648201526084016105e0565b606061190b8484600085611913565b949350505050565b6060824710156119745760405162461bcd60e51b815260206004820152602660248201527f416464726573733a20696e73756666696369656e742062616c616e636520666f6044820152651c8818d85b1b60d21b60648201526084016105e0565b600080866001600160a01b0316858760405161199091906122dd565b60006040518083038185875af1925050503d80600081146119cd576040519150601f19603f3d011682016040523d82523d6000602084013e6119d2565b606091505b50915091506119e3878383876119ee565b979650505050505050565b60608315611a5d578251600003611a56576001600160a01b0385163b611a565760405162461bcd60e51b815260206004820152601d60248201527f416464726573733a2063616c6c20746f206e6f6e2d636f6e747261637400000060448201526064016105e0565b508161190b565b61190b8383815115611a725781518083602001fd5b8060405162461bcd60e51b81526004016105e091906122f9565b6001600160a01b0381168114610db757600080fd5b600060208284031215611ab357600080fd5b8135611abe81611a8c565b9392505050565b600060208284031215611ad757600080fd5b5035919050565b60008060408385031215611af157600080fd5b50508035926020909101359150565b634e487b7160e01b600052604160045260246000fd5b6040516060810167ffffffffffffffff81118282101715611b3957611b39611b00565b60405290565b604051601f8201601f1916810167ffffffffffffffff81118282101715611b6857611b68611b00565b604052919050565b600067ffffffffffffffff821115611b8a57611b8a611b00565b50601f01601f191660200190565b600080600080600080600080610100898b031215611bb557600080fd5b8835975060208901359650604089013595506060890135611bd581611a8c565b94506080890135935060a0890135611bec81611a8c565b925060c0890135915060e089013567ffffffffffffffff811115611c0f57600080fd5b8901601f81018b13611c2057600080fd5b8035611c33611c2e82611b70565b611b3f565b8181528c6020838501011115611c4857600080fd5b816020840160208301376000602083830101528093505050509295985092959890939650565b60008060208385031215611c8157600080fd5b823567ffffffffffffffff80821115611c9957600080fd5b818501915085601f830112611cad57600080fd5b813581811115611cbc57600080fd5b8660208260051b8501011115611cd157600080fd5b60209290920196919550909350505050565b81516001600160a01b03908116825260208084015190830152604080840151908301526060808401519083015260808084015182169083015260a0838101519083015260c080840151918216908301526101208201905060e083015160e083015261010080840151611d588285018215159052565b505092915050565b600080600060408486031215611d7557600080fd5b83359250602084013567ffffffffffffffff80821115611d9457600080fd5b818601915086601f830112611da857600080fd5b813581811115611db757600080fd5b876020828501011115611dc957600080fd5b6020830194508093505050509250925092565b600080600080600080600060e0888a031215611df757600080fd5b8735965060208801359550604088013594506060880135611e1781611a8c565b93506080880135925060a0880135611e2e81611a8c565b8092505060c0880135905092959891949750929550565b6020808252602e908201527f496e697469616c697a61626c653a20636f6e747261637420697320616c72656160408201526d191e481a5b9a5d1a585b1a5e995960921b606082015260800190565b60208082526026908201527f54686973206f6666657220494420686173206e6f74206265656e2072656769736040820152653a32b932b21760d11b606082015260800190565b634e487b7160e01b600052603260045260246000fd5b600060018201611f0f57634e487b7160e01b600052601160045260246000fd5b5060010190565b600067ffffffffffffffff821115611f3057611f30611b00565b5060051b60200190565b600060608284031215611f4c57600080fd5b611f54611b16565b90508151815260208083015181830152604083015167ffffffffffffffff811115611f7e57600080fd5b8301601f81018513611f8f57600080fd5b8051611f9d611c2e82611f16565b81815260059190911b82018301908381019087831115611fbc57600080fd5b928401925b82841015611fda57835182529284019290840190611fc1565b6040860152509295945050505050565b6000610100808385031215611ffe57600080fd5b6040519081019067ffffffffffffffff8211818310171561202157612021611b00565b81604052809250835181526020840151602082015260408401516040820152606084015160608201526080840151608082015260a084015160a082015260c084015160c082015260e084015160e0820152505092915050565b60005b8381101561209557818101518382015260200161207d565b50506000910152565b600082601f8301126120af57600080fd5b81516120bd611c2e82611b70565b8181528460208386010111156120d257600080fd5b61190b82602083016020870161207a565b600080600080600061018086880312156120fc57600080fd5b855167ffffffffffffffff8082111561211457600080fd5b818801915088601f83011261212857600080fd5b81516020612138611c2e83611f16565b8281526060928302850182019282820191908d85111561215757600080fd5b958301955b848710156121a15780878f0312156121745760008081fd5b61217c611b16565b875181528488015185820152604080890151908201528352958601959183019161215c565b819b50838d01519a5060408d01519650858711156121be57600080fd5b6121ca8e888f01611f3a565b99506121d88e828f01611fea565b985050505050506101608801519150808211156121f457600080fd5b506122018882890161209e565b9150509295509295909350565b60006020828403121561222057600080fd5b5051919050565b6000815180845261223f81602086016020860161207a565b601f01601f19169290920160200192915050565b60608082528451828201819052600091906020906080850190828901855b828110156122a1578151805185528581015186860152604090810151908501529285019290840190600101612271565b505050868286015284810360408601526108688187612227565b6000602082840312156122cd57600080fd5b81518015158114611abe57600080fd5b600082516122ef81846020870161207a565b9190910192915050565b602081526000611abe602083018461222756fea26469706673582212209342c9d1262f49d0da90444b586424fafa15a8c743db4471fc144a913100101064736f6c63430008110033",
  "linkReferences": {},
  "deployedLinkReferences": {}
}