{
  "_format": "hh-sol-artifact-1",
  "contractName": "OfferManagerV2",
  "sourceName": "contracts/OfferManagerV2.sol",
  "abi": [
    {
      "anonymous": false,
      "inputs": [
        {
          "indexed": false,
          "internalType": "uint8",
          "name": "version",
          "type": "uint8"
        }
      ],
      "name": "Initialized",
      "type": "event"
    },
    {
      "anonymous": false,
      "inputs": [
        {
          "indexed": true,
          "internalType": "uint256",
          "name": "offerId",
          "type": "uint256"
        },
        {
          "indexed": true,
          "internalType": "bytes32",
          "name": "takerIntmaxAddress",
          "type": "bytes32"
        }
      ],
      "name": "OfferActivated",
      "type": "event"
    },
    {
      "anonymous": false,
      "inputs": [
        {
          "indexed": true,
          "internalType": "uint256",
          "name": "offerId",
          "type": "uint256"
        }
      ],
      "name": "OfferDeactivated",
      "type": "event"
    },
    {
      "anonymous": false,
      "inputs": [
        {
          "indexed": true,
          "internalType": "uint256",
          "name": "offerId",
          "type": "uint256"
        },
        {
          "indexed": true,
          "internalType": "address",
          "name": "maker",
          "type": "address"
        },
        {
          "indexed": false,
          "internalType": "bytes32",
          "name": "makerIntmaxAddress",
          "type": "bytes32"
        },
        {
          "indexed": false,
          "internalType": "uint256",
          "name": "makerAssetId",
          "type": "uint256"
        },
        {
          "indexed": false,
          "internalType": "uint256",
          "name": "makerAmount",
          "type": "uint256"
        },
        {
          "indexed": false,
          "internalType": "address",
          "name": "taker",
          "type": "address"
        },
        {
          "indexed": false,
          "internalType": "address",
          "name": "takerTokenAddress",
          "type": "address"
        },
        {
          "indexed": false,
          "internalType": "uint256",
          "name": "takerAmount",
          "type": "uint256"
        }
      ],
      "name": "OfferRegistered",
      "type": "event"
    },
    {
      "anonymous": false,
      "inputs": [
        {
          "indexed": true,
          "internalType": "uint256",
          "name": "offerId",
          "type": "uint256"
        },
        {
          "indexed": true,
          "internalType": "bytes32",
          "name": "takerIntmaxAddress",
          "type": "bytes32"
        }
      ],
      "name": "OfferTakerUpdated",
      "type": "event"
    },
    {
      "anonymous": false,
      "inputs": [
        {
          "indexed": true,
          "internalType": "address",
          "name": "previousOwner",
          "type": "address"
        },
        {
          "indexed": true,
          "internalType": "address",
          "name": "newOwner",
          "type": "address"
        }
      ],
      "name": "OwnershipTransferred",
      "type": "event"
    },
    {
      "anonymous": false,
      "inputs": [
        {
          "indexed": true,
          "internalType": "address",
          "name": "token",
          "type": "address"
        },
        {
          "indexed": false,
          "internalType": "bool",
          "name": "isAllowed",
          "type": "bool"
        }
      ],
      "name": "TokenAllowListUpdated",
      "type": "event"
    },
    {
      "inputs": [
        {
          "internalType": "uint256",
          "name": "offerId",
          "type": "uint256"
        }
      ],
      "name": "activate",
      "outputs": [
        {
          "internalType": "bool",
          "name": "ok",
          "type": "bool"
        }
      ],
      "stateMutability": "payable",
      "type": "function"
    },
    {
      "inputs": [
        {
          "internalType": "address[]",
          "name": "tokens",
          "type": "address[]"
        }
      ],
      "name": "addTokenAddressToAllowList",
      "outputs": [],
      "stateMutability": "nonpayable",
      "type": "function"
    },
    {
      "inputs": [
        {
          "internalType": "contract VerifierInterface",
          "name": "newVerifier",
          "type": "address"
        }
      ],
      "name": "changeVerifier",
      "outputs": [],
      "stateMutability": "nonpayable",
      "type": "function"
    },
    {
      "inputs": [
        {
          "internalType": "uint256",
          "name": "offerId",
          "type": "uint256"
        },
        {
          "internalType": "bytes",
          "name": "witness",
          "type": "bytes"
        }
      ],
      "name": "checkWitness",
      "outputs": [
        {
          "internalType": "bool",
          "name": "",
          "type": "bool"
        }
      ],
      "stateMutability": "view",
      "type": "function"
    },
    {
      "inputs": [
        {
          "internalType": "uint256",
          "name": "offerId",
          "type": "uint256"
        }
      ],
      "name": "deactivate",
      "outputs": [
        {
          "internalType": "bool",
          "name": "",
          "type": "bool"
        }
      ],
      "stateMutability": "nonpayable",
      "type": "function"
    },
    {
      "inputs": [
        {
          "internalType": "uint256",
          "name": "offerId",
          "type": "uint256"
        }
      ],
      "name": "getOffer",
      "outputs": [
        {
          "internalType": "address",
          "name": "maker",
          "type": "address"
        },
        {
          "internalType": "bytes32",
          "name": "makerIntmaxAddress",
          "type": "bytes32"
        },
        {
          "internalType": "uint256",
          "name": "makerAssetId",
          "type": "uint256"
        },
        {
          "internalType": "uint256",
          "name": "makerAmount",
          "type": "uint256"
        },
        {
          "internalType": "address",
          "name": "taker",
          "type": "address"
        },
        {
          "internalType": "bytes32",
          "name": "takerIntmaxAddress",
          "type": "bytes32"
        },
        {
          "internalType": "address",
          "name": "takerTokenAddress",
          "type": "address"
        },
        {
          "internalType": "uint256",
          "name": "takerAmount",
          "type": "uint256"
        },
        {
          "internalType": "bool",
          "name": "activated",
          "type": "bool"
        }
      ],
      "stateMutability": "view",
      "type": "function"
    },
    {
      "inputs": [],
      "name": "initialize",
      "outputs": [],
      "stateMutability": "nonpayable",
      "type": "function"
    },
    {
      "inputs": [
        {
          "internalType": "address",
          "name": "newOwner",
          "type": "address"
        }
      ],
      "name": "initializeV2",
      "outputs": [],
      "stateMutability": "nonpayable",
      "type": "function"
    },
    {
      "inputs": [
        {
          "internalType": "uint256",
          "name": "offerId",
          "type": "uint256"
        }
      ],
      "name": "isActivated",
      "outputs": [
        {
          "internalType": "bool",
          "name": "",
          "type": "bool"
        }
      ],
      "stateMutability": "view",
      "type": "function"
    },
    {
      "inputs": [
        {
          "internalType": "uint256",
          "name": "offerId",
          "type": "uint256"
        }
      ],
      "name": "isRegistered",
      "outputs": [
        {
          "internalType": "bool",
          "name": "",
          "type": "bool"
        }
      ],
      "stateMutability": "view",
      "type": "function"
    },
    {
      "inputs": [],
      "name": "nextOfferId",
      "outputs": [
        {
          "internalType": "uint256",
          "name": "offerId",
          "type": "uint256"
        }
      ],
      "stateMutability": "view",
      "type": "function"
    },
    {
      "inputs": [
        {
          "internalType": "uint256",
          "name": "offerId",
          "type": "uint256"
        }
      ],
      "name": "offers",
      "outputs": [
        {
          "components": [
            {
              "internalType": "address",
              "name": "maker",
              "type": "address"
            },
            {
              "internalType": "bytes32",
              "name": "makerIntmaxAddress",
              "type": "bytes32"
            },
            {
              "internalType": "uint256",
              "name": "makerAssetId",
              "type": "uint256"
            },
            {
              "internalType": "uint256",
              "name": "makerAmount",
              "type": "uint256"
            },
            {
              "internalType": "address",
              "name": "taker",
              "type": "address"
            },
            {
              "internalType": "bytes32",
              "name": "takerIntmaxAddress",
              "type": "bytes32"
            },
            {
              "internalType": "address",
              "name": "takerTokenAddress",
              "type": "address"
            },
            {
              "internalType": "uint256",
              "name": "takerAmount",
              "type": "uint256"
            },
            {
              "internalType": "bool",
              "name": "isActivated",
              "type": "bool"
            }
          ],
          "internalType": "struct OfferManagerBaseInterface.Offer",
          "name": "",
          "type": "tuple"
        }
      ],
      "stateMutability": "view",
      "type": "function"
    },
    {
      "inputs": [],
      "name": "owner",
      "outputs": [
        {
          "internalType": "address",
          "name": "",
          "type": "address"
        }
      ],
      "stateMutability": "view",
      "type": "function"
    },
    {
      "inputs": [
        {
          "internalType": "bytes32",
          "name": "makerIntmaxAddress",
          "type": "bytes32"
        },
        {
          "internalType": "uint256",
          "name": "makerAssetId",
          "type": "uint256"
        },
        {
          "internalType": "uint256",
          "name": "makerAmount",
          "type": "uint256"
        },
        {
          "internalType": "address",
          "name": "taker",
          "type": "address"
        },
        {
          "internalType": "bytes32",
          "name": "takerIntmaxAddress",
          "type": "bytes32"
        },
        {
          "internalType": "address",
          "name": "takerTokenAddress",
          "type": "address"
        },
        {
          "internalType": "uint256",
          "name": "takerAmount",
          "type": "uint256"
        },
        {
          "internalType": "bytes",
          "name": "witness",
          "type": "bytes"
        }
      ],
      "name": "register",
      "outputs": [
        {
          "internalType": "uint256",
          "name": "offerId",
          "type": "uint256"
        }
      ],
      "stateMutability": "nonpayable",
      "type": "function"
    },
    {
      "inputs": [
        {
          "internalType": "bytes32",
          "name": "",
          "type": "bytes32"
        },
        {
          "internalType": "uint256",
          "name": "",
          "type": "uint256"
        },
        {
          "internalType": "uint256",
          "name": "",
          "type": "uint256"
        },
        {
          "internalType": "address",
          "name": "",
          "type": "address"
        },
        {
          "internalType": "bytes32",
          "name": "",
          "type": "bytes32"
        },
        {
          "internalType": "address",
          "name": "",
          "type": "address"
        },
        {
          "internalType": "uint256",
          "name": "",
          "type": "uint256"
        }
      ],
      "name": "register",
      "outputs": [
        {
          "internalType": "uint256",
          "name": "",
          "type": "uint256"
        }
      ],
      "stateMutability": "pure",
      "type": "function"
    },
    {
      "inputs": [
        {
          "internalType": "address[]",
          "name": "tokens",
          "type": "address[]"
        }
      ],
      "name": "removeTokenAddressFromAllowList",
      "outputs": [],
      "stateMutability": "nonpayable",
      "type": "function"
    },
    {
      "inputs": [],
      "name": "renounceOwnership",
      "outputs": [],
      "stateMutability": "nonpayable",
      "type": "function"
    },
    {
      "inputs": [
        {
          "internalType": "address",
          "name": "",
          "type": "address"
        }
      ],
      "name": "tokenAllowList",
      "outputs": [
        {
          "internalType": "bool",
          "name": "",
          "type": "bool"
        }
      ],
      "stateMutability": "view",
      "type": "function"
    },
    {
      "inputs": [
        {
          "internalType": "address",
          "name": "newOwner",
          "type": "address"
        }
      ],
      "name": "transferOwnership",
      "outputs": [],
      "stateMutability": "nonpayable",
      "type": "function"
    },
    {
      "inputs": [
        {
          "internalType": "uint256",
          "name": "offerId",
          "type": "uint256"
        },
        {
          "internalType": "bytes32",
          "name": "newTakerIntmaxAddress",
          "type": "bytes32"
        }
      ],
      "name": "updateTaker",
      "outputs": [],
      "stateMutability": "nonpayable",
      "type": "function"
    },
    {
      "inputs": [
        {
          "internalType": "bytes32",
          "name": "",
          "type": "bytes32"
        }
      ],
      "name": "usedTxHashes",
      "outputs": [
        {
          "internalType": "bool",
          "name": "",
          "type": "bool"
        }
      ],
      "stateMutability": "view",
      "type": "function"
    }
  ],
  "bytecode": "0x608060405234801561001057600080fd5b5061241e806100206000396000f3fe60806040526004361061012a5760003560e01c80638129fc1c116100ab578063b13235571161006f578063b1323557146104f1578063b260c42a14610511578063b75c3c0114610524578063bb218bdd14610544578063cf04fb9414610564578063f2fde38b1461058457600080fd5b80638129fc1c1461037657806385ffdc571461038b5780638a72ea6a146103ab5780638da5cb5b146104a9578063916b9bef146104d157600080fd5b8063579a6988116100f2578063579a6988146102ba5780635f5d0655146102f2578063715018a6146103115780637d261275146103265780637ec230fd1461034657600080fd5b806329b6eca91461012f57806331809dcf1461015157806334e048c01461019957806337805585146101c95780634579268a146101e9575b600080fd5b34801561013b57600080fd5b5061014f61014a366004611b5c565b6105a4565b005b34801561015d57600080fd5b5061018461016c366004611b80565b60009081526001602052604090206008015460ff1690565b60405190151581526020015b60405180910390f35b3480156101a557600080fd5b506101846101b4366004611b5c565b60696020526000908152604090205460ff1681565b3480156101d557600080fd5b5061014f6101e4366004611b99565b61064b565b3480156101f557600080fd5b50610264610204366004611b80565b60009081526001602081905260409091208054918101546002820154600383015460048401546005850154600686015460078701546008909701546001600160a01b03988916999698959794969386169592949190921692909160ff1690565b604080516001600160a01b039a8b16815260208101999099528801969096526060870194909452918616608086015260a085015290931660c083015260e082019290925290151561010082015261012001610190565b3480156102c657600080fd5b506101846102d5366004611b80565b6000908152600160205260409020546001600160a01b0316151590565b3480156102fe57600080fd5b506000545b604051908152602001610190565b34801561031d57600080fd5b5061014f61079b565b34801561033257600080fd5b50610303610341366004611c53565b6107af565b34801561035257600080fd5b50610184610361366004611b80565b60686020526000908152604090205460ff1681565b34801561038257600080fd5b5061014f610874565b34801561039757600080fd5b5061014f6103a6366004611d29565b610885565b3480156103b757600080fd5b5061049c6103c6366004611b80565b6040805161012081018252600080825260208201819052918101829052606081018290526080810182905260a0810182905260c0810182905260e081018290526101008101919091525060009081526001602081815260409283902083516101208101855281546001600160a01b039081168252938201549281019290925260028101549382019390935260038301546060820152600483015482166080820152600583015460a0820152600683015490911660c0820152600782015460e082015260089091015460ff16151561010082015290565b6040516101909190611d9e565b3480156104b557600080fd5b506035546040516001600160a01b039091168152602001610190565b3480156104dd57600080fd5b506101846104ec366004611b80565b6108de565b3480156104fd57600080fd5b5061018461050c366004611e1b565b610973565b61018461051f366004611b80565b610a37565b34801561053057600080fd5b5061030361053f366004611e97565b610bcc565b34801561055057600080fd5b5061014f61055f366004611d29565b610c3d565b34801561057057600080fd5b5061014f61057f366004611b5c565b610c91565b34801561059057600080fd5b5061014f61059f366004611b5c565b610cbb565b60028054610100900460ff161580156105c4575060025460ff8083169116105b6105e95760405162461bcd60e51b81526004016105e090611f00565b60405180910390fd5b6002805461ffff191660ff83161761010017905561060682610d34565b6002805461ff001916905560405160ff821681527f7f26b83ff96e1f2b6a682f133852f6798a09c465da95921460cefb38474024989060200160405180910390a15050565b6000828152600160205260409020546001600160a01b031661067f5760405162461bcd60e51b81526004016105e090611f4e565b6000828152600160205260409020546001600160a01b0316336001600160a01b0316146106f95760405162461bcd60e51b815260206004820152602260248201527f6f66666572732063616e206265207570646174656420627920697473206d616b60448201526132b960f11b60648201526084016105e0565b806107595760405162461bcd60e51b815260206004820152602a60248201527f606e657754616b6572496e746d617841646472657373602073686f756c64206e6044820152696f74206265207a65726f60b01b60648201526084016105e0565b60008281526001602052604080822060050183905551829184917f78f1204b0d8f130e8e8cdf9c2380aa132af9ea05233199057b67ca9ca95294019190a35050565b6107a3610d86565b6107ad6000610d34565b565b6001600160a01b03831660009081526069602052604081205460ff1661083d5760405162461bcd60e51b815260206004820152603860248201527f7468652074616b6572277320746f6b656e2061646472657373206973206e6f7460448201527f20696e2074686520746f6b656e20616c6c6f77206c697374000000000000000060648201526084016105e0565b61084d338a8a8a8a8a8a8a610de0565b6000818152600160205260409020909150610868908361106d565b98975050505050505050565b61087c611191565b6107ad336105a4565b61088d610d86565b60005b818110156108d9576108c78383838181106108ad576108ad611f94565b90506020020160208101906108c29190611b5c565b61125a565b806108d181611fc0565b915050610890565b505050565b6000818152600160205260408120546001600160a01b0316336001600160a01b0316146109625760405162461bcd60e51b815260206004820152602c60248201527f6f6e6c7920746865206d616b6572206f6620616e206f666665722063616e206460448201526b195858dd1a5d985d19481a5d60a21b60648201526084016105e0565b61096b82611265565b506001919050565b600083815260016020818152604080842081516101208101835281546001600160a01b039081168252948201548185015260028201548184015260038201546060820152600482015485166080820152600582015460a0820152600682015490941660c0850152600781015460e08501526008015460ff1615156101008401528051601f8601839004830281018301909152848152610a2d929186908690819084018382808284376000920191909152506112b092505050565b5060019392505050565b600081815260016020526040812060048101546001600160a01b0316801580610a6857506001600160a01b03811633145b610ac05760405162461bcd60e51b8152602060048201526024808201527f6f66666572732063616e2062652061637469766174656420627920697473207460448201526330b5b2b960e11b60648201526084016105e0565b610ac984611480565b60068201546001600160a01b0316610b5a5781600701543414610b455760405162461bcd60e51b815260206004820152602e60248201527f706c656173652073656e64206a7573742074686520616d6f756e74206e65656460448201526d656420746f20616374697661746560901b60648201526084016105e0565b8154610a2d906001600160a01b0316346114c9565b3415610ba85760405162461bcd60e51b815260206004820152601e60248201527f7472616e736d697373696f6e206d6574686f64206973206e6f7420455448000060448201526064016105e0565b610a2d338354600785015460068601546001600160a01b03908116939216906115e2565b60405162461bcd60e51b815260206004820152603860248201527f746869732066756e6374696f6e20697320646570726563617465643a2027776960448201527f746e6573732720617267756d656e74207265717569726564000000000000000060648201526000906084016105e0565b610c45610d86565b60005b818110156108d957610c7f838383818110610c6557610c65611f94565b9050602002016020810190610c7a9190611b5c565b611642565b80610c8981611fc0565b915050610c48565b610c99610d86565b606780546001600160a01b0319166001600160a01b0392909216919091179055565b610cc3610d86565b6001600160a01b038116610d285760405162461bcd60e51b815260206004820152602660248201527f4f776e61626c653a206e6577206f776e657220697320746865207a65726f206160448201526564647265737360d01b60648201526084016105e0565b610d3181610d34565b50565b603580546001600160a01b038381166001600160a01b0319831681179093556040519116919082907f8be0079c531659141344cd1fd0a4f28419497f9722a3daafe3b4186f6b6457e090600090a35050565b6035546001600160a01b031633146107ad5760405162461bcd60e51b815260206004820181905260248201527f4f776e61626c653a2063616c6c6572206973206e6f7420746865206f776e657260448201526064016105e0565b60006001600160a01b038916610e445760405162461bcd60e51b815260206004820152602360248201527f546865206d616b6572206d757374206e6f74206265207a65726f20616464726560448201526239b99760e91b60648201526084016105e0565b506000805480825260016020526040909120546001600160a01b031615610eb95760405162461bcd60e51b8152602060048201526024808201527f54686973206f6666657220494420697320616c726561647920726567697374656044820152633932b21760e11b60648201526084016105e0565b60006040518061012001604052808b6001600160a01b031681526020018a8152602001898152602001888152602001876001600160a01b03168152602001868152602001856001600160a01b03168152602001848152602001600015158152509050610f248161164d565b6000828152600160208181526040808420855181546001600160a01b03199081166001600160a01b039283161783559387015182860155918601516002820155606086015160038201556080860151600482018054851691841691909117905560a0860151600582015560c086015160068201805490941692169190911790915560e084015160078201556101008401516008909101805460ff19169115159190911790558154019055604080518a8152602081018a90529081018890526001600160a01b038781166060830152858116608083015260a082018590528b169083907f97e91b5b77af37d6c0e8b82837d7263b92cf6ce511d8129330589df1e11394979060c00160405180910390a3604051859083907f78f1204b0d8f130e8e8cdf9c2380aa132af9ea05233199057b67ca9ca952940190600090a35098975050505050505050565b60008180602001905181019061108391906121a6565b505060208082015160008181526068909252604090912054919450925060ff161590506110f25760405162461bcd60e51b815260206004820152601a60248201527f476976656e207769746e65737320616c7265616479207573656400000000000060448201526064016105e0565b604080516101208101825285546001600160a01b0390811682526001870154602083015260028701549282019290925260038601546060820152600486015482166080820152600586015460a0820152600686015490911660c0820152600785015460e0820152600885015460ff16151561010082015261117390846112b0565b6000908152606860205260409020805460ff19166001179055505050565b600254610100900460ff16158080156111b15750600254600160ff909116105b806111cb5750303b1580156111cb575060025460ff166001145b6111e75760405162461bcd60e51b81526004016105e090611f00565b6002805460ff19166001179055801561120a576002805461ff0019166101001790555b6112126116cf565b8015610d31576002805461ff0019169055604051600181527f7f26b83ff96e1f2b6a682f133852f6798a09c465da95921460cefb38474024989060200160405180910390a150565b610d3181600161173a565b61126e816117c0565b6000818152600160208190526040808320909101549051909183917fd24204a0846309eb47a4c7152aa297a8bbde01aedbf11b47790f2abd9da76c319190a350565b6067546040805163dae0384760e01b815290516000926001600160a01b03169163dae038479160048083019260209291908290030181865afa1580156112fa573d6000803e3d6000fd5b505050506040513d601f19601f8201168201806040525081019061131e91906122d1565b90506000806113308560400151611883565b60408051600180825281830190925292945090925060009190816020015b604080516060810182526000808252602080830182905292820152825260001990920191018161134e57905050905060405180606001604052808481526020018381526020018760600151815250816000815181106113af576113af611f94565b602090810291909101015260675460405163013c480b60e61b81526000916001600160a01b031690634f1202c0906113ef90859089908b90600401612316565b602060405180830381865afa15801561140c573d6000803e3d6000fd5b505050506040513d601f19601f82011682018060405250810190611430919061237e565b9050806114775760405162461bcd60e51b81526020600482015260156024820152744661696c20746f207665726966792061737365747360581b60448201526064016105e0565b50505050505050565b611489816117c0565b600081815260016020526040808220600501549051909183917fd24204a0846309eb47a4c7152aa297a8bbde01aedbf11b47790f2abd9da76c319190a350565b804710156115195760405162461bcd60e51b815260206004820152601d60248201527f416464726573733a20696e73756666696369656e742062616c616e636500000060448201526064016105e0565b6000826001600160a01b03168260405160006040518083038185875af1925050503d8060008114611566576040519150601f19603f3d011682016040523d82523d6000602084013e61156b565b606091505b50509050806108d95760405162461bcd60e51b815260206004820152603a60248201527f416464726573733a20756e61626c6520746f2073656e642076616c75652c207260448201527f6563697069656e74206d6179206861766520726576657274656400000000000060648201526084016105e0565b604080516001600160a01b0385811660248301528416604482015260648082018490528251808303909101815260849091019091526020810180516001600160e01b03166323b872dd60e01b17905261163c9085906118e5565b50505050565b610d3181600061173a565b67ffffffff0000000081606001511115610d315760405162461bcd60e51b815260206004820152603860248201527f496e76616c6964206f6666657220616d6f756e743a2065786365656473206d6160448201527f78696d756d2072656d697474616e636520616d6f756e742e000000000000000060648201526084016105e0565b600254610100900460ff166107ad5760405162461bcd60e51b815260206004820152602b60248201527f496e697469616c697a61626c653a20636f6e7472616374206973206e6f74206960448201526a6e697469616c697a696e6760a81b60648201526084016105e0565b6001600160a01b03821660009081526069602052604090205460ff161515811515146117bc576001600160a01b038216600081815260696020908152604091829020805460ff191685151590811790915591519182527f46db97cfb5cec0c4481ae6eaad91699beae5943dbe74134f4be23f33163cfa26910160405180910390a25b5050565b6000818152600160205260409020546001600160a01b03166117f45760405162461bcd60e51b81526004016105e090611f4e565b60008181526001602052604090206008015460ff16156118625760405162461bcd60e51b815260206004820152602360248201527f54686973206f6666657220494420697320616c7265616479206163746976617460448201526232b21760e91b60648201526084016105e0565b6000908152600160208190526040909120600801805460ff19169091179055565b60008060c061189b6001600160c01b036000196123a0565b604080516001600160c01b0387166020820181905292871690931c93509091016040516020818303038152906040528060200190518101906118dd91906122d1565b925050915091565b600061193a826040518060400160405280602081526020017f5361666545524332303a206c6f772d6c6576656c2063616c6c206661696c6564815250856001600160a01b03166119b79092919063ffffffff16565b8051909150156108d95780806020019051810190611958919061237e565b6108d95760405162461bcd60e51b815260206004820152602a60248201527f5361666545524332303a204552433230206f7065726174696f6e20646964206e6044820152691bdd081cdd58d8d9595960b21b60648201526084016105e0565b60606119c684846000856119ce565b949350505050565b606082471015611a2f5760405162461bcd60e51b815260206004820152602660248201527f416464726573733a20696e73756666696369656e742062616c616e636520666f6044820152651c8818d85b1b60d21b60648201526084016105e0565b600080866001600160a01b03168587604051611a4b91906123b9565b60006040518083038185875af1925050503d8060008114611a88576040519150601f19603f3d011682016040523d82523d6000602084013e611a8d565b606091505b5091509150611a9e87838387611aa9565b979650505050505050565b60608315611b18578251600003611b11576001600160a01b0385163b611b115760405162461bcd60e51b815260206004820152601d60248201527f416464726573733a2063616c6c20746f206e6f6e2d636f6e747261637400000060448201526064016105e0565b50816119c6565b6119c68383815115611b2d5781518083602001fd5b8060405162461bcd60e51b81526004016105e091906123d5565b6001600160a01b0381168114610d3157600080fd5b600060208284031215611b6e57600080fd5b8135611b7981611b47565b9392505050565b600060208284031215611b9257600080fd5b5035919050565b60008060408385031215611bac57600080fd5b50508035926020909101359150565b634e487b7160e01b600052604160045260246000fd5b6040516060810167ffffffffffffffff81118282101715611bf457611bf4611bbb565b60405290565b604051601f8201601f1916810167ffffffffffffffff81118282101715611c2357611c23611bbb565b604052919050565b600067ffffffffffffffff821115611c4557611c45611bbb565b50601f01601f191660200190565b600080600080600080600080610100898b031215611c7057600080fd5b8835975060208901359650604089013595506060890135611c9081611b47565b94506080890135935060a0890135611ca781611b47565b925060c0890135915060e089013567ffffffffffffffff811115611cca57600080fd5b8901601f81018b13611cdb57600080fd5b8035611cee611ce982611c2b565b611bfa565b8181528c6020838501011115611d0357600080fd5b816020840160208301376000602083830101528093505050509295985092959890939650565b60008060208385031215611d3c57600080fd5b823567ffffffffffffffff80821115611d5457600080fd5b818501915085601f830112611d6857600080fd5b813581811115611d7757600080fd5b8660208260051b8501011115611d8c57600080fd5b60209290920196919550909350505050565b81516001600160a01b03908116825260208084015190830152604080840151908301526060808401519083015260808084015182169083015260a0838101519083015260c080840151918216908301526101208201905060e083015160e083015261010080840151611e138285018215159052565b505092915050565b600080600060408486031215611e3057600080fd5b83359250602084013567ffffffffffffffff80821115611e4f57600080fd5b818601915086601f830112611e6357600080fd5b813581811115611e7257600080fd5b876020828501011115611e8457600080fd5b6020830194508093505050509250925092565b600080600080600080600060e0888a031215611eb257600080fd5b8735965060208801359550604088013594506060880135611ed281611b47565b93506080880135925060a0880135611ee981611b47565b8092505060c0880135905092959891949750929550565b6020808252602e908201527f496e697469616c697a61626c653a20636f6e747261637420697320616c72656160408201526d191e481a5b9a5d1a585b1a5e995960921b606082015260800190565b60208082526026908201527f54686973206f6666657220494420686173206e6f74206265656e2072656769736040820152653a32b932b21760d11b606082015260800190565b634e487b7160e01b600052603260045260246000fd5b634e487b7160e01b600052601160045260246000fd5b600060018201611fd257611fd2611faa565b5060010190565b600067ffffffffffffffff821115611ff357611ff3611bbb565b5060051b60200190565b60006060828403121561200f57600080fd5b612017611bd1565b90508151815260208083015181830152604083015167ffffffffffffffff81111561204157600080fd5b8301601f8101851361205257600080fd5b8051612060611ce982611fd9565b81815260059190911b8201830190838101908783111561207f57600080fd5b928401925b8284101561209d57835182529284019290840190612084565b6040860152509295945050505050565b60006101008083850312156120c157600080fd5b6040519081019067ffffffffffffffff821181831017156120e4576120e4611bbb565b81604052809250835181526020840151602082015260408401516040820152606084015160608201526080840151608082015260a084015160a082015260c084015160c082015260e084015160e0820152505092915050565b60005b83811015612158578181015183820152602001612140565b50506000910152565b600082601f83011261217257600080fd5b8151612180611ce982611c2b565b81815284602083860101111561219557600080fd5b6119c682602083016020870161213d565b600080600080600061018086880312156121bf57600080fd5b855167ffffffffffffffff808211156121d757600080fd5b818801915088601f8301126121eb57600080fd5b815160206121fb611ce983611fd9565b8281526060928302850182019282820191908d85111561221a57600080fd5b958301955b848710156122645780878f0312156122375760008081fd5b61223f611bd1565b875181528488015185820152604080890151908201528352958601959183019161221f565b819b50838d01519a5060408d015196508587111561228157600080fd5b61228d8e888f01611ffd565b995061229b8e828f016120ad565b985050505050506101608801519150808211156122b757600080fd5b506122c488828901612161565b9150509295509295909350565b6000602082840312156122e357600080fd5b5051919050565b6000815180845261230281602086016020860161213d565b601f01601f19169290920160200192915050565b60608082528451828201819052600091906020906080850190828901855b82811015612364578151805185528581015186860152604090810151908501529285019290840190600101612334565b5050508682860152848103604086015261086881876122ea565b60006020828403121561239057600080fd5b81518015158114611b7957600080fd5b818103818111156123b3576123b3611faa565b92915050565b600082516123cb81846020870161213d565b9190910192915050565b602081526000611b7960208301846122ea56fea26469706673582212204f069b46c705dd73f3ce39056bf155481bb30cf87c1f7632624c7b883dc5832c64736f6c63430008110033",
  "linkReferences": {},
  "deployedLinkReferences": {}
}