{
  "_format": "hh-sol-artifact-1",
  "contractName": "GoldilocksPoseidon",
  "sourceName": "contracts/utils/Poseidon.sol",
  "abi": [
    {
      "inputs": [
        {
          "internalType": "bytes32",
          "name": "encoded",
          "type": "bytes32"
        }
      ],
      "name": "decodeHashOut",
      "outputs": [
        {
          "internalType": "uint256[4]",
          "name": "output",
          "type": "uint256[4]"
        }
      ],
      "stateMutability": "pure",
      "type": "function"
    },
    {
      "inputs": [
        {
          "internalType": "uint256[4]",
          "name": "value",
          "type": "uint256[4]"
        }
      ],
      "name": "encodeHashOut",
      "outputs": [
        {
          "internalType": "bytes32",
          "name": "encoded",
          "type": "bytes32"
        }
      ],
      "stateMutability": "pure",
      "type": "function"
    },
    {
      "inputs": [
        {
          "internalType": "uint256[]",
          "name": "input",
          "type": "uint256[]"
        },
        {
          "internalType": "uint256",
          "name": "numOutputs",
          "type": "uint256"
        }
      ],
      "name": "hashNToMNoPad",
      "outputs": [
        {
          "internalType": "uint256[]",
          "name": "output",
          "type": "uint256[]"
        }
      ],
      "stateMutability": "pure",
      "type": "function"
    },
    {
      "inputs": [
        {
          "internalType": "uint256[12]",
          "name": "state",
          "type": "uint256[12]"
        }
      ],
      "name": "permute",
      "outputs": [
        {
          "internalType": "uint256[12]",
          "name": "newState",
          "type": "uint256[12]"
        }
      ],
      "stateMutability": "pure",
      "type": "function"
    },
    {
      "inputs": [
        {
          "internalType": "bytes32",
          "name": "left",
          "type": "bytes32"
        },
        {
          "internalType": "bytes32",
          "name": "right",
          "type": "bytes32"
        }
      ],
      "name": "twoToOne",
      "outputs": [
        {
          "internalType": "bytes32",
          "name": "output",
          "type": "bytes32"
        }
      ],
      "stateMutability": "pure",
      "type": "function"
    }
  ],
  "bytecode": "0x608060405234801561001057600080fd5b5061581080620000216000396000f3fe608060405234801561001057600080fd5b50600436106100575760003560e01c80631a10dabc1461005c578063496f3b221461008557806349abd354146100a5578063bbb62147146100c6578063f8978579146100e6575b600080fd5b61006f61006a366004615492565b6100f9565b60405161007c919061553e565b60405180910390f35b610098610093366004615582565b610173565b60405161007c9190615601565b6100b86100b3366004615633565b6101e9565b60405190815260200161007c565b6100d96100d4366004615655565b6102b2565b60405161007c919061566e565b6100b86100f4366004615696565b610345565b606060005b83518110156101615761013284828151811061011c5761011c615714565b602002602001015167ffffffff00000001900690565b84828151811061014457610144615714565b60209081029190910101528061015981615740565b9150506100fe565b5061016c83836103bc565b9392505050565b61017b61540e565b61018482610758565b915060005b600c8110156101e3576101ba8382600c81106101a7576101a7615714565b602002015167ffffffff00000001900690565b8282600c81106101cc576101cc615714565b6020020152806101db81615740565b915050610189565b50919050565b6000806101f5846102b2565b90506000610202846102b2565b905061020c61540e565b82518152602080840151828201526040808501518184015260608086015181850152845160808501529184015160a084015283015160c083015282015160e082015261025781610758565b905061026161542d565b61026c8260006101a7565b81526102798260016101a7565b60208201526102898260026101a7565b60408201526102998260036101a7565b60608201526102a781610345565b979650505050505050565b6102ba61542d565b6000826040516020016102cf91815260200190565b6040516020818303038152906040528060200190518101906102f19190615759565b9050610301600160401b82615788565b825260401c610314600160401b82615788565b602083015260401c61032a600160401b82615788565b826002602002015260401c808260035b602002015250919050565b6060810151604080830151602080850151855184516001600160c01b031960c097881b81169482019490945293861b8316602885015290851b8216603084015290931b9092166038830152600091016040516020818303038152906040528060200190518101906103b69190615759565b92915050565b60606000600884516103ce919061579c565b90506000600885516103e09190615788565b90506103ea61540e565b60005b8381101561064a57866104016008836157b0565b61040c9060006157c7565b8151811061041c5761041c615714565b6020026020010151826000600c811061043757610437615714565b6020020152866104486008836157b0565b6104539060016157c7565b8151811061046357610463615714565b6020026020010151826001600c811061047e5761047e615714565b60200201528661048f6008836157b0565b61049a9060026157c7565b815181106104aa576104aa615714565b6020026020010151826002600c81106104c5576104c5615714565b6020020152866104d66008836157b0565b6104e19060036157c7565b815181106104f1576104f1615714565b6020026020010151826003600c811061050c5761050c615714565b60200201528661051d6008836157b0565b6105289060046157c7565b8151811061053857610538615714565b6020026020010151826004600c811061055357610553615714565b6020020152866105646008836157b0565b61056f9060056157c7565b8151811061057f5761057f615714565b6020026020010151826005600c811061059a5761059a615714565b6020020152866105ab6008836157b0565b6105b69060066157c7565b815181106105c6576105c6615714565b6020026020010151826006600c81106105e1576105e1615714565b6020020152866105f26008836157b0565b6105fd9060076157c7565b8151811061060d5761060d615714565b6020026020010151826007600c811061062857610628615714565b602002015261063682610758565b91508061064281615740565b9150506103ed565b5060005b828110156106ae5786816106636008876157b0565b61066d91906157c7565b8151811061067d5761067d615714565b60200260200101518282600c811061069757610697615714565b6020020152806106a681615740565b91505061064e565b506106b881610758565b90508467ffffffffffffffff8111156106d3576106d361544b565b6040519080825280602002602001820160405280156106fc578160200160208202803683370190505b50935060005b8581101561074e5761071f8282600c81106101a7576101a7615714565b85828151811061073157610731615714565b60209081029190910101528061074681615740565b915050610702565b5050505092915050565b61076061540e565b61077361076e836000610b0e565b610c7f565b915061078361076e836001610b0e565b915061079361076e836002610b0e565b91506107a361076e836003610b0e565b91506107ae82610df6565b91506107d18260005b602002015167ffffffff0000000181800282020680020290565b6774cb2e819ae421ab0182526107e88260006118aa565b91506107f58260006107b7565b67d2559d2370e7f66301825261080c8260016118aa565b91506108198260006107b7565b6762bf78acf843d17c0182526108308260026118aa565b915061083d8260006107b7565b67d5ab7b67e14d1fb40182526108548260036118aa565b91506108618260006107b7565b67b9fe2ae6e0969bdc0182526108788260046118aa565b91506108858260006107b7565b67e33fdf79f92a10e801825261089c8260056118aa565b91506108a98260006107b7565b670ea2bb4c2b25989b0182526108c08260066118aa565b91506108cd8260006107b7565b67ca9121fbf9d38f060182526108e48260076118aa565b91506108f18260006107b7565b67bdd9b0aa81f58fa40182526109088260086118aa565b91506109158260006107b7565b6783079fa4ecf20d7e01825261092c8260096118aa565b91506109398260006107b7565b67650b838edfcc4ad301825261095082600a6118aa565b915061095d8260006107b7565b6777180c88583c76ac01825261097482600b6118aa565b91506109818260006107b7565b67af8c20753143a18001825261099882600c6118aa565b91506109a58260006107b7565b67b8ccfe9989a391750182526109bc82600d6118aa565b91506109c98260006107b7565b67954a1729f60cc9c50182526109e082600e6118aa565b91506109ed8260006107b7565b67deb5b550c4dca53b018252610a0482600f6118aa565b9150610a118260006107b7565b67f01bb0b00f77011e018252610a288260106118aa565b9150610a358260006107b7565b67a1ebb404b676afd9018252610a4c8260116118aa565b9150610a598260006107b7565b67860b6e1597a0173e018252610a708260126118aa565b9150610a7d8260006107b7565b67308bb65a036acbce018252610a948260136118aa565b9150610aa18260006107b7565b671aca78f31c97c876018252610ab88260146118aa565b9150610ac58260006107b7565b8252610ad28260156118aa565b9150610ae261076e836004610b0e565b9150610af261076e836005610b0e565b9150610b0261076e836006610b0e565b91506103b661076e8360075b610b1661540e565b600c8202610b3e610b26826145db565b8560005b60200201510167ffffffff00000001900690565b8252610b57610b4f600183016145db565b856001610b2a565b6020830152610b73610b6b600283016145db565b856002610b2a565b6040830152610b8f610b87600383016145db565b856003610b2a565b6060830152610bab610ba3600483016145db565b856004610b2a565b6080830152610bc7610bbf600583016145db565b856005610b2a565b60a0830152610be3610bdb600683016145db565b856006610b2a565b60c0830152610bff610bf7600783016145db565b856007610b2a565b60e0830152610c1b610c13600883016145db565b856008610b2a565b610100830152610c38610c30600983016145db565b856009610b2a565b610120830152610c55610c4d600a83016145db565b85600a610b2a565b610140830152610c72610c6a600b83016145db565b85600b610b2a565b6101608301525092915050565b610c8761540e565b610c928260006107b7565b8252610c9f8260016107b7565b6020830152610caf8260026107b7565b6040830152610cbf8260036107b7565b6060830152610ccf8260046107b7565b6080830152610cdf8260056107b7565b60a0830152610cef8260066107b7565b60c0830152610cff8260076107b7565b60e0830152610d0f8260086107b7565b610100830152610d208260096107b7565b610120830152610d3182600a6107b7565b610140830152610d4282600b6107b7565b610160830152610d5182614ea4565b8152610d5c82614f27565b6020820152610d6a82614f97565b6040820152610d788261500a565b6060820152610d868261507a565b6080820152610d94826150ed565b60a0820152610da28261515d565b60c0820152610db0826151cd565b60e0820152610dbe8261523d565b610100820152610dcd826152ac565b610120820152610ddc8261531b565b610140820152610deb8261538a565b610160820152919050565b610dfe61540e565b6020820151610e159067e993fd841e7e97f16153f9565b60208301526040820151610e319067f2831d3575f0f3af6153f9565b60408301526060820151610e4d9067d2500e0a350994ca6153f9565b60608301526080820151610e699067c5571f35d72886336153f9565b608083015260a0820151610e85906791d89c5184109a026153f9565b60a083015260c0820151610ea19067f37f925d04e5667b6153f9565b60c083015260e0820151610ebd90672d6e448371955a696153f9565b60e0830152610100820151610eda9067740ef19ce01398a16153f9565b610100830152610120820151610ef89067694d24c0752fdf456153f9565b610120830152610140820151610f16906760936af96ee2f1486153f9565b610140830152610160820151610f349067c33448feadc78f0c6153f9565b610160830181905261014083015161012084015161010085015160e086015160c087015160a0880151608089015160608a015160408b015160208c01516780772dc2645b280b0267e796d293a47a64cb9091020167dcedab70f40718ba9091020167f4a437f2888ae9099091020167f97abba0dffb6c5090910201677f8e41e0b0a6cdff9091020167726af914971c1374909102016764dd936da878404d909102016785418a9fef8a98909091020167156048ee7a7381549091020167d841e8ef9dde8ba09091020160208281019190915261016083015161014084015161012085015161010086015160e087015160c088015160a089015160808a015160608b015160408c0151998c015160009a67c1978156516879ad909102670ee5dc0ce131268a90910201674715b8e5ab34653b90910201677f68007619fd8ba990910201675996a80497e24a6b9091020167623708f28fca70e8909102016718737784700c75cd9091020167be2e19f6d07f1a839091020167bfe85ababed2d8829091020167d8a2eb7ef5e707ad909102016785418a9fef8a9890909102016060830181905290506111b683600081600b60200201516764dd936da878404d0282600a6020020151674db9a2ead2bd726202836009602002015167be2e19f6d07f1a830284600860200201516702290fe23c20351a028560076020020151677fb45d605dd8283802866006602002015167bf150dc4914d380f0287600560200201516707084430a7307c9a02886004602002015167a4911db6a32612da028960036020020151671e8916a99c93a88e028a6002602002015167a9032a52f930fae6028b600160200201516790e80c591f48b603020101010101010101010192915050565b608083015261129783600081600b602002015167726af914971c13740282600a6020020151671d7f8a2cce1a9d000283600960200201516718737784700c75cd028460086020020151677fb45d605dd8283802856007602002015167862361aeab0f9b6e02866006602002015167c26a08355476710602876005602002015167ad2f570a5b8545aa028860046020020151672f7e9aade3fdaec102896003602002015167bba4b5d86b9a3b2c028a60026020020151677e33ca8c814280de028b60016020020151673a2432625475e3ae020101010101010101010192915050565b60a083015261137783600081600b6020020151677f8e41e0b0a6cdff0282600a6020020151674b1ba8d40afca97d02836009602002015167623708f28fca70e802846008602002015167bf150dc4914d380f02856007602002015167c26a08355476710602866006602002015167753b8b1126665c2202876005602002015167ab7f81fef427477002886004602002015167e7ffd578da4ea43d02896003602002015167e76649f9bd5d5c2e028a6002602002015167ad11180f69a8c29e028b6001602002015166a2d4321cca94fe020101010101010101010192915050565b60c083015261145883600081600b602002015167f97abba0dffb6c500282600a6020020151675e40f0c9bb82aab5028360096020020151675996a80497e24a6b0284600860200201516707084430a7307c9a02856007602002015167ad2f570a5b8545aa02866006602002015167ab7f81fef427477002876005602002015167cb81f535cf98c9e90288600460200201516743a608e7afa6b5c202896003602002015167af8e2518a1ece54d028a6002602002015167c75ac6d5b5a10ff3028b600160200201516777736f524010c932020101010101010101010192915050565b60e083015261153983600081600b602002015167f4a437f2888ae9090282600a602002015167c537d44dc2875403028360096020020151677f68007619fd8ba902846008602002015167a4911db6a32612da028560076020020151672f7e9aade3fdaec102866006602002015167e7ffd578da4ea43d0287600560200201516743a608e7afa6b5c202886004602002015167ca46546aa99e157502896003602002015167dcda1344cdca873f028a6002602002015167f0674a8dc5a387ec028b6001602002015167904d3f2804a36c54020101010101010101010192915050565b61010083015261161b83600081600b602002015167dcedab70f40718ba0282600a60200201516714a4a64da0b2668f028360096020020151674715b8e5ab34653b028460086020020151671e8916a99c93a88e02856007602002015167bba4b5d86b9a3b2c02866006602002015167e76649f9bd5d5c2e02876005602002015167af8e2518a1ece54d02886004602002015167dcda1344cdca873f02896003602002015167cd080204256088e5028a6002602002015167b36d43120eaa5e2b028b6001602002015167bf9b39e28a16f354020101010101010101010192915050565b610120838101919091526101608401516101408501519185015161010086015160e087015160c088015160a089015160808a015160608b015160408c015160208d0151673a1ded54a6cd058b02676f232aab4b533a259091020167b36d43120eaa5e2b9091020167f0674a8dc5a387ec9091020167c75ac6d5b5a10ff39091020167ad11180f69a8c29e90910201677e33ca8c814280de9091020167a9032a52f930fae690910201670ee5dc0ce131268a9091020167b124c33152a2421a9092029190910167e796d293a47a64cb90910201610140838101919091526101608401519084015161012085015161010086015160e087015160c088015160a089015160808a015160608b015160408c015160208d01516742392870da5737cf02673a1ded54a6cd058b9091020167bf9b39e28a16f3549091020167904d3f2804a36c54909102016777736f524010c9329091020166a2d4321cca94fe90910201673a2432625475e3ae909102016790e80c591f48b6039091020167c1978156516879ad9091020167dc927721da922cf8909102016780772dc2645b280b909102016101608381019190915283015161014084015161012085015161010086015160e087015160c088015160a089015160808a015160608b015160408c015160208d015167dc927721da922cf80267b124c33152a2421a909102016714a4a64da0b2668f9091020167c537d44dc287540390910201675e40f0c9bb82aab590910201674b1ba8d40afca97d90910201671d7f8a2cce1a9d0090910201674db9a2ead2bd72629091020167d8a2eb7ef5e707ad909102016791f7562377e81df59091020167156048ee7a73815490910201604083015282516118a290673cc3f892184df4086153f9565b82600061033a565b6118b261540e565b8251601902600083900361198d5761016084015161014085015161012086015161010087015160e088015160c089015160a08a015160808b015160608c015160408d015160208e0151673d999c961b7c63b00267814e82efcd17252990910201672421e5d2367045889091020167887af7d4dd4823289091020167a5e9c291f6119b279091020167bdc52b2676a4b4aa909102016764832009d29bcf57909102016709c4155174a552cc9091020167463f9ee03d2908109091020167c810936e649825429091020167043b1c289f7bc3ac9091020101612b01565b82600103611a615761016084015161014085015161012086015161010087015160e088015160c089015160a08a015160808b015160608c015160408d015160208e015167673655aae8be5a8b0267d510fe714f39fa1090910201672c68a099b51c9e739091020167a667bfa9aa96999d90910201674d67e72f063e21089091020167f84dde3e6acda179909102016740f9cc8c08f8098190910201675ead03205009714290910201676591b02092d671bb9091020166e18c71963dd1b790910201678a21bcd24a14218a9091020101612b01565b82600203611b365761016084015161014085015161012086015161010087015160e088015160c089015160a08a015160808b015160608c015160408d015160208e015167202800f4addbdc870267e4b5bdb1cc3504ff9091020167be32b32a825596e790910201678e0f68c5dc223b9a909102016758022d9e1c256ce39091020167584d29227aa073ac90910201678b9352ad04bef9e79091020167aead42a3f445ecbf90910201673c667a1d833a3cca9091020167da6f61838efa1ffe9091020167e8f749470bd7c4469091020101612b01565b82600303611c0b5761016084015161014085015161012086015161010087015160e088015160c089015160a08a015160808b015160608c015160408d015160208e015167c5b85bab9e5b3869026745245258aec51cf7909102016716e6b8e68b9318309091020167e2ae0f051418112c90910201670470e26a0093a65b90910201676bef71973a8146ed9091020167119265be51812daf9091020167b0be7356254bea2e90910201678584defff7589bd790910201673c5fe4aeb1fb52ba90910201679e7cd88acf543a5e9091020101612b01565b82600403611ce05761016084015161014085015161012086015161010087015160e088015160c089015160a08a015160808b015160608c015160408d015160208e015167179be4bba87f0a8c0267acf63d95d888735590910201676696670196b0074f9091020167d99ddf1fe75085f99091020167c2597881fef0283b9091020167cf48395ee6c54f14909102016715226a8e4cd8d3b69091020167c053297389af5d3b90910201672c08893f0d1580e290910201670ed3cbcff6fcc5ba9091020167c82f510ecf81f6d09091020101612b01565b82600503611db55761016084015161014085015161012086015161010087015160e088015160c089015160a08a015160808b015160608c015160408d015160208e01516794b06183acb715cc0267500392ed0d4311379091020167861cc95ad5c86323909102016705830a443f86c4ac90910201673b68225874a20a7c909102016710b3309838e236fb90910201679b77fc8bcd559e2c9091020167bdecf5e0cb9cb213909102016730276f1221ace5fa90910201677935dd342764a1449091020167eac6db520bb037089091020101612b01565b82600603611e8a5761016084015161014085015161012086015161010087015160e088015160c089015160a08a015160808b015160608c015160408d015160208e0151677186a80551025f8f0267622247557e9b53719091020167c4cbe326d1ad9742909102016755f1523ac6a23ea29091020167a13dfe77a3d52f539091020167e30750b6301c0452909102016708bd488070a3a32b9091020167cd800caef5b72ae3909102016783329c90f04233ce9091020167b5b99e6664a0a3ee90910201676b0731849e200a7f9091020101612b01565b82600703611f5f5761016084015161014085015161012086015161010087015160e088015160c089015160a08a015160808b015160608c015160408d015160208e015167ec3fabc192b017990267382b38cee8ee537590910201673bfb6c3f0e6165729091020167514abd0cf6c7bc86909102016747521b1361dcc5469091020167178093843f863d149091020167ad1003c5d28918e79091020167738450e42495bc819091020167af947c59af5e404790910201674653fb0685084ef29091020167057fde2062ae35bf9091020101612b01565b826008036120345761016084015161014085015161012086015161010087015160e088015160c089015160a08a015160808b015160608c015160408d015160208e015167e376678d843ce55e026766f3860d7514e7fc90910201677817f3dfff8b4ffa90910201673929624a9def725b90910201670126ca37f215a80a9091020167fce2f5d02762a30390910201671bc927375febbad7909102016785b481e5243f60bf90910201672d3c5f42a39c91a090910201670811719919351ae89091020167f669de0add9931319091020101612b01565b826009036121095761016084015161014085015161012086015161010087015160e088015160c089015160a08a015160808b015160608c015160408d015160208e0151677de38bae084da92d02675b848442237e8a9b9091020167f6c705da84d57310909102016731e6a4bdb6a490179091020167889489706e5c5c0f90910201670e4a205459692a1b9091020167bac3fa75ee26f29990910201675f5894f4057d755e9091020167b0dc3ecd724bb07690910201675e34d8554a6452ba909102016704f78fd8c1fdcc5f9091020101612b01565b82600a036121de5761016084015161014085015161012086015161010087015160e088015160c089015160a08a015160808b015160608c015160408d015160208e0151674dd19c38779512ea0267db79ba02704620e9909102016792a29a3675a5d2be9091020167d5177029fe4951669091020167d32b3298a13330c19091020167251c4a3eb2c5f8fd9091020167e1c48b26e0d9882590910201673301d3362a4ffccb909102016709bb6c88de8cd1789091020167dc05b676564f538a909102016760192d883e473fee9091020101612b01565b82600b036122b35761016084015161014085015161012086015161010087015160e088015160c089015160a08a015160808b015160608c015160408d015160208e01516716b9774801ac44a002673cb8411e786d3c8e9091020167a86e9cf50507249190910201670178928152e109ae90910201675317b905a6e1ab7b9091020167da20b3be7f53d59f9091020167cb97dedecebee9ad90910201674bd545218c59f58d909102016777dc8d856c05a44a909102016787948589e4f243fd90910201677e5217af969952c29091020101612b01565b82600c036123885761016084015161014085015161012086015161010087015160e088015160c089015160a08a015160808b015160608c015160408d015160208e015167bc58987d06a84e4d02670b5d420244c9cae39091020167a3c4711b938c02c090910201673aace640a3e039909091020167865a0f3249aacd8a90910201678d00b2a7dbed06c790910201676eacb905beb7e2f89091020167045322b216ec3ec79091020167eb9de00d594828e69091020167088c5f20df9e5c269091020167f555f4112b19781f9091020101612b01565b82600d0361245d5761016084015161014085015161012086015161010087015160e088015160c089015160a08a015160808b015160608c015160408d015160208e015167a8cedbff1813d3a7026750dcaee0fd27d1649091020167f1cb02417e23bd829091020167faf322786e2abe8b9091020167937a4315beb5d9b690910201671b18992921a11d8590910201677d66c4368b3c497b90910201670e7946317a6b4e999091020167be4430134182978b90910201673771e82493ab262d9091020167a671690d8095ce829091020101612b01565b82600e036125325761016084015161014085015161012086015161010087015160e088015160c089015160a08a015160808b015160608c015160408d015160208e015167b035585f6e929d9d0267ba1579c7e219b9549091020167cb201cf846db4ba39091020167287bf9177372cf459091020167a350e4f61147d0a69091020167d5d0ecfb50bcff9990910201672e166aa6c776ed219091020167e1e66c991990e2829091020167662b329b01e7bb3890910201678aa674b36144d9a99091020167cbabf78f97f95e659091020101612b01565b82600f036126075761016084015161014085015161012086015161010087015160e088015160c089015160a08a015160808b015160608c015160408d015160208e015167eec24b15a06b53fe0267c8a7aa07c56335339091020167efe9c6fa4311ad519091020167b9173f13977109a1909102016769ce43c9cc94aedc9091020167ecf623c9cd118815909102016728625def198c33c79091020167ccfc5f7de5c3636a9091020167f5e6c40f1621c2999091020167cec0e58c34cb64b19091020167a868ea113387939f9091020101612b01565b826010036126dc5761016084015161014085015161012086015161010087015160e088015160c089015160a08a015160808b015160608c015160408d015160208e015167d8dddbdc5ce4ef450267acfc51de8131458c9091020167146bb3c0fe499ac090910201679e65309f15943903909102016780d0ad980773aa709091020167f97817d4ddbf06079091020167e4626620a75ba27690910201670dfdc7fd6fc74f669091020167f464864ad6f2bb93909102016702d55e52a5d444149091020167dd8de62487c409259091020101612b01565b826011036127b15761016084015161014085015161012086015161010087015160e088015160c089015160a08a015160808b015160608c015160408d015160208e015167c15acf44759545a30267cbfdcf39869719d4909102016733f62042e2f8022590910201672599c5ead81d8fa390910201670b306cb6c1d7c8d09091020167658c80d3df3729b19091020167e8d1b2b21b41429c9091020167a1b67f09d4b3ccb890910201670e1adf8b8443718090910201670d593a5e584af47b9091020167a023d94c56e151c79091020101612b01565b826012036128865761016084015161014085015161012086015161010087015160e088015160c089015160a08a015160808b015160608c015160408d015160208e01516749026cc3a4afc5a60267e06dff00ab25b91b90910201670ab38c561e8850ff909102016792c3c8275e105eeb9091020167b65256e546889bd090910201673c0468236ea142f69091020167ee61766b889e18f29091020167a206f41b12c30415909102016702fe9d756c9f12d19091020167e9633210630cbf1290910201671ffea9fe85a0b0b19091020101612b01565b8260130361295b5761016084015161014085015161012086015161010087015160e088015160c089015160a08a015160808b015160608c015160408d015160208e01516781d1ae8cc50240f30267f4c77a079a4607d79091020167ed446b2315e3efc190910201670b0a6b70915178c39091020167b11ff3e089f15d9a90910201671d4dba0b7ae9cc18909102016765d74e2f43b48d059091020167a2df8c6b8ae0804a9091020167a4e6f0a8c33348a69091020167c0a26efc7be5669b9091020167a6b6582c547d0d609091020101612b01565b82601403612a305761016084015161014085015161012086015161010087015160e088015160c089015160a08a015160808b015160608c015160408d015160208e01516784afc741f1c1321302672f8f43734fc906f39091020167de682d72da0a02d990910201670bb005236adb9ef290910201675bdf35c10a8b562490910201670739a8a343950010909102016752f515f44785cfbc9091020167cbaf4e5d82856c609091020167ac9ea09074e3e15090910201678f0fa011a2035fb090910201671a37905d8450904a9091020101612b01565b82601503612b015761016084015161014085015161012086015161010087015160e088015160c089015160a08a015160808b015160608c015160408d015160208e0151673abeb80def61cc8502679d19c9dd4eac41339091020167075a652d9641a98590910201679daf69ae1b67e6679091020167364f71da77920a18909102016750bd769f745c95b19091020167f223d1180dbbf3fc90910201672f885e584e04aa999091020167b69a0fa70aea684a909102016709584acaa6e062a090910201670bc051640145b19b90910201015b67ffffffff00000001810682526000839003612c5f578351612b2f906794877900674181c302856001610b2a565b60208301528351612b4c9067c6c67cc37a2a2bbd02856002610b2a565b60408301528351612b699067d667c2055387940f02856003610b2a565b60608301528351612b8690670ba63a63e94b5ff002856004610b2a565b60808301528351612ba3906799460cc41b8f079f02856005610b2a565b60a08301528351612bc090677ff02375ed524bb302856006610b2a565b60c08301528351612bdd9067ea0870b47a8caf0e02856007610b2a565b60e08301528351612bfa9067abcad82633b7bc9d02856008610b2a565b6101008301528351612c1890673b8d13526105224102856009610b2a565b6101208301528351612c369067fb4515f5e5b0d5390285600a610b2a565b6101408301528351612c5490673ee8011c2b37f77c0285600b610b2a565b6101608301526145d4565b82600103612da4578351612c7f90670adef3740e71c72602856001610b2a565b60208301528351612c9c9067a37bf67c6f98655902856002610b2a565b60408301528351612cb99067c6b16f7ed4fa1b0002856003610b2a565b60608301528351612cd690676a065da88d8bfc3c02856004610b2a565b60808301528351612cf390674cabc0916844b46f02856005610b2a565b60a08301528351612d109067407faac0f02e78d102856006610b2a565b60c08301528351612d2d906707a786d9cf0852cf02856007610b2a565b60e08301528351612d4a906742433fb6949a629a02856008610b2a565b6101008301528351612d689067891682a147ce43b002856009610b2a565b6101208301528351612d86906726cfd58e7b003b550285600a610b2a565b6101408301528351612c5490672bbf0ed7b657acb30285600b610b2a565b82600203612ee9578351612dc49067481ac7746b159c6702856001610b2a565b60208301528351612de19067e367de32f108e27802856002610b2a565b60408301528351612dfe906773f260087ad28bec02856003610b2a565b60608301528351612e1b90675cfc82216bc1bdca02856004610b2a565b60808301528351612e389067caccc870a2663a0e02856005610b2a565b60a08301528351612e559067db69cd7b4298c45d02856006610b2a565b60c08301528351612e7290677bc9e0c57243e62d02856007610b2a565b60e08301528351612e8f90673cc51c5d368693ae02856008610b2a565b6101008301528351612ead9067366b4e8cc068895b02856009610b2a565b6101208301528351612ecb90672bd18715cdabbca40285600a610b2a565b6101408301528351612c549067a752061c4f33b8cf0285600b610b2a565b8260030361302e578351612f099067b22d2432b72d509802856001610b2a565b60208301528351612f2690679e18a487f44d2fe402856002610b2a565b60408301528351612f4390674b39e14ce22abd3c02856003610b2a565b60608301528351612f6090679e77fde2eb315e0d02856004610b2a565b60808301528351612f7d9067ca5e0385fe67014d02856005610b2a565b60a08301528351612f9a90670c2cb99bf1b6bddb02856006610b2a565b60c08301528351612fb7906799ec1cd2a4460bfe02856007610b2a565b60e08301528351612fd490678577a815a2ff843f02856008610b2a565b6101008301528351612ff290677d80a6b4fd6518a502856009610b2a565b61012083015283516130109067eb6c67123eab62cb0285600a610b2a565b6101408301528351612c5490678f7851650eca21a50285600b610b2a565b8260040361317357835161304e906711ba9a1b81718c2a02856001610b2a565b6020830152835161306b90679f7d798a3323410c02856002610b2a565b604083015283516130889067a821855c8c1cf5e502856003610b2a565b606083015283516130a59067535e8d6fac0031b202856004610b2a565b608083015283516130c29067404e7c751b63432002856005610b2a565b60a083015283516130df9067a729353f6e55d35402856006610b2a565b60c083015283516130fc90674db97d92e58bb83102856007610b2a565b60e083015283516131199067b53926c27897bf7d02856008610b2a565b61010083015283516131379067965040d52fe115c502856009610b2a565b610120830152835161315590679565fa41ebd31fd70285600a610b2a565b6101408301528351612c549067aae4438c877ea8f40285600b610b2a565b826005036132b8578351613193906737f4e36af6073c6e02856001610b2a565b602083015283516131b090674edc0918210800e902856002610b2a565b604083015283516131cd9067c44998e99eae418802856003610b2a565b606083015283516131ea90679f4310d05d06833802856004610b2a565b6080830152835161320790679ec7fe4350680f2902856005610b2a565b60a083015283516132249067c5b2c1fdc0b5087402856006610b2a565b60c083015283516132419067a01920c5ef8b2ebe02856007610b2a565b60e0830152835161325e906759fa6f8bd91d58ba02856008610b2a565b610100830152835161327c90678bfc9eb89b515a8202856009610b2a565b610120830152835161329a9067be86a7a2555ae7750285600a610b2a565b6101408301528351612c549067cbb8bbaa3810babf0285600b610b2a565b826006036133fd5783516132d89067577f9a9e7ee3f9c202856001610b2a565b602083015283516132f5906788c522b949ace7b102856002610b2a565b60408301528351613312906782f07007c8b7210602856003610b2a565b6060830152835161332f90678283d37c6675b50e02856004610b2a565b6080830152835161334c906798b074d9bbac112302856005610b2a565b60a08301528351613369906775c56fb7758317c102856006610b2a565b60c083015283516133869067fed24e206052bc7202856007610b2a565b60e083015283516133a3906726d7c3d1bc07dae502856008610b2a565b61010083015283516133c19067f88c5e441e28dbb402856009610b2a565b61012083015283516133df90674fe27f9f966152700285600a610b2a565b6101408301528351612c549067514d4ba49c2b14fe0285600b610b2a565b8260070361354257835161341d9067f02a3ac068ee110b02856001610b2a565b6020830152835161343a90670a3630dafb8ae2d702856002610b2a565b604083015283516134579067ce0dc874eaf9b55c02856003610b2a565b6060830152835161347490679a95f6cff5b55c7e02856004610b2a565b608083015283516134919067626d76abfed00c7b02856005610b2a565b60a083015283516134ae9067a0c1cf1251c204ad02856006610b2a565b60c083015283516134cb9067daebd3006321052c02856007610b2a565b60e083015283516134e890673d4bd48b625a806502856008610b2a565b610100830152835161350690677f1e584e071f6ed202856009610b2a565b61012083015283516135249067720574f0501caed30285600a610b2a565b6101408301528351612c549067e3260ba93d23540a0285600b610b2a565b826008036136875783516135629067ab1cbd41d8c1e33502856001610b2a565b6020830152835161357f90679322ed4c0bc2df0102856002610b2a565b6040830152835161359c906751c3c0983d4284e502856003610b2a565b606083015283516135b9906794178e291145c23102856004610b2a565b608083015283516135d69067fd0f1a973d6b208502856005610b2a565b60a083015283516135f39067d427ad96e2b3971902856006610b2a565b60c0830152835161361090678a52437fecaac06b02856007610b2a565b60e0830152835161362d9067dc20ee4b8c4c9a8002856008610b2a565b610100830152835161364b9067a2c98e9549da210002856009610b2a565b610120830152835161366990671603fe12613db5b60285600a610b2a565b6101408301528351612c5490670e174929433c55050285600b610b2a565b826009036137cc5783516136a790673d4eab2b8ef5f79602856001610b2a565b602083015283516136c49067cfff421583896e2202856002610b2a565b604083015283516136e190674143cb32d39ac3d902856003610b2a565b606083015283516136fe906722365051b78a5b6502856004610b2a565b6080830152835161371b90676f7fd010d027c9b602856005610b2a565b60a083015283516137389067d9dd36fba77522ab02856006610b2a565b60c083015283516137559067a44cf1cb33e3716502856007610b2a565b60e0830152835161377290673fc83d3038c8641702856008610b2a565b61010083015283516137909067c4588d418e88d27002856009610b2a565b61012083015283516137ae9067ce1320f10ab80fe20285600a610b2a565b6101408301528351612c549067db5eadbbec18de5d0285600b610b2a565b82600a036139115783516137ec90671183dfce7c454afd02856001610b2a565b60208301528351613809906721cea4aa3d3ed94902856002610b2a565b6040830152835161382690670fce6f70303f230402856003610b2a565b60608301528351613843906719557d34b55551be02856004610b2a565b6080830152835161386090674c56f689afc5bbc902856005610b2a565b60a0830152835161387d9067a1e920844334f94402856006610b2a565b60c0830152835161389a9067bad66d423d2ec86102856007610b2a565b60e083015283516138b79067f318c785dc9e047902856008610b2a565b61010083015283516138d5906799e2032e765ddd8102856009610b2a565b61012083015283516138f39067400ccc9906d66f450285600a610b2a565b6101408301528351612c549067e1197454db2e0dd90285600b610b2a565b82600b03613a56578351613931906784d1ecc4d53d2ff102856001610b2a565b6020830152835161394e9067d8af8b9ceb4e11b602856002610b2a565b6040830152835161396b9067335856bb527b52f402856003610b2a565b606083015283516139889067c756f17fb59be59502856004610b2a565b608083015283516139a59067c0654e4ea5553a7802856005610b2a565b60a083015283516139c290679e9a46b61f2ea94202856006610b2a565b60c083015283516139df906714fc8b5b3b80912702856007610b2a565b60e083015283516139fc9067d7009f0f103be41302856008610b2a565b6101008301528351613a1a90673e0ee7b7a9fb460102856009610b2a565b6101208301528351613a389067a74e888922085ed70285600a610b2a565b6101408301528351612c549067e80a7cde3d4ac5260285600b610b2a565b82600c03613b9b578351613a769067238aa6daa612186d02856001610b2a565b60208301528351613a9390679137a5c630bad4b402856002610b2a565b60408301528351613ab09067c7db3817870c5eda02856003610b2a565b60608301528351613acd9067217e4f04e5718dc902856004610b2a565b60808301528351613aea9067cae814e2817bd99d02856005610b2a565b60a08301528351613b079067e3292e7ab770a8ba02856006610b2a565b60c08301528351613b2490677bb36ef70b6b948202856007610b2a565b60e08301528351613b4190673c7835fb85bca2d302856008610b2a565b6101008301528351613b5f9067fe2cdf8ee3c25e8602856009610b2a565b6101208301528351613b7d906761b3915ad7274b200285600a610b2a565b6101408301528351612c549067eab75ca7c918e4ef0285600b610b2a565b82600d03613ce0578351613bbb9067d6e15ffc055e154e02856001610b2a565b60208301528351613bd89067ec67881f381a32bf02856002610b2a565b60408301528351613bf59067fbb1196092bf409c02856003610b2a565b60608301528351613c129067dc9d2e07830ba22602856004610b2a565b60808301528351613c2f90670698ef3245ff798802856005610b2a565b60a08301528351613c4c9067194fae2974f8b57602856006610b2a565b60c08301528351613c6990677a5d9bea6ca4910e02856007610b2a565b60e08301528351613c8690677aebfea95ccdd1c902856008610b2a565b6101008301528351613ca49067f9bd38a67d5f0e8602856009610b2a565b6101208301528351613cc29067fa65539de65492d80285600a610b2a565b6101408301528351612c549067f0dfcbe7653ff7870285600b610b2a565b82600e03613e25578351613d0090670bd87ad39042025802856001610b2a565b60208301528351613d1d90670ad8617bca9e33c802856002610b2a565b60408301528351613d3a90670c00ad377a1e266602856003610b2a565b60608301528351613d5790670ac6fc58b3f0518f02856004610b2a565b60808301528351613d7490670c0cc8a892cc417302856005610b2a565b60a08301528351613d9190670c210accb117bc2102856006610b2a565b60c08301528351613dae90670b73630dbb46ca1802856007610b2a565b60e08301528351613dcb90670c8be4920cbd4a5402856008610b2a565b6101008301528351613de990670bfe877a21be169002856009610b2a565b6101208301528351613e0790670ae790559b0ded810285600a610b2a565b6101408301528351612c5490670bf50db2f8d6ce310285600b610b2a565b82600f03613f5f578351613e4490660cf29427ff7c5802856001610b2a565b60208301528351613e6090660bd9b3cf49eec802856002610b2a565b60408301528351613e7c90660d1dc8aa81fb2602856003610b2a565b60608301528351613e9890660bc792d5c394ef02856004610b2a565b60808301528351613eb490660d2ae0b226645302856005610b2a565b60a08301528351613ed090660d413f12c496c102856006610b2a565b60c08301528351613eec90660c84128cfed61802856007610b2a565b60e08301528351613f0890660db5ebd48fc0d402856008610b2a565b6101008301528351613f2590660d1b77326dcb9002856009610b2a565b6101208301528351613f4290660beb0ccc1454210285600a610b2a565b6101408301528351612c5490660d10e5b22b11d10285600b610b2a565b8260100361408e578351613f7d90650e24c99adad802856001610b2a565b60208301528351613f9890650cf389ed4bc802856002610b2a565b60408301528351613fb390650e580cbf696602856003610b2a565b60608301528351613fce90650cde5fd7e04f02856004610b2a565b60808301528351613fe990650e63628041b302856005610b2a565b60a0830152835161400490650e7e81a8736102856006610b2a565b60c0830152835161401f90650dabe78f6d9802856007610b2a565b60e0830152835161403a90650efb14cac55402856008610b2a565b610100830152835161405690650e5574743b1002856009610b2a565b610120830152835161407290650d05709f42c10285600a610b2a565b6101408301528351612c5490650e4690c96af10285600b610b2a565b826011036141b25783516140ab90640f7157bc9802856001610b2a565b602083015283516140c590640e3006d94802856002610b2a565b604083015283516140df90640fa65811e602856003610b2a565b606083015283516140f990640e0d127e2f02856004610b2a565b6080830152835161411390640fc18bfe5302856005610b2a565b60a0830152835161412d90640fd002d90102856006610b2a565b60c0830152835161414790640eed6461d802856007610b2a565b60e083015283516141619064106856275402856008610b2a565b610100830152835161417c90640fa0236f5002856009610b2a565b610120830152835161419790640e3af13ee10285600a610b2a565b6101408301528351612c5490640fa460f6d10285600b610b2a565b826012036142cb5783516141ce90631113173802856001610b2a565b602083015283516141e790630f56d58802856002610b2a565b60408301528351614200906311050f8602856003610b2a565b6060830152835161421990630f848f4f02856004610b2a565b608083015283516142329063111527d302856005610b2a565b60a0830152835161424b9063114369a102856006610b2a565b60c083015283516142649063106f2f3802856007610b2a565b60e0830152835161427d906311e2ca9402856008610b2a565b61010083015283516142979063110a29f002856009610b2a565b61012083015283516142b190630fa9f5c10285600a610b2a565b6101408301528351612c54906310f625d10285600b610b2a565b826013036143d95783516142e6906211f71802856001610b2a565b602083015283516142fe906210b6c802856002610b2a565b604083015283516143169062134a9602856003610b2a565b6060830152835161432e906210cf7f02856004610b2a565b608083015283516143469062124d0302856005610b2a565b60a0830152835161435e906213f8a102856006610b2a565b60c083015283516143769062117c5802856007610b2a565b60e0830152835161438e9062132c9402856008610b2a565b61010083015283516143a79062134fc002856009610b2a565b61012083015283516143c0906210a0910285600a610b2a565b6101408301528351612c5490621289610285600b610b2a565b826014036144dc5783516143f39061130002856001610b2a565b6020830152835161440a9061175002856002610b2a565b604083015283516144219061114e02856003610b2a565b606083015283516144389061131f02856004610b2a565b6080830152835161444f9061167b02856005610b2a565b60a083015283516144669061137102856006610b2a565b60c0830152835161447d9061123002856007610b2a565b60e083015283516144949061182c02856008610b2a565b61010083015283516144ac9061136802856009610b2a565b61012083015283516144c490610f310285600a610b2a565b6101408301528351612c54906115c90285600b610b2a565b826015036145d45783516144f590601402856001610b2a565b6020830152835161450b90602202856002610b2a565b6040830152835161452190601202856003610b2a565b6060830152835161453790602702856004610b2a565b6080830152835161454d90600d02856005610b2a565b60a0830152835161456390600d02856006610b2a565b60c0830152835161457990601c02856007610b2a565b60e0830152835161458f90600202856008610b2a565b61010083015283516145a690601002856009610b2a565b61012083015283516145bd9060290285600a610b2a565b6101408301528351610c7290600f0285600b610b2a565b5092915050565b60006030821015614a4557601882101561481a57600c8210156147095760048210156146565760028210156146305781600003614621575067b585f766f2144405919050565b50677746a55f43921ad7919050565b81600203614647575067b2fb0d31cee799b4919050565b50670f6760a4803427d7919050565b60088210156146b457600682101561468e578160040361467f575067e10d666650f4e012919050565b50678cae14cb07d09bf1919050565b816006036146a5575067d438539c95f63e9f919050565b5067ef781c7ce35b4c3d919050565b600a8210156146e357816008036146d4575067cdc4a239b0c44426919050565b5067277fa208bf337bff919050565b81600a036146fa575067e17653a29da578a1919050565b5067c54302f225db2c76919050565b601082101561476757600e8210156147415781600c0361473257506786287821f722c881919050565b506759cd1a8a41c18e55919050565b81600e03614758575067c3b919ad495dc574919050565b5067a484c4c5ef6a0781919050565b60148210156147c557601282101561479f5781601003614790575067308bbd23dc5416cc919050565b50676e4a40c18f30c09c919050565b816012036147b65750679a2eedb70d8f8cfa919050565b5067e360c6e0ae486f38919050565b60168210156147f457816014036147e5575067d5c7718fbfc647fb919050565b5067c35eae071903ff0b919050565b8160160361480b575067849c2656969c4be7919050565b5067c0572c8c08cbbbad919050565b602482101561493457601c82101561488157601a82101561485b578160180361484c575067e9fa634a21de0082919050565b5067f56f6d48959a600d919050565b81601a03614872575067f7d713e806391165919050565b50678297132b32825daf919050565b60208210156148df57601e8210156148b95781601c036148aa575067ad6805e0e30b2c8a919050565b5067ac51d9f5fcf8535e919050565b81601e036148d0575067502ad7dc18c2ad87919050565b506757a1550c110b3041919050565b602282101561490e57816020036148ff57506766bbd30e6ce0e583919050565b50670da2abef589d644e919050565b81602203614925575067f061274fdb150d61919050565b506728b8ec3ae9c29633919050565b602882101561499257602682101561496c578160240361495d57506792a756e67e2b9413919050565b506770e741ebfee96586919050565b81602603614983575067019d5ee2af82ec1c919050565b50676f6f2ed772466352919050565b602c8210156149f057602a8210156149ca57816028036149bb5750677cf416cfe7e14ca1919050565b506761df517b86a46439919050565b81602a036149e157506785dc499b11d77b75919050565b50674b959b48b9c10733919050565b602e821015614a1f5781602c03614a10575067e8be3e5da8043e57919050565b5067f5c0bc1de6da8699919050565b81602e03614a3657506740b12cbf09ef74bf919050565b5067a637093ecb2ad631919050565b6048821015614c7957603c821015614b68576034821015614ab5576032821015614a8f5781603003614a80575067475cd3205a3bdcde919050565b506718a42105c31b7e88919050565b81603203614aa6575067023e7414af663068919050565b506715147108121967d7919050565b6038821015614b13576036821015614aed5781603403614ade575067e4a3dff1d7d6fef9919050565b506701a8d1a588085737919050565b81603603614b0457506711b4c74eda62beef919050565b5067e587cc0d69a73346919050565b603a821015614b425781603803614b335750671ff7327017aa2a6e919050565b5067594e29c42473d06b919050565b81603a03614b59575067f6f31db1899b12d5919050565b5067c02ac5e47312d3ca919050565b6040821015614bc657603e821015614ba05781603c03614b91575067e70201e960cb78b8919050565b50676f90ff3b6a65f108919050565b81603e03614bb757506742747a7245e7fa84919050565b5067d1f507e43ab749b2919050565b6044821015614c24576042821015614bfe5781604003614bef5750671c86d265f15750cd919050565b50673996ce73dd832c1c919050565b81604203614c155750678e7fba02983224bd919050565b5067ba0dec7103255dd4919050565b6046821015614c535781604403614c445750679e9cbd781628fc5b919050565b5067dae8645996edd6a5919050565b81604603614c6a575067debe0853b1a1d378919050565b5067a49229d24d014343919050565b6054821015614d9357604c821015614ce057604a821015614cba5781604803614cab5750677be5b9ffda905e1c919050565b5067a3c95eaec244aa30919050565b81604a03614cd15750670230bca8f4df0544919050565b50674135c2bebfe148c6919050565b6050821015614d3e57604e821015614d185781604c03614d09575067166fc0cc438a3c72919050565b50673762b59a8ae83efa919050565b81604e03614d2f575067e8928a4c89114750919050565b50672a440b51a4945ee5919050565b6052821015614d6d5781605003614d5e57506780cefd2b7d99ff83919050565b5067bb9879c6e61fd62a919050565b81605203614d845750676e7c8f1a84265034919050565b5067164bb2de1bbeddc8919050565b6058821015614df1576056821015614dcb5781605403614dbc575067f3c12fe54d5c653b919050565b506740b9e922ed9771e2919050565b81605603614de2575067551f5b0fbe7b1840919050565b506725032aa7c4cb1811919050565b605c821015614e4f57605a821015614e295781605803614e1a575067aaed34074b164346919050565b50678ffd96bbf9c9c81d919050565b81605a03614e4057506770fc91eb5937085c919050565b50677f795e2a5f915440919050565b605e821015614e7e5781605c03614e6f5750674543d9df5476d3cb919050565b5067f172d73e004fc90d919050565b81605e03614e95575067dfd1c4febcc81238919050565b5067bc8dfb627fe558fc919050565b805161016082015161014083015161012084015161010085015160e086015160c087015160a0880151608089015160608a015160408b015160009a6019029960140298602202976012029660270295600d908102950293601c02926002029160041b90602902600f8d60015b602002015102010101010101010101010192915050565b805161016082015161014083015161012084015161010085015160e086015160c087015160a0880151608089015160608a015160408b015160009a60140299602202986012029760270296600d908102960294601c02936002029260041b9160290290600f0260118d6001614f10565b6020810151815161016083015161014084015161012085015161010086015160e087015160c088015160a089015160808a015160608b015160009a60140299602202986012029760270296600d908102960294601c029360029081029360041b9260290291600f02906011908e90614f10565b60408101516020820151825161016084015161014085015161012086015161010087015160e088015160c089015160a08a015160808b015160009a60140299602202986012029760270296600d908102960294601c02936002029260041b9160290290600f0260118d6003614f10565b606081015160408201516020830151835161016085015161014086015161012087015161010088015160e089015160c08a015160a08b015160009a60140299602202986012029760270296600d908102960294601c029360020292600490811b9260290291600f02906011908e90614f10565b6080810151606082015160408301516020840151845161016086015161014087015161012088015161010089015160e08a015160c08b015160009a60140299602202986012029760270296600d908102960294601c02936002029260041b9160290290600f0260118d6005614f10565b60a0810151608082015160608301516040840151602085015185516101608701516101408801516101208901516101008a015160e08b015160009a60140299602202986012029760270296600d908102960294601c02936002029260041b9160290290600f0260118d6006614f10565b60c081015160a0820151608083015160608401516040850151602086015186516101608801516101408901516101208a01516101008b015160009a60140299602202986012029760270296600d908102960294601c02936002029260041b9160290290600f0260118d6007614f10565b60e081015160c082015160a0830151608084015160608501516040860151602087015187516101608901516101408a01516101208b015160009a60140299602202986012029760270296600d908102960294601c02936002029260041b9160290290600f0260118d6008614f10565b61010081015160e082015160c083015160a0840151608085015160608601516040870151602088015188516101608a01516101408b015160009a60140299602202986012029760270296600d908102960294601c02936002029260041b9160290290600f0260118d6009614f10565b61012081015161010082015160e083015160c084015160a0850151608086015160608701516040880151602089015189516101608b015160009a60140299602202986012029760270296600d908102960294601c02936002029260041b9160290290600f0260118d600a614f10565b61014081015161012082015161010083015160e084015160c085015160a086015160808701516060880151604089015160208a01518a5160009a60140299602202986012029760270296600d908102960294601c02936002029260041b9160290290600f0260118d600b614f10565b600067ffffffff000000018284089392505050565b604051806101800160405280600c906020820280368337509192915050565b60405180608001604052806004906020820280368337509192915050565b634e487b7160e01b600052604160045260246000fd5b604051601f8201601f1916810167ffffffffffffffff8111828210171561548a5761548a61544b565b604052919050565b600080604083850312156154a557600080fd5b823567ffffffffffffffff808211156154bd57600080fd5b818501915085601f8301126154d157600080fd5b81356020828211156154e5576154e561544b565b8160051b92506154f6818401615461565b828152928401810192818101908985111561551057600080fd5b948201945b8486101561552e57853582529482019490820190615515565b9997909101359750505050505050565b6020808252825182820181905260009190848201906040850190845b818110156155765783518352928401929184019160010161555a565b50909695505050505050565b600061018080838503121561559657600080fd5b83601f8401126155a557600080fd5b60405181810181811067ffffffffffffffff821117156155c7576155c761544b565b6040529083019080858311156155dc57600080fd5b845b838110156155f65780358252602091820191016155de565b509095945050505050565b6101808101818360005b600c81101561562a57815183526020928301929091019060010161560b565b50505092915050565b6000806040838503121561564657600080fd5b50508035926020909101359150565b60006020828403121561566757600080fd5b5035919050565b60808101818360005b600481101561562a578151835260209283019290910190600101615677565b6000608082840312156156a857600080fd5b82601f8301126156b757600080fd5b6040516080810181811067ffffffffffffffff821117156156da576156da61544b565b6040528060808401858111156156ef57600080fd5b845b818110156157095780358352602092830192016156f1565b509195945050505050565b634e487b7160e01b600052603260045260246000fd5b634e487b7160e01b600052601160045260246000fd5b6000600182016157525761575261572a565b5060010190565b60006020828403121561576b57600080fd5b5051919050565b634e487b7160e01b600052601260045260246000fd5b60008261579757615797615772565b500690565b6000826157ab576157ab615772565b500490565b80820281158282048414176103b6576103b661572a565b808201808211156103b6576103b661572a56fea2646970667358221220c6f9f2298d7750f8d4cd4ede96a61ec59cda2c6b1516311a6b2cb9cdac5b99c864736f6c63430008110033",
  "linkReferences": {},
  "deployedLinkReferences": {}
}