{
  "_format": "hh-sol-artifact-1",
  "contractName": "OfferManagerReverseV2",
  "sourceName": "contracts/OfferManagerReverseV2.sol",
  "abi": [
    {
      "anonymous": false,
      "inputs": [
        {
          "indexed": false,
          "internalType": "uint8",
          "name": "version",
          "type": "uint8"
        }
      ],
      "name": "Initialized",
      "type": "event"
    },
    {
      "anonymous": false,
      "inputs": [
        {
          "indexed": true,
          "internalType": "uint256",
          "name": "offerId",
          "type": "uint256"
        },
        {
          "indexed": true,
          "internalType": "address",
          "name": "maker",
          "type": "address"
        }
      ],
      "name": "OfferActivated",
      "type": "event"
    },
    {
      "anonymous": false,
      "inputs": [
        {
          "indexed": true,
          "internalType": "uint256",
          "name": "offerId",
          "type": "uint256"
        },
        {
          "indexed": true,
          "internalType": "address",
          "name": "maker",
          "type": "address"
        }
      ],
      "name": "OfferMakerUpdated",
      "type": "event"
    },
    {
      "anonymous": false,
      "inputs": [
        {
          "indexed": true,
          "internalType": "uint256",
          "name": "offerId",
          "type": "uint256"
        },
        {
          "indexed": true,
          "internalType": "address",
          "name": "taker",
          "type": "address"
        },
        {
          "indexed": false,
          "internalType": "bytes32",
          "name": "takerIntmaxAddress",
          "type": "bytes32"
        },
        {
          "indexed": false,
          "internalType": "address",
          "name": "takerTokenAddress",
          "type": "address"
        },
        {
          "indexed": false,
          "internalType": "uint256",
          "name": "takerAmount",
          "type": "uint256"
        },
        {
          "indexed": false,
          "internalType": "bytes32",
          "name": "makerIntmaxAddress",
          "type": "bytes32"
        },
        {
          "indexed": false,
          "internalType": "uint256",
          "name": "makerAssetId",
          "type": "uint256"
        },
        {
          "indexed": false,
          "internalType": "uint256",
          "name": "makerAmount",
          "type": "uint256"
        }
      ],
      "name": "OfferRegistered",
      "type": "event"
    },
    {
      "anonymous": false,
      "inputs": [
        {
          "indexed": true,
          "internalType": "address",
          "name": "previousOwner",
          "type": "address"
        },
        {
          "indexed": true,
          "internalType": "address",
          "name": "newOwner",
          "type": "address"
        }
      ],
      "name": "OwnershipTransferred",
      "type": "event"
    },
    {
      "inputs": [
        {
          "internalType": "uint256",
          "name": "offerId",
          "type": "uint256"
        },
        {
          "internalType": "bytes",
          "name": "witness",
          "type": "bytes"
        }
      ],
      "name": "activate",
      "outputs": [
        {
          "internalType": "bool",
          "name": "",
          "type": "bool"
        }
      ],
      "stateMutability": "nonpayable",
      "type": "function"
    },
    {
      "inputs": [
        {
          "internalType": "contract VerifierInterface",
          "name": "newVerifier",
          "type": "address"
        }
      ],
      "name": "changeVerifier",
      "outputs": [],
      "stateMutability": "nonpayable",
      "type": "function"
    },
    {
      "inputs": [
        {
          "internalType": "uint256",
          "name": "offerId",
          "type": "uint256"
        },
        {
          "internalType": "bytes",
          "name": "witness",
          "type": "bytes"
        }
      ],
      "name": "checkWitness",
      "outputs": [
        {
          "internalType": "bool",
          "name": "",
          "type": "bool"
        }
      ],
      "stateMutability": "view",
      "type": "function"
    },
    {
      "inputs": [
        {
          "internalType": "uint256",
          "name": "offerId",
          "type": "uint256"
        }
      ],
      "name": "getOffer",
      "outputs": [
        {
          "internalType": "address",
          "name": "maker",
          "type": "address"
        },
        {
          "internalType": "bytes32",
          "name": "makerIntmaxAddress",
          "type": "bytes32"
        },
        {
          "internalType": "uint256",
          "name": "makerAssetId",
          "type": "uint256"
        },
        {
          "internalType": "uint256",
          "name": "makerAmount",
          "type": "uint256"
        },
        {
          "internalType": "address",
          "name": "taker",
          "type": "address"
        },
        {
          "internalType": "bytes32",
          "name": "takerIntmaxAddress",
          "type": "bytes32"
        },
        {
          "internalType": "address",
          "name": "takerTokenAddress",
          "type": "address"
        },
        {
          "internalType": "uint256",
          "name": "takerAmount",
          "type": "uint256"
        },
        {
          "internalType": "bool",
          "name": "activated",
          "type": "bool"
        }
      ],
      "stateMutability": "view",
      "type": "function"
    },
    {
      "inputs": [],
      "name": "initialize",
      "outputs": [],
      "stateMutability": "nonpayable",
      "type": "function"
    },
    {
      "inputs": [
        {
          "internalType": "uint256",
          "name": "offerId",
          "type": "uint256"
        }
      ],
      "name": "isActivated",
      "outputs": [
        {
          "internalType": "bool",
          "name": "",
          "type": "bool"
        }
      ],
      "stateMutability": "view",
      "type": "function"
    },
    {
      "inputs": [
        {
          "internalType": "uint256",
          "name": "offerId",
          "type": "uint256"
        }
      ],
      "name": "isRegistered",
      "outputs": [
        {
          "internalType": "bool",
          "name": "",
          "type": "bool"
        }
      ],
      "stateMutability": "view",
      "type": "function"
    },
    {
      "inputs": [],
      "name": "nextOfferId",
      "outputs": [
        {
          "internalType": "uint256",
          "name": "offerId",
          "type": "uint256"
        }
      ],
      "stateMutability": "view",
      "type": "function"
    },
    {
      "inputs": [],
      "name": "owner",
      "outputs": [
        {
          "internalType": "address",
          "name": "",
          "type": "address"
        }
      ],
      "stateMutability": "view",
      "type": "function"
    },
    {
      "inputs": [
        {
          "internalType": "bytes32",
          "name": "takerIntmaxAddress",
          "type": "bytes32"
        },
        {
          "internalType": "address",
          "name": "takerTokenAddress",
          "type": "address"
        },
        {
          "internalType": "uint256",
          "name": "takerAmount",
          "type": "uint256"
        },
        {
          "internalType": "address",
          "name": "maker",
          "type": "address"
        },
        {
          "internalType": "uint256",
          "name": "makerAssetId",
          "type": "uint256"
        },
        {
          "internalType": "uint256",
          "name": "makerAmount",
          "type": "uint256"
        }
      ],
      "name": "register",
      "outputs": [
        {
          "internalType": "uint256",
          "name": "offerId",
          "type": "uint256"
        }
      ],
      "stateMutability": "payable",
      "type": "function"
    },
    {
      "inputs": [],
      "name": "renounceOwnership",
      "outputs": [],
      "stateMutability": "nonpayable",
      "type": "function"
    },
    {
      "inputs": [
        {
          "internalType": "address",
          "name": "newOwner",
          "type": "address"
        }
      ],
      "name": "transferOwnership",
      "outputs": [],
      "stateMutability": "nonpayable",
      "type": "function"
    },
    {
      "inputs": [
        {
          "internalType": "uint256",
          "name": "offerId",
          "type": "uint256"
        },
        {
          "internalType": "address",
          "name": "newMaker",
          "type": "address"
        }
      ],
      "name": "updateMaker",
      "outputs": [],
      "stateMutability": "nonpayable",
      "type": "function"
    },
    {
      "inputs": [
        {
          "internalType": "bytes32",
          "name": "",
          "type": "bytes32"
        }
      ],
      "name": "usedTxHashes",
      "outputs": [
        {
          "internalType": "bool",
          "name": "",
          "type": "bool"
        }
      ],
      "stateMutability": "view",
      "type": "function"
    },
    {
      "stateMutability": "payable",
      "type": "receive"
    }
  ],
  "bytecode": "0x608060405234801561001057600080fd5b50611ac4806100206000396000f3fe6080604052600436106100e15760003560e01c8063715018a61161007f5780638da5cb5b116100595780638da5cb5b14610313578063b13235571461033b578063cf04fb941461035b578063f2fde38b1461037b57600080fd5b8063715018a6146102b95780637ec230fd146102ce5780638129fc1c146102fe57600080fd5b80634579268a116100bb5780634579268a146101785780635314e9fa14610249578063579a6988146102695780635f5d0655146102a457600080fd5b80631100528e146100ed578063277e2eab1461010f57806331809dcf1461013557600080fd5b366100e857005b600080fd5b3480156100f957600080fd5b5061010d610108366004611451565b61039b565b005b61012261011d366004611481565b610508565b6040519081526020015b60405180910390f35b34801561014157600080fd5b506101686101503660046114dd565b60009081526001602052604090206008015460ff1690565b604051901515815260200161012c565b34801561018457600080fd5b506101f36101933660046114dd565b60009081526001602081905260409091208054918101546002820154600383015460048401546005850154600686015460078701546008909701546001600160a01b03988916999698959794969386169592949190921692909160ff1690565b604080516001600160a01b039a8b16815260208101999099528801969096526060870194909452918616608086015260a085015290931660c083015260e08201929092529015156101008201526101200161012c565b34801561025557600080fd5b506101686102643660046114f6565b610730565b34801561027557600080fd5b506101686102843660046114dd565b6000908152600160205260409020600401546001600160a01b0316151590565b3480156102b057600080fd5b50600054610122565b3480156102c557600080fd5b5061010d610ac9565b3480156102da57600080fd5b506101686102e93660046114dd565b60686020526000908152604090205460ff1681565b34801561030a57600080fd5b5061010d610add565b34801561031f57600080fd5b506035546040516001600160a01b03909116815260200161012c565b34801561034757600080fd5b506101686103563660046114f6565b610bf6565b34801561036757600080fd5b5061010d610376366004611572565b610cba565b34801561038757600080fd5b5061010d610396366004611572565b610ce4565b6000828152600160205260409020600401546001600160a01b03166103db5760405162461bcd60e51b81526004016103d290611596565b60405180910390fd5b6000828152600160205260409020600401546001600160a01b0316336001600160a01b0316146104595760405162461bcd60e51b815260206004820152602360248201527f4f66666572732063616e2062652075706461746564206279206974732074616b60448201526232b91760e91b60648201526084016103d2565b6001600160a01b0381166104af5760405162461bcd60e51b815260206004820152601e60248201527f606e65774d616b6572602073686f756c64206e6f74206265207a65726f2e000060448201526064016103d2565b60008281526001602052604080822080546001600160a01b0319166001600160a01b0385169081179091559051909184917f3cd0cb8e18f3484f6b1dbeb6689d99826a4a894879341d803dd4775980e868219190a35050565b60006001600160a01b0384166105605760405162461bcd60e51b815260206004820152601960248201527f606d616b657260206d757374206e6f74206265207a65726f2e0000000000000060448201526064016103d2565b6001600160a01b0386166105d4578434146105cf5760405162461bcd60e51b815260206004820152602960248201527f74616b6572416d6f756e74206d757374206265207468652073616d65206173206044820152686d73672e76616c756560b81b60648201526084016103d2565b610714565b341561063a5760405162461bcd60e51b815260206004820152602f60248201527f7472616e736d697373696f6e206d6574686f64206f74686572207468616e204560448201526e1512081a5cc81cdc1958da599a5959608a1b60648201526084016103d2565b60006001600160a01b0387166323b872dd336040516001600160e01b031960e084901b1681526001600160a01b039091166004820152306024820152604481018990526064016020604051808303816000875af115801561069f573d6000803e3d6000fd5b505050506040513d601f19601f820116820180604052508101906106c391906115dc565b9050806107125760405162461bcd60e51b815260206004820152601c60248201527f6661696c20746f207472616e7366657220455243323020746f6b656e0000000060448201526064016103d2565b505b610725338888348860008989610d5a565b979650505050505050565b600083815260016020818152604080842081516101208101835281546001600160a01b039081168252948201549381019390935260028101549183019190915260038101546060830152600481015483166080830152600581015460a0830152600681015490921660c0820152600782015460e082015260089091015460ff161515610100820152816107c584860186611847565b505060208082015160008181526068909252604090912054919450925060ff161590506108345760405162461bcd60e51b815260206004820152601a60248201527f476976656e207769746e65737320616c7265616479207573656400000000000060448201526064016103d2565b60008781526001602081815260409283902083516101208101855281546001600160a01b039081168252938201548184015260028201548186015260038201546060820152600482015484166080820152600582015460a0820152600682015490931660c0840152600781015460e08401526008015460ff1615156101008301528251601f89018290048202810182019093528783526108ef92908990899081908401838280828437600092019190915250610fe792505050565b6000818152606860205260409020805460ff1916600117905582516001600160a01b031661091a3390565b6001600160a01b03161461097e5760405162461bcd60e51b815260206004820152602560248201527f4f6e6c7920746865206d616b65722063616e20756e6c6f636b2074686973206f604482015264333332b91760d91b60648201526084016103d2565b61098787611172565b60c08301516001600160a01b03166109dc57825160e08401516040516001600160a01b039092169181156108fc0291906000818181858888f193505050501580156109d6573d6000803e3d6000fd5b50610abc565b60c0830151835160e085015160405163a9059cbb60e01b81526000936001600160a01b03169263a9059cbb92610a28926004016001600160a01b03929092168252602082015260400190565b6020604051808303816000875af1158015610a47573d6000803e3d6000fd5b505050506040513d601f19601f82011682018060405250810190610a6b91906115dc565b905080610aba5760405162461bcd60e51b815260206004820152601c60248201527f6661696c20746f207472616e7366657220455243323020746f6b656e0000000060448201526064016103d2565b505b5060019695505050505050565b610ad16111c2565b610adb600061121c565b565b600254610100900460ff1615808015610afd5750600254600160ff909116105b80610b175750303b158015610b17575060025460ff166001145b610b7a5760405162461bcd60e51b815260206004820152602e60248201527f496e697469616c697a61626c653a20636f6e747261637420697320616c72656160448201526d191e481a5b9a5d1a585b1a5e995960921b60648201526084016103d2565b6002805460ff191660011790558015610b9d576002805461ff0019166101001790555b610ba561126e565b610bad611295565b8015610bf3576002805461ff0019169055604051600181527f7f26b83ff96e1f2b6a682f133852f6798a09c465da95921460cefb38474024989060200160405180910390a15b50565b600083815260016020818152604080842081516101208101835281546001600160a01b039081168252948201548185015260028201548184015260038201546060820152600482015485166080820152600582015460a0820152600682015490941660c0850152600781015460e08501526008015460ff1615156101008401528051601f8601839004830281018301909152848152610cb092918690869081908401838280828437600092019190915250610fe792505050565b5060019392505050565b610cc26111c2565b606780546001600160a01b0319166001600160a01b0392909216919091179055565b610cec6111c2565b6001600160a01b038116610d515760405162461bcd60e51b815260206004820152602660248201527f4f776e61626c653a206e6577206f776e657220697320746865207a65726f206160448201526564647265737360d01b60648201526084016103d2565b610bf38161121c565b60006001600160a01b038916610dbe5760405162461bcd60e51b815260206004820152602360248201527f5468652074616b6572206d757374206e6f74206265207a65726f20616464726560448201526239b99760e91b60648201526084016103d2565b506000805480825260016020526040909120600401546001600160a01b031615610e2a5760405162461bcd60e51b815260206004820152601c60248201527f4f6666657220494420616c726561647920726567697374657265642e0000000060448201526064016103d2565b6000604051806101200160405280876001600160a01b031681526020018681526020018581526020018481526020018b6001600160a01b031681526020018a8152602001896001600160a01b03168152602001888152602001600015158152509050610e95816112c4565b6000828152600160208181526040808420855181546001600160a01b03199081166001600160a01b039283161783559387015182860155918601516002820155606086015160038201556080860151600482018054851691841691909117905560a0860151600582015560c086015160068201805490941692169190911790915560e084015160078201556101008401516008909101805460ff19169115159190911790558154019055604080518a81526001600160a01b038a81166020830152918101899052606081018790526080810186905260a08101859052908b169083907fa54ceef2bc7a2f3056774e409e3e0030176e5db647397f2d94f57f6e7d05ce3b9060c00160405180910390a36040516001600160a01b0387169083907f3cd0cb8e18f3484f6b1dbeb6689d99826a4a894879341d803dd4775980e8682190600090a35098975050505050505050565b6000826040015160405160200161100091815260200190565b6040516020818303038152906040528060200190518101906110229190611972565b6040805160018082528183019092529192506000918291816020015b604080516060810182526000808252602080830182905292820152825260001990920191018161103e579050509050604051806060016040528084815260200183815260200186606001518152508160008151811061109f5761109f61198b565b602090810291909101015260675460a086015160405163013c480b60e61b81526000926001600160a01b031691634f1202c0916110e29186918a906004016119a1565b602060405180830381865afa1580156110ff573d6000803e3d6000fd5b505050506040513d601f19601f8201168201806040525081019061112391906115dc565b90508061116a5760405162461bcd60e51b81526020600482015260156024820152744661696c20746f207665726966792061737365747360581b60448201526064016103d2565b505050505050565b61117b81611346565b6000818152600160205260408082205490516001600160a01b039091169183917f03de52c2c41329254e0f4460f852f880efe669cd6efd0b60df3b75ec4a45016a9190a350565b6035546001600160a01b03163314610adb5760405162461bcd60e51b815260206004820181905260248201527f4f776e61626c653a2063616c6c6572206973206e6f7420746865206f776e657260448201526064016103d2565b603580546001600160a01b038381166001600160a01b0319831681179093556040519116919082907f8be0079c531659141344cd1fd0a4f28419497f9722a3daafe3b4186f6b6457e090600090a35050565b600254610100900460ff16610adb5760405162461bcd60e51b81526004016103d290611a43565b600254610100900460ff166112bc5760405162461bcd60e51b81526004016103d290611a43565b610adb61140c565b67ffffffff0000000081606001511115610bf35760405162461bcd60e51b815260206004820152603860248201527f496e76616c6964206f6666657220616d6f756e743a2065786365656473206d6160448201527f78696d756d2072656d697474616e636520616d6f756e742e000000000000000060648201526084016103d2565b6000818152600160205260409020600401546001600160a01b031661137d5760405162461bcd60e51b81526004016103d290611596565b60008181526001602052604090206008015460ff16156113eb5760405162461bcd60e51b815260206004820152602360248201527f54686973206f6666657220494420697320616c7265616479206163746976617460448201526232b21760e91b60648201526084016103d2565b6000908152600160208190526040909120600801805460ff19169091179055565b600254610100900460ff166114335760405162461bcd60e51b81526004016103d290611a43565b610adb3361121c565b6001600160a01b0381168114610bf357600080fd5b6000806040838503121561146457600080fd5b8235915060208301356114768161143c565b809150509250929050565b60008060008060008060c0878903121561149a57600080fd5b8635955060208701356114ac8161143c565b94506040870135935060608701356114c38161143c565b9598949750929560808101359460a0909101359350915050565b6000602082840312156114ef57600080fd5b5035919050565b60008060006040848603121561150b57600080fd5b83359250602084013567ffffffffffffffff8082111561152a57600080fd5b818601915086601f83011261153e57600080fd5b81358181111561154d57600080fd5b87602082850101111561155f57600080fd5b6020830194508093505050509250925092565b60006020828403121561158457600080fd5b813561158f8161143c565b9392505050565b60208082526026908201527f54686973206f6666657220494420686173206e6f74206265656e2072656769736040820152653a32b932b21760d11b606082015260800190565b6000602082840312156115ee57600080fd5b8151801515811461158f57600080fd5b634e487b7160e01b600052604160045260246000fd5b6040516060810167ffffffffffffffff81118282101715611637576116376115fe565b60405290565b604051601f8201601f1916810167ffffffffffffffff81118282101715611666576116666115fe565b604052919050565b600067ffffffffffffffff821115611688576116886115fe565b5060051b60200190565b6000606082840312156116a457600080fd5b6116ac611614565b90508135815260208083013581830152604083013567ffffffffffffffff8111156116d657600080fd5b8301601f810185136116e757600080fd5b80356116fa6116f58261166e565b61163d565b81815260059190911b8201830190838101908783111561171957600080fd5b928401925b828410156117375783358252928401929084019061171e565b6040860152509295945050505050565b600061010080838503121561175b57600080fd5b6040519081019067ffffffffffffffff8211818310171561177e5761177e6115fe565b81604052809250833581526020840135602082015260408401356040820152606084013560608201526080840135608082015260a084013560a082015260c084013560c082015260e084013560e0820152505092915050565b600082601f8301126117e857600080fd5b813567ffffffffffffffff811115611802576118026115fe565b611815601f8201601f191660200161163d565b81815284602083860101111561182a57600080fd5b816020850160208301376000918101602001919091529392505050565b6000806000806000610180868803121561186057600080fd5b853567ffffffffffffffff8082111561187857600080fd5b818801915088601f83011261188c57600080fd5b8135602061189c6116f58361166e565b8281526060928302850182019282820191908d8511156118bb57600080fd5b958301955b848710156119055780878f0312156118d85760008081fd5b6118e0611614565b87358152848801358582015260408089013590820152835295860195918301916118c0565b819b50838d01359a5060408d013596508587111561192257600080fd5b61192e8e888f01611692565b995061193c8e828f01611747565b9850505050505061016088013591508082111561195857600080fd5b50611965888289016117d7565b9150509295509295909350565b60006020828403121561198457600080fd5b5051919050565b634e487b7160e01b600052603260045260246000fd5b60608082528451828201819052600091906020906080850190828901855b828110156119ef5781518051855285810151868601526040908101519085015292850192908401906001016119bf565b505050868286015284810360408601528551925082815260005b83811015611a24578681018301518282018401528201611a09565b506000818401830152601f909201601f19169091010195945050505050565b6020808252602b908201527f496e697469616c697a61626c653a20636f6e7472616374206973206e6f74206960408201526a6e697469616c697a696e6760a81b60608201526080019056fea26469706673582212202f7581f309b6986e28e2e5845f29f75de534415ac60d2584c859e8021095ea0264736f6c63430008110033",
  "linkReferences": {},
  "deployedLinkReferences": {}
}