{
  "_format": "hh-sol-artifact-1",
  "contractName": "SimpleVerifierTest",
  "sourceName": "contracts/SimpleVerifier.test.sol",
  "abi": [
    {
      "inputs": [
        {
          "internalType": "bytes32",
          "name": "networkIndex_",
          "type": "bytes32"
        }
      ],
      "stateMutability": "nonpayable",
      "type": "constructor"
    },
    {
      "anonymous": false,
      "inputs": [
        {
          "indexed": false,
          "internalType": "uint8",
          "name": "version",
          "type": "uint8"
        }
      ],
      "name": "Initialized",
      "type": "event"
    },
    {
      "anonymous": false,
      "inputs": [
        {
          "indexed": true,
          "internalType": "address",
          "name": "previousOwner",
          "type": "address"
        },
        {
          "indexed": true,
          "internalType": "address",
          "name": "newOwner",
          "type": "address"
        }
      ],
      "name": "OwnershipTransferred",
      "type": "event"
    },
    {
      "inputs": [
        {
          "components": [
            {
              "internalType": "bytes32",
              "name": "tokenAddress",
              "type": "bytes32"
            },
            {
              "internalType": "uint256",
              "name": "tokenId",
              "type": "uint256"
            },
            {
              "internalType": "uint256",
              "name": "amount",
              "type": "uint256"
            }
          ],
          "internalType": "struct VerifierInterface.Asset[]",
          "name": "assets",
          "type": "tuple[]"
        },
        {
          "internalType": "bytes32",
          "name": "recipient",
          "type": "bytes32"
        },
        {
          "components": [
            {
              "internalType": "uint256",
              "name": "index",
              "type": "uint256"
            },
            {
              "internalType": "bytes32",
              "name": "value",
              "type": "bytes32"
            },
            {
              "internalType": "bytes32[]",
              "name": "siblings",
              "type": "bytes32[]"
            }
          ],
          "internalType": "struct MerkleTreeInterface.MerkleProof",
          "name": "diffTreeInclusionProof",
          "type": "tuple"
        },
        {
          "components": [
            {
              "internalType": "uint256",
              "name": "blockNumber",
              "type": "uint256"
            },
            {
              "internalType": "bytes32",
              "name": "prevBlockHash",
              "type": "bytes32"
            },
            {
              "internalType": "bytes32",
              "name": "blockHeadersDigest",
              "type": "bytes32"
            },
            {
              "internalType": "bytes32",
              "name": "transactionsDigest",
              "type": "bytes32"
            },
            {
              "internalType": "bytes32",
              "name": "depositDigest",
              "type": "bytes32"
            },
            {
              "internalType": "bytes32",
              "name": "proposedWorldStateDigest",
              "type": "bytes32"
            },
            {
              "internalType": "bytes32",
              "name": "approvedWorldStateDigest",
              "type": "bytes32"
            },
            {
              "internalType": "bytes32",
              "name": "latestAccountDigest",
              "type": "bytes32"
            }
          ],
          "internalType": "struct VerifierInterface.BlockHeader",
          "name": "blockHeader",
          "type": "tuple"
        }
      ],
      "name": "calcSingingMessage",
      "outputs": [
        {
          "internalType": "bytes",
          "name": "signature",
          "type": "bytes"
        }
      ],
      "stateMutability": "pure",
      "type": "function"
    },
    {
      "inputs": [
        {
          "components": [
            {
              "internalType": "bytes32",
              "name": "tokenAddress",
              "type": "bytes32"
            },
            {
              "internalType": "uint256",
              "name": "tokenId",
              "type": "uint256"
            },
            {
              "internalType": "uint256",
              "name": "amount",
              "type": "uint256"
            }
          ],
          "internalType": "struct VerifierInterface.Asset[]",
          "name": "assets",
          "type": "tuple[]"
        },
        {
          "internalType": "bytes32",
          "name": "recipient",
          "type": "bytes32"
        },
        {
          "components": [
            {
              "internalType": "uint256",
              "name": "index",
              "type": "uint256"
            },
            {
              "internalType": "bytes32",
              "name": "value",
              "type": "bytes32"
            },
            {
              "internalType": "bytes32[]",
              "name": "siblings",
              "type": "bytes32[]"
            }
          ],
          "internalType": "struct MerkleTreeInterface.MerkleProof",
          "name": "diffTreeInclusionProof",
          "type": "tuple"
        },
        {
          "components": [
            {
              "internalType": "uint256",
              "name": "blockNumber",
              "type": "uint256"
            },
            {
              "internalType": "bytes32",
              "name": "prevBlockHash",
              "type": "bytes32"
            },
            {
              "internalType": "bytes32",
              "name": "blockHeadersDigest",
              "type": "bytes32"
            },
            {
              "internalType": "bytes32",
              "name": "transactionsDigest",
              "type": "bytes32"
            },
            {
              "internalType": "bytes32",
              "name": "depositDigest",
              "type": "bytes32"
            },
            {
              "internalType": "bytes32",
              "name": "proposedWorldStateDigest",
              "type": "bytes32"
            },
            {
              "internalType": "bytes32",
              "name": "approvedWorldStateDigest",
              "type": "bytes32"
            },
            {
              "internalType": "bytes32",
              "name": "latestAccountDigest",
              "type": "bytes32"
            }
          ],
          "internalType": "struct VerifierInterface.BlockHeader",
          "name": "blockHeader",
          "type": "tuple"
        },
        {
          "internalType": "bytes",
          "name": "signature",
          "type": "bytes"
        }
      ],
      "name": "calcWitness",
      "outputs": [
        {
          "internalType": "bytes",
          "name": "witness",
          "type": "bytes"
        }
      ],
      "stateMutability": "pure",
      "type": "function"
    },
    {
      "inputs": [
        {
          "internalType": "bytes32",
          "name": "networkIndex_",
          "type": "bytes32"
        }
      ],
      "name": "initialize",
      "outputs": [],
      "stateMutability": "nonpayable",
      "type": "function"
    },
    {
      "inputs": [],
      "name": "networkIndex",
      "outputs": [
        {
          "internalType": "bytes32",
          "name": "",
          "type": "bytes32"
        }
      ],
      "stateMutability": "view",
      "type": "function"
    },
    {
      "inputs": [],
      "name": "owner",
      "outputs": [
        {
          "internalType": "address",
          "name": "",
          "type": "address"
        }
      ],
      "stateMutability": "view",
      "type": "function"
    },
    {
      "inputs": [],
      "name": "renounceOwnership",
      "outputs": [],
      "stateMutability": "nonpayable",
      "type": "function"
    },
    {
      "inputs": [
        {
          "internalType": "address",
          "name": "newOwner",
          "type": "address"
        }
      ],
      "name": "transferOwnership",
      "outputs": [],
      "stateMutability": "nonpayable",
      "type": "function"
    },
    {
      "inputs": [
        {
          "components": [
            {
              "internalType": "bytes32",
              "name": "tokenAddress",
              "type": "bytes32"
            },
            {
              "internalType": "uint256",
              "name": "tokenId",
              "type": "uint256"
            },
            {
              "internalType": "uint256",
              "name": "amount",
              "type": "uint256"
            }
          ],
          "internalType": "struct VerifierInterface.Asset[]",
          "name": "assets",
          "type": "tuple[]"
        },
        {
          "internalType": "bytes32",
          "name": "recipient",
          "type": "bytes32"
        },
        {
          "internalType": "bytes",
          "name": "witness",
          "type": "bytes"
        }
      ],
      "name": "verifyAssets",
      "outputs": [
        {
          "internalType": "bool",
          "name": "ok",
          "type": "bool"
        }
      ],
      "stateMutability": "view",
      "type": "function"
    }
  ],
  "bytecode": "0x60806040523480156200001157600080fd5b50604051620018cd380380620018cd8339810160408190526200003491620002a8565b6200003f8162000046565b50620002c2565b600054610100900460ff1615808015620000675750600054600160ff909116105b8062000097575062000084306200017e60201b6200064c1760201c565b15801562000097575060005460ff166001145b620001005760405162461bcd60e51b815260206004820152602e60248201527f496e697469616c697a61626c653a20636f6e747261637420697320616c72656160448201526d191e481a5b9a5d1a585b1a5e995960921b60648201526084015b60405180910390fd5b6000805460ff19166001179055801562000124576000805461ff0019166101001790555b6065829055620001336200018d565b80156200017a576000805461ff0019169055604051600181527f7f26b83ff96e1f2b6a682f133852f6798a09c465da95921460cefb38474024989060200160405180910390a15b5050565b6001600160a01b03163b151590565b600054610100900460ff16620001e95760405162461bcd60e51b815260206004820152602b6024820152600080516020620018ad83398151915260448201526a6e697469616c697a696e6760a81b6064820152608401620000f7565b620001f3620001f5565b565b600054610100900460ff16620002515760405162461bcd60e51b815260206004820152602b6024820152600080516020620018ad83398151915260448201526a6e697469616c697a696e6760a81b6064820152608401620000f7565b620001f333603380546001600160a01b038381166001600160a01b0319831681179093556040519116919082907f8be0079c531659141344cd1fd0a4f28419497f9722a3daafe3b4186f6b6457e090600090a35050565b600060208284031215620002bb57600080fd5b5051919050565b6115db80620002d26000396000f3fe608060405234801561001057600080fd5b50600436106100885760003560e01c80639498bd711161005b5780639498bd71146100fa578063ab00c1631461010d578063dae0384714610120578063f2fde38b1461013757600080fd5b80634f1202c01461008d578063715018a6146100b55780637de0fbce146100bf5780638da5cb5b146100df575b600080fd5b6100a061009b366004610c08565b61014a565b60405190151581526020015b60405180910390f35b6100bd610438565b005b6100d26100cd366004610cac565b61044c565b6040516100ac9190610d81565b6033546040516001600160a01b0390911681526020016100ac565b6100bd610108366004610db4565b610487565b6100d261011b366004610dcd565b61059e565b61012960655481565b6040519081526020016100ac565b6100bd610145366004610e52565b6105d3565b6000808080808061015d878901896110c5565b945094509450945094508389146101b05760405162461bcd60e51b8152602060048201526012602482015271139bdd081cd85b59481c9958da5c1a595b9d60721b60448201526064015b60405180910390fd5b60005b8a81101561035b578581815181106101cd576101cd6111ef565b6020026020010151600001518c8c838181106101eb576101eb6111ef565b90506060020160000135146102425760405162461bcd60e51b815260206004820152601c60248201527f4e6f742073616d652061737365743a20746f6b656e416464726573730000000060448201526064016101a7565b858181518110610254576102546111ef565b6020026020010151602001518c8c83818110610272576102726111ef565b90506060020160200135146102c95760405162461bcd60e51b815260206004820152601760248201527f4e6f742073616d652061737365743a20746f6b656e496400000000000000000060448201526064016101a7565b8581815181106102db576102db6111ef565b6020026020010151604001518c8c838181106102f9576102f96111ef565b90506060020160400135146103495760405162461bcd60e51b8152602060048201526016602482015275139bdd081cd85b5948185cdcd95d0e88185b5bdd5b9d60521b60448201526064016101a7565b8061035381611205565b9150506101b3565b5060008b8b8b8686604051602001610377959493929190611277565b604051602081830303815290604052905060006103938261065b565b905060006103a18285610696565b90506103b56033546001600160a01b031690565b6001600160a01b0316816001600160a01b0316146104245760405162461bcd60e51b815260206004820152602660248201527f4661696c20746f207665726966792061676772656761746f722773207369676e60448201526530ba3ab9329760d11b60648201526084016101a7565b5060019d9c50505050505050505050505050565b6104406106ba565b61044a6000610714565b565b60608787878787878760405160200161046b9796959493929190611434565b6040516020818303038152906040529050979650505050505050565b600054610100900460ff16158080156104a75750600054600160ff909116105b806104c15750303b1580156104c1575060005460ff166001145b6105245760405162461bcd60e51b815260206004820152602e60248201527f496e697469616c697a61626c653a20636f6e747261637420697320616c72656160448201526d191e481a5b9a5d1a585b1a5e995960921b60648201526084016101a7565b6000805460ff191660011790558015610547576000805461ff0019166101001790555b6065829055610554610766565b801561059a576000805461ff0019169055604051600181527f7f26b83ff96e1f2b6a682f133852f6798a09c465da95921460cefb38474024989060200160405180910390a15b5050565b606085858585856040516020016105b99594939291906114aa565b604051602081830303815290604052905095945050505050565b6105db6106ba565b6001600160a01b0381166106405760405162461bcd60e51b815260206004820152602660248201527f4f776e61626c653a206e6577206f776e657220697320746865207a65726f206160448201526564647265737360d01b60648201526084016101a7565b61064981610714565b50565b6001600160a01b03163b151590565b60006106678251610795565b826040516020016106799291906114e9565b604051602081830303815290604052805190602001209050919050565b60008060006106a58585610827565b915091506106b28161086c565b509392505050565b6033546001600160a01b0316331461044a5760405162461bcd60e51b815260206004820181905260248201527f4f776e61626c653a2063616c6c6572206973206e6f7420746865206f776e657260448201526064016101a7565b603380546001600160a01b038381166001600160a01b0319831681179093556040519116919082907f8be0079c531659141344cd1fd0a4f28419497f9722a3daafe3b4186f6b6457e090600090a35050565b600054610100900460ff1661078d5760405162461bcd60e51b81526004016101a790611544565b61044a6109b6565b606060006107a2836109e6565b60010190506000816001600160401b038111156107c1576107c1610e82565b6040519080825280601f01601f1916602001820160405280156107eb576020820181803683370190505b5090508181016020015b600019016f181899199a1a9b1b9c1cb0b131b232b360811b600a86061a8153600a85049450846107f557509392505050565b600080825160410361085d5760208301516040840151606085015160001a61085187828585610abf565b94509450505050610865565b506000905060025b9250929050565b60008160048111156108805761088061158f565b036108885750565b600181600481111561089c5761089c61158f565b036108e95760405162461bcd60e51b815260206004820152601860248201527f45434453413a20696e76616c6964207369676e6174757265000000000000000060448201526064016101a7565b60028160048111156108fd576108fd61158f565b0361094a5760405162461bcd60e51b815260206004820152601f60248201527f45434453413a20696e76616c6964207369676e6174757265206c656e6774680060448201526064016101a7565b600381600481111561095e5761095e61158f565b036106495760405162461bcd60e51b815260206004820152602260248201527f45434453413a20696e76616c6964207369676e6174757265202773272076616c604482015261756560f01b60648201526084016101a7565b600054610100900460ff166109dd5760405162461bcd60e51b81526004016101a790611544565b61044a33610714565b60008072184f03e93ff9f4daa797ed6e38ed64bf6a1f0160401b8310610a255772184f03e93ff9f4daa797ed6e38ed64bf6a1f0160401b830492506040015b6d04ee2d6d415b85acef81000000008310610a51576d04ee2d6d415b85acef8100000000830492506020015b662386f26fc100008310610a6f57662386f26fc10000830492506010015b6305f5e1008310610a87576305f5e100830492506008015b6127108310610a9b57612710830492506004015b60648310610aad576064830492506002015b600a8310610ab9576001015b92915050565b6000807f7fffffffffffffffffffffffffffffff5d576e7357a4501ddfe92f46681b20a0831115610af65750600090506003610b7a565b6040805160008082526020820180845289905260ff881692820192909252606081018690526080810185905260019060a0016020604051602081039080840390855afa158015610b4a573d6000803e3d6000fd5b5050604051601f1901519150506001600160a01b038116610b7357600060019250925050610b7a565b9150600090505b94509492505050565b60008083601f840112610b9557600080fd5b5081356001600160401b03811115610bac57600080fd5b60208301915083602060608302850101111561086557600080fd5b60008083601f840112610bd957600080fd5b5081356001600160401b03811115610bf057600080fd5b60208301915083602082850101111561086557600080fd5b600080600080600060608688031215610c2057600080fd5b85356001600160401b0380821115610c3757600080fd5b610c4389838a01610b83565b9097509550602088013594506040880135915080821115610c6357600080fd5b50610c7088828901610bc7565b969995985093965092949392505050565b600060608284031215610c9357600080fd5b50919050565b60006101008284031215610c9357600080fd5b6000806000806000806000610180888a031215610cc857600080fd5b87356001600160401b0380821115610cdf57600080fd5b610ceb8b838c01610b83565b909950975060208a0135965060408a0135915080821115610d0b57600080fd5b610d178b838c01610c81565b9550610d268b60608c01610c99565b94506101608a0135915080821115610d3d57600080fd5b50610d4a8a828b01610bc7565b989b979a50959850939692959293505050565b60005b83811015610d78578181015183820152602001610d60565b50506000910152565b6020815260008251806020840152610da0816040850160208701610d5d565b601f01601f19169190910160400192915050565b600060208284031215610dc657600080fd5b5035919050565b60008060008060006101608688031215610de657600080fd5b85356001600160401b0380821115610dfd57600080fd5b610e0989838a01610b83565b9097509550602088013594506040880135915080821115610e2957600080fd5b50610e3688828901610c81565b925050610e468760608801610c99565b90509295509295909350565b600060208284031215610e6457600080fd5b81356001600160a01b0381168114610e7b57600080fd5b9392505050565b634e487b7160e01b600052604160045260246000fd5b604051606081016001600160401b0381118282101715610eba57610eba610e82565b60405290565b604051601f8201601f191681016001600160401b0381118282101715610ee857610ee8610e82565b604052919050565b60006001600160401b03821115610f0957610f09610e82565b5060051b60200190565b600060608284031215610f2557600080fd5b610f2d610e98565b9050813581526020808301358183015260408301356001600160401b03811115610f5657600080fd5b8301601f81018513610f6757600080fd5b8035610f7a610f7582610ef0565b610ec0565b81815260059190911b82018301908381019087831115610f9957600080fd5b928401925b82841015610fb757833582529284019290840190610f9e565b6040860152509295945050505050565b6000610100808385031215610fdb57600080fd5b604051908101906001600160401b0382118183101715610ffd57610ffd610e82565b81604052809250833581526020840135602082015260408401356040820152606084013560608201526080840135608082015260a084013560a082015260c084013560c082015260e084013560e0820152505092915050565b600082601f83011261106757600080fd5b81356001600160401b0381111561108057611080610e82565b611093601f8201601f1916602001610ec0565b8181528460208386010111156110a857600080fd5b816020850160208301376000918101602001919091529392505050565b600080600080600061018086880312156110de57600080fd5b85356001600160401b03808211156110f557600080fd5b818801915088601f83011261110957600080fd5b81356020611119610f7583610ef0565b8281526060928302850182019282820191908d85111561113857600080fd5b958301955b848710156111825780878f0312156111555760008081fd5b61115d610e98565b873581528488013585820152604080890135908201528352958601959183019161113d565b819b50838d01359a5060408d013596508587111561119f57600080fd5b6111ab8e888f01610f13565b99506111b98e828f01610fc7565b985050505050506101608801359150808211156111d557600080fd5b506111e288828901611056565b9150509295509295909350565b634e487b7160e01b600052603260045260246000fd5b60006001820161122557634e487b7160e01b600052601160045260246000fd5b5060010190565b8183526000602080850194508260005b8581101561126c57813587528282013583880152604080830135908801526060968701969091019060010161123c565b509495945050505050565b600061016080835261128c818401888a61122c565b9050602086818501528382036040850152606082018651835281870151828401526040870151606060408501528181518084526080860191508483019550600093505b808410156112ef57855182529484019460019390930192908401906112cf565b50809550505050505061134e6060830184805182526020810151602083015260408101516040830152606081015160608301526080810151608083015260a081015160a083015260c081015160c083015260e081015160e08301525050565b9695505050505050565b803582526020810135602083015260006040820135601e1983360301811261137f57600080fd5b82016020810190356001600160401b0381111561139b57600080fd5b8060051b8036038313156113ae57600080fd5b60606040870181905286018290526001600160fb1b038211156113d057600080fd5b8083608088013794909401608001949350505050565b803582526020810135602083015260408101356040830152606081013560608301526080810135608083015260a081013560a083015260c081013560c083015260e081013560e08301525050565b60006101808083526114498184018a8c61122c565b905087602084015282810360408401526114638188611358565b905061147260608401876113e6565b828103610160840152838152838560208301376000602085830101526020601f19601f86011682010191505098975050505050505050565b60006101608083526114bf818401888a61122c565b905085602084015282810360408401526114d98186611358565b91505061134e60608301846113e6565b7f19457468657265756d205369676e6564204d6573736167653a0a00000000000081526000835161152181601a850160208801610d5d565b83519083019061153881601a840160208801610d5d565b01601a01949350505050565b6020808252602b908201527f496e697469616c697a61626c653a20636f6e7472616374206973206e6f74206960408201526a6e697469616c697a696e6760a81b606082015260800190565b634e487b7160e01b600052602160045260246000fdfea2646970667358221220201389adef313baff93e01fbe213ff1405d2330a693c3d80121ed32a753826f764736f6c63430008110033496e697469616c697a61626c653a20636f6e7472616374206973206e6f742069",
  "linkReferences": {},
  "deployedLinkReferences": {}
}