{
  "_format": "hh-sol-artifact-1",
  "contractName": "OfferManagerReverse",
  "sourceName": "contracts/OfferManagerReverse.sol",
  "abi": [
    {
      "anonymous": false,
      "inputs": [
        {
          "indexed": false,
          "internalType": "uint8",
          "name": "version",
          "type": "uint8"
        }
      ],
      "name": "Initialized",
      "type": "event"
    },
    {
      "anonymous": false,
      "inputs": [
        {
          "indexed": true,
          "internalType": "uint256",
          "name": "offerId",
          "type": "uint256"
        },
        {
          "indexed": true,
          "internalType": "address",
          "name": "maker",
          "type": "address"
        }
      ],
      "name": "OfferActivated",
      "type": "event"
    },
    {
      "anonymous": false,
      "inputs": [
        {
          "indexed": true,
          "internalType": "uint256",
          "name": "offerId",
          "type": "uint256"
        },
        {
          "indexed": true,
          "internalType": "address",
          "name": "maker",
          "type": "address"
        }
      ],
      "name": "OfferMakerUpdated",
      "type": "event"
    },
    {
      "anonymous": false,
      "inputs": [
        {
          "indexed": true,
          "internalType": "uint256",
          "name": "offerId",
          "type": "uint256"
        },
        {
          "indexed": true,
          "internalType": "address",
          "name": "taker",
          "type": "address"
        },
        {
          "indexed": false,
          "internalType": "bytes32",
          "name": "takerIntmaxAddress",
          "type": "bytes32"
        },
        {
          "indexed": false,
          "internalType": "address",
          "name": "takerTokenAddress",
          "type": "address"
        },
        {
          "indexed": false,
          "internalType": "uint256",
          "name": "takerAmount",
          "type": "uint256"
        },
        {
          "indexed": false,
          "internalType": "bytes32",
          "name": "makerIntmaxAddress",
          "type": "bytes32"
        },
        {
          "indexed": false,
          "internalType": "uint256",
          "name": "makerAssetId",
          "type": "uint256"
        },
        {
          "indexed": false,
          "internalType": "uint256",
          "name": "makerAmount",
          "type": "uint256"
        }
      ],
      "name": "OfferRegistered",
      "type": "event"
    },
    {
      "anonymous": false,
      "inputs": [
        {
          "indexed": true,
          "internalType": "address",
          "name": "previousOwner",
          "type": "address"
        },
        {
          "indexed": true,
          "internalType": "address",
          "name": "newOwner",
          "type": "address"
        }
      ],
      "name": "OwnershipTransferred",
      "type": "event"
    },
    {
      "inputs": [
        {
          "internalType": "uint256",
          "name": "offerId",
          "type": "uint256"
        },
        {
          "internalType": "bytes",
          "name": "witness",
          "type": "bytes"
        }
      ],
      "name": "activate",
      "outputs": [
        {
          "internalType": "bool",
          "name": "",
          "type": "bool"
        }
      ],
      "stateMutability": "nonpayable",
      "type": "function"
    },
    {
      "inputs": [
        {
          "internalType": "uint256",
          "name": "offerId",
          "type": "uint256"
        },
        {
          "internalType": "bytes",
          "name": "witness",
          "type": "bytes"
        }
      ],
      "name": "checkWitness",
      "outputs": [
        {
          "internalType": "bool",
          "name": "",
          "type": "bool"
        }
      ],
      "stateMutability": "view",
      "type": "function"
    },
    {
      "inputs": [
        {
          "internalType": "uint256",
          "name": "offerId",
          "type": "uint256"
        }
      ],
      "name": "getOffer",
      "outputs": [
        {
          "internalType": "address",
          "name": "maker",
          "type": "address"
        },
        {
          "internalType": "bytes32",
          "name": "makerIntmaxAddress",
          "type": "bytes32"
        },
        {
          "internalType": "uint256",
          "name": "makerAssetId",
          "type": "uint256"
        },
        {
          "internalType": "uint256",
          "name": "makerAmount",
          "type": "uint256"
        },
        {
          "internalType": "address",
          "name": "taker",
          "type": "address"
        },
        {
          "internalType": "bytes32",
          "name": "takerIntmaxAddress",
          "type": "bytes32"
        },
        {
          "internalType": "address",
          "name": "takerTokenAddress",
          "type": "address"
        },
        {
          "internalType": "uint256",
          "name": "takerAmount",
          "type": "uint256"
        },
        {
          "internalType": "bool",
          "name": "activated",
          "type": "bool"
        }
      ],
      "stateMutability": "view",
      "type": "function"
    },
    {
      "inputs": [],
      "name": "initialize",
      "outputs": [],
      "stateMutability": "nonpayable",
      "type": "function"
    },
    {
      "inputs": [
        {
          "internalType": "uint256",
          "name": "offerId",
          "type": "uint256"
        }
      ],
      "name": "isActivated",
      "outputs": [
        {
          "internalType": "bool",
          "name": "",
          "type": "bool"
        }
      ],
      "stateMutability": "view",
      "type": "function"
    },
    {
      "inputs": [
        {
          "internalType": "uint256",
          "name": "offerId",
          "type": "uint256"
        }
      ],
      "name": "isRegistered",
      "outputs": [
        {
          "internalType": "bool",
          "name": "",
          "type": "bool"
        }
      ],
      "stateMutability": "view",
      "type": "function"
    },
    {
      "inputs": [],
      "name": "nextOfferId",
      "outputs": [
        {
          "internalType": "uint256",
          "name": "offerId",
          "type": "uint256"
        }
      ],
      "stateMutability": "view",
      "type": "function"
    },
    {
      "inputs": [],
      "name": "owner",
      "outputs": [
        {
          "internalType": "address",
          "name": "",
          "type": "address"
        }
      ],
      "stateMutability": "view",
      "type": "function"
    },
    {
      "inputs": [
        {
          "internalType": "bytes32",
          "name": "takerIntmaxAddress",
          "type": "bytes32"
        },
        {
          "internalType": "address",
          "name": "takerTokenAddress",
          "type": "address"
        },
        {
          "internalType": "uint256",
          "name": "takerAmount",
          "type": "uint256"
        },
        {
          "internalType": "address",
          "name": "maker",
          "type": "address"
        },
        {
          "internalType": "uint256",
          "name": "makerAssetId",
          "type": "uint256"
        },
        {
          "internalType": "uint256",
          "name": "makerAmount",
          "type": "uint256"
        }
      ],
      "name": "register",
      "outputs": [
        {
          "internalType": "uint256",
          "name": "offerId",
          "type": "uint256"
        }
      ],
      "stateMutability": "payable",
      "type": "function"
    },
    {
      "inputs": [],
      "name": "renounceOwnership",
      "outputs": [],
      "stateMutability": "nonpayable",
      "type": "function"
    },
    {
      "inputs": [
        {
          "internalType": "address",
          "name": "newOwner",
          "type": "address"
        }
      ],
      "name": "transferOwnership",
      "outputs": [],
      "stateMutability": "nonpayable",
      "type": "function"
    },
    {
      "inputs": [
        {
          "internalType": "uint256",
          "name": "offerId",
          "type": "uint256"
        },
        {
          "internalType": "address",
          "name": "newMaker",
          "type": "address"
        }
      ],
      "name": "updateMaker",
      "outputs": [],
      "stateMutability": "nonpayable",
      "type": "function"
    },
    {
      "stateMutability": "payable",
      "type": "receive"
    }
  ],
  "bytecode": "0x608060405234801561001057600080fd5b5061130f806100206000396000f3fe6080604052600436106100ab5760003560e01c80635f5d0655116100645780635f5d06551461026e578063715018a6146102835780638129fc1c146102985780638da5cb5b146102ad578063b1323557146102d5578063f2fde38b146102f557600080fd5b80631100528e146100b7578063277e2eab146100d957806331809dcf146100ff5780634579268a146101425780635314e9fa14610213578063579a69881461023357600080fd5b366100b257005b600080fd5b3480156100c357600080fd5b506100d76100d23660046110eb565b610315565b005b6100ec6100e7366004611117565b610482565b6040519081526020015b60405180910390f35b34801561010b57600080fd5b5061013261011a36600461116f565b60009081526001602052604090206008015460ff1690565b60405190151581526020016100f6565b34801561014e57600080fd5b506101bd61015d36600461116f565b60009081526001602081905260409091208054918101546002820154600383015460048401546005850154600686015460078701546008909701546001600160a01b03988916999698959794969386169592949190921692909160ff1690565b604080516001600160a01b039a8b16815260208101999099528801969096526060870194909452918616608086015260a085015290931660c083015260e0820192909252901515610100820152610120016100f6565b34801561021f57600080fd5b5061013261022e366004611188565b6106aa565b34801561023f57600080fd5b5061013261024e36600461116f565b6000908152600160205260409020600401546001600160a01b0316151590565b34801561027a57600080fd5b506000546100ec565b34801561028f57600080fd5b506100d761095d565b3480156102a457600080fd5b506100d7610971565b3480156102b957600080fd5b506035546040516001600160a01b0390911681526020016100f6565b3480156102e157600080fd5b506101326102f0366004611188565b610a8a565b34801561030157600080fd5b506100d7610310366004611204565b610b4e565b6000828152600160205260409020600401546001600160a01b03166103555760405162461bcd60e51b815260040161034c90611226565b60405180910390fd5b6000828152600160205260409020600401546001600160a01b0316336001600160a01b0316146103d35760405162461bcd60e51b815260206004820152602360248201527f4f66666572732063616e2062652075706461746564206279206974732074616b60448201526232b91760e91b606482015260840161034c565b6001600160a01b0381166104295760405162461bcd60e51b815260206004820152601e60248201527f606e65774d616b6572602073686f756c64206e6f74206265207a65726f2e0000604482015260640161034c565b60008281526001602052604080822080546001600160a01b0319166001600160a01b0385169081179091559051909184917f3cd0cb8e18f3484f6b1dbeb6689d99826a4a894879341d803dd4775980e868219190a35050565b60006001600160a01b0384166104da5760405162461bcd60e51b815260206004820152601960248201527f606d616b657260206d757374206e6f74206265207a65726f2e00000000000000604482015260640161034c565b6001600160a01b03861661054e578434146105495760405162461bcd60e51b815260206004820152602960248201527f74616b6572416d6f756e74206d757374206265207468652073616d65206173206044820152686d73672e76616c756560b81b606482015260840161034c565b61068e565b34156105b45760405162461bcd60e51b815260206004820152602f60248201527f7472616e736d697373696f6e206d6574686f64206f74686572207468616e204560448201526e1512081a5cc81cdc1958da599a5959608a1b606482015260840161034c565b60006001600160a01b0387166323b872dd336040516001600160e01b031960e084901b1681526001600160a01b039091166004820152306024820152604481018990526064016020604051808303816000875af1158015610619573d6000803e3d6000fd5b505050506040513d601f19601f8201168201806040525081019061063d919061126c565b90508061068c5760405162461bcd60e51b815260206004820152601c60248201527f6661696c20746f207472616e7366657220455243323020746f6b656e00000000604482015260640161034c565b505b61069f338888348860008989610bc4565b979650505050505050565b600083815260016020818152604080842081516101208101835281546001600160a01b039081168252948201548185015260028201548184015260038201546060820152600482015485166080820152600582015460a0820152600682015490941660c0850152600781015460e08501526008015460ff1615156101008401528051601f8601839004830281018301909152848152610766918391908790879081908401838280828437600092019190915250610e5192505050565b80516001600160a01b0316336001600160a01b0316146107d65760405162461bcd60e51b815260206004820152602560248201527f4f6e6c7920746865206d616b65722063616e20756e6c6f636b2074686973206f604482015264333332b91760d91b606482015260840161034c565b6107df85610e55565b805160e08201516040516001600160a01b039092169181156108fc0291906000818181858888f1935050505015801561081c573d6000803e3d6000fd5b5060c08101516001600160a01b031661087257805160e08201516040516001600160a01b039092169181156108fc0291906000818181858888f1935050505015801561086c573d6000803e3d6000fd5b50610952565b60c0810151815160e083015160405163a9059cbb60e01b81526000936001600160a01b03169263a9059cbb926108be926004016001600160a01b03929092168252602082015260400190565b6020604051808303816000875af11580156108dd573d6000803e3d6000fd5b505050506040513d601f19601f82011682018060405250810190610901919061126c565b9050806109505760405162461bcd60e51b815260206004820152601c60248201527f6661696c20746f207472616e7366657220455243323020746f6b656e00000000604482015260640161034c565b505b506001949350505050565b610965610f1b565b61096f6000610f75565b565b600254610100900460ff16158080156109915750600254600160ff909116105b806109ab5750303b1580156109ab575060025460ff166001145b610a0e5760405162461bcd60e51b815260206004820152602e60248201527f496e697469616c697a61626c653a20636f6e747261637420697320616c72656160448201526d191e481a5b9a5d1a585b1a5e995960921b606482015260840161034c565b6002805460ff191660011790558015610a31576002805461ff0019166101001790555b610a39610fc7565b610a41610fee565b8015610a87576002805461ff0019169055604051600181527f7f26b83ff96e1f2b6a682f133852f6798a09c465da95921460cefb38474024989060200160405180910390a15b50565b600083815260016020818152604080842081516101208101835281546001600160a01b039081168252948201548185015260028201548184015260038201546060820152600482015485166080820152600582015460a0820152600682015490941660c0850152600781015460e08501526008015460ff1615156101008401528051601f8601839004830281018301909152848152610b4492918690869081908401838280828437600092019190915250610e5192505050565b5060019392505050565b610b56610f1b565b6001600160a01b038116610bbb5760405162461bcd60e51b815260206004820152602660248201527f4f776e61626c653a206e6577206f776e657220697320746865207a65726f206160448201526564647265737360d01b606482015260840161034c565b610a8781610f75565b60006001600160a01b038916610c285760405162461bcd60e51b815260206004820152602360248201527f5468652074616b6572206d757374206e6f74206265207a65726f20616464726560448201526239b99760e91b606482015260840161034c565b506000805480825260016020526040909120600401546001600160a01b031615610c945760405162461bcd60e51b815260206004820152601c60248201527f4f6666657220494420616c726561647920726567697374657265642e00000000604482015260640161034c565b6000604051806101200160405280876001600160a01b031681526020018681526020018581526020018481526020018b6001600160a01b031681526020018a8152602001896001600160a01b03168152602001888152602001600015158152509050610cff8161101d565b6000828152600160208181526040808420855181546001600160a01b03199081166001600160a01b039283161783559387015182860155918601516002820155606086015160038201556080860151600482018054851691841691909117905560a0860151600582015560c086015160068201805490941692169190911790915560e084015160078201556101008401516008909101805460ff19169115159190911790558154019055604080518a81526001600160a01b038a81166020830152918101899052606081018790526080810186905260a08101859052908b169083907fa54ceef2bc7a2f3056774e409e3e0030176e5db647397f2d94f57f6e7d05ce3b9060c00160405180910390a36040516001600160a01b0387169083907f3cd0cb8e18f3484f6b1dbeb6689d99826a4a894879341d803dd4775980e8682190600090a35098975050505050505050565b5050565b6000818152600160205260409020600401546001600160a01b0316610e8c5760405162461bcd60e51b815260040161034c90611226565b60008181526001602052604090206008015460ff1615610efa5760405162461bcd60e51b815260206004820152602360248201527f54686973206f6666657220494420697320616c7265616479206163746976617460448201526232b21760e91b606482015260840161034c565b6000908152600160208190526040909120600801805460ff19169091179055565b6035546001600160a01b0316331461096f5760405162461bcd60e51b815260206004820181905260248201527f4f776e61626c653a2063616c6c6572206973206e6f7420746865206f776e6572604482015260640161034c565b603580546001600160a01b038381166001600160a01b0319831681179093556040519116919082907f8be0079c531659141344cd1fd0a4f28419497f9722a3daafe3b4186f6b6457e090600090a35050565b600254610100900460ff1661096f5760405162461bcd60e51b815260040161034c9061128e565b600254610100900460ff166110155760405162461bcd60e51b815260040161034c9061128e565b61096f61109f565b67ffffffff0000000081606001511115610a875760405162461bcd60e51b815260206004820152603860248201527f496e76616c6964206f6666657220616d6f756e743a2065786365656473206d6160448201527f78696d756d2072656d697474616e636520616d6f756e742e0000000000000000606482015260840161034c565b600254610100900460ff166110c65760405162461bcd60e51b815260040161034c9061128e565b61096f33610f75565b80356001600160a01b03811681146110e657600080fd5b919050565b600080604083850312156110fe57600080fd5b8235915061110e602084016110cf565b90509250929050565b60008060008060008060c0878903121561113057600080fd5b86359550611140602088016110cf565b945060408701359350611155606088016110cf565b92506080870135915060a087013590509295509295509295565b60006020828403121561118157600080fd5b5035919050565b60008060006040848603121561119d57600080fd5b83359250602084013567ffffffffffffffff808211156111bc57600080fd5b818601915086601f8301126111d057600080fd5b8135818111156111df57600080fd5b8760208285010111156111f157600080fd5b6020830194508093505050509250925092565b60006020828403121561121657600080fd5b61121f826110cf565b9392505050565b60208082526026908201527f54686973206f6666657220494420686173206e6f74206265656e2072656769736040820152653a32b932b21760d11b606082015260800190565b60006020828403121561127e57600080fd5b8151801515811461121f57600080fd5b6020808252602b908201527f496e697469616c697a61626c653a20636f6e7472616374206973206e6f74206960408201526a6e697469616c697a696e6760a81b60608201526080019056fea2646970667358221220993e91c0a1d719a0443ae9994c549ac0dd89865fa7b0d303d2ac0045b7508bb864736f6c63430008110033",
  "linkReferences": {},
  "deployedLinkReferences": {}
}