{
  "_format": "hh-sol-artifact-1",
  "contractName": "OfferManagerReverse",
  "sourceName": "contracts/OfferManagerReverse.sol",
  "abi": [
    {
      "anonymous": false,
      "inputs": [
        {
          "indexed": false,
          "internalType": "uint8",
          "name": "version",
          "type": "uint8"
        }
      ],
      "name": "Initialized",
      "type": "event"
    },
    {
      "anonymous": false,
      "inputs": [
        {
          "indexed": true,
          "internalType": "uint256",
          "name": "offerId",
          "type": "uint256"
        },
        {
          "indexed": true,
          "internalType": "address",
          "name": "maker",
          "type": "address"
        }
      ],
      "name": "OfferActivated",
      "type": "event"
    },
    {
      "anonymous": false,
      "inputs": [
        {
          "indexed": true,
          "internalType": "uint256",
          "name": "offerId",
          "type": "uint256"
        },
        {
          "indexed": true,
          "internalType": "address",
          "name": "maker",
          "type": "address"
        }
      ],
      "name": "OfferMakerUpdated",
      "type": "event"
    },
    {
      "anonymous": false,
      "inputs": [
        {
          "indexed": true,
          "internalType": "uint256",
          "name": "offerId",
          "type": "uint256"
        },
        {
          "indexed": true,
          "internalType": "address",
          "name": "taker",
          "type": "address"
        },
        {
          "indexed": false,
          "internalType": "bytes32",
          "name": "takerIntmaxAddress",
          "type": "bytes32"
        },
        {
          "indexed": false,
          "internalType": "address",
          "name": "takerTokenAddress",
          "type": "address"
        },
        {
          "indexed": false,
          "internalType": "uint256",
          "name": "takerAmount",
          "type": "uint256"
        },
        {
          "indexed": false,
          "internalType": "bytes32",
          "name": "makerIntmaxAddress",
          "type": "bytes32"
        },
        {
          "indexed": false,
          "internalType": "uint256",
          "name": "makerAssetId",
          "type": "uint256"
        },
        {
          "indexed": false,
          "internalType": "uint256",
          "name": "makerAmount",
          "type": "uint256"
        }
      ],
      "name": "OfferRegistered",
      "type": "event"
    },
    {
      "anonymous": false,
      "inputs": [
        {
          "indexed": true,
          "internalType": "address",
          "name": "previousOwner",
          "type": "address"
        },
        {
          "indexed": true,
          "internalType": "address",
          "name": "newOwner",
          "type": "address"
        }
      ],
      "name": "OwnershipTransferred",
      "type": "event"
    },
    {
      "inputs": [
        {
          "internalType": "uint256",
          "name": "offerId",
          "type": "uint256"
        },
        {
          "internalType": "bytes",
          "name": "witness",
          "type": "bytes"
        }
      ],
      "name": "activate",
      "outputs": [
        {
          "internalType": "bool",
          "name": "",
          "type": "bool"
        }
      ],
      "stateMutability": "nonpayable",
      "type": "function"
    },
    {
      "inputs": [
        {
          "internalType": "uint256",
          "name": "offerId",
          "type": "uint256"
        },
        {
          "internalType": "bytes",
          "name": "witness",
          "type": "bytes"
        }
      ],
      "name": "checkWitness",
      "outputs": [
        {
          "internalType": "bool",
          "name": "",
          "type": "bool"
        }
      ],
      "stateMutability": "view",
      "type": "function"
    },
    {
      "inputs": [
        {
          "internalType": "uint256",
          "name": "offerId",
          "type": "uint256"
        }
      ],
      "name": "getOffer",
      "outputs": [
        {
          "internalType": "address",
          "name": "maker",
          "type": "address"
        },
        {
          "internalType": "bytes32",
          "name": "makerIntmaxAddress",
          "type": "bytes32"
        },
        {
          "internalType": "uint256",
          "name": "makerAssetId",
          "type": "uint256"
        },
        {
          "internalType": "uint256",
          "name": "makerAmount",
          "type": "uint256"
        },
        {
          "internalType": "address",
          "name": "taker",
          "type": "address"
        },
        {
          "internalType": "bytes32",
          "name": "takerIntmaxAddress",
          "type": "bytes32"
        },
        {
          "internalType": "address",
          "name": "takerTokenAddress",
          "type": "address"
        },
        {
          "internalType": "uint256",
          "name": "takerAmount",
          "type": "uint256"
        },
        {
          "internalType": "bool",
          "name": "activated",
          "type": "bool"
        }
      ],
      "stateMutability": "view",
      "type": "function"
    },
    {
      "inputs": [],
      "name": "initialize",
      "outputs": [],
      "stateMutability": "nonpayable",
      "type": "function"
    },
    {
      "inputs": [
        {
          "internalType": "uint256",
          "name": "offerId",
          "type": "uint256"
        }
      ],
      "name": "isActivated",
      "outputs": [
        {
          "internalType": "bool",
          "name": "",
          "type": "bool"
        }
      ],
      "stateMutability": "view",
      "type": "function"
    },
    {
      "inputs": [
        {
          "internalType": "uint256",
          "name": "offerId",
          "type": "uint256"
        }
      ],
      "name": "isRegistered",
      "outputs": [
        {
          "internalType": "bool",
          "name": "",
          "type": "bool"
        }
      ],
      "stateMutability": "view",
      "type": "function"
    },
    {
      "inputs": [],
      "name": "nextOfferId",
      "outputs": [
        {
          "internalType": "uint256",
          "name": "offerId",
          "type": "uint256"
        }
      ],
      "stateMutability": "view",
      "type": "function"
    },
    {
      "inputs": [
        {
          "internalType": "uint256",
          "name": "offerId",
          "type": "uint256"
        }
      ],
      "name": "offers",
      "outputs": [
        {
          "components": [
            {
              "internalType": "address",
              "name": "maker",
              "type": "address"
            },
            {
              "internalType": "bytes32",
              "name": "makerIntmaxAddress",
              "type": "bytes32"
            },
            {
              "internalType": "uint256",
              "name": "makerAssetId",
              "type": "uint256"
            },
            {
              "internalType": "uint256",
              "name": "makerAmount",
              "type": "uint256"
            },
            {
              "internalType": "address",
              "name": "taker",
              "type": "address"
            },
            {
              "internalType": "bytes32",
              "name": "takerIntmaxAddress",
              "type": "bytes32"
            },
            {
              "internalType": "address",
              "name": "takerTokenAddress",
              "type": "address"
            },
            {
              "internalType": "uint256",
              "name": "takerAmount",
              "type": "uint256"
            },
            {
              "internalType": "bool",
              "name": "isActivated",
              "type": "bool"
            }
          ],
          "internalType": "struct OfferManagerBaseInterface.Offer",
          "name": "",
          "type": "tuple"
        }
      ],
      "stateMutability": "view",
      "type": "function"
    },
    {
      "inputs": [],
      "name": "owner",
      "outputs": [
        {
          "internalType": "address",
          "name": "",
          "type": "address"
        }
      ],
      "stateMutability": "view",
      "type": "function"
    },
    {
      "inputs": [
        {
          "internalType": "bytes32",
          "name": "takerIntmaxAddress",
          "type": "bytes32"
        },
        {
          "internalType": "address",
          "name": "takerTokenAddress",
          "type": "address"
        },
        {
          "internalType": "uint256",
          "name": "takerAmount",
          "type": "uint256"
        },
        {
          "internalType": "address",
          "name": "maker",
          "type": "address"
        },
        {
          "internalType": "uint256",
          "name": "makerAssetId",
          "type": "uint256"
        },
        {
          "internalType": "uint256",
          "name": "makerAmount",
          "type": "uint256"
        }
      ],
      "name": "register",
      "outputs": [
        {
          "internalType": "uint256",
          "name": "offerId",
          "type": "uint256"
        }
      ],
      "stateMutability": "payable",
      "type": "function"
    },
    {
      "inputs": [],
      "name": "renounceOwnership",
      "outputs": [],
      "stateMutability": "nonpayable",
      "type": "function"
    },
    {
      "inputs": [
        {
          "internalType": "address",
          "name": "newOwner",
          "type": "address"
        }
      ],
      "name": "transferOwnership",
      "outputs": [],
      "stateMutability": "nonpayable",
      "type": "function"
    },
    {
      "inputs": [
        {
          "internalType": "uint256",
          "name": "offerId",
          "type": "uint256"
        },
        {
          "internalType": "address",
          "name": "newMaker",
          "type": "address"
        }
      ],
      "name": "updateMaker",
      "outputs": [],
      "stateMutability": "nonpayable",
      "type": "function"
    },
    {
      "stateMutability": "payable",
      "type": "receive"
    }
  ],
  "bytecode": "0x608060405234801561001057600080fd5b50611467806100206000396000f3fe6080604052600436106100c65760003560e01c80635f5d06551161007f5780638a72ea6a116100595780638a72ea6a146102c85780638da5cb5b146103c6578063b1323557146103ee578063f2fde38b1461040e57600080fd5b80635f5d065514610289578063715018a61461029e5780638129fc1c146102b357600080fd5b80631100528e146100d2578063277e2eab146100f457806331809dcf1461011a5780634579268a1461015d5780635314e9fa1461022e578063579a69881461024e57600080fd5b366100cd57005b600080fd5b3480156100de57600080fd5b506100f26100ed3660046111c6565b61042e565b005b6101076101023660046111f2565b61059b565b6040519081526020015b60405180910390f35b34801561012657600080fd5b5061014d61013536600461124a565b60009081526001602052604090206008015460ff1690565b6040519015158152602001610111565b34801561016957600080fd5b506101d861017836600461124a565b60009081526001602081905260409091208054918101546002820154600383015460048401546005850154600686015460078701546008909701546001600160a01b03988916999698959794969386169592949190921692909160ff1690565b604080516001600160a01b039a8b16815260208101999099528801969096526060870194909452918616608086015260a085015290931660c083015260e082019290925290151561010082015261012001610111565b34801561023a57600080fd5b5061014d610249366004611263565b6107c3565b34801561025a57600080fd5b5061014d61026936600461124a565b6000908152600160205260409020600401546001600160a01b0316151590565b34801561029557600080fd5b50600054610107565b3480156102aa57600080fd5b506100f2610a38565b3480156102bf57600080fd5b506100f2610a4c565b3480156102d457600080fd5b506103b96102e336600461124a565b6040805161012081018252600080825260208201819052918101829052606081018290526080810182905260a0810182905260c0810182905260e081018290526101008101919091525060009081526001602081815260409283902083516101208101855281546001600160a01b039081168252938201549281019290925260028101549382019390935260038301546060820152600483015482166080820152600583015460a0820152600683015490911660c0820152600782015460e082015260089091015460ff16151561010082015290565b60405161011191906112df565b3480156103d257600080fd5b506035546040516001600160a01b039091168152602001610111565b3480156103fa57600080fd5b5061014d610409366004611263565b610b65565b34801561041a57600080fd5b506100f261042936600461135c565b610c29565b6000828152600160205260409020600401546001600160a01b031661046e5760405162461bcd60e51b81526004016104659061137e565b60405180910390fd5b6000828152600160205260409020600401546001600160a01b0316336001600160a01b0316146104ec5760405162461bcd60e51b815260206004820152602360248201527f4f66666572732063616e2062652075706461746564206279206974732074616b60448201526232b91760e91b6064820152608401610465565b6001600160a01b0381166105425760405162461bcd60e51b815260206004820152601e60248201527f606e65774d616b6572602073686f756c64206e6f74206265207a65726f2e00006044820152606401610465565b60008281526001602052604080822080546001600160a01b0319166001600160a01b0385169081179091559051909184917f3cd0cb8e18f3484f6b1dbeb6689d99826a4a894879341d803dd4775980e868219190a35050565b60006001600160a01b0384166105f35760405162461bcd60e51b815260206004820152601960248201527f606d616b657260206d757374206e6f74206265207a65726f2e000000000000006044820152606401610465565b6001600160a01b038616610667578434146106625760405162461bcd60e51b815260206004820152602960248201527f74616b6572416d6f756e74206d757374206265207468652073616d65206173206044820152686d73672e76616c756560b81b6064820152608401610465565b6107a7565b34156106cd5760405162461bcd60e51b815260206004820152602f60248201527f7472616e736d697373696f6e206d6574686f64206f74686572207468616e204560448201526e1512081a5cc81cdc1958da599a5959608a1b6064820152608401610465565b60006001600160a01b0387166323b872dd336040516001600160e01b031960e084901b1681526001600160a01b039091166004820152306024820152604481018990526064016020604051808303816000875af1158015610732573d6000803e3d6000fd5b505050506040513d601f19601f8201168201806040525081019061075691906113c4565b9050806107a55760405162461bcd60e51b815260206004820152601c60248201527f6661696c20746f207472616e7366657220455243323020746f6b656e000000006044820152606401610465565b505b6107b8338888348860008989610c9f565b979650505050505050565b600083815260016020818152604080842081516101208101835281546001600160a01b039081168252948201548185015260028201548184015260038201546060820152600482015485166080820152600582015460a0820152600682015490941660c0850152600781015460e08501526008015460ff1615156101008401528051601f860183900483028101830190915284815261087f918391908790879081908401838280828437600092019190915250610f2c92505050565b80516001600160a01b0316336001600160a01b0316146108ef5760405162461bcd60e51b815260206004820152602560248201527f4f6e6c7920746865206d616b65722063616e20756e6c6f636b2074686973206f604482015264333332b91760d91b6064820152608401610465565b6108f885610f30565b60c08101516001600160a01b031661094d57805160e08201516040516001600160a01b039092169181156108fc0291906000818181858888f19350505050158015610947573d6000803e3d6000fd5b50610a2d565b60c0810151815160e083015160405163a9059cbb60e01b81526000936001600160a01b03169263a9059cbb92610999926004016001600160a01b03929092168252602082015260400190565b6020604051808303816000875af11580156109b8573d6000803e3d6000fd5b505050506040513d601f19601f820116820180604052508101906109dc91906113c4565b905080610a2b5760405162461bcd60e51b815260206004820152601c60248201527f6661696c20746f207472616e7366657220455243323020746f6b656e000000006044820152606401610465565b505b506001949350505050565b610a40610ff6565b610a4a6000611050565b565b600254610100900460ff1615808015610a6c5750600254600160ff909116105b80610a865750303b158015610a86575060025460ff166001145b610ae95760405162461bcd60e51b815260206004820152602e60248201527f496e697469616c697a61626c653a20636f6e747261637420697320616c72656160448201526d191e481a5b9a5d1a585b1a5e995960921b6064820152608401610465565b6002805460ff191660011790558015610b0c576002805461ff0019166101001790555b610b146110a2565b610b1c6110c9565b8015610b62576002805461ff0019169055604051600181527f7f26b83ff96e1f2b6a682f133852f6798a09c465da95921460cefb38474024989060200160405180910390a15b50565b600083815260016020818152604080842081516101208101835281546001600160a01b039081168252948201548185015260028201548184015260038201546060820152600482015485166080820152600582015460a0820152600682015490941660c0850152600781015460e08501526008015460ff1615156101008401528051601f8601839004830281018301909152848152610c1f92918690869081908401838280828437600092019190915250610f2c92505050565b5060019392505050565b610c31610ff6565b6001600160a01b038116610c965760405162461bcd60e51b815260206004820152602660248201527f4f776e61626c653a206e6577206f776e657220697320746865207a65726f206160448201526564647265737360d01b6064820152608401610465565b610b6281611050565b60006001600160a01b038916610d035760405162461bcd60e51b815260206004820152602360248201527f5468652074616b6572206d757374206e6f74206265207a65726f20616464726560448201526239b99760e91b6064820152608401610465565b506000805480825260016020526040909120600401546001600160a01b031615610d6f5760405162461bcd60e51b815260206004820152601c60248201527f4f6666657220494420616c726561647920726567697374657265642e000000006044820152606401610465565b6000604051806101200160405280876001600160a01b031681526020018681526020018581526020018481526020018b6001600160a01b031681526020018a8152602001896001600160a01b03168152602001888152602001600015158152509050610dda816110f8565b6000828152600160208181526040808420855181546001600160a01b03199081166001600160a01b039283161783559387015182860155918601516002820155606086015160038201556080860151600482018054851691841691909117905560a0860151600582015560c086015160068201805490941692169190911790915560e084015160078201556101008401516008909101805460ff19169115159190911790558154019055604080518a81526001600160a01b038a81166020830152918101899052606081018790526080810186905260a08101859052908b169083907fa54ceef2bc7a2f3056774e409e3e0030176e5db647397f2d94f57f6e7d05ce3b9060c00160405180910390a36040516001600160a01b0387169083907f3cd0cb8e18f3484f6b1dbeb6689d99826a4a894879341d803dd4775980e8682190600090a35098975050505050505050565b5050565b6000818152600160205260409020600401546001600160a01b0316610f675760405162461bcd60e51b81526004016104659061137e565b60008181526001602052604090206008015460ff1615610fd55760405162461bcd60e51b815260206004820152602360248201527f54686973206f6666657220494420697320616c7265616479206163746976617460448201526232b21760e91b6064820152608401610465565b6000908152600160208190526040909120600801805460ff19169091179055565b6035546001600160a01b03163314610a4a5760405162461bcd60e51b815260206004820181905260248201527f4f776e61626c653a2063616c6c6572206973206e6f7420746865206f776e65726044820152606401610465565b603580546001600160a01b038381166001600160a01b0319831681179093556040519116919082907f8be0079c531659141344cd1fd0a4f28419497f9722a3daafe3b4186f6b6457e090600090a35050565b600254610100900460ff16610a4a5760405162461bcd60e51b8152600401610465906113e6565b600254610100900460ff166110f05760405162461bcd60e51b8152600401610465906113e6565b610a4a61117a565b67ffffffff0000000081606001511115610b625760405162461bcd60e51b815260206004820152603860248201527f496e76616c6964206f6666657220616d6f756e743a2065786365656473206d6160448201527f78696d756d2072656d697474616e636520616d6f756e742e00000000000000006064820152608401610465565b600254610100900460ff166111a15760405162461bcd60e51b8152600401610465906113e6565b610a4a33611050565b80356001600160a01b03811681146111c157600080fd5b919050565b600080604083850312156111d957600080fd5b823591506111e9602084016111aa565b90509250929050565b60008060008060008060c0878903121561120b57600080fd5b8635955061121b602088016111aa565b945060408701359350611230606088016111aa565b92506080870135915060a087013590509295509295509295565b60006020828403121561125c57600080fd5b5035919050565b60008060006040848603121561127857600080fd5b83359250602084013567ffffffffffffffff8082111561129757600080fd5b818601915086601f8301126112ab57600080fd5b8135818111156112ba57600080fd5b8760208285010111156112cc57600080fd5b6020830194508093505050509250925092565b81516001600160a01b03908116825260208084015190830152604080840151908301526060808401519083015260808084015182169083015260a0838101519083015260c080840151918216908301526101208201905060e083015160e0830152610100808401516113548285018215159052565b505092915050565b60006020828403121561136e57600080fd5b611377826111aa565b9392505050565b60208082526026908201527f54686973206f6666657220494420686173206e6f74206265656e2072656769736040820152653a32b932b21760d11b606082015260800190565b6000602082840312156113d657600080fd5b8151801515811461137757600080fd5b6020808252602b908201527f496e697469616c697a61626c653a20636f6e7472616374206973206e6f74206960408201526a6e697469616c697a696e6760a81b60608201526080019056fea2646970667358221220a2dd50510f044d1249c6c4a72e4485f4f6911181043cd4577c38748225550bf264736f6c63430008110033",
  "linkReferences": {},
  "deployedLinkReferences": {}
}