{
  "_format": "hh-sol-artifact-1",
  "contractName": "OfferManagerReverse",
  "sourceName": "contracts/OfferManagerReverse.sol",
  "abi": [
    {
      "anonymous": false,
      "inputs": [
        {
          "indexed": false,
          "internalType": "uint8",
          "name": "version",
          "type": "uint8"
        }
      ],
      "name": "Initialized",
      "type": "event"
    },
    {
      "anonymous": false,
      "inputs": [
        {
          "indexed": true,
          "internalType": "uint256",
          "name": "offerId",
          "type": "uint256"
        },
        {
          "indexed": true,
          "internalType": "address",
          "name": "maker",
          "type": "address"
        }
      ],
      "name": "OfferActivated",
      "type": "event"
    },
    {
      "anonymous": false,
      "inputs": [
        {
          "indexed": true,
          "internalType": "uint256",
          "name": "offerId",
          "type": "uint256"
        },
        {
          "indexed": true,
          "internalType": "address",
          "name": "maker",
          "type": "address"
        }
      ],
      "name": "OfferMakerUpdated",
      "type": "event"
    },
    {
      "anonymous": false,
      "inputs": [
        {
          "indexed": true,
          "internalType": "uint256",
          "name": "offerId",
          "type": "uint256"
        },
        {
          "indexed": true,
          "internalType": "address",
          "name": "taker",
          "type": "address"
        },
        {
          "indexed": false,
          "internalType": "bytes32",
          "name": "takerIntmaxAddress",
          "type": "bytes32"
        },
        {
          "indexed": false,
          "internalType": "address",
          "name": "takerTokenAddress",
          "type": "address"
        },
        {
          "indexed": false,
          "internalType": "uint256",
          "name": "takerAmount",
          "type": "uint256"
        },
        {
          "indexed": false,
          "internalType": "bytes32",
          "name": "makerIntmaxAddress",
          "type": "bytes32"
        },
        {
          "indexed": false,
          "internalType": "uint256",
          "name": "makerAssetId",
          "type": "uint256"
        },
        {
          "indexed": false,
          "internalType": "uint256",
          "name": "makerAmount",
          "type": "uint256"
        }
      ],
      "name": "OfferRegistered",
      "type": "event"
    },
    {
      "anonymous": false,
      "inputs": [
        {
          "indexed": true,
          "internalType": "address",
          "name": "previousOwner",
          "type": "address"
        },
        {
          "indexed": true,
          "internalType": "address",
          "name": "newOwner",
          "type": "address"
        }
      ],
      "name": "OwnershipTransferred",
      "type": "event"
    },
    {
      "inputs": [
        {
          "internalType": "uint256",
          "name": "offerId",
          "type": "uint256"
        },
        {
          "internalType": "bytes",
          "name": "witness",
          "type": "bytes"
        }
      ],
      "name": "activate",
      "outputs": [
        {
          "internalType": "bool",
          "name": "",
          "type": "bool"
        }
      ],
      "stateMutability": "nonpayable",
      "type": "function"
    },
    {
      "inputs": [
        {
          "internalType": "uint256",
          "name": "offerId",
          "type": "uint256"
        },
        {
          "internalType": "bytes",
          "name": "witness",
          "type": "bytes"
        }
      ],
      "name": "checkWitness",
      "outputs": [
        {
          "internalType": "bool",
          "name": "",
          "type": "bool"
        }
      ],
      "stateMutability": "view",
      "type": "function"
    },
    {
      "inputs": [
        {
          "internalType": "uint256",
          "name": "offerId",
          "type": "uint256"
        }
      ],
      "name": "getOffer",
      "outputs": [
        {
          "internalType": "address",
          "name": "maker",
          "type": "address"
        },
        {
          "internalType": "bytes32",
          "name": "makerIntmaxAddress",
          "type": "bytes32"
        },
        {
          "internalType": "uint256",
          "name": "makerAssetId",
          "type": "uint256"
        },
        {
          "internalType": "uint256",
          "name": "makerAmount",
          "type": "uint256"
        },
        {
          "internalType": "address",
          "name": "taker",
          "type": "address"
        },
        {
          "internalType": "bytes32",
          "name": "takerIntmaxAddress",
          "type": "bytes32"
        },
        {
          "internalType": "address",
          "name": "takerTokenAddress",
          "type": "address"
        },
        {
          "internalType": "uint256",
          "name": "takerAmount",
          "type": "uint256"
        },
        {
          "internalType": "bool",
          "name": "activated",
          "type": "bool"
        }
      ],
      "stateMutability": "view",
      "type": "function"
    },
    {
      "inputs": [],
      "name": "initialize",
      "outputs": [],
      "stateMutability": "nonpayable",
      "type": "function"
    },
    {
      "inputs": [
        {
          "internalType": "uint256",
          "name": "offerId",
          "type": "uint256"
        }
      ],
      "name": "isActivated",
      "outputs": [
        {
          "internalType": "bool",
          "name": "",
          "type": "bool"
        }
      ],
      "stateMutability": "view",
      "type": "function"
    },
    {
      "inputs": [
        {
          "internalType": "uint256",
          "name": "offerId",
          "type": "uint256"
        }
      ],
      "name": "isRegistered",
      "outputs": [
        {
          "internalType": "bool",
          "name": "",
          "type": "bool"
        }
      ],
      "stateMutability": "view",
      "type": "function"
    },
    {
      "inputs": [],
      "name": "nextOfferId",
      "outputs": [
        {
          "internalType": "uint256",
          "name": "offerId",
          "type": "uint256"
        }
      ],
      "stateMutability": "view",
      "type": "function"
    },
    {
      "inputs": [],
      "name": "owner",
      "outputs": [
        {
          "internalType": "address",
          "name": "",
          "type": "address"
        }
      ],
      "stateMutability": "view",
      "type": "function"
    },
    {
      "inputs": [
        {
          "internalType": "bytes32",
          "name": "takerIntmaxAddress",
          "type": "bytes32"
        },
        {
          "internalType": "address",
          "name": "takerTokenAddress",
          "type": "address"
        },
        {
          "internalType": "uint256",
          "name": "takerAmount",
          "type": "uint256"
        },
        {
          "internalType": "address",
          "name": "maker",
          "type": "address"
        },
        {
          "internalType": "uint256",
          "name": "makerAssetId",
          "type": "uint256"
        },
        {
          "internalType": "uint256",
          "name": "makerAmount",
          "type": "uint256"
        }
      ],
      "name": "register",
      "outputs": [
        {
          "internalType": "uint256",
          "name": "offerId",
          "type": "uint256"
        }
      ],
      "stateMutability": "payable",
      "type": "function"
    },
    {
      "inputs": [],
      "name": "renounceOwnership",
      "outputs": [],
      "stateMutability": "nonpayable",
      "type": "function"
    },
    {
      "inputs": [
        {
          "internalType": "address",
          "name": "newOwner",
          "type": "address"
        }
      ],
      "name": "transferOwnership",
      "outputs": [],
      "stateMutability": "nonpayable",
      "type": "function"
    },
    {
      "inputs": [
        {
          "internalType": "uint256",
          "name": "offerId",
          "type": "uint256"
        },
        {
          "internalType": "address",
          "name": "newMaker",
          "type": "address"
        }
      ],
      "name": "updateMaker",
      "outputs": [],
      "stateMutability": "nonpayable",
      "type": "function"
    },
    {
      "stateMutability": "payable",
      "type": "receive"
    }
  ],
  "bytecode": "0x608060405234801561001057600080fd5b50612573806100206000396000f3fe6080604052600436106100ab5760003560e01c80635f5d0655116100645780635f5d06551461020c578063715018a6146102375780638129fc1c1461024e5780638da5cb5b14610265578063b132355714610290578063f2fde38b146102cd576100b2565b80631100528e146100b7578063277e2eab146100e057806331809dcf146101105780634579268a1461014d5780635314e9fa14610192578063579a6988146101cf576100b2565b366100b257005b600080fd5b3480156100c357600080fd5b506100de60048036038101906100d991906117fb565b6102f6565b005b6100fa60048036038101906100f59190611871565b6104ce565b604051610107919061190d565b60405180910390f35b34801561011c57600080fd5b5061013760048036038101906101329190611928565b6106c9565b6040516101449190611970565b60405180910390f35b34801561015957600080fd5b50610174600480360381019061016f9190611928565b6106f6565b604051610189999897969594939291906119a9565b60405180910390f35b34801561019e57600080fd5b506101b960048036038101906101b49190611a9b565b6107d4565b6040516101c69190611970565b60405180910390f35b3480156101db57600080fd5b506101f660048036038101906101f19190611928565b610bce565b6040516102039190611970565b60405180910390f35b34801561021857600080fd5b50610221610c3d565b60405161022e919061190d565b60405180910390f35b34801561024357600080fd5b5061024c610c4e565b005b34801561025a57600080fd5b50610263610c62565b005b34801561027157600080fd5b5061027a610daf565b6040516102879190611afb565b60405180910390f35b34801561029c57600080fd5b506102b760048036038101906102b29190611a9b565b610dd9565b6040516102c49190611970565b60405180910390f35b3480156102d957600080fd5b506102f460048036038101906102ef9190611b16565b610fa1565b005b6102ff82610bce565b61033e576040517f08c379a000000000000000000000000000000000000000000000000000000000815260040161033590611bc6565b60405180910390fd5b6001600083815260200190815260200160002060040160009054906101000a900473ffffffffffffffffffffffffffffffffffffffff1673ffffffffffffffffffffffffffffffffffffffff16610393611024565b73ffffffffffffffffffffffffffffffffffffffff16146103e9576040517f08c379a00000000000000000000000000000000000000000000000000000000081526004016103e090611c58565b60405180910390fd5b6103f28161102c565b610431576040517f08c379a000000000000000000000000000000000000000000000000000000000815260040161042890611cc4565b60405180910390fd5b806001600084815260200190815260200160002060000160006101000a81548173ffffffffffffffffffffffffffffffffffffffff021916908373ffffffffffffffffffffffffffffffffffffffff1602179055508073ffffffffffffffffffffffffffffffffffffffff16827f3cd0cb8e18f3484f6b1dbeb6689d99826a4a894879341d803dd4775980e8682160405160405180910390a35050565b60006104d98461102c565b610518576040517f08c379a000000000000000000000000000000000000000000000000000000000815260040161050f90611d30565b60405180910390fd5b600073ffffffffffffffffffffffffffffffffffffffff168673ffffffffffffffffffffffffffffffffffffffff16036105935784341461058e576040517f08c379a000000000000000000000000000000000000000000000000000000000815260040161058590611dc2565b60405180910390fd5b6106a3565b600034146105d6576040517f08c379a00000000000000000000000000000000000000000000000000000000081526004016105cd90611e54565b60405180910390fd5b60008673ffffffffffffffffffffffffffffffffffffffff166323b872dd6105fc611024565b30896040518463ffffffff1660e01b815260040161061c93929190611e74565b6020604051808303816000875af115801561063b573d6000803e3d6000fd5b505050506040513d601f19601f8201168201806040525081019061065f9190611ed7565b9050806106a1576040517f08c379a000000000000000000000000000000000000000000000000000000000815260040161069890611f50565b60405180910390fd5b505b6106bd6106ae611024565b888834886000801b8989611065565b90509695505050505050565b60006001600083815260200190815260200160002060080160009054906101000a900460ff169050919050565b600080600080600080600080600080600160008c815260200190815260200160002090508060000160009054906101000a900473ffffffffffffffffffffffffffffffffffffffff1699508060010154985080600201549750806003015496508060040160009054906101000a900473ffffffffffffffffffffffffffffffffffffffff169550806005015494508060060160009054906101000a900473ffffffffffffffffffffffffffffffffffffffff169350806007015492508060080160009054906101000a900460ff169150509193959799909294969850565b60008060016000868152602001908152602001600020604051806101200160405290816000820160009054906101000a900473ffffffffffffffffffffffffffffffffffffffff1673ffffffffffffffffffffffffffffffffffffffff1673ffffffffffffffffffffffffffffffffffffffff1681526020016001820154815260200160028201548152602001600382015481526020016004820160009054906101000a900473ffffffffffffffffffffffffffffffffffffffff1673ffffffffffffffffffffffffffffffffffffffff1673ffffffffffffffffffffffffffffffffffffffff168152602001600582015481526020016006820160009054906101000a900473ffffffffffffffffffffffffffffffffffffffff1673ffffffffffffffffffffffffffffffffffffffff1673ffffffffffffffffffffffffffffffffffffffff168152602001600782015481526020016008820160009054906101000a900460ff16151515158152505090506109958185858080601f016020809104026020016040519081016040528093929190818152602001838380828437600081840152601f19601f820116905080830192505050505050506113af565b806000015173ffffffffffffffffffffffffffffffffffffffff166109b8611024565b73ffffffffffffffffffffffffffffffffffffffff1614610a0e576040517f08c379a0000000000000000000000000000000000000000000000000000000008152600401610a0590611fe2565b60405180910390fd5b610a17856113b3565b806000015173ffffffffffffffffffffffffffffffffffffffff166108fc8260e001519081150290604051600060405180830381858888f19350505050158015610a65573d6000803e3d6000fd5b50600073ffffffffffffffffffffffffffffffffffffffff168160c0015173ffffffffffffffffffffffffffffffffffffffff1603610af257806000015173ffffffffffffffffffffffffffffffffffffffff166108fc8260e001519081150290604051600060405180830381858888f19350505050158015610aec573d6000803e3d6000fd5b50610bc2565b60008160c0015173ffffffffffffffffffffffffffffffffffffffff1663a9059cbb83600001518460e001516040518363ffffffff1660e01b8152600401610b3b929190612002565b6020604051808303816000875af1158015610b5a573d6000803e3d6000fd5b505050506040513d601f19601f82011682018060405250810190610b7e9190611ed7565b905080610bc0576040517f08c379a0000000000000000000000000000000000000000000000000000000008152600401610bb790611f50565b60405180910390fd5b505b60019150509392505050565b60008073ffffffffffffffffffffffffffffffffffffffff166001600084815260200190815260200160002060040160009054906101000a900473ffffffffffffffffffffffffffffffffffffffff1673ffffffffffffffffffffffffffffffffffffffff1614159050919050565b6000610c496000611475565b905090565b610c56611483565b610c606000611501565b565b6000600260019054906101000a900460ff16159050808015610c9657506001600260009054906101000a900460ff1660ff16105b80610cc55750610ca5306115c7565b158015610cc457506001600260009054906101000a900460ff1660ff16145b5b610d04576040517f08c379a0000000000000000000000000000000000000000000000000000000008152600401610cfb9061209d565b60405180910390fd5b6001600260006101000a81548160ff021916908360ff1602179055508015610d42576001600260016101000a81548160ff0219169083151502179055505b610d4a6115ea565b610d5261163b565b8015610dac576000600260016101000a81548160ff0219169083151502179055507f7f26b83ff96e1f2b6a682f133852f6798a09c465da95921460cefb38474024986001604051610da3919061210f565b60405180910390a15b50565b6000603560009054906101000a900473ffffffffffffffffffffffffffffffffffffffff16905090565b6000610f9660016000868152602001908152602001600020604051806101200160405290816000820160009054906101000a900473ffffffffffffffffffffffffffffffffffffffff1673ffffffffffffffffffffffffffffffffffffffff1673ffffffffffffffffffffffffffffffffffffffff1681526020016001820154815260200160028201548152602001600382015481526020016004820160009054906101000a900473ffffffffffffffffffffffffffffffffffffffff1673ffffffffffffffffffffffffffffffffffffffff1673ffffffffffffffffffffffffffffffffffffffff168152602001600582015481526020016006820160009054906101000a900473ffffffffffffffffffffffffffffffffffffffff1673ffffffffffffffffffffffffffffffffffffffff1673ffffffffffffffffffffffffffffffffffffffff168152602001600782015481526020016008820160009054906101000a900460ff16151515158152505084848080601f016020809104026020016040519081016040528093929190818152602001838380828437600081840152601f19601f820116905080830192505050505050506113af565b600190509392505050565b610fa9611483565b600073ffffffffffffffffffffffffffffffffffffffff168173ffffffffffffffffffffffffffffffffffffffff1603611018576040517f08c379a000000000000000000000000000000000000000000000000000000000815260040161100f9061219c565b60405180910390fd5b61102181611501565b50565b600033905090565b60008073ffffffffffffffffffffffffffffffffffffffff168273ffffffffffffffffffffffffffffffffffffffff1614159050919050565b60008073ffffffffffffffffffffffffffffffffffffffff168973ffffffffffffffffffffffffffffffffffffffff16036110d5576040517f08c379a00000000000000000000000000000000000000000000000000000000081526004016110cc9061222e565b60405180910390fd5b6110df6000611475565b90506110ea81610bce565b1561112a576040517f08c379a00000000000000000000000000000000000000000000000000000000081526004016111219061229a565b60405180910390fd5b60006040518061012001604052808773ffffffffffffffffffffffffffffffffffffffff1681526020018681526020018581526020018481526020018b73ffffffffffffffffffffffffffffffffffffffff1681526020018a81526020018973ffffffffffffffffffffffffffffffffffffffff1681526020018881526020016000151581525090506111bc81611694565b806001600084815260200190815260200160002060008201518160000160006101000a81548173ffffffffffffffffffffffffffffffffffffffff021916908373ffffffffffffffffffffffffffffffffffffffff16021790555060208201518160010155604082015181600201556060820151816003015560808201518160040160006101000a81548173ffffffffffffffffffffffffffffffffffffffff021916908373ffffffffffffffffffffffffffffffffffffffff16021790555060a0820151816005015560c08201518160060160006101000a81548173ffffffffffffffffffffffffffffffffffffffff021916908373ffffffffffffffffffffffffffffffffffffffff16021790555060e082015181600701556101008201518160080160006101000a81548160ff02191690831515021790555090505061130560006116e6565b8973ffffffffffffffffffffffffffffffffffffffff16827fa54ceef2bc7a2f3056774e409e3e0030176e5db647397f2d94f57f6e7d05ce3b8b8b8b8a8a8a604051611356969594939291906122ba565b60405180910390a38573ffffffffffffffffffffffffffffffffffffffff16827f3cd0cb8e18f3484f6b1dbeb6689d99826a4a894879341d803dd4775980e8682160405160405180910390a35098975050505050505050565b5050565b6113bc81610bce565b6113fb576040517f08c379a00000000000000000000000000000000000000000000000000000000081526004016113f290611bc6565b60405180910390fd5b611404816106c9565b15611444576040517f08c379a000000000000000000000000000000000000000000000000000000000815260040161143b9061238d565b60405180910390fd5b600180600083815260200190815260200160002060080160006101000a81548160ff02191690831515021790555050565b600081600001549050919050565b61148b611024565b73ffffffffffffffffffffffffffffffffffffffff166114a9610daf565b73ffffffffffffffffffffffffffffffffffffffff16146114ff576040517f08c379a00000000000000000000000000000000000000000000000000000000081526004016114f6906123f9565b60405180910390fd5b565b6000603560009054906101000a900473ffffffffffffffffffffffffffffffffffffffff16905081603560006101000a81548173ffffffffffffffffffffffffffffffffffffffff021916908373ffffffffffffffffffffffffffffffffffffffff1602179055508173ffffffffffffffffffffffffffffffffffffffff168173ffffffffffffffffffffffffffffffffffffffff167f8be0079c531659141344cd1fd0a4f28419497f9722a3daafe3b4186f6b6457e060405160405180910390a35050565b6000808273ffffffffffffffffffffffffffffffffffffffff163b119050919050565b600260019054906101000a900460ff16611639576040517f08c379a00000000000000000000000000000000000000000000000000000000081526004016116309061248b565b60405180910390fd5b565b600260019054906101000a900460ff1661168a576040517f08c379a00000000000000000000000000000000000000000000000000000000081526004016116819061248b565b60405180910390fd5b6116926116fc565b565b67ffffffff00000000816060015111156116e3576040517f08c379a00000000000000000000000000000000000000000000000000000000081526004016116da9061251d565b60405180910390fd5b50565b6001816000016000828254019250508190555050565b600260019054906101000a900460ff1661174b576040517f08c379a00000000000000000000000000000000000000000000000000000000081526004016117429061248b565b60405180910390fd5b61175b611756611024565b611501565b565b600080fd5b600080fd5b6000819050919050565b61177a81611767565b811461178557600080fd5b50565b60008135905061179781611771565b92915050565b600073ffffffffffffffffffffffffffffffffffffffff82169050919050565b60006117c88261179d565b9050919050565b6117d8816117bd565b81146117e357600080fd5b50565b6000813590506117f5816117cf565b92915050565b600080604083850312156118125761181161175d565b5b600061182085828601611788565b9250506020611831858286016117e6565b9150509250929050565b6000819050919050565b61184e8161183b565b811461185957600080fd5b50565b60008135905061186b81611845565b92915050565b60008060008060008060c0878903121561188e5761188d61175d565b5b600061189c89828a0161185c565b96505060206118ad89828a016117e6565b95505060406118be89828a01611788565b94505060606118cf89828a016117e6565b93505060806118e089828a01611788565b92505060a06118f189828a01611788565b9150509295509295509295565b61190781611767565b82525050565b600060208201905061192260008301846118fe565b92915050565b60006020828403121561193e5761193d61175d565b5b600061194c84828501611788565b91505092915050565b60008115159050919050565b61196a81611955565b82525050565b60006020820190506119856000830184611961565b92915050565b611994816117bd565b82525050565b6119a38161183b565b82525050565b6000610120820190506119bf600083018c61198b565b6119cc602083018b61199a565b6119d9604083018a6118fe565b6119e660608301896118fe565b6119f3608083018861198b565b611a0060a083018761199a565b611a0d60c083018661198b565b611a1a60e08301856118fe565b611a28610100830184611961565b9a9950505050505050505050565b600080fd5b600080fd5b600080fd5b60008083601f840112611a5b57611a5a611a36565b5b8235905067ffffffffffffffff811115611a7857611a77611a3b565b5b602083019150836001820283011115611a9457611a93611a40565b5b9250929050565b600080600060408486031215611ab457611ab361175d565b5b6000611ac286828701611788565b935050602084013567ffffffffffffffff811115611ae357611ae2611762565b5b611aef86828701611a45565b92509250509250925092565b6000602082019050611b10600083018461198b565b92915050565b600060208284031215611b2c57611b2b61175d565b5b6000611b3a848285016117e6565b91505092915050565b600082825260208201905092915050565b7f54686973206f6666657220494420686173206e6f74206265656e20726567697360008201527f74657265642e0000000000000000000000000000000000000000000000000000602082015250565b6000611bb0602683611b43565b9150611bbb82611b54565b604082019050919050565b60006020820190508181036000830152611bdf81611ba3565b9050919050565b7f4f66666572732063616e2062652075706461746564206279206974732074616b60008201527f65722e0000000000000000000000000000000000000000000000000000000000602082015250565b6000611c42602383611b43565b9150611c4d82611be6565b604082019050919050565b60006020820190508181036000830152611c7181611c35565b9050919050565b7f606e65774d616b6572602073686f756c64206e6f74206265207a65726f2e0000600082015250565b6000611cae601e83611b43565b9150611cb982611c78565b602082019050919050565b60006020820190508181036000830152611cdd81611ca1565b9050919050565b7f606d616b657260206d757374206e6f74206265207a65726f2e00000000000000600082015250565b6000611d1a601983611b43565b9150611d2582611ce4565b602082019050919050565b60006020820190508181036000830152611d4981611d0d565b9050919050565b7f74616b6572416d6f756e74206d757374206265207468652073616d652061732060008201527f6d73672e76616c75650000000000000000000000000000000000000000000000602082015250565b6000611dac602983611b43565b9150611db782611d50565b604082019050919050565b60006020820190508181036000830152611ddb81611d9f565b9050919050565b7f7472616e736d697373696f6e206d6574686f64206f74686572207468616e204560008201527f5448206973207370656369666965640000000000000000000000000000000000602082015250565b6000611e3e602f83611b43565b9150611e4982611de2565b604082019050919050565b60006020820190508181036000830152611e6d81611e31565b9050919050565b6000606082019050611e89600083018661198b565b611e96602083018561198b565b611ea360408301846118fe565b949350505050565b611eb481611955565b8114611ebf57600080fd5b50565b600081519050611ed181611eab565b92915050565b600060208284031215611eed57611eec61175d565b5b6000611efb84828501611ec2565b91505092915050565b7f6661696c20746f207472616e7366657220455243323020746f6b656e00000000600082015250565b6000611f3a601c83611b43565b9150611f4582611f04565b602082019050919050565b60006020820190508181036000830152611f6981611f2d565b9050919050565b7f4f6e6c7920746865206d616b65722063616e20756e6c6f636b2074686973206f60008201527f666665722e000000000000000000000000000000000000000000000000000000602082015250565b6000611fcc602583611b43565b9150611fd782611f70565b604082019050919050565b60006020820190508181036000830152611ffb81611fbf565b9050919050565b6000604082019050612017600083018561198b565b61202460208301846118fe565b9392505050565b7f496e697469616c697a61626c653a20636f6e747261637420697320616c72656160008201527f647920696e697469616c697a6564000000000000000000000000000000000000602082015250565b6000612087602e83611b43565b91506120928261202b565b604082019050919050565b600060208201905081810360008301526120b68161207a565b9050919050565b6000819050919050565b600060ff82169050919050565b6000819050919050565b60006120f96120f46120ef846120bd565b6120d4565b6120c7565b9050919050565b612109816120de565b82525050565b60006020820190506121246000830184612100565b92915050565b7f4f776e61626c653a206e6577206f776e657220697320746865207a65726f206160008201527f6464726573730000000000000000000000000000000000000000000000000000602082015250565b6000612186602683611b43565b91506121918261212a565b604082019050919050565b600060208201905081810360008301526121b581612179565b9050919050565b7f5468652074616b6572206d757374206e6f74206265207a65726f20616464726560008201527f73732e0000000000000000000000000000000000000000000000000000000000602082015250565b6000612218602383611b43565b9150612223826121bc565b604082019050919050565b600060208201905081810360008301526122478161220b565b9050919050565b7f4f6666657220494420616c726561647920726567697374657265642e00000000600082015250565b6000612284601c83611b43565b915061228f8261224e565b602082019050919050565b600060208201905081810360008301526122b381612277565b9050919050565b600060c0820190506122cf600083018961199a565b6122dc602083018861198b565b6122e960408301876118fe565b6122f6606083018661199a565b61230360808301856118fe565b61231060a08301846118fe565b979650505050505050565b7f54686973206f6666657220494420697320616c7265616479206163746976617460008201527f65642e0000000000000000000000000000000000000000000000000000000000602082015250565b6000612377602383611b43565b91506123828261231b565b604082019050919050565b600060208201905081810360008301526123a68161236a565b9050919050565b7f4f776e61626c653a2063616c6c6572206973206e6f7420746865206f776e6572600082015250565b60006123e3602083611b43565b91506123ee826123ad565b602082019050919050565b60006020820190508181036000830152612412816123d6565b9050919050565b7f496e697469616c697a61626c653a20636f6e7472616374206973206e6f74206960008201527f6e697469616c697a696e67000000000000000000000000000000000000000000602082015250565b6000612475602b83611b43565b915061248082612419565b604082019050919050565b600060208201905081810360008301526124a481612468565b9050919050565b7f496e76616c6964206f6666657220616d6f756e743a2065786365656473206d6160008201527f78696d756d2072656d697474616e636520616d6f756e742e0000000000000000602082015250565b6000612507603883611b43565b9150612512826124ab565b604082019050919050565b60006020820190508181036000830152612536816124fa565b905091905056fea26469706673582212203d0ba728f01ac672d46112cd4d05e9153942f3b47cadb0aa8c981639d9495c9a64736f6c63430008110033",
  "linkReferences": {},
  "deployedLinkReferences": {}
}