{
  "_format": "hh-sol-artifact-1",
  "contractName": "OfferManagerReverse",
  "sourceName": "contracts/OfferManagerReverse.sol",
  "abi": [
    {
      "inputs": [],
      "stateMutability": "nonpayable",
      "type": "constructor"
    },
    {
      "anonymous": false,
      "inputs": [
        {
          "indexed": true,
          "internalType": "uint256",
          "name": "offerId",
          "type": "uint256"
        },
        {
          "indexed": false,
          "internalType": "address",
          "name": "maker",
          "type": "address"
        }
      ],
      "name": "OfferActivated",
      "type": "event"
    },
    {
      "anonymous": false,
      "inputs": [
        {
          "indexed": true,
          "internalType": "uint256",
          "name": "offerId",
          "type": "uint256"
        },
        {
          "indexed": true,
          "internalType": "address",
          "name": "maker",
          "type": "address"
        }
      ],
      "name": "OfferMakerUpdated",
      "type": "event"
    },
    {
      "anonymous": false,
      "inputs": [
        {
          "indexed": true,
          "internalType": "uint256",
          "name": "offerId",
          "type": "uint256"
        },
        {
          "indexed": true,
          "internalType": "address",
          "name": "taker",
          "type": "address"
        },
        {
          "indexed": false,
          "internalType": "bytes32",
          "name": "takerIntmaxAddress",
          "type": "bytes32"
        },
        {
          "indexed": false,
          "internalType": "address",
          "name": "takerTokenAddress",
          "type": "address"
        },
        {
          "indexed": false,
          "internalType": "uint256",
          "name": "takerAmount",
          "type": "uint256"
        },
        {
          "indexed": false,
          "internalType": "bytes32",
          "name": "makerIntmaxAddress",
          "type": "bytes32"
        },
        {
          "indexed": false,
          "internalType": "uint256",
          "name": "makerAssetId",
          "type": "uint256"
        },
        {
          "indexed": false,
          "internalType": "uint256",
          "name": "makerAmount",
          "type": "uint256"
        }
      ],
      "name": "OfferRegistered",
      "type": "event"
    },
    {
      "inputs": [
        {
          "internalType": "uint256",
          "name": "offerId",
          "type": "uint256"
        },
        {
          "internalType": "bytes",
          "name": "witness",
          "type": "bytes"
        }
      ],
      "name": "activate",
      "outputs": [
        {
          "internalType": "bool",
          "name": "",
          "type": "bool"
        }
      ],
      "stateMutability": "nonpayable",
      "type": "function"
    },
    {
      "inputs": [
        {
          "internalType": "uint256",
          "name": "offerId",
          "type": "uint256"
        },
        {
          "internalType": "bytes",
          "name": "witness",
          "type": "bytes"
        }
      ],
      "name": "checkWitness",
      "outputs": [
        {
          "internalType": "bool",
          "name": "",
          "type": "bool"
        }
      ],
      "stateMutability": "view",
      "type": "function"
    },
    {
      "inputs": [
        {
          "internalType": "uint256",
          "name": "offerId",
          "type": "uint256"
        }
      ],
      "name": "getOffer",
      "outputs": [
        {
          "internalType": "address",
          "name": "maker",
          "type": "address"
        },
        {
          "internalType": "bytes32",
          "name": "makerIntmaxAddress",
          "type": "bytes32"
        },
        {
          "internalType": "uint256",
          "name": "makerAssetId",
          "type": "uint256"
        },
        {
          "internalType": "uint256",
          "name": "makerAmount",
          "type": "uint256"
        },
        {
          "internalType": "address",
          "name": "taker",
          "type": "address"
        },
        {
          "internalType": "bytes32",
          "name": "takerIntmaxAddress",
          "type": "bytes32"
        },
        {
          "internalType": "address",
          "name": "takerTokenAddress",
          "type": "address"
        },
        {
          "internalType": "uint256",
          "name": "takerAmount",
          "type": "uint256"
        },
        {
          "internalType": "bool",
          "name": "activated",
          "type": "bool"
        }
      ],
      "stateMutability": "view",
      "type": "function"
    },
    {
      "inputs": [
        {
          "internalType": "uint256",
          "name": "offerId",
          "type": "uint256"
        }
      ],
      "name": "isActivated",
      "outputs": [
        {
          "internalType": "bool",
          "name": "",
          "type": "bool"
        }
      ],
      "stateMutability": "view",
      "type": "function"
    },
    {
      "inputs": [
        {
          "internalType": "uint256",
          "name": "offerId",
          "type": "uint256"
        }
      ],
      "name": "isRegistered",
      "outputs": [
        {
          "internalType": "bool",
          "name": "",
          "type": "bool"
        }
      ],
      "stateMutability": "view",
      "type": "function"
    },
    {
      "inputs": [],
      "name": "nextOfferId",
      "outputs": [
        {
          "internalType": "uint256",
          "name": "",
          "type": "uint256"
        }
      ],
      "stateMutability": "view",
      "type": "function"
    },
    {
      "inputs": [
        {
          "internalType": "bytes32",
          "name": "takerIntmaxAddress",
          "type": "bytes32"
        },
        {
          "internalType": "address",
          "name": "takerTokenAddress",
          "type": "address"
        },
        {
          "internalType": "uint256",
          "name": "takerAmount",
          "type": "uint256"
        },
        {
          "internalType": "address",
          "name": "maker",
          "type": "address"
        },
        {
          "internalType": "uint256",
          "name": "makerAssetId",
          "type": "uint256"
        },
        {
          "internalType": "uint256",
          "name": "makerAmount",
          "type": "uint256"
        }
      ],
      "name": "register",
      "outputs": [
        {
          "internalType": "uint256",
          "name": "offerId",
          "type": "uint256"
        }
      ],
      "stateMutability": "payable",
      "type": "function"
    },
    {
      "inputs": [
        {
          "internalType": "uint256",
          "name": "offerId",
          "type": "uint256"
        },
        {
          "internalType": "address",
          "name": "newMaker",
          "type": "address"
        }
      ],
      "name": "updateMaker",
      "outputs": [],
      "stateMutability": "nonpayable",
      "type": "function"
    },
    {
      "stateMutability": "payable",
      "type": "receive"
    }
  ],
  "bytecode": "0x60a06040526000805534801561001457600080fd5b503373ffffffffffffffffffffffffffffffffffffffff1660808173ffffffffffffffffffffffffffffffffffffffff1681525050608051612440610064600039600061113501526124406000f3fe60806040526004361061007f5760003560e01c80635314e9fa1161004e5780635314e9fa14610166578063579a6988146101a35780635f5d0655146101e0578063b13235571461020b57610086565b80631100528e1461008b578063277e2eab146100b457806331809dcf146100e45780634579268a1461012157610086565b3661008657005b600080fd5b34801561009757600080fd5b506100b260048036038101906100ad9190611638565b610248565b005b6100ce60048036038101906100c991906116ae565b610419565b6040516100db919061174a565b60405180910390f35b3480156100f057600080fd5b5061010b60048036038101906101069190611765565b610606565b60405161011891906117ad565b60405180910390f35b34801561012d57600080fd5b5061014860048036038101906101439190611765565b610633565b60405161015d999897969594939291906117e6565b60405180910390f35b34801561017257600080fd5b5061018d600480360381019061018891906118d8565b610711565b60405161019a91906117ad565b60405180910390f35b3480156101af57600080fd5b506101ca60048036038101906101c59190611765565b610b16565b6040516101d791906117ad565b60405180910390f35b3480156101ec57600080fd5b506101f5610b85565b604051610202919061174a565b60405180910390f35b34801561021757600080fd5b50610232600480360381019061022d91906118d8565b610b8b565b60405161023f91906117ad565b60405180910390f35b61025182610b16565b610290576040517f08c379a0000000000000000000000000000000000000000000000000000000008152600401610287906119bb565b60405180910390fd5b6001600083815260200190815260200160002060040160009054906101000a900473ffffffffffffffffffffffffffffffffffffffff1673ffffffffffffffffffffffffffffffffffffffff163373ffffffffffffffffffffffffffffffffffffffff1614610334576040517f08c379a000000000000000000000000000000000000000000000000000000000815260040161032b90611a4d565b60405180910390fd5b61033d81610d6a565b61037c576040517f08c379a000000000000000000000000000000000000000000000000000000000815260040161037390611ab9565b60405180910390fd5b806001600084815260200190815260200160002060000160006101000a81548173ffffffffffffffffffffffffffffffffffffffff021916908373ffffffffffffffffffffffffffffffffffffffff1602179055508073ffffffffffffffffffffffffffffffffffffffff16827f3cd0cb8e18f3484f6b1dbeb6689d99826a4a894879341d803dd4775980e8682160405160405180910390a35050565b600061042484610d6a565b610463576040517f08c379a000000000000000000000000000000000000000000000000000000000815260040161045a90611b25565b60405180910390fd5b600073ffffffffffffffffffffffffffffffffffffffff168673ffffffffffffffffffffffffffffffffffffffff16036104de578434146104d9576040517f08c379a00000000000000000000000000000000000000000000000000000000081526004016104d090611bb7565b60405180910390fd5b6105e7565b60003414610521576040517f08c379a000000000000000000000000000000000000000000000000000000000815260040161051890611c49565b60405180910390fd5b60008673ffffffffffffffffffffffffffffffffffffffff166323b872dd3330896040518463ffffffff1660e01b815260040161056093929190611c69565b6020604051808303816000875af115801561057f573d6000803e3d6000fd5b505050506040513d601f19601f820116820180604052508101906105a39190611ccc565b9050806105e5576040517f08c379a00000000000000000000000000000000000000000000000000000000081526004016105dc90611d45565b60405180910390fd5b505b6105fa33888834886000801b8989610da3565b90509695505050505050565b60006001600083815260200190815260200160002060080160009054906101000a900460ff169050919050565b600080600080600080600080600080600160008c815260200190815260200160002090508060000160009054906101000a900473ffffffffffffffffffffffffffffffffffffffff1699508060010154985080600201549750806003015496508060040160009054906101000a900473ffffffffffffffffffffffffffffffffffffffff169550806005015494508060060160009054906101000a900473ffffffffffffffffffffffffffffffffffffffff169350806007015492508060080160009054906101000a900460ff169150509193959799909294969850565b60008060016000868152602001908152602001600020604051806101200160405290816000820160009054906101000a900473ffffffffffffffffffffffffffffffffffffffff1673ffffffffffffffffffffffffffffffffffffffff1673ffffffffffffffffffffffffffffffffffffffff1681526020016001820154815260200160028201548152602001600382015481526020016004820160009054906101000a900473ffffffffffffffffffffffffffffffffffffffff1673ffffffffffffffffffffffffffffffffffffffff1673ffffffffffffffffffffffffffffffffffffffff168152602001600582015481526020016006820160009054906101000a900473ffffffffffffffffffffffffffffffffffffffff1673ffffffffffffffffffffffffffffffffffffffff1673ffffffffffffffffffffffffffffffffffffffff168152602001600782015481526020016008820160009054906101000a900460ff161515151581525050905060006108938260a001516110f5565b90506108e38186868080601f016020809104026020016040519081016040528093929190818152602001838380828437600081840152601f19601f82011690508083019250505050505050611125565b816000015173ffffffffffffffffffffffffffffffffffffffff163373ffffffffffffffffffffffffffffffffffffffff1614610955576040517f08c379a000000000000000000000000000000000000000000000000000000000815260040161094c90611dd7565b60405180910390fd5b61095e866111c6565b816000015173ffffffffffffffffffffffffffffffffffffffff166108fc8360e001519081150290604051600060405180830381858888f193505050501580156109ac573d6000803e3d6000fd5b50600073ffffffffffffffffffffffffffffffffffffffff168260c0015173ffffffffffffffffffffffffffffffffffffffff1603610a3957816000015173ffffffffffffffffffffffffffffffffffffffff166108fc8360e001519081150290604051600060405180830381858888f19350505050158015610a33573d6000803e3d6000fd5b50610b09565b60008260c0015173ffffffffffffffffffffffffffffffffffffffff1663a9059cbb84600001518560e001516040518363ffffffff1660e01b8152600401610a82929190611df7565b6020604051808303816000875af1158015610aa1573d6000803e3d6000fd5b505050506040513d601f19601f82011682018060405250810190610ac59190611ccc565b905080610b07576040517f08c379a0000000000000000000000000000000000000000000000000000000008152600401610afe90611d45565b60405180910390fd5b505b6001925050509392505050565b60008073ffffffffffffffffffffffffffffffffffffffff166001600084815260200190815260200160002060040160009054906101000a900473ffffffffffffffffffffffffffffffffffffffff1673ffffffffffffffffffffffffffffffffffffffff1614159050919050565b60005481565b60008060016000868152602001908152602001600020604051806101200160405290816000820160009054906101000a900473ffffffffffffffffffffffffffffffffffffffff1673ffffffffffffffffffffffffffffffffffffffff1673ffffffffffffffffffffffffffffffffffffffff1681526020016001820154815260200160028201548152602001600382015481526020016004820160009054906101000a900473ffffffffffffffffffffffffffffffffffffffff1673ffffffffffffffffffffffffffffffffffffffff1673ffffffffffffffffffffffffffffffffffffffff168152602001600582015481526020016006820160009054906101000a900473ffffffffffffffffffffffffffffffffffffffff1673ffffffffffffffffffffffffffffffffffffffff1673ffffffffffffffffffffffffffffffffffffffff168152602001600782015481526020016008820160009054906101000a900460ff16151515158152505090506000610d0d8260a001516110f5565b9050610d5d8186868080601f016020809104026020016040519081016040528093929190818152602001838380828437600081840152601f19601f82011690508083019250505050505050611125565b6001925050509392505050565b60008073ffffffffffffffffffffffffffffffffffffffff168273ffffffffffffffffffffffffffffffffffffffff1614159050919050565b60008073ffffffffffffffffffffffffffffffffffffffff168973ffffffffffffffffffffffffffffffffffffffff1603610e13576040517f08c379a0000000000000000000000000000000000000000000000000000000008152600401610e0a90611e92565b60405180910390fd5b6000549050610e2181610b16565b15610e61576040517f08c379a0000000000000000000000000000000000000000000000000000000008152600401610e5890611efe565b60405180910390fd5b60006040518061012001604052808773ffffffffffffffffffffffffffffffffffffffff1681526020018681526020018581526020018481526020018b73ffffffffffffffffffffffffffffffffffffffff1681526020018a81526020018973ffffffffffffffffffffffffffffffffffffffff168152602001888152602001600015158152509050610ef381611288565b806001600084815260200190815260200160002060008201518160000160006101000a81548173ffffffffffffffffffffffffffffffffffffffff021916908373ffffffffffffffffffffffffffffffffffffffff16021790555060208201518160010155604082015181600201556060820151816003015560808201518160040160006101000a81548173ffffffffffffffffffffffffffffffffffffffff021916908373ffffffffffffffffffffffffffffffffffffffff16021790555060a0820151816005015560c08201518160060160006101000a81548173ffffffffffffffffffffffffffffffffffffffff021916908373ffffffffffffffffffffffffffffffffffffffff16021790555060e082015181600701556101008201518160080160006101000a81548160ff02191690831515021790555090505060016000808282546110449190611f4d565b925050819055508973ffffffffffffffffffffffffffffffffffffffff16827fa54ceef2bc7a2f3056774e409e3e0030176e5db647397f2d94f57f6e7d05ce3b8b8b8b8a8a8a60405161109c96959493929190611f81565b60405180910390a38573ffffffffffffffffffffffffffffffffffffffff16827f3cd0cb8e18f3484f6b1dbeb6689d99826a4a894879341d803dd4775980e8682160405160405180910390a35098975050505050505050565b600081604051602001611108919061205a565b604051602081830303815290604052805190602001209050919050565b600061113183836112da565b90507f000000000000000000000000000000000000000000000000000000000000000073ffffffffffffffffffffffffffffffffffffffff168173ffffffffffffffffffffffffffffffffffffffff16146111c1576040517f08c379a00000000000000000000000000000000000000000000000000000000081526004016111b8906120cc565b60405180910390fd5b505050565b6111cf81610b16565b61120e576040517f08c379a0000000000000000000000000000000000000000000000000000000008152600401611205906119bb565b60405180910390fd5b61121781610606565b15611257576040517f08c379a000000000000000000000000000000000000000000000000000000000815260040161124e9061215e565b60405180910390fd5b600180600083815260200190815260200160002060080160006101000a81548160ff02191690831515021790555050565b67ffffffff00000000816060015111156112d7576040517f08c379a00000000000000000000000000000000000000000000000000000000081526004016112ce906121f0565b60405180910390fd5b50565b60008060006112e98585611301565b915091506112f681611352565b819250505092915050565b60008060418351036113425760008060006020860151925060408601519150606086015160001a9050611336878285856114b8565b9450945050505061134b565b60006002915091505b9250929050565b6000600481111561136657611365612210565b5b81600481111561137957611378612210565b5b03156114b5576001600481111561139357611392612210565b5b8160048111156113a6576113a5612210565b5b036113e6576040517f08c379a00000000000000000000000000000000000000000000000000000000081526004016113dd9061228b565b60405180910390fd5b600260048111156113fa576113f9612210565b5b81600481111561140d5761140c612210565b5b0361144d576040517f08c379a0000000000000000000000000000000000000000000000000000000008152600401611444906122f7565b60405180910390fd5b6003600481111561146157611460612210565b5b81600481111561147457611473612210565b5b036114b4576040517f08c379a00000000000000000000000000000000000000000000000000000000081526004016114ab90612389565b60405180910390fd5b5b50565b6000807f7fffffffffffffffffffffffffffffff5d576e7357a4501ddfe92f46681b20a08360001c11156114f3576000600391509150611591565b60006001878787876040516000815260200160405260405161151894939291906123c5565b6020604051602081039080840390855afa15801561153a573d6000803e3d6000fd5b505050602060405103519050600073ffffffffffffffffffffffffffffffffffffffff168173ffffffffffffffffffffffffffffffffffffffff160361158857600060019250925050611591565b80600092509250505b94509492505050565b600080fd5b600080fd5b6000819050919050565b6115b7816115a4565b81146115c257600080fd5b50565b6000813590506115d4816115ae565b92915050565b600073ffffffffffffffffffffffffffffffffffffffff82169050919050565b6000611605826115da565b9050919050565b611615816115fa565b811461162057600080fd5b50565b6000813590506116328161160c565b92915050565b6000806040838503121561164f5761164e61159a565b5b600061165d858286016115c5565b925050602061166e85828601611623565b9150509250929050565b6000819050919050565b61168b81611678565b811461169657600080fd5b50565b6000813590506116a881611682565b92915050565b60008060008060008060c087890312156116cb576116ca61159a565b5b60006116d989828a01611699565b96505060206116ea89828a01611623565b95505060406116fb89828a016115c5565b945050606061170c89828a01611623565b935050608061171d89828a016115c5565b92505060a061172e89828a016115c5565b9150509295509295509295565b611744816115a4565b82525050565b600060208201905061175f600083018461173b565b92915050565b60006020828403121561177b5761177a61159a565b5b6000611789848285016115c5565b91505092915050565b60008115159050919050565b6117a781611792565b82525050565b60006020820190506117c2600083018461179e565b92915050565b6117d1816115fa565b82525050565b6117e081611678565b82525050565b6000610120820190506117fc600083018c6117c8565b611809602083018b6117d7565b611816604083018a61173b565b611823606083018961173b565b61183060808301886117c8565b61183d60a08301876117d7565b61184a60c08301866117c8565b61185760e083018561173b565b61186561010083018461179e565b9a9950505050505050505050565b600080fd5b600080fd5b600080fd5b60008083601f84011261189857611897611873565b5b8235905067ffffffffffffffff8111156118b5576118b4611878565b5b6020830191508360018202830111156118d1576118d061187d565b5b9250929050565b6000806000604084860312156118f1576118f061159a565b5b60006118ff868287016115c5565b935050602084013567ffffffffffffffff8111156119205761191f61159f565b5b61192c86828701611882565b92509250509250925092565b600082825260208201905092915050565b7f54686973206f6666657220494420686173206e6f74206265656e20726567697360008201527f74657265642e0000000000000000000000000000000000000000000000000000602082015250565b60006119a5602683611938565b91506119b082611949565b604082019050919050565b600060208201905081810360008301526119d481611998565b9050919050565b7f4f66666572732063616e2062652075706461746564206279206974732074616b60008201527f65722e0000000000000000000000000000000000000000000000000000000000602082015250565b6000611a37602383611938565b9150611a42826119db565b604082019050919050565b60006020820190508181036000830152611a6681611a2a565b9050919050565b7f606e65774d616b6572602073686f756c64206e6f74206265207a65726f2e0000600082015250565b6000611aa3601e83611938565b9150611aae82611a6d565b602082019050919050565b60006020820190508181036000830152611ad281611a96565b9050919050565b7f606d616b657260206d757374206e6f74206265207a65726f2e00000000000000600082015250565b6000611b0f601983611938565b9150611b1a82611ad9565b602082019050919050565b60006020820190508181036000830152611b3e81611b02565b9050919050565b7f74616b6572416d6f756e74206d757374206265207468652073616d652061732060008201527f6d73672e76616c75650000000000000000000000000000000000000000000000602082015250565b6000611ba1602983611938565b9150611bac82611b45565b604082019050919050565b60006020820190508181036000830152611bd081611b94565b9050919050565b7f7472616e736d697373696f6e206d6574686f64206f74686572207468616e204560008201527f5448206973207370656369666965640000000000000000000000000000000000602082015250565b6000611c33602f83611938565b9150611c3e82611bd7565b604082019050919050565b60006020820190508181036000830152611c6281611c26565b9050919050565b6000606082019050611c7e60008301866117c8565b611c8b60208301856117c8565b611c98604083018461173b565b949350505050565b611ca981611792565b8114611cb457600080fd5b50565b600081519050611cc681611ca0565b92915050565b600060208284031215611ce257611ce161159a565b5b6000611cf084828501611cb7565b91505092915050565b7f6661696c20746f207472616e7366657220455243323020746f6b656e00000000600082015250565b6000611d2f601c83611938565b9150611d3a82611cf9565b602082019050919050565b60006020820190508181036000830152611d5e81611d22565b9050919050565b7f4f6e6c7920746865206d616b65722063616e20756e6c6f636b2074686973206f60008201527f666665722e000000000000000000000000000000000000000000000000000000602082015250565b6000611dc1602583611938565b9150611dcc82611d65565b604082019050919050565b60006020820190508181036000830152611df081611db4565b9050919050565b6000604082019050611e0c60008301856117c8565b611e19602083018461173b565b9392505050565b7f5468652074616b6572206d757374206e6f74206265207a65726f20616464726560008201527f73732e0000000000000000000000000000000000000000000000000000000000602082015250565b6000611e7c602383611938565b9150611e8782611e20565b604082019050919050565b60006020820190508181036000830152611eab81611e6f565b9050919050565b7f4f6666657220494420616c726561647920726567697374657265642e00000000600082015250565b6000611ee8601c83611938565b9150611ef382611eb2565b602082019050919050565b60006020820190508181036000830152611f1781611edb565b9050919050565b7f4e487b7100000000000000000000000000000000000000000000000000000000600052601160045260246000fd5b6000611f58826115a4565b9150611f63836115a4565b9250828201905080821115611f7b57611f7a611f1e565b5b92915050565b600060c082019050611f9660008301896117d7565b611fa360208301886117c8565b611fb0604083018761173b565b611fbd60608301866117d7565b611fca608083018561173b565b611fd760a083018461173b565b979650505050505050565b600081905092915050565b7f19457468657265756d205369676e6564204d6573736167653a0a333200000000600082015250565b6000612023601c83611fe2565b915061202e82611fed565b601c82019050919050565b6000819050919050565b61205461204f82611678565b612039565b82525050565b600061206582612016565b91506120718284612043565b60208201915081905092915050565b7f4661696c20746f20766572696679207369676e61747572652e00000000000000600082015250565b60006120b6601983611938565b91506120c182612080565b602082019050919050565b600060208201905081810360008301526120e5816120a9565b9050919050565b7f54686973206f6666657220494420697320616c7265616479206163746976617460008201527f65642e0000000000000000000000000000000000000000000000000000000000602082015250565b6000612148602383611938565b9150612153826120ec565b604082019050919050565b600060208201905081810360008301526121778161213b565b9050919050565b7f496e76616c6964206f6666657220616d6f756e743a2065786365656473206d6160008201527f78696d756d2072656d697474616e636520616d6f756e742e0000000000000000602082015250565b60006121da603883611938565b91506121e58261217e565b604082019050919050565b60006020820190508181036000830152612209816121cd565b9050919050565b7f4e487b7100000000000000000000000000000000000000000000000000000000600052602160045260246000fd5b7f45434453413a20696e76616c6964207369676e61747572650000000000000000600082015250565b6000612275601883611938565b91506122808261223f565b602082019050919050565b600060208201905081810360008301526122a481612268565b9050919050565b7f45434453413a20696e76616c6964207369676e6174757265206c656e67746800600082015250565b60006122e1601f83611938565b91506122ec826122ab565b602082019050919050565b60006020820190508181036000830152612310816122d4565b9050919050565b7f45434453413a20696e76616c6964207369676e6174757265202773272076616c60008201527f7565000000000000000000000000000000000000000000000000000000000000602082015250565b6000612373602283611938565b915061237e82612317565b604082019050919050565b600060208201905081810360008301526123a281612366565b9050919050565b600060ff82169050919050565b6123bf816123a9565b82525050565b60006080820190506123da60008301876117d7565b6123e760208301866123b6565b6123f460408301856117d7565b61240160608301846117d7565b9594505050505056fea2646970667358221220f782ceb2ec910367b4afab9f684d52eb8410fb4a10d33e87213f8ace1e5918d664736f6c63430008110033",
  "linkReferences": {},
  "deployedLinkReferences": {}
}