{
  "_format": "hh-sol-artifact-1",
  "contractName": "OfferManagerTest",
  "sourceName": "contracts/OfferManager.test.sol",
  "abi": [
    {
      "anonymous": false,
      "inputs": [
        {
          "indexed": true,
          "internalType": "uint256",
          "name": "offerId",
          "type": "uint256"
        },
        {
          "indexed": true,
          "internalType": "bytes32",
          "name": "takerIntmaxAddress",
          "type": "bytes32"
        }
      ],
      "name": "OfferActivated",
      "type": "event"
    },
    {
      "anonymous": false,
      "inputs": [
        {
          "indexed": true,
          "internalType": "uint256",
          "name": "offerId",
          "type": "uint256"
        }
      ],
      "name": "OfferDeactivated",
      "type": "event"
    },
    {
      "anonymous": false,
      "inputs": [
        {
          "indexed": true,
          "internalType": "uint256",
          "name": "offerId",
          "type": "uint256"
        },
        {
          "indexed": true,
          "internalType": "address",
          "name": "maker",
          "type": "address"
        },
        {
          "indexed": false,
          "internalType": "bytes32",
          "name": "makerIntmaxAddress",
          "type": "bytes32"
        },
        {
          "indexed": false,
          "internalType": "uint256",
          "name": "makerAssetId",
          "type": "uint256"
        },
        {
          "indexed": false,
          "internalType": "uint256",
          "name": "makerAmount",
          "type": "uint256"
        },
        {
          "indexed": false,
          "internalType": "address",
          "name": "taker",
          "type": "address"
        },
        {
          "indexed": false,
          "internalType": "address",
          "name": "takerTokenAddress",
          "type": "address"
        },
        {
          "indexed": false,
          "internalType": "uint256",
          "name": "takerAmount",
          "type": "uint256"
        }
      ],
      "name": "OfferRegistered",
      "type": "event"
    },
    {
      "anonymous": false,
      "inputs": [
        {
          "indexed": true,
          "internalType": "uint256",
          "name": "offerId",
          "type": "uint256"
        },
        {
          "indexed": true,
          "internalType": "bytes32",
          "name": "takerIntmaxAddress",
          "type": "bytes32"
        }
      ],
      "name": "OfferTakerUpdated",
      "type": "event"
    },
    {
      "inputs": [
        {
          "internalType": "uint256",
          "name": "offerId",
          "type": "uint256"
        }
      ],
      "name": "activate",
      "outputs": [
        {
          "internalType": "bool",
          "name": "",
          "type": "bool"
        }
      ],
      "stateMutability": "payable",
      "type": "function"
    },
    {
      "inputs": [
        {
          "internalType": "uint256",
          "name": "offerId",
          "type": "uint256"
        }
      ],
      "name": "deactivate",
      "outputs": [
        {
          "internalType": "bool",
          "name": "",
          "type": "bool"
        }
      ],
      "stateMutability": "nonpayable",
      "type": "function"
    },
    {
      "inputs": [
        {
          "internalType": "uint256",
          "name": "offerId",
          "type": "uint256"
        }
      ],
      "name": "getOffer",
      "outputs": [
        {
          "internalType": "address",
          "name": "maker",
          "type": "address"
        },
        {
          "internalType": "bytes32",
          "name": "makerIntmaxAddress",
          "type": "bytes32"
        },
        {
          "internalType": "uint256",
          "name": "makerAssetId",
          "type": "uint256"
        },
        {
          "internalType": "uint256",
          "name": "makerAmount",
          "type": "uint256"
        },
        {
          "internalType": "address",
          "name": "taker",
          "type": "address"
        },
        {
          "internalType": "bytes32",
          "name": "takerIntmaxAddress",
          "type": "bytes32"
        },
        {
          "internalType": "address",
          "name": "takerTokenAddress",
          "type": "address"
        },
        {
          "internalType": "uint256",
          "name": "takerAmount",
          "type": "uint256"
        },
        {
          "internalType": "bool",
          "name": "activated",
          "type": "bool"
        }
      ],
      "stateMutability": "view",
      "type": "function"
    },
    {
      "inputs": [
        {
          "internalType": "uint256",
          "name": "offerId",
          "type": "uint256"
        }
      ],
      "name": "isActivated",
      "outputs": [
        {
          "internalType": "bool",
          "name": "",
          "type": "bool"
        }
      ],
      "stateMutability": "view",
      "type": "function"
    },
    {
      "inputs": [
        {
          "internalType": "uint256",
          "name": "offerId",
          "type": "uint256"
        }
      ],
      "name": "isRegistered",
      "outputs": [
        {
          "internalType": "bool",
          "name": "",
          "type": "bool"
        }
      ],
      "stateMutability": "view",
      "type": "function"
    },
    {
      "inputs": [],
      "name": "nextOfferId",
      "outputs": [
        {
          "internalType": "uint256",
          "name": "",
          "type": "uint256"
        }
      ],
      "stateMutability": "view",
      "type": "function"
    },
    {
      "inputs": [
        {
          "internalType": "bytes32",
          "name": "makerIntmaxAddress",
          "type": "bytes32"
        },
        {
          "internalType": "uint256",
          "name": "makerAssetId",
          "type": "uint256"
        },
        {
          "internalType": "uint256",
          "name": "makerAmount",
          "type": "uint256"
        },
        {
          "internalType": "address",
          "name": "taker",
          "type": "address"
        },
        {
          "internalType": "bytes32",
          "name": "takerIntmaxAddress",
          "type": "bytes32"
        },
        {
          "internalType": "address",
          "name": "takerTokenAddress",
          "type": "address"
        },
        {
          "internalType": "uint256",
          "name": "takerAmount",
          "type": "uint256"
        }
      ],
      "name": "register",
      "outputs": [
        {
          "internalType": "uint256",
          "name": "offerId",
          "type": "uint256"
        }
      ],
      "stateMutability": "nonpayable",
      "type": "function"
    },
    {
      "inputs": [
        {
          "internalType": "uint256",
          "name": "offerId",
          "type": "uint256"
        }
      ],
      "name": "testActivate",
      "outputs": [
        {
          "internalType": "bool",
          "name": "",
          "type": "bool"
        }
      ],
      "stateMutability": "nonpayable",
      "type": "function"
    },
    {
      "inputs": [
        {
          "internalType": "bytes32",
          "name": "makerIntmaxAddress",
          "type": "bytes32"
        },
        {
          "internalType": "uint256",
          "name": "makerAssetId",
          "type": "uint256"
        },
        {
          "internalType": "uint256",
          "name": "makerAmount",
          "type": "uint256"
        },
        {
          "internalType": "address",
          "name": "taker",
          "type": "address"
        },
        {
          "internalType": "bytes32",
          "name": "takerIntmaxAddress",
          "type": "bytes32"
        },
        {
          "internalType": "address",
          "name": "takerTokenAddress",
          "type": "address"
        },
        {
          "internalType": "uint256",
          "name": "takerAmount",
          "type": "uint256"
        }
      ],
      "name": "testRegister",
      "outputs": [
        {
          "internalType": "uint256",
          "name": "flagId",
          "type": "uint256"
        }
      ],
      "stateMutability": "nonpayable",
      "type": "function"
    },
    {
      "inputs": [
        {
          "internalType": "uint256",
          "name": "offerId",
          "type": "uint256"
        },
        {
          "internalType": "bytes32",
          "name": "newTakerIntmaxAddress",
          "type": "bytes32"
        }
      ],
      "name": "updateTaker",
      "outputs": [],
      "stateMutability": "nonpayable",
      "type": "function"
    }
  ],
  "bytecode": "0x60806040526000805534801561001457600080fd5b50611cff806100246000396000f3fe6080604052600436106100915760003560e01c80635f5d0655116100595780635f5d0655146101bb578063916b9bef146101e6578063b260c42a14610223578063b75c3c0114610253578063cfea677d1461029057610091565b80632e3628e31461009657806331809dcf146100d357806337805585146101105780634579268a14610139578063579a69881461017e575b600080fd5b3480156100a257600080fd5b506100bd60048036038101906100b891906111c4565b6102cd565b6040516100ca9190611275565b60405180910390f35b3480156100df57600080fd5b506100fa60048036038101906100f59190611290565b6102ec565b60405161010791906112d8565b60405180910390f35b34801561011c57600080fd5b50610137600480360381019061013291906112f3565b610319565b005b34801561014557600080fd5b50610160600480360381019061015b9190611290565b61049a565b60405161017599989796959493929190611351565b60405180910390f35b34801561018a57600080fd5b506101a560048036038101906101a09190611290565b610578565b6040516101b291906112d8565b60405180910390f35b3480156101c757600080fd5b506101d06105e7565b6040516101dd9190611275565b60405180910390f35b3480156101f257600080fd5b5061020d60048036038101906102089190611290565b6105ed565b60405161021a91906112d8565b60405180910390f35b61023d60048036038101906102389190611290565b6106a5565b60405161024a91906112d8565b60405180910390f35b34801561025f57600080fd5b5061027a600480360381019061027591906111c4565b610aee565b6040516102879190611275565b60405180910390f35b34801561029c57600080fd5b506102b760048036038101906102b29190611290565b610bf8565b6040516102c491906112d8565b60405180910390f35b60006102df3389898989898989610c0c565b9050979650505050505050565b60006001600083815260200190815260200160002060080160009054906101000a900460ff169050919050565b61032282610578565b610361576040517f08c379a000000000000000000000000000000000000000000000000000000000815260040161035890611461565b60405180910390fd5b6001600083815260200190815260200160002060000160009054906101000a900473ffffffffffffffffffffffffffffffffffffffff1673ffffffffffffffffffffffffffffffffffffffff163373ffffffffffffffffffffffffffffffffffffffff1614610405576040517f08c379a00000000000000000000000000000000000000000000000000000000081526004016103fc906114f3565b60405180910390fd5b61040e81610f48565b61044d576040517f08c379a000000000000000000000000000000000000000000000000000000000815260040161044490611585565b60405180910390fd5b80600160008481526020019081526020016000206005018190555080827f78f1204b0d8f130e8e8cdf9c2380aa132af9ea05233199057b67ca9ca952940160405160405180910390a35050565b600080600080600080600080600080600160008c815260200190815260200160002090508060000160009054906101000a900473ffffffffffffffffffffffffffffffffffffffff1699508060010154985080600201549750806003015496508060040160009054906101000a900473ffffffffffffffffffffffffffffffffffffffff169550806005015494508060060160009054906101000a900473ffffffffffffffffffffffffffffffffffffffff169350806007015492508060080160009054906101000a900460ff169150509193959799909294969850565b60008073ffffffffffffffffffffffffffffffffffffffff166001600084815260200190815260200160002060000160009054906101000a900473ffffffffffffffffffffffffffffffffffffffff1673ffffffffffffffffffffffffffffffffffffffff1614159050919050565b60005481565b60006001600083815260200190815260200160002060000160009054906101000a900473ffffffffffffffffffffffffffffffffffffffff1673ffffffffffffffffffffffffffffffffffffffff163373ffffffffffffffffffffffffffffffffffffffff1614610693576040517f08c379a000000000000000000000000000000000000000000000000000000000815260040161068a90611617565b60405180910390fd5b61069c82610f58565b60019050919050565b6000806001600084815260200190815260200160002060040160009054906101000a900473ffffffffffffffffffffffffffffffffffffffff169050600073ffffffffffffffffffffffffffffffffffffffff168173ffffffffffffffffffffffffffffffffffffffff1614610784578073ffffffffffffffffffffffffffffffffffffffff163373ffffffffffffffffffffffffffffffffffffffff1614610783576040517f08c379a000000000000000000000000000000000000000000000000000000000815260040161077a906116a9565b60405180910390fd5b5b600060016000858152602001908152602001600020604051806101200160405290816000820160009054906101000a900473ffffffffffffffffffffffffffffffffffffffff1673ffffffffffffffffffffffffffffffffffffffff1673ffffffffffffffffffffffffffffffffffffffff1681526020016001820154815260200160028201548152602001600382015481526020016004820160009054906101000a900473ffffffffffffffffffffffffffffffffffffffff1673ffffffffffffffffffffffffffffffffffffffff1673ffffffffffffffffffffffffffffffffffffffff168152602001600582015481526020016006820160009054906101000a900473ffffffffffffffffffffffffffffffffffffffff1673ffffffffffffffffffffffffffffffffffffffff1673ffffffffffffffffffffffffffffffffffffffff168152602001600782015481526020016008820160009054906101000a900460ff16151515158152505090508060e0015134101561093d576040517f08c379a00000000000000000000000000000000000000000000000000000000081526004016109349061173b565b60405180910390fd5b61094684610f91565b600073ffffffffffffffffffffffffffffffffffffffff168160c0015173ffffffffffffffffffffffffffffffffffffffff16036109ce57806000015173ffffffffffffffffffffffffffffffffffffffff166108fc349081150290604051600060405180830381858888f193505050501580156109c8573d6000803e3d6000fd5b50610ae3565b60003414610a11576040517f08c379a0000000000000000000000000000000000000000000000000000000008152600401610a08906117cd565b60405180910390fd5b60008160c0015173ffffffffffffffffffffffffffffffffffffffff166323b872dd3384600001518560e001516040518463ffffffff1660e01b8152600401610a5c939291906117ed565b6020604051808303816000875af1158015610a7b573d6000803e3d6000fd5b505050506040513d601f19601f82011682018060405250810190610a9f9190611850565b905080610ae1576040517f08c379a0000000000000000000000000000000000000000000000000000000008152600401610ad8906118c9565b60405180910390fd5b505b600192505050919050565b60008073ffffffffffffffffffffffffffffffffffffffff168373ffffffffffffffffffffffffffffffffffffffff1614610bdb5760008373ffffffffffffffffffffffffffffffffffffffff166318160ddd6040518163ffffffff1660e01b8152600401602060405180830381865afa158015610b70573d6000803e3d6000fd5b505050506040513d601f19601f82011682018060405250810190610b9491906118fe565b905060008103610bd9576040517f08c379a0000000000000000000000000000000000000000000000000000000008152600401610bd09061199d565b60405180910390fd5b505b610beb3389898989898989610c0c565b9050979650505050505050565b6000610c0382610f91565b60019050919050565b60008073ffffffffffffffffffffffffffffffffffffffff168973ffffffffffffffffffffffffffffffffffffffff1603610c7c576040517f08c379a0000000000000000000000000000000000000000000000000000000008152600401610c7390611a2f565b60405180910390fd5b6000549050610c8a81610578565b15610cca576040517f08c379a0000000000000000000000000000000000000000000000000000000008152600401610cc190611ac1565b60405180910390fd5b60006040518061012001604052808b73ffffffffffffffffffffffffffffffffffffffff1681526020018a81526020018981526020018881526020018773ffffffffffffffffffffffffffffffffffffffff1681526020018681526020018573ffffffffffffffffffffffffffffffffffffffff168152602001848152602001600015158152509050610d5c81610fe1565b806001600084815260200190815260200160002060008201518160000160006101000a81548173ffffffffffffffffffffffffffffffffffffffff021916908373ffffffffffffffffffffffffffffffffffffffff16021790555060208201518160010155604082015181600201556060820151816003015560808201518160040160006101000a81548173ffffffffffffffffffffffffffffffffffffffff021916908373ffffffffffffffffffffffffffffffffffffffff16021790555060a0820151816005015560c08201518160060160006101000a81548173ffffffffffffffffffffffffffffffffffffffff021916908373ffffffffffffffffffffffffffffffffffffffff16021790555060e082015181600701556101008201518160080160006101000a81548160ff0219169083151502179055509050506001600080828254610ead9190611b10565b925050819055508973ffffffffffffffffffffffffffffffffffffffff16827f97e91b5b77af37d6c0e8b82837d7263b92cf6ce511d8129330589df1e11394978b8b8b8b8a8a604051610f0596959493929190611b44565b60405180910390a384827f78f1204b0d8f130e8e8cdf9c2380aa132af9ea05233199057b67ca9ca952940160405160405180910390a35098975050505050505050565b60008060001b8214159050919050565b610f6181611033565b807ff1b44e492f69c0888dede3ae9e5f0d48199df4e7735ccc87be8c98aa12f8113060405160405180910390a250565b610f9a81611033565b6001600082815260200190815260200160002060050154817fd24204a0846309eb47a4c7152aa297a8bbde01aedbf11b47790f2abd9da76c3160405160405180910390a350565b67ffffffff0000000081606001511115611030576040517f08c379a000000000000000000000000000000000000000000000000000000000815260040161102790611c17565b60405180910390fd5b50565b61103c81610578565b61107b576040517f08c379a000000000000000000000000000000000000000000000000000000000815260040161107290611461565b60405180910390fd5b611084816102ec565b156110c4576040517f08c379a00000000000000000000000000000000000000000000000000000000081526004016110bb90611ca9565b60405180910390fd5b600180600083815260200190815260200160002060080160006101000a81548160ff02191690831515021790555050565b600080fd5b6000819050919050565b61110d816110fa565b811461111857600080fd5b50565b60008135905061112a81611104565b92915050565b6000819050919050565b61114381611130565b811461114e57600080fd5b50565b6000813590506111608161113a565b92915050565b600073ffffffffffffffffffffffffffffffffffffffff82169050919050565b600061119182611166565b9050919050565b6111a181611186565b81146111ac57600080fd5b50565b6000813590506111be81611198565b92915050565b600080600080600080600060e0888a0312156111e3576111e26110f5565b5b60006111f18a828b0161111b565b97505060206112028a828b01611151565b96505060406112138a828b01611151565b95505060606112248a828b016111af565b94505060806112358a828b0161111b565b93505060a06112468a828b016111af565b92505060c06112578a828b01611151565b91505092959891949750929550565b61126f81611130565b82525050565b600060208201905061128a6000830184611266565b92915050565b6000602082840312156112a6576112a56110f5565b5b60006112b484828501611151565b91505092915050565b60008115159050919050565b6112d2816112bd565b82525050565b60006020820190506112ed60008301846112c9565b92915050565b6000806040838503121561130a576113096110f5565b5b600061131885828601611151565b92505060206113298582860161111b565b9150509250929050565b61133c81611186565b82525050565b61134b816110fa565b82525050565b600061012082019050611367600083018c611333565b611374602083018b611342565b611381604083018a611266565b61138e6060830189611266565b61139b6080830188611333565b6113a860a0830187611342565b6113b560c0830186611333565b6113c260e0830185611266565b6113d06101008301846112c9565b9a9950505050505050505050565b600082825260208201905092915050565b7f54686973206f6666657220494420686173206e6f74206265656e20726567697360008201527f74657265642e0000000000000000000000000000000000000000000000000000602082015250565b600061144b6026836113de565b9150611456826113ef565b604082019050919050565b6000602082019050818103600083015261147a8161143e565b9050919050565b7f6f66666572732063616e206265207570646174656420627920697473206d616b60008201527f6572000000000000000000000000000000000000000000000000000000000000602082015250565b60006114dd6022836113de565b91506114e882611481565b604082019050919050565b6000602082019050818103600083015261150c816114d0565b9050919050565b7f606e657754616b6572496e746d617841646472657373602073686f756c64206e60008201527f6f74206265207a65726f00000000000000000000000000000000000000000000602082015250565b600061156f602a836113de565b915061157a82611513565b604082019050919050565b6000602082019050818103600083015261159e81611562565b9050919050565b7f6f6e6c7920746865206d616b6572206f6620616e206f666665722063616e206460008201527f6561637469766174652069740000000000000000000000000000000000000000602082015250565b6000611601602c836113de565b915061160c826115a5565b604082019050919050565b60006020820190508181036000830152611630816115f4565b9050919050565b7f6f66666572732063616e2062652061637469766174656420627920697473207460008201527f616b657200000000000000000000000000000000000000000000000000000000602082015250565b60006116936024836113de565b915061169e82611637565b604082019050919050565b600060208201905081810360008301526116c281611686565b9050919050565b7f706c656173652073656e6420656e6f756768206d6f6e657920746f206163746960008201527f7661746500000000000000000000000000000000000000000000000000000000602082015250565b60006117256024836113de565b9150611730826116c9565b604082019050919050565b6000602082019050818103600083015261175481611718565b9050919050565b7f7472616e736d697373696f6e206d6574686f64206f74686572207468616e204560008201527f5448206973207370656369666965640000000000000000000000000000000000602082015250565b60006117b7602f836113de565b91506117c28261175b565b604082019050919050565b600060208201905081810360008301526117e6816117aa565b9050919050565b60006060820190506118026000830186611333565b61180f6020830185611333565b61181c6040830184611266565b949350505050565b61182d816112bd565b811461183857600080fd5b50565b60008151905061184a81611824565b92915050565b600060208284031215611866576118656110f5565b5b60006118748482850161183b565b91505092915050565b7f6661696c20746f207472616e7366657220455243323020746f6b656e00000000600082015250565b60006118b3601c836113de565b91506118be8261187d565b602082019050919050565b600060208201905081810360008301526118e2816118a6565b9050919050565b6000815190506118f88161113a565b92915050565b600060208284031215611914576119136110f5565b5b6000611922848285016118e9565b91505092915050565b7f74686520746f74616c20737570706c79206f66204552433230206d757374206e60008201527f6f74206265207a65726f00000000000000000000000000000000000000000000602082015250565b6000611987602a836113de565b91506119928261192b565b604082019050919050565b600060208201905081810360008301526119b68161197a565b9050919050565b7f546865206d616b6572206d757374206e6f74206265207a65726f20616464726560008201527f73732e0000000000000000000000000000000000000000000000000000000000602082015250565b6000611a196023836113de565b9150611a24826119bd565b604082019050919050565b60006020820190508181036000830152611a4881611a0c565b9050919050565b7f54686973206f6666657220494420697320616c7265616479207265676973746560008201527f7265642e00000000000000000000000000000000000000000000000000000000602082015250565b6000611aab6024836113de565b9150611ab682611a4f565b604082019050919050565b60006020820190508181036000830152611ada81611a9e565b9050919050565b7f4e487b7100000000000000000000000000000000000000000000000000000000600052601160045260246000fd5b6000611b1b82611130565b9150611b2683611130565b9250828201905080821115611b3e57611b3d611ae1565b5b92915050565b600060c082019050611b596000830189611342565b611b666020830188611266565b611b736040830187611266565b611b806060830186611333565b611b8d6080830185611333565b611b9a60a0830184611266565b979650505050505050565b7f496e76616c6964206f6666657220616d6f756e743a2065786365656473206d6160008201527f78696d756d2072656d697474616e636520616d6f756e742e0000000000000000602082015250565b6000611c016038836113de565b9150611c0c82611ba5565b604082019050919050565b60006020820190508181036000830152611c3081611bf4565b9050919050565b7f54686973206f6666657220494420697320616c7265616479206163746976617460008201527f65642e0000000000000000000000000000000000000000000000000000000000602082015250565b6000611c936023836113de565b9150611c9e82611c37565b604082019050919050565b60006020820190508181036000830152611cc281611c86565b905091905056fea2646970667358221220fd91b8c9c3b6ef19f9ac737d4f0592b256ece9ad4b868d0b644c41ee9fa158b164736f6c63430008110033",
  "linkReferences": {},
  "deployedLinkReferences": {}
}