{
  "_format": "hh-sol-artifact-1",
  "contractName": "OfferManagerTest",
  "sourceName": "contracts/OfferManager.test.sol",
  "abi": [
    {
      "inputs": [],
      "stateMutability": "nonpayable",
      "type": "constructor"
    },
    {
      "anonymous": false,
      "inputs": [
        {
          "indexed": false,
          "internalType": "uint8",
          "name": "version",
          "type": "uint8"
        }
      ],
      "name": "Initialized",
      "type": "event"
    },
    {
      "anonymous": false,
      "inputs": [
        {
          "indexed": true,
          "internalType": "uint256",
          "name": "offerId",
          "type": "uint256"
        },
        {
          "indexed": true,
          "internalType": "bytes32",
          "name": "takerIntmaxAddress",
          "type": "bytes32"
        }
      ],
      "name": "OfferActivated",
      "type": "event"
    },
    {
      "anonymous": false,
      "inputs": [
        {
          "indexed": true,
          "internalType": "uint256",
          "name": "offerId",
          "type": "uint256"
        }
      ],
      "name": "OfferDeactivated",
      "type": "event"
    },
    {
      "anonymous": false,
      "inputs": [
        {
          "indexed": true,
          "internalType": "uint256",
          "name": "offerId",
          "type": "uint256"
        },
        {
          "indexed": true,
          "internalType": "address",
          "name": "maker",
          "type": "address"
        },
        {
          "indexed": false,
          "internalType": "bytes32",
          "name": "makerIntmaxAddress",
          "type": "bytes32"
        },
        {
          "indexed": false,
          "internalType": "uint256",
          "name": "makerAssetId",
          "type": "uint256"
        },
        {
          "indexed": false,
          "internalType": "uint256",
          "name": "makerAmount",
          "type": "uint256"
        },
        {
          "indexed": false,
          "internalType": "address",
          "name": "taker",
          "type": "address"
        },
        {
          "indexed": false,
          "internalType": "address",
          "name": "takerTokenAddress",
          "type": "address"
        },
        {
          "indexed": false,
          "internalType": "uint256",
          "name": "takerAmount",
          "type": "uint256"
        }
      ],
      "name": "OfferRegistered",
      "type": "event"
    },
    {
      "anonymous": false,
      "inputs": [
        {
          "indexed": true,
          "internalType": "uint256",
          "name": "offerId",
          "type": "uint256"
        },
        {
          "indexed": true,
          "internalType": "bytes32",
          "name": "takerIntmaxAddress",
          "type": "bytes32"
        }
      ],
      "name": "OfferTakerUpdated",
      "type": "event"
    },
    {
      "inputs": [
        {
          "internalType": "uint256",
          "name": "offerId",
          "type": "uint256"
        }
      ],
      "name": "activate",
      "outputs": [
        {
          "internalType": "bool",
          "name": "",
          "type": "bool"
        }
      ],
      "stateMutability": "payable",
      "type": "function"
    },
    {
      "inputs": [
        {
          "internalType": "uint256",
          "name": "offerId",
          "type": "uint256"
        }
      ],
      "name": "deactivate",
      "outputs": [
        {
          "internalType": "bool",
          "name": "",
          "type": "bool"
        }
      ],
      "stateMutability": "nonpayable",
      "type": "function"
    },
    {
      "inputs": [
        {
          "internalType": "uint256",
          "name": "offerId",
          "type": "uint256"
        }
      ],
      "name": "getOffer",
      "outputs": [
        {
          "internalType": "address",
          "name": "maker",
          "type": "address"
        },
        {
          "internalType": "bytes32",
          "name": "makerIntmaxAddress",
          "type": "bytes32"
        },
        {
          "internalType": "uint256",
          "name": "makerAssetId",
          "type": "uint256"
        },
        {
          "internalType": "uint256",
          "name": "makerAmount",
          "type": "uint256"
        },
        {
          "internalType": "address",
          "name": "taker",
          "type": "address"
        },
        {
          "internalType": "bytes32",
          "name": "takerIntmaxAddress",
          "type": "bytes32"
        },
        {
          "internalType": "address",
          "name": "takerTokenAddress",
          "type": "address"
        },
        {
          "internalType": "uint256",
          "name": "takerAmount",
          "type": "uint256"
        },
        {
          "internalType": "bool",
          "name": "activated",
          "type": "bool"
        }
      ],
      "stateMutability": "view",
      "type": "function"
    },
    {
      "inputs": [],
      "name": "initialize",
      "outputs": [],
      "stateMutability": "nonpayable",
      "type": "function"
    },
    {
      "inputs": [
        {
          "internalType": "uint256",
          "name": "offerId",
          "type": "uint256"
        }
      ],
      "name": "isActivated",
      "outputs": [
        {
          "internalType": "bool",
          "name": "",
          "type": "bool"
        }
      ],
      "stateMutability": "view",
      "type": "function"
    },
    {
      "inputs": [
        {
          "internalType": "uint256",
          "name": "offerId",
          "type": "uint256"
        }
      ],
      "name": "isRegistered",
      "outputs": [
        {
          "internalType": "bool",
          "name": "",
          "type": "bool"
        }
      ],
      "stateMutability": "view",
      "type": "function"
    },
    {
      "inputs": [],
      "name": "nextOfferId",
      "outputs": [
        {
          "internalType": "uint256",
          "name": "offerId",
          "type": "uint256"
        }
      ],
      "stateMutability": "view",
      "type": "function"
    },
    {
      "inputs": [
        {
          "internalType": "bytes32",
          "name": "makerIntmaxAddress",
          "type": "bytes32"
        },
        {
          "internalType": "uint256",
          "name": "makerAssetId",
          "type": "uint256"
        },
        {
          "internalType": "uint256",
          "name": "makerAmount",
          "type": "uint256"
        },
        {
          "internalType": "address",
          "name": "taker",
          "type": "address"
        },
        {
          "internalType": "bytes32",
          "name": "takerIntmaxAddress",
          "type": "bytes32"
        },
        {
          "internalType": "address",
          "name": "takerTokenAddress",
          "type": "address"
        },
        {
          "internalType": "uint256",
          "name": "takerAmount",
          "type": "uint256"
        }
      ],
      "name": "register",
      "outputs": [
        {
          "internalType": "uint256",
          "name": "offerId",
          "type": "uint256"
        }
      ],
      "stateMutability": "nonpayable",
      "type": "function"
    },
    {
      "inputs": [
        {
          "internalType": "uint256",
          "name": "offerId",
          "type": "uint256"
        }
      ],
      "name": "testActivate",
      "outputs": [
        {
          "internalType": "bool",
          "name": "",
          "type": "bool"
        }
      ],
      "stateMutability": "nonpayable",
      "type": "function"
    },
    {
      "inputs": [
        {
          "internalType": "bytes32",
          "name": "makerIntmaxAddress",
          "type": "bytes32"
        },
        {
          "internalType": "uint256",
          "name": "makerAssetId",
          "type": "uint256"
        },
        {
          "internalType": "uint256",
          "name": "makerAmount",
          "type": "uint256"
        },
        {
          "internalType": "address",
          "name": "taker",
          "type": "address"
        },
        {
          "internalType": "bytes32",
          "name": "takerIntmaxAddress",
          "type": "bytes32"
        },
        {
          "internalType": "address",
          "name": "takerTokenAddress",
          "type": "address"
        },
        {
          "internalType": "uint256",
          "name": "takerAmount",
          "type": "uint256"
        }
      ],
      "name": "testRegister",
      "outputs": [
        {
          "internalType": "uint256",
          "name": "flagId",
          "type": "uint256"
        }
      ],
      "stateMutability": "nonpayable",
      "type": "function"
    },
    {
      "inputs": [
        {
          "internalType": "uint256",
          "name": "offerId",
          "type": "uint256"
        },
        {
          "internalType": "bytes32",
          "name": "newTakerIntmaxAddress",
          "type": "bytes32"
        }
      ],
      "name": "updateTaker",
      "outputs": [],
      "stateMutability": "nonpayable",
      "type": "function"
    }
  ],
  "bytecode": "0x60806040523480156200001157600080fd5b50620000226200002860201b60201c565b620003bb565b6000600260019054906101000a900460ff161590508080156200005d57506001600260009054906101000a900460ff1660ff16105b806200009b57506200007a306200018c60201b62000da81760201c565b1580156200009a57506001600260009054906101000a900460ff1660ff16145b5b620000dd576040517f08c379a0000000000000000000000000000000000000000000000000000000008152600401620000d4906200028a565b60405180910390fd5b6001600260006101000a81548160ff021916908360ff16021790555080156200011c576001600260016101000a81548160ff0219169083151502179055505b6200012c620001af60201b60201c565b801562000189576000600260016101000a81548160ff0219169083151502179055507f7f26b83ff96e1f2b6a682f133852f6798a09c465da95921460cefb3847402498600160405162000180919062000306565b60405180910390a15b50565b6000808273ffffffffffffffffffffffffffffffffffffffff163b119050919050565b600260019054906101000a900460ff1662000201576040517f08c379a0000000000000000000000000000000000000000000000000000000008152600401620001f89062000399565b60405180910390fd5b565b600082825260208201905092915050565b7f496e697469616c697a61626c653a20636f6e747261637420697320616c72656160008201527f647920696e697469616c697a6564000000000000000000000000000000000000602082015250565b600062000272602e8362000203565b91506200027f8262000214565b604082019050919050565b60006020820190508181036000830152620002a58162000263565b9050919050565b6000819050919050565b600060ff82169050919050565b6000819050919050565b6000620002ee620002e8620002e284620002ac565b620002c3565b620002b6565b9050919050565b6200030081620002cd565b82525050565b60006020820190506200031d6000830184620002f5565b92915050565b7f496e697469616c697a61626c653a20636f6e7472616374206973206e6f74206960008201527f6e697469616c697a696e67000000000000000000000000000000000000000000602082015250565b600062000381602b8362000203565b91506200038e8262000323565b604082019050919050565b60006020820190508181036000830152620003b48162000372565b9050919050565b61206180620003cb6000396000f3fe60806040526004361061009c5760003560e01c80635f5d0655116100645780635f5d0655146101c65780638129fc1c146101f1578063916b9bef14610208578063b260c42a14610245578063b75c3c0114610275578063cfea677d146102b25761009c565b80632e3628e3146100a157806331809dcf146100de578063378055851461011b5780634579268a14610144578063579a698814610189575b600080fd5b3480156100ad57600080fd5b506100c860048036038101906100c391906113f8565b6102ef565b6040516100d591906114a9565b60405180910390f35b3480156100ea57600080fd5b50610105600480360381019061010091906114c4565b610315565b604051610112919061150c565b60405180910390f35b34801561012757600080fd5b50610142600480360381019061013d9190611527565b610342565b005b34801561015057600080fd5b5061016b600480360381019061016691906114c4565b6104ca565b60405161018099989796959493929190611585565b60405180910390f35b34801561019557600080fd5b506101b060048036038101906101ab91906114c4565b6105a8565b6040516101bd919061150c565b60405180910390f35b3480156101d257600080fd5b506101db610617565b6040516101e891906114a9565b60405180910390f35b3480156101fd57600080fd5b50610206610628565b005b34801561021457600080fd5b5061022f600480360381019061022a91906114c4565b61076d565b60405161023c919061150c565b60405180910390f35b61025f600480360381019061025a91906114c4565b61082c565b60405161026c919061150c565b60405180910390f35b34801561028157600080fd5b5061029c600480360381019061029791906113f8565b610c83565b6040516102a991906114a9565b60405180910390f35b3480156102be57600080fd5b506102d960048036038101906102d491906114c4565b610d94565b6040516102e6919061150c565b60405180910390f35b60006103086102fc610dcb565b89898989898989610dd3565b9050979650505050505050565b60006001600083815260200190815260200160002060080160009054906101000a900460ff169050919050565b61034b826105a8565b61038a576040517f08c379a000000000000000000000000000000000000000000000000000000000815260040161038190611695565b60405180910390fd5b6001600083815260200190815260200160002060000160009054906101000a900473ffffffffffffffffffffffffffffffffffffffff1673ffffffffffffffffffffffffffffffffffffffff166103df610dcb565b73ffffffffffffffffffffffffffffffffffffffff1614610435576040517f08c379a000000000000000000000000000000000000000000000000000000000815260040161042c90611727565b60405180910390fd5b61043e81611107565b61047d576040517f08c379a0000000000000000000000000000000000000000000000000000000008152600401610474906117b9565b60405180910390fd5b80600160008481526020019081526020016000206005018190555080827f78f1204b0d8f130e8e8cdf9c2380aa132af9ea05233199057b67ca9ca952940160405160405180910390a35050565b600080600080600080600080600080600160008c815260200190815260200160002090508060000160009054906101000a900473ffffffffffffffffffffffffffffffffffffffff1699508060010154985080600201549750806003015496508060040160009054906101000a900473ffffffffffffffffffffffffffffffffffffffff169550806005015494508060060160009054906101000a900473ffffffffffffffffffffffffffffffffffffffff169350806007015492508060080160009054906101000a900460ff169150509193959799909294969850565b60008073ffffffffffffffffffffffffffffffffffffffff166001600084815260200190815260200160002060000160009054906101000a900473ffffffffffffffffffffffffffffffffffffffff1673ffffffffffffffffffffffffffffffffffffffff1614159050919050565b60006106236000611117565b905090565b6000600260019054906101000a900460ff1615905080801561065c57506001600260009054906101000a900460ff1660ff16105b8061068b575061066b30610da8565b15801561068a57506001600260009054906101000a900460ff1660ff16145b5b6106ca576040517f08c379a00000000000000000000000000000000000000000000000000000000081526004016106c19061184b565b60405180910390fd5b6001600260006101000a81548160ff021916908360ff1602179055508015610708576001600260016101000a81548160ff0219169083151502179055505b610710611125565b801561076a576000600260016101000a81548160ff0219169083151502179055507f7f26b83ff96e1f2b6a682f133852f6798a09c465da95921460cefb3847402498600160405161076191906118bd565b60405180910390a15b50565b60006001600083815260200190815260200160002060000160009054906101000a900473ffffffffffffffffffffffffffffffffffffffff1673ffffffffffffffffffffffffffffffffffffffff166107c4610dcb565b73ffffffffffffffffffffffffffffffffffffffff161461081a576040517f08c379a00000000000000000000000000000000000000000000000000000000081526004016108119061194a565b60405180910390fd5b61082382611176565b60019050919050565b6000806001600084815260200190815260200160002060040160009054906101000a900473ffffffffffffffffffffffffffffffffffffffff169050600073ffffffffffffffffffffffffffffffffffffffff168173ffffffffffffffffffffffffffffffffffffffff1614610912578073ffffffffffffffffffffffffffffffffffffffff166108bb610dcb565b73ffffffffffffffffffffffffffffffffffffffff1614610911576040517f08c379a0000000000000000000000000000000000000000000000000000000008152600401610908906119dc565b60405180910390fd5b5b600060016000858152602001908152602001600020604051806101200160405290816000820160009054906101000a900473ffffffffffffffffffffffffffffffffffffffff1673ffffffffffffffffffffffffffffffffffffffff1673ffffffffffffffffffffffffffffffffffffffff1681526020016001820154815260200160028201548152602001600382015481526020016004820160009054906101000a900473ffffffffffffffffffffffffffffffffffffffff1673ffffffffffffffffffffffffffffffffffffffff1673ffffffffffffffffffffffffffffffffffffffff168152602001600582015481526020016006820160009054906101000a900473ffffffffffffffffffffffffffffffffffffffff1673ffffffffffffffffffffffffffffffffffffffff1673ffffffffffffffffffffffffffffffffffffffff168152602001600782015481526020016008820160009054906101000a900460ff16151515158152505090508060e00151341015610acb576040517f08c379a0000000000000000000000000000000000000000000000000000000008152600401610ac290611a6e565b60405180910390fd5b610ad4846111af565b600073ffffffffffffffffffffffffffffffffffffffff168160c0015173ffffffffffffffffffffffffffffffffffffffff1603610b5c57806000015173ffffffffffffffffffffffffffffffffffffffff166108fc349081150290604051600060405180830381858888f19350505050158015610b56573d6000803e3d6000fd5b50610c78565b60003414610b9f576040517f08c379a0000000000000000000000000000000000000000000000000000000008152600401610b9690611b00565b60405180910390fd5b60008160c0015173ffffffffffffffffffffffffffffffffffffffff166323b872dd610bc9610dcb565b84600001518560e001516040518463ffffffff1660e01b8152600401610bf193929190611b20565b6020604051808303816000875af1158015610c10573d6000803e3d6000fd5b505050506040513d601f19601f82011682018060405250810190610c349190611b83565b905080610c76576040517f08c379a0000000000000000000000000000000000000000000000000000000008152600401610c6d90611bfc565b60405180910390fd5b505b600192505050919050565b60008073ffffffffffffffffffffffffffffffffffffffff168373ffffffffffffffffffffffffffffffffffffffff1614610d705760008373ffffffffffffffffffffffffffffffffffffffff166318160ddd6040518163ffffffff1660e01b8152600401602060405180830381865afa158015610d05573d6000803e3d6000fd5b505050506040513d601f19601f82011682018060405250810190610d299190611c31565b905060008103610d6e576040517f08c379a0000000000000000000000000000000000000000000000000000000008152600401610d6590611cd0565b60405180910390fd5b505b610d87610d7b610dcb565b89898989898989610dd3565b9050979650505050505050565b6000610d9f826111af565b60019050919050565b6000808273ffffffffffffffffffffffffffffffffffffffff163b119050919050565b600033905090565b60008073ffffffffffffffffffffffffffffffffffffffff168973ffffffffffffffffffffffffffffffffffffffff1603610e43576040517f08c379a0000000000000000000000000000000000000000000000000000000008152600401610e3a90611d62565b60405180910390fd5b610e4d6000611117565b9050610e58816105a8565b15610e98576040517f08c379a0000000000000000000000000000000000000000000000000000000008152600401610e8f90611df4565b60405180910390fd5b60006040518061012001604052808b73ffffffffffffffffffffffffffffffffffffffff1681526020018a81526020018981526020018881526020018773ffffffffffffffffffffffffffffffffffffffff1681526020018681526020018573ffffffffffffffffffffffffffffffffffffffff168152602001848152602001600015158152509050610f2a816111ff565b806001600084815260200190815260200160002060008201518160000160006101000a81548173ffffffffffffffffffffffffffffffffffffffff021916908373ffffffffffffffffffffffffffffffffffffffff16021790555060208201518160010155604082015181600201556060820151816003015560808201518160040160006101000a81548173ffffffffffffffffffffffffffffffffffffffff021916908373ffffffffffffffffffffffffffffffffffffffff16021790555060a0820151816005015560c08201518160060160006101000a81548173ffffffffffffffffffffffffffffffffffffffff021916908373ffffffffffffffffffffffffffffffffffffffff16021790555060e082015181600701556101008201518160080160006101000a81548160ff0219169083151502179055509050506110736000611251565b8973ffffffffffffffffffffffffffffffffffffffff16827f97e91b5b77af37d6c0e8b82837d7263b92cf6ce511d8129330589df1e11394978b8b8b8b8a8a6040516110c496959493929190611e14565b60405180910390a384827f78f1204b0d8f130e8e8cdf9c2380aa132af9ea05233199057b67ca9ca952940160405160405180910390a35098975050505050505050565b60008060001b8214159050919050565b600081600001549050919050565b600260019054906101000a900460ff16611174576040517f08c379a000000000000000000000000000000000000000000000000000000000815260040161116b90611ee7565b60405180910390fd5b565b61117f81611267565b807ff1b44e492f69c0888dede3ae9e5f0d48199df4e7735ccc87be8c98aa12f8113060405160405180910390a250565b6111b881611267565b6001600082815260200190815260200160002060050154817fd24204a0846309eb47a4c7152aa297a8bbde01aedbf11b47790f2abd9da76c3160405160405180910390a350565b67ffffffff000000008160600151111561124e576040517f08c379a000000000000000000000000000000000000000000000000000000000815260040161124590611f79565b60405180910390fd5b50565b6001816000016000828254019250508190555050565b611270816105a8565b6112af576040517f08c379a00000000000000000000000000000000000000000000000000000000081526004016112a690611695565b60405180910390fd5b6112b881610315565b156112f8576040517f08c379a00000000000000000000000000000000000000000000000000000000081526004016112ef9061200b565b60405180910390fd5b600180600083815260200190815260200160002060080160006101000a81548160ff02191690831515021790555050565b600080fd5b6000819050919050565b6113418161132e565b811461134c57600080fd5b50565b60008135905061135e81611338565b92915050565b6000819050919050565b61137781611364565b811461138257600080fd5b50565b6000813590506113948161136e565b92915050565b600073ffffffffffffffffffffffffffffffffffffffff82169050919050565b60006113c58261139a565b9050919050565b6113d5816113ba565b81146113e057600080fd5b50565b6000813590506113f2816113cc565b92915050565b600080600080600080600060e0888a03121561141757611416611329565b5b60006114258a828b0161134f565b97505060206114368a828b01611385565b96505060406114478a828b01611385565b95505060606114588a828b016113e3565b94505060806114698a828b0161134f565b93505060a061147a8a828b016113e3565b92505060c061148b8a828b01611385565b91505092959891949750929550565b6114a381611364565b82525050565b60006020820190506114be600083018461149a565b92915050565b6000602082840312156114da576114d9611329565b5b60006114e884828501611385565b91505092915050565b60008115159050919050565b611506816114f1565b82525050565b600060208201905061152160008301846114fd565b92915050565b6000806040838503121561153e5761153d611329565b5b600061154c85828601611385565b925050602061155d8582860161134f565b9150509250929050565b611570816113ba565b82525050565b61157f8161132e565b82525050565b60006101208201905061159b600083018c611567565b6115a8602083018b611576565b6115b5604083018a61149a565b6115c2606083018961149a565b6115cf6080830188611567565b6115dc60a0830187611576565b6115e960c0830186611567565b6115f660e083018561149a565b6116046101008301846114fd565b9a9950505050505050505050565b600082825260208201905092915050565b7f54686973206f6666657220494420686173206e6f74206265656e20726567697360008201527f74657265642e0000000000000000000000000000000000000000000000000000602082015250565b600061167f602683611612565b915061168a82611623565b604082019050919050565b600060208201905081810360008301526116ae81611672565b9050919050565b7f6f66666572732063616e206265207570646174656420627920697473206d616b60008201527f6572000000000000000000000000000000000000000000000000000000000000602082015250565b6000611711602283611612565b915061171c826116b5565b604082019050919050565b6000602082019050818103600083015261174081611704565b9050919050565b7f606e657754616b6572496e746d617841646472657373602073686f756c64206e60008201527f6f74206265207a65726f00000000000000000000000000000000000000000000602082015250565b60006117a3602a83611612565b91506117ae82611747565b604082019050919050565b600060208201905081810360008301526117d281611796565b9050919050565b7f496e697469616c697a61626c653a20636f6e747261637420697320616c72656160008201527f647920696e697469616c697a6564000000000000000000000000000000000000602082015250565b6000611835602e83611612565b9150611840826117d9565b604082019050919050565b6000602082019050818103600083015261186481611828565b9050919050565b6000819050919050565b600060ff82169050919050565b6000819050919050565b60006118a76118a261189d8461186b565b611882565b611875565b9050919050565b6118b78161188c565b82525050565b60006020820190506118d260008301846118ae565b92915050565b7f6f6e6c7920746865206d616b6572206f6620616e206f666665722063616e206460008201527f6561637469766174652069740000000000000000000000000000000000000000602082015250565b6000611934602c83611612565b915061193f826118d8565b604082019050919050565b6000602082019050818103600083015261196381611927565b9050919050565b7f6f66666572732063616e2062652061637469766174656420627920697473207460008201527f616b657200000000000000000000000000000000000000000000000000000000602082015250565b60006119c6602483611612565b91506119d18261196a565b604082019050919050565b600060208201905081810360008301526119f5816119b9565b9050919050565b7f706c656173652073656e6420656e6f756768206d6f6e657920746f206163746960008201527f7661746500000000000000000000000000000000000000000000000000000000602082015250565b6000611a58602483611612565b9150611a63826119fc565b604082019050919050565b60006020820190508181036000830152611a8781611a4b565b9050919050565b7f7472616e736d697373696f6e206d6574686f64206f74686572207468616e204560008201527f5448206973207370656369666965640000000000000000000000000000000000602082015250565b6000611aea602f83611612565b9150611af582611a8e565b604082019050919050565b60006020820190508181036000830152611b1981611add565b9050919050565b6000606082019050611b356000830186611567565b611b426020830185611567565b611b4f604083018461149a565b949350505050565b611b60816114f1565b8114611b6b57600080fd5b50565b600081519050611b7d81611b57565b92915050565b600060208284031215611b9957611b98611329565b5b6000611ba784828501611b6e565b91505092915050565b7f6661696c20746f207472616e7366657220455243323020746f6b656e00000000600082015250565b6000611be6601c83611612565b9150611bf182611bb0565b602082019050919050565b60006020820190508181036000830152611c1581611bd9565b9050919050565b600081519050611c2b8161136e565b92915050565b600060208284031215611c4757611c46611329565b5b6000611c5584828501611c1c565b91505092915050565b7f74686520746f74616c20737570706c79206f66204552433230206d757374206e60008201527f6f74206265207a65726f00000000000000000000000000000000000000000000602082015250565b6000611cba602a83611612565b9150611cc582611c5e565b604082019050919050565b60006020820190508181036000830152611ce981611cad565b9050919050565b7f546865206d616b6572206d757374206e6f74206265207a65726f20616464726560008201527f73732e0000000000000000000000000000000000000000000000000000000000602082015250565b6000611d4c602383611612565b9150611d5782611cf0565b604082019050919050565b60006020820190508181036000830152611d7b81611d3f565b9050919050565b7f54686973206f6666657220494420697320616c7265616479207265676973746560008201527f7265642e00000000000000000000000000000000000000000000000000000000602082015250565b6000611dde602483611612565b9150611de982611d82565b604082019050919050565b60006020820190508181036000830152611e0d81611dd1565b9050919050565b600060c082019050611e296000830189611576565b611e36602083018861149a565b611e43604083018761149a565b611e506060830186611567565b611e5d6080830185611567565b611e6a60a083018461149a565b979650505050505050565b7f496e697469616c697a61626c653a20636f6e7472616374206973206e6f74206960008201527f6e697469616c697a696e67000000000000000000000000000000000000000000602082015250565b6000611ed1602b83611612565b9150611edc82611e75565b604082019050919050565b60006020820190508181036000830152611f0081611ec4565b9050919050565b7f496e76616c6964206f6666657220616d6f756e743a2065786365656473206d6160008201527f78696d756d2072656d697474616e636520616d6f756e742e0000000000000000602082015250565b6000611f63603883611612565b9150611f6e82611f07565b604082019050919050565b60006020820190508181036000830152611f9281611f56565b9050919050565b7f54686973206f6666657220494420697320616c7265616479206163746976617460008201527f65642e0000000000000000000000000000000000000000000000000000000000602082015250565b6000611ff5602383611612565b915061200082611f99565b604082019050919050565b6000602082019050818103600083015261202481611fe8565b905091905056fea26469706673582212203f06265838f3ffab51d6e788fe3d7e08b1b9db5d91254d51977c4953bbab85a464736f6c63430008110033",
  "linkReferences": {},
  "deployedLinkReferences": {}
}