{
  "_format": "hh-sol-artifact-1",
  "contractName": "GoldilocksPoseidonOpt",
  "sourceName": "contracts/utils/PoseidonOpt.sol",
  "abi": [
    {
      "inputs": [],
      "name": "HALF_N_FULL_ROUNDS",
      "outputs": [
        {
          "internalType": "uint256",
          "name": "",
          "type": "uint256"
        }
      ],
      "stateMutability": "view",
      "type": "function"
    },
    {
      "inputs": [
        {
          "internalType": "uint256[]",
          "name": "input",
          "type": "uint256[]"
        },
        {
          "internalType": "uint256",
          "name": "num_outputs",
          "type": "uint256"
        }
      ],
      "name": "hash_n_to_m_no_pad",
      "outputs": [
        {
          "internalType": "uint256[]",
          "name": "output",
          "type": "uint256[]"
        }
      ],
      "stateMutability": "view",
      "type": "function"
    },
    {
      "inputs": [
        {
          "internalType": "uint256[12]",
          "name": "state",
          "type": "uint256[12]"
        }
      ],
      "name": "permute",
      "outputs": [
        {
          "internalType": "uint256[12]",
          "name": "",
          "type": "uint256[12]"
        }
      ],
      "stateMutability": "view",
      "type": "function"
    }
  ],
  "bytecode": "0x61020060405260116080908152600f60a052602960c052601060e052600261010052601c61012052600d6101408190526101605260276101805260126101a05260226101c05260146101e0526200005b90600090600c62003d01565b5060405180610180016040528060088152602001600081526020016000815260200160008152602001600081526020016000815260200160008152602001600081526020016000815260200160008152602001600081526020016000815250600c90600c620000cc92919062003d01565b50604080516102c0810182526774cb2e819ae421ab815267d2559d2370e7f66360208201526762bf78acf843d17c9181019190915267d5ab7b67e14d1fb4606082015267b9fe2ae6e0969bdc608082015267e33fdf79f92a10e860a0820152670ea2bb4c2b25989b60c082015267ca9121fbf9d38f0660e082015267bdd9b0aa81f58fa46101008201526783079fa4ecf20d7e61012082015267650b838edfcc4ad36101408201526777180c88583c76ac61016082015267af8c20753143a18061018082015267b8ccfe9989a391756101a082015267954a1729f60cc9c56101c082015267deb5b550c4dca53b6101e082015267f01bb0b00f77011e61020082015267a1ebb404b676afd961022082015267860b6e1597a0173e61024082015267308bb65a036acbce610260820152671aca78f31c97c87661028082015260006102a08201526200022290601890601662003d44565b5060408051610420810182526794877900674181c36102c0820190815267c6c67cc37a2a2bbd6102e083015267d667c2055387940f610300830152670ba63a63e94b5ff06103208301526799460cc41b8f079f610340830152677ff02375ed524bb361036083015267ea0870b47a8caf0e61038083015267abcad82633b7bc9d6103a0830152673b8d1352610522416103c083015267fb4515f5e5b0d5396103e0830152673ee8011c2b37f77c610400830152815281516101608181018452670adef3740e71c726825267a37bf67c6f98655960208381019190915267c6b16f7ed4fa1b0083860152676a065da88d8bfc3c606080850191909152674cabc0916844b46f60808086019190915267407faac0f02e78d160a0808701919091526707a786d9cf0852cf60c0808801919091526742433fb6949a629a60e08089019190915267891682a147ce43b0610100808a01919091526726cfd58e7b003b55610120808b0191909152672bbf0ed7b657acb3610140808c0191909152888c019a909a528b51808a018d5267481ac7746b159c67815267e367de32f108e278818a01526773f260087ad28bec818e0152675cfc82216bc1bdca8189015267caccc870a2663a0e8188015267db69cd7b4298c45d81870152677bc9e0c57243e62d81860152673cc51c5d368693ae8185015267366b4e8cc068895b81840152672bd18715cdabbca48183015267a752061c4f33b8cf818c01528b8d01528b51808a018d5267b22d2432b72d50988152679e18a487f44d2fe4818a0152674b39e14ce22abd3c818e0152679e77fde2eb315e0d8189015267ca5e0385fe67014d81880152670c2cb99bf1b6bddb818701526799ec1cd2a4460bfe81860152678577a815a2ff843f81850152677d80a6b4fd6518a58184015267eb6c67123eab62cb81830152678f7851650eca21a5818c0152878c01528b51808a018d526711ba9a1b81718c2a8152679f7d798a3323410c818a015267a821855c8c1cf5e5818e015267535e8d6fac0031b28189015267404e7c751b6343208188015267a729353f6e55d35481870152674db97d92e58bb8318186015267b53926c27897bf7d8185015267965040d52fe115c581840152679565fa41ebd31fd78183015267aae4438c877ea8f4818c0152868c01528b51808a018d526737f4e36af6073c6e8152674edc0918210800e9818a015267c44998e99eae4188818e0152679f4310d05d06833881890152679ec7fe4350680f298188015267c5b2c1fdc0b508748187015267a01920c5ef8b2ebe818601526759fa6f8bd91d58ba81850152678bfc9eb89b515a828184015267be86a7a2555ae7758183015267cbb8bbaa3810babf818c0152858c01528b51808a018d5267577f9a9e7ee3f9c281526788c522b949ace7b1818a01526782f07007c8b72106818e0152678283d37c6675b50e818901526798b074d9bbac1123818801526775c56fb7758317c18187015267fed24e206052bc72818601526726d7c3d1bc07dae58185015267f88c5e441e28dbb481840152674fe27f9f966152708183015267514d4ba49c2b14fe818c0152848c01528b51808a018d5267f02a3ac068ee110b8152670a3630dafb8ae2d7818a015267ce0dc874eaf9b55c818e0152679a95f6cff5b55c7e8189015267626d76abfed00c7b8188015267a0c1cf1251c204ad8187015267daebd3006321052c81860152673d4bd48b625a806581850152677f1e584e071f6ed28184015267720574f0501caed38183015267e3260ba93d23540a818c0152838c01528b51808a018d5267ab1cbd41d8c1e3358152679322ed4c0bc2df01818a01526751c3c0983d4284e5818e01526794178e291145c2318189015267fd0f1a973d6b20858188015267d427ad96e2b3971981870152678a52437fecaac06b8186015267dc20ee4b8c4c9a808185015267a2c98e9549da210081840152671603fe12613db5b681830152670e174929433c5505818c0152828c01528b51808a018d52673d4eab2b8ef5f796815267cfff421583896e22818a0152674143cb32d39ac3d9818e01526722365051b78a5b6581890152676f7fd010d027c9b68188015267d9dd36fba77522ab8187015267a44cf1cb33e3716581860152673fc83d3038c864178185015267c4588d418e88d2708184015267ce1320f10ab80fe28183015267db5eadbbec18de5d818c0152818c01528b51808a018d52671183dfce7c454afd81526721cea4aa3d3ed949818a0152670fce6f70303f2304818e01526719557d34b55551be81890152674c56f689afc5bbc98188015267a1e920844334f9448187015267bad66d423d2ec8618186015267f318c785dc9e0479818501526799e2032e765ddd818184015267400ccc9906d66f458183015267e1197454db2e0dd9818c01528a8c01528b51808a018d526784d1ecc4d53d2ff1815267d8af8b9ceb4e11b6818a015267335856bb527b52f4818e015267c756f17fb59be5958189015267c0654e4ea5553a7881880152679e9a46b61f2ea942818701526714fc8b5b3b8091278186015267d7009f0f103be41381850152673e0ee7b7a9fb46018184015267a74e888922085ed78183015267e80a7cde3d4ac526818c0152898c01528b51808a018d5267238aa6daa612186d8152679137a5c630bad4b4818a015267c7db3817870c5eda818e015267217e4f04e5718dc98189015267cae814e2817bd99d8188015267e3292e7ab770a8ba81870152677bb36ef70b6b948281860152673c7835fb85bca2d38185015267fe2cdf8ee3c25e86818401526761b3915ad7274b208183015267eab75ca7c918e4ef818c01526101808c01528b51808a018d5267d6e15ffc055e154e815267ec67881f381a32bf818a015267fbb1196092bf409c818e015267dc9d2e07830ba22681890152670698ef3245ff79888188015267194fae2974f8b57681870152677a5d9bea6ca4910e81860152677aebfea95ccdd1c98185015267f9bd38a67d5f0e868184015267fa65539de65492d88183015267f0dfcbe7653ff787818c01526101a08c01528b51808a018d52670bd87ad3904202588152670ad8617bca9e33c8818a0152670c00ad377a1e2666818e0152670ac6fc58b3f0518f81890152670c0cc8a892cc417381880152670c210accb117bc2181870152670b73630dbb46ca1881860152670c8be4920cbd4a5481850152670bfe877a21be169081840152670ae790559b0ded8181830152670bf50db2f8d6ce31818c01526101c08c01528b51808a018d52660cf29427ff7c588152660bd9b3cf49eec8818a0152660d1dc8aa81fb26818e0152660bc792d5c394ef81890152660d2ae0b226645381880152660d413f12c496c181870152660c84128cfed61881860152660db5ebd48fc0d481850152660d1b77326dcb9081840152660beb0ccc14542181830152660d10e5b22b11d1818c01526101e08c01528b51808a018d52650e24c99adad88152650cf389ed4bc8818a0152650e580cbf6966818e0152650cde5fd7e04f81890152650e63628041b381880152650e7e81a8736181870152650dabe78f6d9881860152650efb14cac55481850152650e5574743b1081840152650d05709f42c181830152650e4690c96af1818c01526102008c01528b51808a018d52640f7157bc988152640e3006d948818a0152640fa65811e6818e0152640e0d127e2f81890152640fc18bfe5381880152640fd002d90181870152640eed6461d88186015264106856275481850152640fa0236f5081840152640e3af13ee181830152640fa460f6d1818c01526102208c01528b51808a018d5263111317388152630f56d588818a01526311050f86818e0152630f848f4f8189015263111527d38188015263114369a18187015263106f2f38818601526311e2ca948185015263110a29f081840152630fa9f5c1818301526310f625d1818c01526102408c01528b51808a018d526211f71881526210b6c8818a015262134a96818e01526210cf7f8189015262124d03818801526213f8a18187015262117c588186015262132c948185015262134fc0818401526210a0918183015262128961818c01526102608c01528b51808a018d526113008152611750818a015261114e818e015261131f8189015261167b81880152611371818701526112308186015261182c8185015261136881840152610f31818301526115c9818c01526102808c01528b519889018c526014895260229789019790975260129a88019a909a52602794870194909452600d92860183905290850191909152601c90840152600290830152601094820194909452602993810193909352600f908301526102a081019190915262000e8a90602e90601662003d80565b506040805161042081018252673d999c961b7c63b06102c0820190815267814e82efcd1725296102e0830152672421e5d23670458861030083015267887af7d4dd48232861032083015267a5e9c291f6119b2761034083015267bdc52b2676a4b4aa6103608301526764832009d29bcf576103808301526709c4155174a552cc6103a083015267463f9ee03d2908106103c083015267c810936e649825426103e083015267043b1c289f7bc3ac61040083015281528151610160818101845267673655aae8be5a8b825267d510fe714f39fa10602083810191909152672c68a099b51c9e738386015267a667bfa9aa96999d606080850191909152674d67e72f063e210860808086019190915267f84dde3e6acda17960a0808701919091526740f9cc8c08f8098160c080880191909152675ead03205009714260e080890191909152676591b02092d671bb610100808a019190915266e18c71963dd1b7610120808b0191909152678a21bcd24a14218a610140808c0191909152888c019a909a528b51808a018d5267202800f4addbdc87815267e4b5bdb1cc3504ff818a015267be32b32a825596e7818e0152678e0f68c5dc223b9a818901526758022d9e1c256ce38188015267584d29227aa073ac81870152678b9352ad04bef9e78186015267aead42a3f445ecbf81850152673c667a1d833a3cca8184015267da6f61838efa1ffe8183015267e8f749470bd7c446818c01528b8d01528b51808a018d5267c5b85bab9e5b386981526745245258aec51cf7818a01526716e6b8e68b931830818e015267e2ae0f051418112c81890152670470e26a0093a65b81880152676bef71973a8146ed8187015267119265be51812daf8186015267b0be7356254bea2e81850152678584defff7589bd781840152673c5fe4aeb1fb52ba81830152679e7cd88acf543a5e818c0152878c01528b51808a018d5267179be4bba87f0a8c815267acf63d95d8887355818a0152676696670196b0074f818e015267d99ddf1fe75085f98189015267c2597881fef0283b8188015267cf48395ee6c54f14818701526715226a8e4cd8d3b68186015267c053297389af5d3b81850152672c08893f0d1580e281840152670ed3cbcff6fcc5ba8183015267c82f510ecf81f6d0818c0152868c01528b51808a018d526794b06183acb715cc815267500392ed0d431137818a015267861cc95ad5c86323818e01526705830a443f86c4ac81890152673b68225874a20a7c818801526710b3309838e236fb81870152679b77fc8bcd559e2c8186015267bdecf5e0cb9cb213818501526730276f1221ace5fa81840152677935dd342764a1448183015267eac6db520bb03708818c0152858c01528b51808a018d52677186a80551025f8f815267622247557e9b5371818a015267c4cbe326d1ad9742818e01526755f1523ac6a23ea28189015267a13dfe77a3d52f538188015267e30750b6301c0452818701526708bd488070a3a32b8186015267cd800caef5b72ae3818501526783329c90f04233ce8184015267b5b99e6664a0a3ee81830152676b0731849e200a7f818c0152848c01528b51808a018d5267ec3fabc192b01799815267382b38cee8ee5375818a0152673bfb6c3f0e616572818e015267514abd0cf6c7bc86818901526747521b1361dcc5468188015267178093843f863d148187015267ad1003c5d28918e78186015267738450e42495bc818185015267af947c59af5e404781840152674653fb0685084ef28183015267057fde2062ae35bf818c0152838c01528b51808a018d5267e376678d843ce55e81526766f3860d7514e7fc818a0152677817f3dfff8b4ffa818e0152673929624a9def725b81890152670126ca37f215a80a8188015267fce2f5d02762a30381870152671bc927375febbad7818601526785b481e5243f60bf81850152672d3c5f42a39c91a081840152670811719919351ae88183015267f669de0add993131818c0152828c01528b51808a018d52677de38bae084da92d8152675b848442237e8a9b818a015267f6c705da84d57310818e01526731e6a4bdb6a490178189015267889489706e5c5c0f81880152670e4a205459692a1b8187015267bac3fa75ee26f29981860152675f5894f4057d755e8185015267b0dc3ecd724bb07681840152675e34d8554a6452ba818301526704f78fd8c1fdcc5f818c0152818c01528b51808a018d52674dd19c38779512ea815267db79ba02704620e9818a01526792a29a3675a5d2be818e015267d5177029fe4951668189015267d32b3298a13330c18188015267251c4a3eb2c5f8fd8187015267e1c48b26e0d9882581860152673301d3362a4ffccb818501526709bb6c88de8cd1788184015267dc05b676564f538a818301526760192d883e473fee818c01528a8c01528b51808a018d526716b9774801ac44a08152673cb8411e786d3c8e818a015267a86e9cf505072491818e0152670178928152e109ae81890152675317b905a6e1ab7b8188015267da20b3be7f53d59f8187015267cb97dedecebee9ad81860152674bd545218c59f58d818501526777dc8d856c05a44a818401526787948589e4f243fd81830152677e5217af969952c2818c0152898c01528b51808a018d5267bc58987d06a84e4d8152670b5d420244c9cae3818a015267a3c4711b938c02c0818e0152673aace640a3e039908189015267865a0f3249aacd8a81880152678d00b2a7dbed06c781870152676eacb905beb7e2f88186015267045322b216ec3ec78185015267eb9de00d594828e68184015267088c5f20df9e5c268183015267f555f4112b19781f818c01526101808c01528b51808a018d5267a8cedbff1813d3a781526750dcaee0fd27d164818a015267f1cb02417e23bd82818e015267faf322786e2abe8b8189015267937a4315beb5d9b681880152671b18992921a11d8581870152677d66c4368b3c497b81860152670e7946317a6b4e998185015267be4430134182978b81840152673771e82493ab262d8183015267a671690d8095ce82818c01526101a08c01528b51808a018d5267b035585f6e929d9d815267ba1579c7e219b954818a015267cb201cf846db4ba3818e015267287bf9177372cf458189015267a350e4f61147d0a68188015267d5d0ecfb50bcff9981870152672e166aa6c776ed218186015267e1e66c991990e2828185015267662b329b01e7bb3881840152678aa674b36144d9a98183015267cbabf78f97f95e65818c01526101c08c01528b51808a018d5267eec24b15a06b53fe815267c8a7aa07c5633533818a015267efe9c6fa4311ad51818e015267b9173f13977109a1818901526769ce43c9cc94aedc8188015267ecf623c9cd118815818701526728625def198c33c78186015267ccfc5f7de5c3636a8185015267f5e6c40f1621c2998184015267cec0e58c34cb64b18183015267a868ea113387939f818c01526101e08c01528b51808a018d5267d8dddbdc5ce4ef45815267acfc51de8131458c818a015267146bb3c0fe499ac0818e0152679e65309f15943903818901526780d0ad980773aa708188015267f97817d4ddbf06078187015267e4626620a75ba27681860152670dfdc7fd6fc74f668185015267f464864ad6f2bb93818401526702d55e52a5d444148183015267dd8de62487c40925818c01526102008c01528b51808a018d5267c15acf44759545a3815267cbfdcf39869719d4818a01526733f62042e2f80225818e0152672599c5ead81d8fa381890152670b306cb6c1d7c8d08188015267658c80d3df3729b18187015267e8d1b2b21b41429c8186015267a1b67f09d4b3ccb881850152670e1adf8b8443718081840152670d593a5e584af47b8183015267a023d94c56e151c7818c01526102208c01528b51808a018d526749026cc3a4afc5a6815267e06dff00ab25b91b818a0152670ab38c561e8850ff818e01526792c3c8275e105eeb8189015267b65256e546889bd081880152673c0468236ea142f68187015267ee61766b889e18f28186015267a206f41b12c30415818501526702fe9d756c9f12d18184015267e9633210630cbf1281830152671ffea9fe85a0b0b1818c01526102408c01528b51808a018d526781d1ae8cc50240f3815267f4c77a079a4607d7818a015267ed446b2315e3efc1818e0152670b0a6b70915178c38189015267b11ff3e089f15d9a81880152671d4dba0b7ae9cc18818701526765d74e2f43b48d058186015267a2df8c6b8ae0804a8185015267a4e6f0a8c33348a68184015267c0a26efc7be5669b8183015267a6b6582c547d0d60818c01526102608c01528b51808a018d526784afc741f1c132138152672f8f43734fc906f3818a015267de682d72da0a02d9818e0152670bb005236adb9ef281890152675bdf35c10a8b562481880152670739a8a343950010818701526752f515f44785cfbc8186015267cbaf4e5d82856c608185015267ac9ea09074e3e15081840152678f0fa011a2035fb081830152671a37905d8450904a818c01526102808c01528b519889018c52673abeb80def61cc858952679d19c9dd4eac41339789019790975267075a652d9641a9859a88019a909a52679daf69ae1b67e6679487019490945267364f71da77920a18928601929092526750bd769f745c95b19085015267f223d1180dbbf3fc90840152672f885e584e04aa999083015267b69a0fa70aea684a948201949094526709584acaa6e062a081850152670bc051640145b19b918101919091526102a082015262001c209190601662003d80565b506040518061016001604052806040518061016001604052806780772dc2645b280b6001600160401b0316815260200167dc927721da922cf86001600160401b0316815260200167c1978156516879ad6001600160401b031681526020016790e80c591f48b6036001600160401b03168152602001673a2432625475e3ae6001600160401b0316815260200166a2d4321cca94fe6001600160401b031681526020016777736f524010c9326001600160401b0316815260200167904d3f2804a36c546001600160401b0316815260200167bf9b39e28a16f3546001600160401b03168152602001673a1ded54a6cd058b6001600160401b031681526020016742392870da5737cf6001600160401b0316815250815260200160405180610160016040528067e796d293a47a64cb6001600160401b0316815260200167b124c33152a2421a6001600160401b03168152602001670ee5dc0ce131268a6001600160401b0316815260200167a9032a52f930fae66001600160401b03168152602001677e33ca8c814280de6001600160401b0316815260200167ad11180f69a8c29e6001600160401b0316815260200167c75ac6d5b5a10ff36001600160401b0316815260200167f0674a8dc5a387ec6001600160401b0316815260200167b36d43120eaa5e2b6001600160401b03168152602001676f232aab4b533a256001600160401b03168152602001673a1ded54a6cd058b6001600160401b0316815250815260200160405180610160016040528067dcedab70f40718ba6001600160401b031681526020016714a4a64da0b2668f6001600160401b03168152602001674715b8e5ab34653b6001600160401b03168152602001671e8916a99c93a88e6001600160401b0316815260200167bba4b5d86b9a3b2c6001600160401b0316815260200167e76649f9bd5d5c2e6001600160401b0316815260200167af8e2518a1ece54d6001600160401b0316815260200167dcda1344cdca873f6001600160401b0316815260200167cd080204256088e56001600160401b0316815260200167b36d43120eaa5e2b6001600160401b0316815260200167bf9b39e28a16f3546001600160401b0316815250815260200160405180610160016040528067f4a437f2888ae9096001600160401b0316815260200167c537d44dc28754036001600160401b03168152602001677f68007619fd8ba96001600160401b0316815260200167a4911db6a32612da6001600160401b03168152602001672f7e9aade3fdaec16001600160401b0316815260200167e7ffd578da4ea43d6001600160401b031681526020016743a608e7afa6b5c26001600160401b0316815260200167ca46546aa99e15756001600160401b0316815260200167dcda1344cdca873f6001600160401b0316815260200167f0674a8dc5a387ec6001600160401b0316815260200167904d3f2804a36c546001600160401b0316815250815260200160405180610160016040528067f97abba0dffb6c506001600160401b03168152602001675e40f0c9bb82aab56001600160401b03168152602001675996a80497e24a6b6001600160401b031681526020016707084430a7307c9a6001600160401b0316815260200167ad2f570a5b8545aa6001600160401b0316815260200167ab7f81fef42747706001600160401b0316815260200167cb81f535cf98c9e96001600160401b031681526020016743a608e7afa6b5c26001600160401b0316815260200167af8e2518a1ece54d6001600160401b0316815260200167c75ac6d5b5a10ff36001600160401b031681526020016777736f524010c9326001600160401b03168152508152602001604051806101600160405280677f8e41e0b0a6cdff6001600160401b03168152602001674b1ba8d40afca97d6001600160401b0316815260200167623708f28fca70e86001600160401b0316815260200167bf150dc4914d380f6001600160401b0316815260200167c26a0835547671066001600160401b0316815260200167753b8b1126665c226001600160401b0316815260200167ab7f81fef42747706001600160401b0316815260200167e7ffd578da4ea43d6001600160401b0316815260200167e76649f9bd5d5c2e6001600160401b0316815260200167ad11180f69a8c29e6001600160401b0316815260200166a2d4321cca94fe6001600160401b0316815250815260200160405180610160016040528067726af914971c13746001600160401b03168152602001671d7f8a2cce1a9d006001600160401b031681526020016718737784700c75cd6001600160401b03168152602001677fb45d605dd828386001600160401b0316815260200167862361aeab0f9b6e6001600160401b0316815260200167c26a0835547671066001600160401b0316815260200167ad2f570a5b8545aa6001600160401b03168152602001672f7e9aade3fdaec16001600160401b0316815260200167bba4b5d86b9a3b2c6001600160401b03168152602001677e33ca8c814280de6001600160401b03168152602001673a2432625475e3ae6001600160401b031681525081526020016040518061016001604052806764dd936da878404d6001600160401b03168152602001674db9a2ead2bd72626001600160401b0316815260200167be2e19f6d07f1a836001600160401b031681526020016702290fe23c20351a6001600160401b03168152602001677fb45d605dd828386001600160401b0316815260200167bf150dc4914d380f6001600160401b031681526020016707084430a7307c9a6001600160401b0316815260200167a4911db6a32612da6001600160401b03168152602001671e8916a99c93a88e6001600160401b0316815260200167a9032a52f930fae66001600160401b031681526020016790e80c591f48b6036001600160401b031681525081526020016040518061016001604052806785418a9fef8a98906001600160401b0316815260200167d8a2eb7ef5e707ad6001600160401b0316815260200167bfe85ababed2d8826001600160401b0316815260200167be2e19f6d07f1a836001600160401b031681526020016718737784700c75cd6001600160401b0316815260200167623708f28fca70e86001600160401b03168152602001675996a80497e24a6b6001600160401b03168152602001677f68007619fd8ba96001600160401b03168152602001674715b8e5ab34653b6001600160401b03168152602001670ee5dc0ce131268a6001600160401b0316815260200167c1978156516879ad6001600160401b0316815250815260200160405180610160016040528067156048ee7a7381546001600160401b031681526020016791f7562377e81df56001600160401b0316815260200167d8a2eb7ef5e707ad6001600160401b03168152602001674db9a2ead2bd72626001600160401b03168152602001671d7f8a2cce1a9d006001600160401b03168152602001674b1ba8d40afca97d6001600160401b03168152602001675e40f0c9bb82aab56001600160401b0316815260200167c537d44dc28754036001600160401b031681526020016714a4a64da0b2668f6001600160401b0316815260200167b124c33152a2421a6001600160401b0316815260200167dc927721da922cf86001600160401b0316815250815260200160405180610160016040528067d841e8ef9dde8ba06001600160401b0316815260200167156048ee7a7381546001600160401b031681526020016785418a9fef8a98906001600160401b031681526020016764dd936da878404d6001600160401b0316815260200167726af914971c13746001600160401b03168152602001677f8e41e0b0a6cdff6001600160401b0316815260200167f97abba0dffb6c506001600160401b0316815260200167f4a437f2888ae9096001600160401b0316815260200167dcedab70f40718ba6001600160401b0316815260200167e796d293a47a64cb6001600160401b031681526020016780772dc2645b280b6001600160401b031681525081525061021290600b620027c092919062003dce565b5060408051612d008101825267b585f766f21444058152677746a55f43921ad7602082015267b2fb0d31cee799b491810191909152670f6760a4803427d7606082015267e10d666650f4e0126080820152678cae14cb07d09bf160a082015267d438539c95f63e9f60c082015267ef781c7ce35b4c3d60e082015267cdc4a239b0c4442661010082015267277fa208bf337bff61012082015267e17653a29da578a161014082015267c54302f225db2c766101608201526786287821f722c8816101808201526759cd1a8a41c18e556101a082015267c3b919ad495dc5746101c082015267a484c4c5ef6a07816101e082015267308bbd23dc5416cc610200820152676e4a40c18f30c09c610220820152679a2eedb70d8f8cfa61024082015267e360c6e0ae486f3861026082015267d5c7718fbfc647fb61028082015267c35eae071903ff0b6102a082015267849c2656969c4be76102c082015267c0572c8c08cbbbad6102e082015267e9fa634a21de008261030082015267f56f6d48959a600d61032082015267f7d713e806391165610340820152678297132b32825daf61036082015267ad6805e0e30b2c8a61038082015267ac51d9f5fcf8535e6103a082015267502ad7dc18c2ad876103c08201526757a1550c110b30416103e08201526766bbd30e6ce0e583610400820152670da2abef589d644e61042082015267f061274fdb150d616104408201526728b8ec3ae9c296336104608201526792a756e67e2b94136104808201526770e741ebfee965866104a082015267019d5ee2af82ec1c6104c0820152676f6f2ed7724663526104e0820152677cf416cfe7e14ca16105008201526761df517b86a464396105208201526785dc499b11d77b75610540820152674b959b48b9c1073361056082015267e8be3e5da8043e5761058082015267f5c0bc1de6da86996105a08201526740b12cbf09ef74bf6105c082015267a637093ecb2ad6316105e0820152673cc3f892184df408610600820152672e479dc157bf31bb610620820152676f49de07a623434661064082015267213ce7bede378d7b610660820152675b0431345d4dea8361068082015267a2de45780344d6a16106a0820152677103aaf94a7bf3086106c0820152675326fc0d972793016106e082015267a9ceb74fec0247476107008201526727f8ec88bb21b1a361072082015267fceb4fda1ded089361074082015267fac6ff1346a41675610760820152677131aa45268d7d8c610780820152679351036095630f9f6107a082015267ad535b24afc26bfb6107c0820152674627f5c6993e44be6107e082015267645cf794b8f1cc5861080082015267241c70ed0af6161761082082015267acb8e076647905f1610840820152673737e9db4c4f474d61086082015267e7ea5e33e75fffb66108808201526790dee49fc9bfc23a6108a082015267d1b1edf76bc09c926108c0820152670b65481ba645c6026108e08201526799ad1aab0814283b61090082015267438a7c91d416ca4d61092082015267b60de3bcc5ea751c61094082015267c99cab6aef6f58bc6109608201526769a5ed92a72ee4ff610980820152675e7b329c1ed4ad716109a0820152675fc0ac08001448856109c08201526732db829239774eca6109e0820152670ade699c5830f310610a00820152677cc5583b10415f21610a208201526785df9ed2e166d64f610a40820152676604df4fee32bcb1610a6082015267eb84f608da56ef48610a8082015267da608834c40e603d610aa0820152678f97fe408061f183610ac082015267a93f485c96f37b89610ae0820152676704e8ee8f18d563610b0082015267cee3e9ac1e072119610b2082015267510d0e65e2b470c1610b4082015267f6323f486b9038f0610b60820152670b508cdeffa5ceef610b8082015267f2417089e4fb3cbd610ba08201526760e75c2890d15730610bc082015267a6217d8bf660f29c610be0820152677159cd30c3ac118e610c0082015267839b4e8fafead540610c20820152670d3f3e5e82920adc610c40820152678f7d83bddee7bba8610c6082015267780f2243ea071d06610c8082015267eb915845f3de1634610ca082015267d19e120d26b6f386610cc082015267016ee53a7e5fecc6610ce082015267cb5fd54e7933e477610d0082015267acb8417879fd449f610d20820152679c22190be7f74732610d40820152675d693c1ba3ba3621610d6082015267dcef0797c2b69ec7610d80820152673d639263da827b13610da082015267e273fd971bc8d0e7610dc082015267418f02702d227ed5610de0820152678c25fda3b503038c610e00820152672cbaed4daec8c07c610e20820152675f58e6afcdd6ddc2610e4082015267284650ac5e1b0eba610e6082015267635b337ee819dab5610e80820152679f9a036ed4f2d49f610ea082015267b93e260cae5c170e610ec082015267b0a7eae879ddb76d610ee082015267d0762cbc8ca6570c610f008201526734c6efb812b04bf5610f208201526740bf0ab5fa14c112610f4082015267b6b570fc7c5740d3610f60820152675a27b9002de33454610f8082015267b1a5b165b6d2b2d2610fa0820152678722e0ace9d1be22610fc082015267788ee3b37e5680fb610fe08201526714a726661551e2846110008201526798b7672f9ef3b41961102082015267bb93ae776bb30e3a6110408201526728fd3b046380f8506110608201526730a468059325838761108082015267337dc00c61bd9ce16110a082015267d5eca244c7a4ff1d6110c0820152677762638264d279bd6110e082015267c1e434bedeefd767611100820152670299351a53b8ec2261112082015267b2d456e4ad251b80611140820152673e9ed1fda49cea0b611160820152672972a92ba450bed86111808201526720216dd77be493de6111a082015267adffe8cf28449ec66111c0820152671c4dbb1c4c27d2436111e08201526715a16a8a8322d45861120082015267388a128b7fd9a609611220820152672300e5d6baedf0fb611240820152672f63aa8647e1510461126082015267f1c36ce86ecec2696112808201526727181125183970c96112a082015267e584029370dca96d6112c0820152674d9bbc3e02f1cfb26112e082015267ea35bc29692af6f86113008201526718e21b4beabb4137611320820152671e3b9fc625b554f46113408201526725d64362697828fd611360820152675a3f1bb1c53a964561138082015267db7f023869fb8d386113a082015267b462065911d4e1fc6113c08201526749c24ae4437d80306113e082015267d793862c112b056661140082015267aadd1106730d8feb61142082015267c43b6e0e97b0d56861144082015267e29024c18ee6fca2611460820152675e50c27535b88c666114808201526710383f20a4ff9a876114a08201526738e8ee9d71a45af86114c082015267dd5118375bf1a9b96114e082015267775005982d74d7f76115008201526786ab99b4dde6c8b061152082015267b1204f603f51c08061154082015267ef61ac8470250ecf611560820152671bbcd90f132c603f611580820152670cd1dabd964db5576115a08201526711a3ae5beb9d1ec96115c082015267f755bfeea585d11d6115e082015267a3b83250268ea4d761160082015267516306f4927c93af61162082015267ddb4ac49c9efa1da6116408201526764bb6dec369d441861166082015267f9cc95c22b4c1fcc6116808201526708d37f755f4ae9f66116a082015267eec49b613478675b6116c082015267f143933aed25e0b06116e082015267e4c5dd8255dfc62261170082015267e7ad7756f193198e6117208201526792c2318b87fff9cb61174082015267739c25f8fd73596d611760820152675636cac9f16dfed061178082015267dd8f909a938e01726117a082015267c6401fe115063f5b6117c0820152678ad97b33f1ac14556117e0820152670c49366bb25e8513611800820152670784d3d2f169830961182082015267530fb67ea1809a8161184082015267410492299bb01f4961186082015267139542347424b9ac611880820152679cb0bd5ea1a1115e6118a08201526702e3f615c38f49a16118c082015267985d4f4a9c5291ef6118e082015267775b9feafdcd26e761190082015267304265a6384f0f2d61192082015267593664c39773012c611940820152674f0a2e5fb028f2ce61196082015267dd611f1000c1744261198082015267d8185f9adfea4fd06119a082015267ef87139ca9a3ab1e6119c0820152673ba71336c34ee1336119e0820152677d3a455d56b70238611a0082015267660d32e130182684611a2082015267297a863f48cd1f43611a408201526790e0a736a751ebb7611a6082015267549f80ce550c4fd3611a80820152670f73b2922f38bd64611aa08201526716bf1f73fb7a9c3f611ac0820152676d1f5a59005bec17611ae08201526702ff876fa5ef97c4611b0082015267c5cb72a2a51159b0611b20820152678470f39d2d5c900e611b408201526725abb3f1d39fcb76611b608201526723eb8cc9b372442f611b8082015267d687ba55c64f6364611ba082015267da8d9e90fd8ff158611bc082015267e3cbdc7d2fe45ea7611be082015267b9a8c9b3aee52297611c0082015267c0d28a5c10960bd3611c208201526745d7ac9b68f71a34611c4082015267eeb76e397069e804611c60820152673d06c8bd1514e2d9611c80820152679c9c98207cb10767611ca08201526765700b51aedfb5ef611cc082015267911f451539869408611ce0820152677ae6849fbc3a0ec6611d00820152673bb340eba06afe7e611d2082015267b46e9d8b682ea65e611d40820152678dcf22f9a3b34356611d608201526777bdaeda586257a7611d8082015267f19e400a5104d20d611da082015267c368a348e46d950f611dc0820152679ef1cd60e679f284611de082015267e89cd854d5d01d33611e00820152675cd377dc8bb882a2611e2082015267a7b0fb7883eee860611e40820152677684403ec392950d611e60820152675fa3f06f4fed3b52611e80820152678df57ac11bc04831611ea0820152672db01efa1e1e1897611ec08201526754846de4aadb9ca2611ee082015267ba6745385893c784611f0082015267541d496344d2c75b611f2082015267e909678474e687fe611f4082015267dfe89923f6c9c2ff611f6082015267ece5a71e0cfedc75611f80820152675ff98fd5d51fe610611fa08201526783e8941918964615611fc0820152675922040b47f150c1611fe082015267f97d750e3dd94521612000820152675080d4c2b86f56d761202082015267a7de115b56c78d70612040820152676a9242ac8753819461206082015267f7856ef7f9173e44612080820152672265fc92feb0dc096120a08201526717dfc8e4f7ba8a576120c0820152679001a64209f21db86120e08201526790004c1371b893c561210082015267b932b7cf752e554561212082015267a0b1df81b6fe59fc612140820152678ef1dd26770af2c2612160820152670541a4f9cfbeed35612180820152679e61106178bfc5306121a082015267b3767e80935d8af26121c08201526698d5782065af066121e08201526731d191cd5c1466c761220082015267410fefafa319ac9d61222082015267bdf8f242e316c4ab612240820152679e8cd55b57637ed061226082015267de122bebe9a39368612280820152674d001fd58f0025266122a082015267ca6637000eb4a9f86122c0820152672f2339d624f91f786122e0820152676d1a7918c80df51861230082015267df9a4939342308e961232082015267ebc2151ee6c8398c6123408201526703cc2ba8a111651561236082015267d341d037e840cf8361238082015267387cb5d25af4afcc6123a082015267bba2515f22909e876123c0820152677248fe7705f38e476123e0820152674d61e56a525d225a61240082015267262e963c8da05d3d6124208201526759e89b094d220ec261244082015267055d5b52b78b9c5e6124608201526782b27eb33514ef9961248082015267d30094ca96b7ce7b6124a082015267cf5cb381cd0a15356124c082015267feed4db6919e5a7c6124e08201526741703f53753be59f612500820152675eeea940fcde8b6f612520820152674cd1f1b175100206612540820152674a20358574454ec0612560820152671478d361dbbf9fac612580820152676f02dc07d141875c6125a082015267296a202ed8e556a26125c0820152672afd67999bf32ee56125e0820152677acfd96efa95491d612600820152676798ba0c0abb2c6d6126208201526734c6f57b26c92122612640820152675736e1bad206b5de6126608201526720057d2a0056521b612680820152673dea5bd5d0578bd76126a08201526716e50d897d4634ac6126c08201526729bff3ecb9b7a6e36126e082015267475cd3205a3bdcde6127008201526718a42105c31b7e8861272082015267023e7414af6630686127408201526715147108121967d761276082015267e4a3dff1d7d6fef96127808201526701a8d1a5880857376127a08201526711b4c74eda62beef6127c082015267e587cc0d69a733466127e0820152671ff7327017aa2a6e61280082015267594e29c42473d06b61282082015267f6f31db1899b12d561284082015267c02ac5e47312d3ca61286082015267e70201e960cb78b8612880820152676f90ff3b6a65f1086128a08201526742747a7245e7fa846128c082015267d1f507e43ab749b26128e0820152671c86d265f15750cd612900820152673996ce73dd832c1c612920820152678e7fba02983224bd61294082015267ba0dec7103255dd4612960820152679e9cbd781628fc5b61298082015267dae8645996edd6a56129a082015267debe0853b1a1d3786129c082015267a49229d24d0143436129e0820152677be5b9ffda905e1c612a0082015267a3c95eaec244aa30612a20820152670230bca8f4df0544612a40820152674135c2bebfe148c6612a6082015267166fc0cc438a3c72612a80820152673762b59a8ae83efa612aa082015267e8928a4c89114750612ac0820152672a440b51a4945ee5612ae08201526780cefd2b7d99ff83612b0082015267bb9879c6e61fd62a612b20820152676e7c8f1a84265034612b4082015267164bb2de1bbeddc8612b6082015267f3c12fe54d5c653b612b808201526740b9e922ed9771e2612ba082015267551f5b0fbe7b1840612bc08201526725032aa7c4cb1811612be082015267aaed34074b164346612c00820152678ffd96bbf9c9c81d612c208201526770fc91eb5937085c612c40820152677f795e2a5f915440612c60820152674543d9df5476d3cb612c8082015267f172d73e004fc90d612ca082015267dfd1c4febcc81238612cc082015267bc8dfb627fe558fc612ce082015262003cec9061028b9061016862003e0e565b5034801562003cfa57600080fd5b5062003ed1565b82600c810192821562003d32579160200282015b8281111562003d3257825182559160200191906001019062003d15565b5062003d4092915062003e4a565b5090565b826016810192821562003d32579160200282015b8281111562003d3257825182906001600160401b031690559160200191906001019062003d58565b60f28301918390821562003dc0579160200282015b8281111562003dc057825162003daf908390600b62003e61565b50916020019190600b019062003d95565b5062003d4092915062003e9c565b60798301918390821562003dc0579160200282015b8281111562003dc057825162003dfd908390600b62003e61565b50916020019190600b019062003de3565b82610168810192821562003d32579160200282018281111562003d3257825182906001600160401b031690559160200191906001019062003d58565b5b8082111562003d40576000815560010162003e4b565b82600b810192821562003d32579160200282018281111562003d3257825182906001600160401b031690559160200191906001019062003d58565b8082111562003d4057600062003eb3828262003ebd565b50600b0162003e9c565b5062003ece90600b81019062003e4a565b50565b6111cd8062003ee16000396000f3fe608060405234801561001057600080fd5b50600436106100415760003560e01c806342ed725f14610046578063496f3b2214610061578063b932039414610081575b600080fd5b61004e600481565b6040519081526020015b60405180910390f35b61007461006f366004610c47565b6100a1565b6040516100589190610cc6565b61009461008f366004610cf8565b6100b8565b6040516100589190610da4565b6100a9610be1565b6100b2826100cb565b92915050565b60606100c4838361018a565b9392505050565b6100d3610be1565b60006100df8382610390565b90935090506100ee83826103dc565b90935090506100fd8382610390565b909350905060005b600c81101561015f576101368482600c811061012357610123610de8565b602002015167ffffffff00000001900690565b8482600c811061014857610148610de8565b60200201528061015781610e14565b915050610105565b50601661016e60046002610e2d565b6101789190610e44565b811461018357600080fd5b5090919050565b6060610194610be1565b60005b600c8110156101cb5760008282600c81106101b4576101b4610de8565b6020020152806101c381610e14565b915050610197565b506000600885516101dc9190610e6d565b90506000600886516101ee9190610e81565b905060005b8281101561027d5760005b600881101561025f578781610214600885610e2d565b61021e9190610e44565b8151811061022e5761022e610de8565b60200260200101518582600c811061024857610248610de8565b60200201528061025781610e14565b9150506101fe565b50610269846100cb565b93508061027581610e14565b9150506101f3565b5060005b818110156102e1578681610296600886610e2d565b6102a09190610e44565b815181106102b0576102b0610de8565b60200260200101518482600c81106102ca576102ca610de8565b6020020152806102d981610e14565b915050610281565b506102eb836100cb565b925060008567ffffffffffffffff81111561030857610308610c00565b604051908082528060200260200182016040528015610331578160200160208202803683370190505b50905060005b86811015610385578481600c811061035157610351610de8565b602002015182828151811061036857610368610de8565b60209081029190910101528061037d81610e14565b915050610337565b509695505050505050565b610398610be1565b6000805b60048110156103d3576103af8585610484565b94506103ba85610666565b94506103c5856106b4565b94506001938401930161039c565b50929391925050565b6103e4610be1565b60006103ef84610782565b93506103fa84610817565b935060005b6016811015610470576104298560005b602002015167ffffffff0000000181800282020680020290565b85526018816016811061043e5761043e610de8565b01548551869061044f908390610e44565b90525061045c85826108c4565b94508061046881610e14565b9150506103ff565b5061047c601684610e44565b939492505050565b61048c610be1565b8251600c8302906104b39061028b8361016881106104ac576104ac610de8565b01546109c7565b825260208401516104d69061028b6001840161016881106104ac576104ac610de8565b602083015260408401516104fc9061028b6002840161016881106104ac576104ac610de8565b604083015260608401516105229061028b6003840161016881106104ac576104ac610de8565b606083015260808401516105489061028b6004840161016881106104ac576104ac610de8565b608083015260a084015161056e9061028b6005840161016881106104ac576104ac610de8565b60a083015260c08401516105949061028b6006840161016881106104ac576104ac610de8565b60c083015260e08401516105ba9061028b6007840161016881106104ac576104ac610de8565b60e08301526101008401516105e19061028b6008840161016881106104ac576104ac610de8565b6101008301526101208401516106099061028b6009840161016881106104ac576104ac610de8565b6101208301526101408401516106319061028b600a840161016881106104ac576104ac610de8565b6101408301526101608401516106599061028b600b840161016881106104ac576104ac610de8565b6101608301525092915050565b61066e610be1565b60005b600c8110156106ae5761068f8382600c811061040f5761040f610de8565b8282600c81106106a1576106a1610de8565b6020020152600101610671565b50919050565b6106bc610be1565b6106c76000836109dc565b81526106d46001836109dc565b60208201526106e46002836109dc565b60408201526106f46003836109dc565b60608201526107046004836109dc565b60808201526107146005836109dc565b60a08201526107246006836109dc565b60c08201526107346007836109dc565b60e08201526107446008836109dc565b6101008201526107556009836109dc565b610120820152610766600a836109dc565b610140820152610777600b836109dc565b610160820152919050565b61078a610be1565b60006040518061034001604052806103028152602001610e966103029139905060005b600c81101561081057602081028201516107c681610b78565b6107e68583600c81106107db576107db610de8565b6020020151826109c7565b8483600c81106107f8576107f8610de8565b6020020152508061080881610e14565b9150506107ad565b5050919050565b61081f610be1565b8151815260015b600c8110156106ae5760015b600c8110156108bb5761021260018303600b811061085257610852610de8565b600b020160018203600b811061086a5761086a610de8565b01548483600c811061087e5761087e610de8565b6020020151028382600c811061089657610896610de8565b6020020151018382600c81106108ae576108ae610de8565b6020020152600101610832565b50600101610826565b6108cc610be1565b600060015b600c81101561092d5761012084601681106108ee576108ee610de8565b600b020160018203600b811061090657610906610de8565b01548582600c811061091a5761091a610de8565b60200201510291909101906001016108d1565b506109438160198660005b6020020151026109c7565b825260015b600c8110156109bf576109a08582600c811061096657610966610de8565b6020020151602e866016811061097e5761097e610de8565b600b020160018403600b811061099657610996610de8565b0154876000610938565b8382600c81106109b2576109b2610de8565b6020020152600101610948565b505092915050565b600067ffffffff000000018284089392505050565b600060118284600c81106109f2576109f2610de8565b60200201510201600f82600c6001860106600c8110610a1357610a13610de8565b60200201510201602982600c6002860106600c8110610a3457610a34610de8565b60200201510201601082600c6003860106600c8110610a5557610a55610de8565b60200201510201600282600c6004860106600c8110610a7657610a76610de8565b60200201510201601c82600c6005860106600c8110610a9757610a97610de8565b60200201510201600d82600c6006860106600c8110610ab857610ab8610de8565b60200201510201600d82600c6007860106600c8110610ad957610ad9610de8565b60200201510201602782600c6008860106600c8110610afa57610afa610de8565b60200201510201601282600c6009860106600c8110610b1b57610b1b610de8565b60200201510201602282600c600a860106600c8110610b3c57610b3c610de8565b60200201510201601482600c600b860106600c8110610b5d57610b5d610de8565b6020020151020160008390036100b257905160080201919050565b610bbd81604051602401610b8e91815260200190565b60408051601f198184030181529190526020810180516001600160e01b031663f82c50f160e01b179052610bc0565b50565b80516a636f6e736f6c652e6c6f67602083016000808483855afa5050505050565b604051806101800160405280600c906020820280368337509192915050565b634e487b7160e01b600052604160045260246000fd5b604051601f8201601f1916810167ffffffffffffffff81118282101715610c3f57610c3f610c00565b604052919050565b6000610180808385031215610c5b57600080fd5b83601f840112610c6a57600080fd5b60405181810181811067ffffffffffffffff82111715610c8c57610c8c610c00565b604052908301908085831115610ca157600080fd5b845b83811015610cbb578035825260209182019101610ca3565b509095945050505050565b6101808101818360005b600c811015610cef578151835260209283019290910190600101610cd0565b50505092915050565b60008060408385031215610d0b57600080fd5b823567ffffffffffffffff80821115610d2357600080fd5b818501915085601f830112610d3757600080fd5b8135602082821115610d4b57610d4b610c00565b8160051b9250610d5c818401610c16565b8281529284018101928181019089851115610d7657600080fd5b948201945b84861015610d9457853582529482019490820190610d7b565b9997909101359750505050505050565b6020808252825182820181905260009190848201906040850190845b81811015610ddc57835183529284019291840191600101610dc0565b50909695505050505050565b634e487b7160e01b600052603260045260246000fd5b634e487b7160e01b600052601160045260246000fd5b600060018201610e2657610e26610dfe565b5060010190565b80820281158282048414176100b2576100b2610dfe565b808201808211156100b2576100b2610dfe565b634e487b7160e01b600052601260045260246000fd5b600082610e7c57610e7c610e57565b500490565b600082610e9057610e90610e57565b50069056fe3078303030303030303030303030303030303030303030303030303030303030303030303030303030303030303030303030336363336638393231383464663430383030303030303030303030303030303030303030303030303030303030303030303030303030303030303030303030306539393366643834316537653937663130303030303030303030303030303030303030303030303030303030303030303030303030303030303030303030303066323833316433353735663066336166303030303030303030303030303030303030303030303030303030303030303030303030303030303030303030303030643235303065306133353039393463613030303030303030303030303030303030303030303030303030303030303030303030303030303030303030303030306335353731663335643732383836333330303030303030303030303030303030303030303030303030303030303030303030303030303030303030303030303039316438396335313834313039613032303030303030303030303030303030303030303030303030303030303030303030303030303030303030303030303030663337663932356430346535363637623030303030303030303030303030303030303030303030303030303030303030303030303030303030303030303030303264366534343833373139353561363930303030303030303030303030303030303030303030303030303030303030303030303030303030303030303030303037343065663139636530313339386131303030303030303030303030303030303030303030303030303030303030303030303030303030303030303030303030363934643234633037353266646634353030303030303030303030303030303030303030303030303030303030303030303030303030303030303030303030303630393336616639366565326631343830303030303030303030303030303030303030303030303030303030303030303030303030303030303030303030303063333334343866656164633738663063a264697066735822122021002322001ac88c50cc3bb00bc9d2787fa88fc71f3f4ba42c1a5b9b54d120c864736f6c63430008110033",
  "linkReferences": {},
  "deployedLinkReferences": {}
}