{
  "_format": "hh-sol-artifact-1",
  "contractName": "OfferManagerReverseV2Test",
  "sourceName": "contracts/OfferManagerReverseV2.test.sol",
  "abi": [
    {
      "inputs": [],
      "stateMutability": "nonpayable",
      "type": "constructor"
    },
    {
      "anonymous": false,
      "inputs": [
        {
          "indexed": false,
          "internalType": "uint8",
          "name": "version",
          "type": "uint8"
        }
      ],
      "name": "Initialized",
      "type": "event"
    },
    {
      "anonymous": false,
      "inputs": [
        {
          "indexed": true,
          "internalType": "uint256",
          "name": "offerId",
          "type": "uint256"
        },
        {
          "indexed": true,
          "internalType": "address",
          "name": "maker",
          "type": "address"
        }
      ],
      "name": "OfferActivated",
      "type": "event"
    },
    {
      "anonymous": false,
      "inputs": [
        {
          "indexed": true,
          "internalType": "uint256",
          "name": "offerId",
          "type": "uint256"
        },
        {
          "indexed": true,
          "internalType": "address",
          "name": "maker",
          "type": "address"
        }
      ],
      "name": "OfferMakerUpdated",
      "type": "event"
    },
    {
      "anonymous": false,
      "inputs": [
        {
          "indexed": true,
          "internalType": "uint256",
          "name": "offerId",
          "type": "uint256"
        },
        {
          "indexed": true,
          "internalType": "address",
          "name": "taker",
          "type": "address"
        },
        {
          "indexed": false,
          "internalType": "bytes32",
          "name": "takerIntmaxAddress",
          "type": "bytes32"
        },
        {
          "indexed": false,
          "internalType": "address",
          "name": "takerTokenAddress",
          "type": "address"
        },
        {
          "indexed": false,
          "internalType": "uint256",
          "name": "takerAmount",
          "type": "uint256"
        },
        {
          "indexed": false,
          "internalType": "bytes32",
          "name": "makerIntmaxAddress",
          "type": "bytes32"
        },
        {
          "indexed": false,
          "internalType": "uint256",
          "name": "makerAssetId",
          "type": "uint256"
        },
        {
          "indexed": false,
          "internalType": "uint256",
          "name": "makerAmount",
          "type": "uint256"
        }
      ],
      "name": "OfferRegistered",
      "type": "event"
    },
    {
      "anonymous": false,
      "inputs": [
        {
          "indexed": true,
          "internalType": "address",
          "name": "previousOwner",
          "type": "address"
        },
        {
          "indexed": true,
          "internalType": "address",
          "name": "newOwner",
          "type": "address"
        }
      ],
      "name": "OwnershipTransferred",
      "type": "event"
    },
    {
      "inputs": [
        {
          "internalType": "uint256",
          "name": "offerId",
          "type": "uint256"
        },
        {
          "internalType": "bytes",
          "name": "witness",
          "type": "bytes"
        }
      ],
      "name": "activate",
      "outputs": [
        {
          "internalType": "bool",
          "name": "",
          "type": "bool"
        }
      ],
      "stateMutability": "nonpayable",
      "type": "function"
    },
    {
      "inputs": [
        {
          "internalType": "contract VerifierInterface",
          "name": "newVerifier",
          "type": "address"
        }
      ],
      "name": "changeVerifier",
      "outputs": [],
      "stateMutability": "nonpayable",
      "type": "function"
    },
    {
      "inputs": [
        {
          "internalType": "uint256",
          "name": "offerId",
          "type": "uint256"
        },
        {
          "internalType": "bytes",
          "name": "witness",
          "type": "bytes"
        }
      ],
      "name": "checkWitness",
      "outputs": [
        {
          "internalType": "bool",
          "name": "",
          "type": "bool"
        }
      ],
      "stateMutability": "view",
      "type": "function"
    },
    {
      "inputs": [
        {
          "internalType": "uint256",
          "name": "offerId",
          "type": "uint256"
        }
      ],
      "name": "getOffer",
      "outputs": [
        {
          "internalType": "address",
          "name": "maker",
          "type": "address"
        },
        {
          "internalType": "bytes32",
          "name": "makerIntmaxAddress",
          "type": "bytes32"
        },
        {
          "internalType": "uint256",
          "name": "makerAssetId",
          "type": "uint256"
        },
        {
          "internalType": "uint256",
          "name": "makerAmount",
          "type": "uint256"
        },
        {
          "internalType": "address",
          "name": "taker",
          "type": "address"
        },
        {
          "internalType": "bytes32",
          "name": "takerIntmaxAddress",
          "type": "bytes32"
        },
        {
          "internalType": "address",
          "name": "takerTokenAddress",
          "type": "address"
        },
        {
          "internalType": "uint256",
          "name": "takerAmount",
          "type": "uint256"
        },
        {
          "internalType": "bool",
          "name": "activated",
          "type": "bool"
        }
      ],
      "stateMutability": "view",
      "type": "function"
    },
    {
      "inputs": [],
      "name": "initialize",
      "outputs": [],
      "stateMutability": "nonpayable",
      "type": "function"
    },
    {
      "inputs": [
        {
          "internalType": "uint256",
          "name": "offerId",
          "type": "uint256"
        }
      ],
      "name": "isActivated",
      "outputs": [
        {
          "internalType": "bool",
          "name": "",
          "type": "bool"
        }
      ],
      "stateMutability": "view",
      "type": "function"
    },
    {
      "inputs": [
        {
          "internalType": "uint256",
          "name": "offerId",
          "type": "uint256"
        }
      ],
      "name": "isRegistered",
      "outputs": [
        {
          "internalType": "bool",
          "name": "",
          "type": "bool"
        }
      ],
      "stateMutability": "view",
      "type": "function"
    },
    {
      "inputs": [],
      "name": "nextOfferId",
      "outputs": [
        {
          "internalType": "uint256",
          "name": "offerId",
          "type": "uint256"
        }
      ],
      "stateMutability": "view",
      "type": "function"
    },
    {
      "inputs": [],
      "name": "owner",
      "outputs": [
        {
          "internalType": "address",
          "name": "",
          "type": "address"
        }
      ],
      "stateMutability": "view",
      "type": "function"
    },
    {
      "inputs": [
        {
          "internalType": "bytes32",
          "name": "takerIntmaxAddress",
          "type": "bytes32"
        },
        {
          "internalType": "address",
          "name": "takerTokenAddress",
          "type": "address"
        },
        {
          "internalType": "uint256",
          "name": "takerAmount",
          "type": "uint256"
        },
        {
          "internalType": "address",
          "name": "maker",
          "type": "address"
        },
        {
          "internalType": "uint256",
          "name": "makerAssetId",
          "type": "uint256"
        },
        {
          "internalType": "uint256",
          "name": "makerAmount",
          "type": "uint256"
        }
      ],
      "name": "register",
      "outputs": [
        {
          "internalType": "uint256",
          "name": "offerId",
          "type": "uint256"
        }
      ],
      "stateMutability": "payable",
      "type": "function"
    },
    {
      "inputs": [],
      "name": "renounceOwnership",
      "outputs": [],
      "stateMutability": "nonpayable",
      "type": "function"
    },
    {
      "inputs": [
        {
          "internalType": "uint256",
          "name": "offerId",
          "type": "uint256"
        }
      ],
      "name": "testActivate",
      "outputs": [
        {
          "internalType": "bool",
          "name": "",
          "type": "bool"
        }
      ],
      "stateMutability": "nonpayable",
      "type": "function"
    },
    {
      "inputs": [
        {
          "internalType": "bytes32",
          "name": "takerIntmaxAddress",
          "type": "bytes32"
        },
        {
          "internalType": "address",
          "name": "takerTokenAddress",
          "type": "address"
        },
        {
          "internalType": "uint256",
          "name": "takerAmount",
          "type": "uint256"
        },
        {
          "internalType": "address",
          "name": "maker",
          "type": "address"
        },
        {
          "internalType": "bytes32",
          "name": "makerIntmaxAddress",
          "type": "bytes32"
        },
        {
          "internalType": "uint256",
          "name": "makerAssetId",
          "type": "uint256"
        },
        {
          "internalType": "uint256",
          "name": "makerAmount",
          "type": "uint256"
        }
      ],
      "name": "testRegister",
      "outputs": [
        {
          "internalType": "uint256",
          "name": "flagId",
          "type": "uint256"
        }
      ],
      "stateMutability": "nonpayable",
      "type": "function"
    },
    {
      "inputs": [
        {
          "internalType": "address",
          "name": "newOwner",
          "type": "address"
        }
      ],
      "name": "transferOwnership",
      "outputs": [],
      "stateMutability": "nonpayable",
      "type": "function"
    },
    {
      "inputs": [
        {
          "internalType": "uint256",
          "name": "offerId",
          "type": "uint256"
        },
        {
          "internalType": "address",
          "name": "newMaker",
          "type": "address"
        }
      ],
      "name": "updateMaker",
      "outputs": [],
      "stateMutability": "nonpayable",
      "type": "function"
    },
    {
      "inputs": [
        {
          "internalType": "bytes32",
          "name": "",
          "type": "bytes32"
        }
      ],
      "name": "usedTxHashes",
      "outputs": [
        {
          "internalType": "bool",
          "name": "",
          "type": "bool"
        }
      ],
      "stateMutability": "view",
      "type": "function"
    },
    {
      "stateMutability": "payable",
      "type": "receive"
    }
  ],
  "bytecode": "0x60806040523480156200001157600080fd5b506200001c62000022565b620002de565b600254610100900460ff1615808015620000435750600254600160ff909116105b8062000073575062000060306200015e60201b62000de11760201c565b15801562000073575060025460ff166001145b620000dc5760405162461bcd60e51b815260206004820152602e60248201527f496e697469616c697a61626c653a20636f6e747261637420697320616c72656160448201526d191e481a5b9a5d1a585b1a5e995960921b60648201526084015b60405180910390fd5b6002805460ff19166001179055801562000100576002805461ff0019166101001790555b6200010a6200016d565b62000114620001cb565b80156200015b576002805461ff0019169055604051600181527f7f26b83ff96e1f2b6a682f133852f6798a09c465da95921460cefb38474024989060200160405180910390a15b50565b6001600160a01b03163b151590565b600254610100900460ff16620001c95760405162461bcd60e51b815260206004820152602b602482015260008051602062001ead83398151915260448201526a6e697469616c697a696e6760a81b6064820152608401620000d3565b565b600254610100900460ff16620002275760405162461bcd60e51b815260206004820152602b602482015260008051602062001ead83398151915260448201526a6e697469616c697a696e6760a81b6064820152608401620000d3565b620001c9600254610100900460ff16620002875760405162461bcd60e51b815260206004820152602b602482015260008051602062001ead83398151915260448201526a6e697469616c697a696e6760a81b6064820152608401620000d3565b620001c933603580546001600160a01b038381166001600160a01b0319831681179093556040519116919082907f8be0079c531659141344cd1fd0a4f28419497f9722a3daafe3b4186f6b6457e090600090a35050565b611bbf80620002ee6000396000f3fe6080604052600436106100f75760003560e01c8063715018a61161008a578063b132355711610059578063b132355714610371578063cf04fb9414610391578063cfea677d146103b1578063f2fde38b146103d157600080fd5b8063715018a6146102ef5780637ec230fd146103045780638129fc1c146103345780638da5cb5b1461034957600080fd5b80634579268a116100c65780634579268a146101ae5780635314e9fa1461027f578063579a69881461029f5780635f5d0655146102da57600080fd5b80631100528e14610103578063277e2eab1461012557806331809dcf1461014b5780634112bd6d1461018e57600080fd5b366100fe57005b600080fd5b34801561010f57600080fd5b5061012361011e3660046114e7565b6103f1565b005b610138610133366004611517565b61055e565b6040519081526020015b60405180910390f35b34801561015757600080fd5b5061017e610166366004611573565b60009081526001602052604090206008015460ff1690565b6040519015158152602001610142565b34801561019a57600080fd5b506101386101a936600461158c565b610786565b3480156101ba57600080fd5b506102296101c9366004611573565b60009081526001602081905260409091208054918101546002820154600383015460048401546005850154600686015460078701546008909701546001600160a01b03988916999698959794969386169592949190921692909160ff1690565b604080516001600160a01b039a8b16815260208101999099528801969096526060870194909452918616608086015260a085015290931660c083015260e082019290925290151561010082015261012001610142565b34801561028b57600080fd5b5061017e61029a3660046115f1565b6107a4565b3480156102ab57600080fd5b5061017e6102ba366004611573565b6000908152600160205260409020600401546001600160a01b0316151590565b3480156102e657600080fd5b50600054610138565b3480156102fb57600080fd5b50610123610b3d565b34801561031057600080fd5b5061017e61031f366004611573565b60686020526000908152604090205460ff1681565b34801561034057600080fd5b50610123610b51565b34801561035557600080fd5b506035546040516001600160a01b039091168152602001610142565b34801561037d57600080fd5b5061017e61038c3660046115f1565b610c6a565b34801561039d57600080fd5b506101236103ac36600461166d565b610d2e565b3480156103bd57600080fd5b5061017e6103cc366004611573565b610d58565b3480156103dd57600080fd5b506101236103ec36600461166d565b610d6b565b6000828152600160205260409020600401546001600160a01b03166104315760405162461bcd60e51b815260040161042890611691565b60405180910390fd5b6000828152600160205260409020600401546001600160a01b0316336001600160a01b0316146104af5760405162461bcd60e51b815260206004820152602360248201527f4f66666572732063616e2062652075706461746564206279206974732074616b60448201526232b91760e91b6064820152608401610428565b6001600160a01b0381166105055760405162461bcd60e51b815260206004820152601e60248201527f606e65774d616b6572602073686f756c64206e6f74206265207a65726f2e00006044820152606401610428565b60008281526001602052604080822080546001600160a01b0319166001600160a01b0385169081179091559051909184917f3cd0cb8e18f3484f6b1dbeb6689d99826a4a894879341d803dd4775980e868219190a35050565b60006001600160a01b0384166105b65760405162461bcd60e51b815260206004820152601960248201527f606d616b657260206d757374206e6f74206265207a65726f2e000000000000006044820152606401610428565b6001600160a01b03861661062a578434146106255760405162461bcd60e51b815260206004820152602960248201527f74616b6572416d6f756e74206d757374206265207468652073616d65206173206044820152686d73672e76616c756560b81b6064820152608401610428565b61076a565b34156106905760405162461bcd60e51b815260206004820152602f60248201527f7472616e736d697373696f6e206d6574686f64206f74686572207468616e204560448201526e1512081a5cc81cdc1958da599a5959608a1b6064820152608401610428565b60006001600160a01b0387166323b872dd336040516001600160e01b031960e084901b1681526001600160a01b039091166004820152306024820152604481018990526064016020604051808303816000875af11580156106f5573d6000803e3d6000fd5b505050506040513d601f19601f8201168201806040525081019061071991906116d7565b9050806107685760405162461bcd60e51b815260206004820152601c60248201527f6661696c20746f207472616e7366657220455243323020746f6b656e000000006044820152606401610428565b505b61077b338888348860008989610df0565b979650505050505050565b60006107983389898989898989610df0565b98975050505050505050565b600083815260016020818152604080842081516101208101835281546001600160a01b039081168252948201549381019390935260028101549183019190915260038101546060830152600481015483166080830152600581015460a0830152600681015490921660c0820152600782015460e082015260089091015460ff1615156101008201528161083984860186611942565b505060208082015160008181526068909252604090912054919450925060ff161590506108a85760405162461bcd60e51b815260206004820152601a60248201527f476976656e207769746e65737320616c726561647920757365640000000000006044820152606401610428565b60008781526001602081815260409283902083516101208101855281546001600160a01b039081168252938201548184015260028201548186015260038201546060820152600482015484166080820152600582015460a0820152600682015490931660c0840152600781015460e08401526008015460ff1615156101008301528251601f89018290048202810182019093528783526109639290899089908190840183828082843760009201919091525061107d92505050565b6000818152606860205260409020805460ff1916600117905582516001600160a01b031661098e3390565b6001600160a01b0316146109f25760405162461bcd60e51b815260206004820152602560248201527f4f6e6c7920746865206d616b65722063616e20756e6c6f636b2074686973206f604482015264333332b91760d91b6064820152608401610428565b6109fb87611208565b60c08301516001600160a01b0316610a5057825160e08401516040516001600160a01b039092169181156108fc0291906000818181858888f19350505050158015610a4a573d6000803e3d6000fd5b50610b30565b60c0830151835160e085015160405163a9059cbb60e01b81526000936001600160a01b03169263a9059cbb92610a9c926004016001600160a01b03929092168252602082015260400190565b6020604051808303816000875af1158015610abb573d6000803e3d6000fd5b505050506040513d601f19601f82011682018060405250810190610adf91906116d7565b905080610b2e5760405162461bcd60e51b815260206004820152601c60248201527f6661696c20746f207472616e7366657220455243323020746f6b656e000000006044820152606401610428565b505b5060019695505050505050565b610b45611258565b610b4f60006112b2565b565b600254610100900460ff1615808015610b715750600254600160ff909116105b80610b8b5750303b158015610b8b575060025460ff166001145b610bee5760405162461bcd60e51b815260206004820152602e60248201527f496e697469616c697a61626c653a20636f6e747261637420697320616c72656160448201526d191e481a5b9a5d1a585b1a5e995960921b6064820152608401610428565b6002805460ff191660011790558015610c11576002805461ff0019166101001790555b610c19611304565b610c2161132b565b8015610c67576002805461ff0019169055604051600181527f7f26b83ff96e1f2b6a682f133852f6798a09c465da95921460cefb38474024989060200160405180910390a15b50565b600083815260016020818152604080842081516101208101835281546001600160a01b039081168252948201548185015260028201548184015260038201546060820152600482015485166080820152600582015460a0820152600682015490941660c0850152600781015460e08501526008015460ff1615156101008401528051601f8601839004830281018301909152848152610d249291869086908190840183828082843760009201919091525061107d92505050565b5060019392505050565b610d36611258565b606780546001600160a01b0319166001600160a01b0392909216919091179055565b6000610d6382611208565b506001919050565b610d73611258565b6001600160a01b038116610dd85760405162461bcd60e51b815260206004820152602660248201527f4f776e61626c653a206e6577206f776e657220697320746865207a65726f206160448201526564647265737360d01b6064820152608401610428565b610c67816112b2565b6001600160a01b03163b151590565b60006001600160a01b038916610e545760405162461bcd60e51b815260206004820152602360248201527f5468652074616b6572206d757374206e6f74206265207a65726f20616464726560448201526239b99760e91b6064820152608401610428565b506000805480825260016020526040909120600401546001600160a01b031615610ec05760405162461bcd60e51b815260206004820152601c60248201527f4f6666657220494420616c726561647920726567697374657265642e000000006044820152606401610428565b6000604051806101200160405280876001600160a01b031681526020018681526020018581526020018481526020018b6001600160a01b031681526020018a8152602001896001600160a01b03168152602001888152602001600015158152509050610f2b8161135a565b6000828152600160208181526040808420855181546001600160a01b03199081166001600160a01b039283161783559387015182860155918601516002820155606086015160038201556080860151600482018054851691841691909117905560a0860151600582015560c086015160068201805490941692169190911790915560e084015160078201556101008401516008909101805460ff19169115159190911790558154019055604080518a81526001600160a01b038a81166020830152918101899052606081018790526080810186905260a08101859052908b169083907fa54ceef2bc7a2f3056774e409e3e0030176e5db647397f2d94f57f6e7d05ce3b9060c00160405180910390a36040516001600160a01b0387169083907f3cd0cb8e18f3484f6b1dbeb6689d99826a4a894879341d803dd4775980e8682190600090a35098975050505050505050565b6000826040015160405160200161109691815260200190565b6040516020818303038152906040528060200190518101906110b89190611a6d565b6040805160018082528183019092529192506000918291816020015b60408051606081018252600080825260208083018290529282015282526000199092019101816110d4579050509050604051806060016040528084815260200183815260200186606001518152508160008151811061113557611135611a86565b602090810291909101015260675460a086015160405163013c480b60e61b81526000926001600160a01b031691634f1202c0916111789186918a90600401611a9c565b602060405180830381865afa158015611195573d6000803e3d6000fd5b505050506040513d601f19601f820116820180604052508101906111b991906116d7565b9050806112005760405162461bcd60e51b81526020600482015260156024820152744661696c20746f207665726966792061737365747360581b6044820152606401610428565b505050505050565b611211816113dc565b6000818152600160205260408082205490516001600160a01b039091169183917f03de52c2c41329254e0f4460f852f880efe669cd6efd0b60df3b75ec4a45016a9190a350565b6035546001600160a01b03163314610b4f5760405162461bcd60e51b815260206004820181905260248201527f4f776e61626c653a2063616c6c6572206973206e6f7420746865206f776e65726044820152606401610428565b603580546001600160a01b038381166001600160a01b0319831681179093556040519116919082907f8be0079c531659141344cd1fd0a4f28419497f9722a3daafe3b4186f6b6457e090600090a35050565b600254610100900460ff16610b4f5760405162461bcd60e51b815260040161042890611b3e565b600254610100900460ff166113525760405162461bcd60e51b815260040161042890611b3e565b610b4f6114a2565b67ffffffff0000000081606001511115610c675760405162461bcd60e51b815260206004820152603860248201527f496e76616c6964206f6666657220616d6f756e743a2065786365656473206d6160448201527f78696d756d2072656d697474616e636520616d6f756e742e00000000000000006064820152608401610428565b6000818152600160205260409020600401546001600160a01b03166114135760405162461bcd60e51b815260040161042890611691565b60008181526001602052604090206008015460ff16156114815760405162461bcd60e51b815260206004820152602360248201527f54686973206f6666657220494420697320616c7265616479206163746976617460448201526232b21760e91b6064820152608401610428565b6000908152600160208190526040909120600801805460ff19169091179055565b600254610100900460ff166114c95760405162461bcd60e51b815260040161042890611b3e565b610b4f336112b2565b6001600160a01b0381168114610c6757600080fd5b600080604083850312156114fa57600080fd5b82359150602083013561150c816114d2565b809150509250929050565b60008060008060008060c0878903121561153057600080fd5b863595506020870135611542816114d2565b9450604087013593506060870135611559816114d2565b9598949750929560808101359460a0909101359350915050565b60006020828403121561158557600080fd5b5035919050565b600080600080600080600060e0888a0312156115a757600080fd5b8735965060208801356115b9816114d2565b95506040880135945060608801356115d0816114d2565b9699959850939660808101359560a0820135955060c0909101359350915050565b60008060006040848603121561160657600080fd5b83359250602084013567ffffffffffffffff8082111561162557600080fd5b818601915086601f83011261163957600080fd5b81358181111561164857600080fd5b87602082850101111561165a57600080fd5b6020830194508093505050509250925092565b60006020828403121561167f57600080fd5b813561168a816114d2565b9392505050565b60208082526026908201527f54686973206f6666657220494420686173206e6f74206265656e2072656769736040820152653a32b932b21760d11b606082015260800190565b6000602082840312156116e957600080fd5b8151801515811461168a57600080fd5b634e487b7160e01b600052604160045260246000fd5b6040516060810167ffffffffffffffff81118282101715611732576117326116f9565b60405290565b604051601f8201601f1916810167ffffffffffffffff81118282101715611761576117616116f9565b604052919050565b600067ffffffffffffffff821115611783576117836116f9565b5060051b60200190565b60006060828403121561179f57600080fd5b6117a761170f565b90508135815260208083013581830152604083013567ffffffffffffffff8111156117d157600080fd5b8301601f810185136117e257600080fd5b80356117f56117f082611769565b611738565b81815260059190911b8201830190838101908783111561181457600080fd5b928401925b8284101561183257833582529284019290840190611819565b6040860152509295945050505050565b600061010080838503121561185657600080fd5b6040519081019067ffffffffffffffff82118183101715611879576118796116f9565b81604052809250833581526020840135602082015260408401356040820152606084013560608201526080840135608082015260a084013560a082015260c084013560c082015260e084013560e0820152505092915050565b600082601f8301126118e357600080fd5b813567ffffffffffffffff8111156118fd576118fd6116f9565b611910601f8201601f1916602001611738565b81815284602083860101111561192557600080fd5b816020850160208301376000918101602001919091529392505050565b6000806000806000610180868803121561195b57600080fd5b853567ffffffffffffffff8082111561197357600080fd5b818801915088601f83011261198757600080fd5b813560206119976117f083611769565b8281526060928302850182019282820191908d8511156119b657600080fd5b958301955b84871015611a005780878f0312156119d35760008081fd5b6119db61170f565b87358152848801358582015260408089013590820152835295860195918301916119bb565b819b50838d01359a5060408d0135965085871115611a1d57600080fd5b611a298e888f0161178d565b9950611a378e828f01611842565b98505050505050610160880135915080821115611a5357600080fd5b50611a60888289016118d2565b9150509295509295909350565b600060208284031215611a7f57600080fd5b5051919050565b634e487b7160e01b600052603260045260246000fd5b60608082528451828201819052600091906020906080850190828901855b82811015611aea578151805185528581015186860152604090810151908501529285019290840190600101611aba565b505050868286015284810360408601528551925082815260005b83811015611b1f578681018301518282018401528201611b04565b506000818401830152601f909201601f19169091010195945050505050565b6020808252602b908201527f496e697469616c697a61626c653a20636f6e7472616374206973206e6f74206960408201526a6e697469616c697a696e6760a81b60608201526080019056fea2646970667358221220e6664ba60b6256f824c09653db59f70758184de54866a71ec544b5359effd6de64736f6c63430008110033496e697469616c697a61626c653a20636f6e7472616374206973206e6f742069",
  "linkReferences": {},
  "deployedLinkReferences": {}
}