{
  "_format": "hh-sol-artifact-1",
  "contractName": "OfferManagerReverseV2Test",
  "sourceName": "contracts/OfferManagerReverseV2.test.sol",
  "abi": [
    {
      "inputs": [],
      "stateMutability": "nonpayable",
      "type": "constructor"
    },
    {
      "anonymous": false,
      "inputs": [
        {
          "indexed": false,
          "internalType": "uint8",
          "name": "version",
          "type": "uint8"
        }
      ],
      "name": "Initialized",
      "type": "event"
    },
    {
      "anonymous": false,
      "inputs": [
        {
          "indexed": true,
          "internalType": "uint256",
          "name": "offerId",
          "type": "uint256"
        },
        {
          "indexed": true,
          "internalType": "address",
          "name": "maker",
          "type": "address"
        }
      ],
      "name": "OfferActivated",
      "type": "event"
    },
    {
      "anonymous": false,
      "inputs": [
        {
          "indexed": true,
          "internalType": "uint256",
          "name": "offerId",
          "type": "uint256"
        },
        {
          "indexed": true,
          "internalType": "address",
          "name": "maker",
          "type": "address"
        }
      ],
      "name": "OfferMakerUpdated",
      "type": "event"
    },
    {
      "anonymous": false,
      "inputs": [
        {
          "indexed": true,
          "internalType": "uint256",
          "name": "offerId",
          "type": "uint256"
        },
        {
          "indexed": true,
          "internalType": "address",
          "name": "taker",
          "type": "address"
        },
        {
          "indexed": false,
          "internalType": "bytes32",
          "name": "takerIntmaxAddress",
          "type": "bytes32"
        },
        {
          "indexed": false,
          "internalType": "address",
          "name": "takerTokenAddress",
          "type": "address"
        },
        {
          "indexed": false,
          "internalType": "uint256",
          "name": "takerAmount",
          "type": "uint256"
        },
        {
          "indexed": false,
          "internalType": "bytes32",
          "name": "makerIntmaxAddress",
          "type": "bytes32"
        },
        {
          "indexed": false,
          "internalType": "uint256",
          "name": "makerAssetId",
          "type": "uint256"
        },
        {
          "indexed": false,
          "internalType": "uint256",
          "name": "makerAmount",
          "type": "uint256"
        }
      ],
      "name": "OfferRegistered",
      "type": "event"
    },
    {
      "anonymous": false,
      "inputs": [
        {
          "indexed": true,
          "internalType": "address",
          "name": "previousOwner",
          "type": "address"
        },
        {
          "indexed": true,
          "internalType": "address",
          "name": "newOwner",
          "type": "address"
        }
      ],
      "name": "OwnershipTransferred",
      "type": "event"
    },
    {
      "anonymous": false,
      "inputs": [
        {
          "indexed": true,
          "internalType": "address",
          "name": "token",
          "type": "address"
        },
        {
          "indexed": false,
          "internalType": "bool",
          "name": "isAllowed",
          "type": "bool"
        }
      ],
      "name": "TokenAllowListUpdated",
      "type": "event"
    },
    {
      "inputs": [
        {
          "internalType": "uint256",
          "name": "offerId",
          "type": "uint256"
        },
        {
          "internalType": "bytes",
          "name": "witness",
          "type": "bytes"
        }
      ],
      "name": "activate",
      "outputs": [
        {
          "internalType": "bool",
          "name": "ok",
          "type": "bool"
        }
      ],
      "stateMutability": "nonpayable",
      "type": "function"
    },
    {
      "inputs": [
        {
          "internalType": "address[]",
          "name": "tokens",
          "type": "address[]"
        }
      ],
      "name": "addTokenAddressToAllowList",
      "outputs": [],
      "stateMutability": "nonpayable",
      "type": "function"
    },
    {
      "inputs": [
        {
          "internalType": "contract VerifierInterface",
          "name": "newVerifier",
          "type": "address"
        }
      ],
      "name": "changeVerifier",
      "outputs": [],
      "stateMutability": "nonpayable",
      "type": "function"
    },
    {
      "inputs": [
        {
          "internalType": "uint256",
          "name": "offerId",
          "type": "uint256"
        },
        {
          "internalType": "bytes",
          "name": "witness",
          "type": "bytes"
        }
      ],
      "name": "checkWitness",
      "outputs": [
        {
          "internalType": "bool",
          "name": "",
          "type": "bool"
        }
      ],
      "stateMutability": "view",
      "type": "function"
    },
    {
      "inputs": [
        {
          "internalType": "uint256",
          "name": "offerId",
          "type": "uint256"
        }
      ],
      "name": "getOffer",
      "outputs": [
        {
          "internalType": "address",
          "name": "maker",
          "type": "address"
        },
        {
          "internalType": "bytes32",
          "name": "makerIntmaxAddress",
          "type": "bytes32"
        },
        {
          "internalType": "uint256",
          "name": "makerAssetId",
          "type": "uint256"
        },
        {
          "internalType": "uint256",
          "name": "makerAmount",
          "type": "uint256"
        },
        {
          "internalType": "address",
          "name": "taker",
          "type": "address"
        },
        {
          "internalType": "bytes32",
          "name": "takerIntmaxAddress",
          "type": "bytes32"
        },
        {
          "internalType": "address",
          "name": "takerTokenAddress",
          "type": "address"
        },
        {
          "internalType": "uint256",
          "name": "takerAmount",
          "type": "uint256"
        },
        {
          "internalType": "bool",
          "name": "activated",
          "type": "bool"
        }
      ],
      "stateMutability": "view",
      "type": "function"
    },
    {
      "inputs": [],
      "name": "initialize",
      "outputs": [],
      "stateMutability": "nonpayable",
      "type": "function"
    },
    {
      "inputs": [
        {
          "internalType": "uint256",
          "name": "offerId",
          "type": "uint256"
        }
      ],
      "name": "isActivated",
      "outputs": [
        {
          "internalType": "bool",
          "name": "",
          "type": "bool"
        }
      ],
      "stateMutability": "view",
      "type": "function"
    },
    {
      "inputs": [
        {
          "internalType": "uint256",
          "name": "offerId",
          "type": "uint256"
        }
      ],
      "name": "isRegistered",
      "outputs": [
        {
          "internalType": "bool",
          "name": "",
          "type": "bool"
        }
      ],
      "stateMutability": "view",
      "type": "function"
    },
    {
      "inputs": [],
      "name": "nextOfferId",
      "outputs": [
        {
          "internalType": "uint256",
          "name": "offerId",
          "type": "uint256"
        }
      ],
      "stateMutability": "view",
      "type": "function"
    },
    {
      "inputs": [
        {
          "internalType": "uint256",
          "name": "offerId",
          "type": "uint256"
        }
      ],
      "name": "offers",
      "outputs": [
        {
          "components": [
            {
              "internalType": "address",
              "name": "maker",
              "type": "address"
            },
            {
              "internalType": "bytes32",
              "name": "makerIntmaxAddress",
              "type": "bytes32"
            },
            {
              "internalType": "uint256",
              "name": "makerAssetId",
              "type": "uint256"
            },
            {
              "internalType": "uint256",
              "name": "makerAmount",
              "type": "uint256"
            },
            {
              "internalType": "address",
              "name": "taker",
              "type": "address"
            },
            {
              "internalType": "bytes32",
              "name": "takerIntmaxAddress",
              "type": "bytes32"
            },
            {
              "internalType": "address",
              "name": "takerTokenAddress",
              "type": "address"
            },
            {
              "internalType": "uint256",
              "name": "takerAmount",
              "type": "uint256"
            },
            {
              "internalType": "bool",
              "name": "isActivated",
              "type": "bool"
            }
          ],
          "internalType": "struct OfferManagerBaseInterface.Offer",
          "name": "",
          "type": "tuple"
        }
      ],
      "stateMutability": "view",
      "type": "function"
    },
    {
      "inputs": [],
      "name": "owner",
      "outputs": [
        {
          "internalType": "address",
          "name": "",
          "type": "address"
        }
      ],
      "stateMutability": "view",
      "type": "function"
    },
    {
      "inputs": [
        {
          "internalType": "bytes32",
          "name": "takerIntmaxAddress",
          "type": "bytes32"
        },
        {
          "internalType": "address",
          "name": "takerTokenAddress",
          "type": "address"
        },
        {
          "internalType": "uint256",
          "name": "takerAmount",
          "type": "uint256"
        },
        {
          "internalType": "address",
          "name": "maker",
          "type": "address"
        },
        {
          "internalType": "uint256",
          "name": "makerAssetId",
          "type": "uint256"
        },
        {
          "internalType": "uint256",
          "name": "makerAmount",
          "type": "uint256"
        }
      ],
      "name": "register",
      "outputs": [
        {
          "internalType": "uint256",
          "name": "offerId",
          "type": "uint256"
        }
      ],
      "stateMutability": "payable",
      "type": "function"
    },
    {
      "inputs": [
        {
          "internalType": "address[]",
          "name": "tokens",
          "type": "address[]"
        }
      ],
      "name": "removeTokenAddressFromAllowList",
      "outputs": [],
      "stateMutability": "nonpayable",
      "type": "function"
    },
    {
      "inputs": [],
      "name": "renounceOwnership",
      "outputs": [],
      "stateMutability": "nonpayable",
      "type": "function"
    },
    {
      "inputs": [
        {
          "internalType": "address",
          "name": "",
          "type": "address"
        }
      ],
      "name": "tokenAllowList",
      "outputs": [
        {
          "internalType": "bool",
          "name": "",
          "type": "bool"
        }
      ],
      "stateMutability": "view",
      "type": "function"
    },
    {
      "inputs": [
        {
          "internalType": "address",
          "name": "newOwner",
          "type": "address"
        }
      ],
      "name": "transferOwnership",
      "outputs": [],
      "stateMutability": "nonpayable",
      "type": "function"
    },
    {
      "inputs": [
        {
          "internalType": "uint256",
          "name": "offerId",
          "type": "uint256"
        },
        {
          "internalType": "address",
          "name": "newMaker",
          "type": "address"
        }
      ],
      "name": "updateMaker",
      "outputs": [],
      "stateMutability": "nonpayable",
      "type": "function"
    },
    {
      "inputs": [
        {
          "internalType": "bytes32",
          "name": "",
          "type": "bytes32"
        }
      ],
      "name": "usedTxHashes",
      "outputs": [
        {
          "internalType": "bool",
          "name": "",
          "type": "bool"
        }
      ],
      "stateMutability": "view",
      "type": "function"
    },
    {
      "stateMutability": "payable",
      "type": "receive"
    }
  ],
  "bytecode": "0x60806040523480156200001157600080fd5b506200001c62000022565b620002de565b600254610100900460ff1615808015620000435750600254600160ff909116105b8062000073575062000060306200015e60201b62000d781760201c565b15801562000073575060025460ff166001145b620000dc5760405162461bcd60e51b815260206004820152602e60248201527f496e697469616c697a61626c653a20636f6e747261637420697320616c72656160448201526d191e481a5b9a5d1a585b1a5e995960921b60648201526084015b60405180910390fd5b6002805460ff19166001179055801562000100576002805461ff0019166101001790555b6200010a6200016d565b62000114620001cb565b80156200015b576002805461ff0019169055604051600181527f7f26b83ff96e1f2b6a682f133852f6798a09c465da95921460cefb38474024989060200160405180910390a15b50565b6001600160a01b03163b151590565b600254610100900460ff16620001c95760405162461bcd60e51b815260206004820152602b60248201526000805160206200255c83398151915260448201526a6e697469616c697a696e6760a81b6064820152608401620000d3565b565b600254610100900460ff16620002275760405162461bcd60e51b815260206004820152602b60248201526000805160206200255c83398151915260448201526a6e697469616c697a696e6760a81b6064820152608401620000d3565b620001c9600254610100900460ff16620002875760405162461bcd60e51b815260206004820152602b60248201526000805160206200255c83398151915260448201526a6e697469616c697a696e6760a81b6064820152608401620000d3565b620001c933603580546001600160a01b038381166001600160a01b0319831681179093556040519116919082907f8be0079c531659141344cd1fd0a4f28419497f9722a3daafe3b4186f6b6457e090600090a35050565b61226e80620002ee6000396000f3fe60806040526004361061010d5760003560e01c80637ec230fd116100955780638da5cb5b116100645780638da5cb5b1461048d578063b1323557146104b5578063bb218bdd146104d5578063cf04fb94146104f5578063f2fde38b1461051557600080fd5b80637ec230fd1461032a5780638129fc1c1461035a57806385ffdc571461036f5780638a72ea6a1461038f57600080fd5b80634579268a116100dc5780634579268a146101d45780635314e9fa146102a5578063579a6988146102c55780635f5d065514610300578063715018a61461031557600080fd5b80631100528e14610119578063277e2eab1461013b57806331809dcf1461016157806334e048c0146101a457600080fd5b3661011457005b600080fd5b34801561012557600080fd5b50610139610134366004611a83565b610535565b005b61014e610149366004611ab3565b6106a2565b6040519081526020015b60405180910390f35b34801561016d57600080fd5b5061019461017c366004611b0f565b60009081526001602052604090206008015460ff1690565b6040519015158152602001610158565b3480156101b057600080fd5b506101946101bf366004611b28565b60696020526000908152604090205460ff1681565b3480156101e057600080fd5b5061024f6101ef366004611b0f565b60009081526001602081905260409091208054918101546002820154600383015460048401546005850154600686015460078701546008909701546001600160a01b03988916999698959794969386169592949190921692909160ff1690565b604080516001600160a01b039a8b16815260208101999099528801969096526060870194909452918616608086015260a085015290931660c083015260e082019290925290151561010082015261012001610158565b3480156102b157600080fd5b506101946102c0366004611b45565b610893565b3480156102d157600080fd5b506101946102e0366004611b0f565b6000908152600160205260409020600401546001600160a01b0316151590565b34801561030c57600080fd5b5060005461014e565b34801561032157600080fd5b50610139610a3a565b34801561033657600080fd5b50610194610345366004611b0f565b60686020526000908152604090205460ff1681565b34801561036657600080fd5b50610139610a4e565b34801561037b57600080fd5b5061013961038a366004611bc1565b610b67565b34801561039b57600080fd5b506104806103aa366004611b0f565b6040805161012081018252600080825260208201819052918101829052606081018290526080810182905260a0810182905260c0810182905260e081018290526101008101919091525060009081526001602081815260409283902083516101208101855281546001600160a01b039081168252938201549281019290925260028101549382019390935260038301546060820152600483015482166080820152600583015460a0820152600683015490911660c0820152600782015460e082015260089091015460ff16151561010082015290565b6040516101589190611c36565b34801561049957600080fd5b506035546040516001600160a01b039091168152602001610158565b3480156104c157600080fd5b506101946104d0366004611b45565b610bc0565b3480156104e157600080fd5b506101396104f0366004611bc1565b610c84565b34801561050157600080fd5b50610139610510366004611b28565b610cd8565b34801561052157600080fd5b50610139610530366004611b28565b610d02565b6000828152600160205260409020600401546001600160a01b03166105755760405162461bcd60e51b815260040161056c90611cb3565b60405180910390fd5b6000828152600160205260409020600401546001600160a01b0316336001600160a01b0316146105f35760405162461bcd60e51b815260206004820152602360248201527f4f66666572732063616e2062652075706461746564206279206974732074616b60448201526232b91760e91b606482015260840161056c565b6001600160a01b0381166106495760405162461bcd60e51b815260206004820152601e60248201527f606e65774d616b6572602073686f756c64206e6f74206265207a65726f2e0000604482015260640161056c565b60008281526001602052604080822080546001600160a01b0319166001600160a01b0385169081179091559051909184917f3cd0cb8e18f3484f6b1dbeb6689d99826a4a894879341d803dd4775980e868219190a35050565b60006001600160a01b0384166106fa5760405162461bcd60e51b815260206004820152601960248201527f606d616b657260206d757374206e6f74206265207a65726f2e00000000000000604482015260640161056c565b6001600160a01b03861660009081526069602052604090205460ff166107885760405162461bcd60e51b815260206004820152603860248201527f7468652074616b6572277320746f6b656e2061646472657373206973206e6f7460448201527f20696e2074686520746f6b656e20616c6c6f77206c6973740000000000000000606482015260840161056c565b6001600160a01b0386166107fc578434146107f75760405162461bcd60e51b815260206004820152602960248201527f74616b6572416d6f756e74206d757374206265207468652073616d65206173206044820152686d73672e76616c756560b81b606482015260840161056c565b610877565b34156108625760405162461bcd60e51b815260206004820152602f60248201527f7472616e736d697373696f6e206d6574686f64206f74686572207468616e204560448201526e1512081a5cc81cdc1958da599a5959608a1b606482015260840161056c565b6108776001600160a01b038716333088610d87565b610888338888888860008989610df8565b979650505050505050565b600083815260016020818152604080842081516101208101835281546001600160a01b03908116808352958301549482019490945260028201549281019290925260038101546060830152600481015483166080830152600581015460a0830152600681015490921660c0820152600782015460e082015260089091015460ff1615156101008201529033146109795760405162461bcd60e51b815260206004820152602560248201527f4f6e6c7920746865206d616b65722063616e20756e6c6f636b2074686973206f604482015264333332b91760d91b606482015260840161056c565b6109cb6001600087815260200190815260200160002085858080601f01602080910402602001604051908101604052809392919081815260200183838082843760009201919091525061108592505050565b6109d4856111a9565b60c08101516001600160a01b0316610a0c5760e08101518151610a02916001600160a01b03909116906111f9565b6001915050610a33565b805160e082015160c0830151610a2d926001600160a01b0390911691611312565b60019150505b9392505050565b610a42611342565b610a4c600061139c565b565b600254610100900460ff1615808015610a6e5750600254600160ff909116105b80610a885750303b158015610a88575060025460ff166001145b610aeb5760405162461bcd60e51b815260206004820152602e60248201527f496e697469616c697a61626c653a20636f6e747261637420697320616c72656160448201526d191e481a5b9a5d1a585b1a5e995960921b606482015260840161056c565b6002805460ff191660011790558015610b0e576002805461ff0019166101001790555b610b166113ee565b610b1e611415565b8015610b64576002805461ff0019169055604051600181527f7f26b83ff96e1f2b6a682f133852f6798a09c465da95921460cefb38474024989060200160405180910390a15b50565b610b6f611342565b60005b81811015610bbb57610ba9838383818110610b8f57610b8f611cf9565b9050602002016020810190610ba49190611b28565b611444565b80610bb381611d25565b915050610b72565b505050565b600083815260016020818152604080842081516101208101835281546001600160a01b039081168252948201548185015260028201548184015260038201546060820152600482015485166080820152600582015460a0820152600682015490941660c0850152600781015460e08501526008015460ff1615156101008401528051601f8601839004830281018301909152848152610c7a9291869086908190840183828082843760009201919091525061144f92505050565b5060019392505050565b610c8c611342565b60005b81811015610bbb57610cc6838383818110610cac57610cac611cf9565b9050602002016020810190610cc19190611b28565b6115b1565b80610cd081611d25565b915050610c8f565b610ce0611342565b606780546001600160a01b0319166001600160a01b0392909216919091179055565b610d0a611342565b6001600160a01b038116610d6f5760405162461bcd60e51b815260206004820152602660248201527f4f776e61626c653a206e6577206f776e657220697320746865207a65726f206160448201526564647265737360d01b606482015260840161056c565b610b648161139c565b6001600160a01b03163b151590565b6040516001600160a01b0380851660248301528316604482015260648101829052610df29085906323b872dd60e01b906084015b60408051601f198184030181529190526020810180516001600160e01b03166001600160e01b0319909316929092179091526115bc565b50505050565b60006001600160a01b038916610e5c5760405162461bcd60e51b815260206004820152602360248201527f5468652074616b6572206d757374206e6f74206265207a65726f20616464726560448201526239b99760e91b606482015260840161056c565b506000805480825260016020526040909120600401546001600160a01b031615610ec85760405162461bcd60e51b815260206004820152601c60248201527f4f6666657220494420616c726561647920726567697374657265642e00000000604482015260640161056c565b6000604051806101200160405280876001600160a01b031681526020018681526020018581526020018481526020018b6001600160a01b031681526020018a8152602001896001600160a01b03168152602001888152602001600015158152509050610f338161168e565b6000828152600160208181526040808420855181546001600160a01b03199081166001600160a01b039283161783559387015182860155918601516002820155606086015160038201556080860151600482018054851691841691909117905560a0860151600582015560c086015160068201805490941692169190911790915560e084015160078201556101008401516008909101805460ff19169115159190911790558154019055604080518a81526001600160a01b038a81166020830152918101899052606081018790526080810186905260a08101859052908b169083907fa54ceef2bc7a2f3056774e409e3e0030176e5db647397f2d94f57f6e7d05ce3b9060c00160405180910390a36040516001600160a01b0387169083907f3cd0cb8e18f3484f6b1dbeb6689d99826a4a894879341d803dd4775980e8682190600090a35098975050505050505050565b60008180602001905181019061109b9190611f9f565b505060208082015160008181526068909252604090912054919450925060ff1615905061110a5760405162461bcd60e51b815260206004820152601a60248201527f476976656e207769746e65737320616c72656164792075736564000000000000604482015260640161056c565b604080516101208101825285546001600160a01b0390811682526001870154602083015260028701549282019290925260038601546060820152600486015482166080820152600586015460a0820152600686015490911660c0820152600785015460e0820152600885015460ff16151561010082015261118b908461144f565b6000908152606860205260409020805460ff19166001179055505050565b6111b281611710565b6000818152600160205260408082205490516001600160a01b039091169183917f03de52c2c41329254e0f4460f852f880efe669cd6efd0b60df3b75ec4a45016a9190a350565b804710156112495760405162461bcd60e51b815260206004820152601d60248201527f416464726573733a20696e73756666696369656e742062616c616e6365000000604482015260640161056c565b6000826001600160a01b03168260405160006040518083038185875af1925050503d8060008114611296576040519150601f19603f3d011682016040523d82523d6000602084013e61129b565b606091505b5050905080610bbb5760405162461bcd60e51b815260206004820152603a60248201527f416464726573733a20756e61626c6520746f2073656e642076616c75652c207260448201527f6563697069656e74206d61792068617665207265766572746564000000000000606482015260840161056c565b6040516001600160a01b038316602482015260448101829052610bbb90849063a9059cbb60e01b90606401610dbb565b6035546001600160a01b03163314610a4c5760405162461bcd60e51b815260206004820181905260248201527f4f776e61626c653a2063616c6c6572206973206e6f7420746865206f776e6572604482015260640161056c565b603580546001600160a01b038381166001600160a01b0319831681179093556040519116919082907f8be0079c531659141344cd1fd0a4f28419497f9722a3daafe3b4186f6b6457e090600090a35050565b600254610100900460ff16610a4c5760405162461bcd60e51b815260040161056c906120ca565b600254610100900460ff1661143c5760405162461bcd60e51b815260040161056c906120ca565b610a4c6117d6565b610b64816001611806565b60008061145f846040015161188c565b60408051600180825281830190925292945090925060009190816020015b604080516060810182526000808252602080830182905292820152825260001990920191018161147d57905050905060405180606001604052808481526020018381526020018660600151815250816000815181106114de576114de611cf9565b602090810291909101015260675460a086015160405163013c480b60e61b81526000926001600160a01b031691634f1202c0916115219186918a90600401612141565b602060405180830381865afa15801561153e573d6000803e3d6000fd5b505050506040513d601f19601f8201168201806040525081019061156291906121b5565b9050806115a95760405162461bcd60e51b81526020600482015260156024820152744661696c20746f207665726966792061737365747360581b604482015260640161056c565b505050505050565b610b64816000611806565b6000611611826040518060400160405280602081526020017f5361666545524332303a206c6f772d6c6576656c2063616c6c206661696c6564815250856001600160a01b03166118ee9092919063ffffffff16565b805190915015610bbb578080602001905181019061162f91906121b5565b610bbb5760405162461bcd60e51b815260206004820152602a60248201527f5361666545524332303a204552433230206f7065726174696f6e20646964206e6044820152691bdd081cdd58d8d9595960b21b606482015260840161056c565b67ffffffff0000000081606001511115610b645760405162461bcd60e51b815260206004820152603860248201527f496e76616c6964206f6666657220616d6f756e743a2065786365656473206d6160448201527f78696d756d2072656d697474616e636520616d6f756e742e0000000000000000606482015260840161056c565b6000818152600160205260409020600401546001600160a01b03166117475760405162461bcd60e51b815260040161056c90611cb3565b60008181526001602052604090206008015460ff16156117b55760405162461bcd60e51b815260206004820152602360248201527f54686973206f6666657220494420697320616c7265616479206163746976617460448201526232b21760e91b606482015260840161056c565b6000908152600160208190526040909120600801805460ff19169091179055565b600254610100900460ff166117fd5760405162461bcd60e51b815260040161056c906120ca565b610a4c3361139c565b6001600160a01b03821660009081526069602052604090205460ff16151581151514611888576001600160a01b038216600081815260696020908152604091829020805460ff191685151590811790915591519182527f46db97cfb5cec0c4481ae6eaad91699beae5943dbe74134f4be23f33163cfa26910160405180910390a25b5050565b60008060c06118a46001600160c01b036000196121d7565b604080516001600160c01b0387166020820181905292871690931c93509091016040516020818303038152906040528060200190518101906118e691906121f0565b925050915091565b60606118fd8484600085611905565b949350505050565b6060824710156119665760405162461bcd60e51b815260206004820152602660248201527f416464726573733a20696e73756666696369656e742062616c616e636520666f6044820152651c8818d85b1b60d21b606482015260840161056c565b600080866001600160a01b031685876040516119829190612209565b60006040518083038185875af1925050503d80600081146119bf576040519150601f19603f3d011682016040523d82523d6000602084013e6119c4565b606091505b50915091506108888783838760608315611a3f578251600003611a38576001600160a01b0385163b611a385760405162461bcd60e51b815260206004820152601d60248201527f416464726573733a2063616c6c20746f206e6f6e2d636f6e7472616374000000604482015260640161056c565b50816118fd565b6118fd8383815115611a545781518083602001fd5b8060405162461bcd60e51b815260040161056c9190612225565b6001600160a01b0381168114610b6457600080fd5b60008060408385031215611a9657600080fd5b823591506020830135611aa881611a6e565b809150509250929050565b60008060008060008060c08789031215611acc57600080fd5b863595506020870135611ade81611a6e565b9450604087013593506060870135611af581611a6e565b9598949750929560808101359460a0909101359350915050565b600060208284031215611b2157600080fd5b5035919050565b600060208284031215611b3a57600080fd5b8135610a3381611a6e565b600080600060408486031215611b5a57600080fd5b83359250602084013567ffffffffffffffff80821115611b7957600080fd5b818601915086601f830112611b8d57600080fd5b813581811115611b9c57600080fd5b876020828501011115611bae57600080fd5b6020830194508093505050509250925092565b60008060208385031215611bd457600080fd5b823567ffffffffffffffff80821115611bec57600080fd5b818501915085601f830112611c0057600080fd5b813581811115611c0f57600080fd5b8660208260051b8501011115611c2457600080fd5b60209290920196919550909350505050565b81516001600160a01b03908116825260208084015190830152604080840151908301526060808401519083015260808084015182169083015260a0838101519083015260c080840151918216908301526101208201905060e083015160e083015261010080840151611cab8285018215159052565b505092915050565b60208082526026908201527f54686973206f6666657220494420686173206e6f74206265656e2072656769736040820152653a32b932b21760d11b606082015260800190565b634e487b7160e01b600052603260045260246000fd5b634e487b7160e01b600052601160045260246000fd5b600060018201611d3757611d37611d0f565b5060010190565b634e487b7160e01b600052604160045260246000fd5b6040516060810167ffffffffffffffff81118282101715611d7757611d77611d3e565b60405290565b604051601f8201601f1916810167ffffffffffffffff81118282101715611da657611da6611d3e565b604052919050565b600067ffffffffffffffff821115611dc857611dc8611d3e565b5060051b60200190565b600060608284031215611de457600080fd5b611dec611d54565b90508151815260208083015181830152604083015167ffffffffffffffff811115611e1657600080fd5b8301601f81018513611e2757600080fd5b8051611e3a611e3582611dae565b611d7d565b81815260059190911b82018301908381019087831115611e5957600080fd5b928401925b82841015611e7757835182529284019290840190611e5e565b6040860152509295945050505050565b6000610100808385031215611e9b57600080fd5b6040519081019067ffffffffffffffff82118183101715611ebe57611ebe611d3e565b81604052809250835181526020840151602082015260408401516040820152606084015160608201526080840151608082015260a084015160a082015260c084015160c082015260e084015160e0820152505092915050565b60005b83811015611f32578181015183820152602001611f1a565b50506000910152565b600082601f830112611f4c57600080fd5b815167ffffffffffffffff811115611f6657611f66611d3e565b611f79601f8201601f1916602001611d7d565b818152846020838601011115611f8e57600080fd5b6118fd826020830160208701611f17565b60008060008060006101808688031215611fb857600080fd5b855167ffffffffffffffff80821115611fd057600080fd5b818801915088601f830112611fe457600080fd5b81516020611ff4611e3583611dae565b8281526060928302850182019282820191908d85111561201357600080fd5b958301955b8487101561205d5780878f0312156120305760008081fd5b612038611d54565b8751815284880151858201526040808901519082015283529586019591830191612018565b819b50838d01519a5060408d015196508587111561207a57600080fd5b6120868e888f01611dd2565b99506120948e828f01611e87565b985050505050506101608801519150808211156120b057600080fd5b506120bd88828901611f3b565b9150509295509295909350565b6020808252602b908201527f496e697469616c697a61626c653a20636f6e7472616374206973206e6f74206960408201526a6e697469616c697a696e6760a81b606082015260800190565b6000815180845261212d816020860160208601611f17565b601f01601f19169290920160200192915050565b60608082528451828201819052600091906020906080850190828901855b8281101561218f57815180518552858101518686015260409081015190850152928501929084019060010161215f565b505050868286015284810360408601526121a98187612115565b98975050505050505050565b6000602082840312156121c757600080fd5b81518015158114610a3357600080fd5b818103818111156121ea576121ea611d0f565b92915050565b60006020828403121561220257600080fd5b5051919050565b6000825161221b818460208701611f17565b9190910192915050565b602081526000610a33602083018461211556fea26469706673582212204d6f7ceeb385ab27ef384c91d86ec9130290325e1de1c90289dde71639a8e5aa64736f6c63430008110033496e697469616c697a61626c653a20636f6e7472616374206973206e6f742069",
  "linkReferences": {},
  "deployedLinkReferences": {}
}