{
  "_format": "hh-sol-artifact-1",
  "contractName": "OfferManager",
  "sourceName": "contracts/OfferManager.sol",
  "abi": [
    {
      "anonymous": false,
      "inputs": [
        {
          "indexed": true,
          "internalType": "uint256",
          "name": "offerId",
          "type": "uint256"
        },
        {
          "indexed": true,
          "internalType": "bytes32",
          "name": "takerIntmaxAddress",
          "type": "bytes32"
        }
      ],
      "name": "OfferActivated",
      "type": "event"
    },
    {
      "anonymous": false,
      "inputs": [
        {
          "indexed": true,
          "internalType": "uint256",
          "name": "offerId",
          "type": "uint256"
        }
      ],
      "name": "OfferDeactivated",
      "type": "event"
    },
    {
      "anonymous": false,
      "inputs": [
        {
          "indexed": true,
          "internalType": "uint256",
          "name": "offerId",
          "type": "uint256"
        },
        {
          "indexed": true,
          "internalType": "address",
          "name": "maker",
          "type": "address"
        },
        {
          "indexed": false,
          "internalType": "bytes32",
          "name": "makerIntmaxAddress",
          "type": "bytes32"
        },
        {
          "indexed": false,
          "internalType": "uint256",
          "name": "makerAssetId",
          "type": "uint256"
        },
        {
          "indexed": false,
          "internalType": "uint256",
          "name": "makerAmount",
          "type": "uint256"
        },
        {
          "indexed": false,
          "internalType": "address",
          "name": "taker",
          "type": "address"
        },
        {
          "indexed": false,
          "internalType": "address",
          "name": "takerTokenAddress",
          "type": "address"
        },
        {
          "indexed": false,
          "internalType": "uint256",
          "name": "takerAmount",
          "type": "uint256"
        }
      ],
      "name": "OfferRegistered",
      "type": "event"
    },
    {
      "anonymous": false,
      "inputs": [
        {
          "indexed": true,
          "internalType": "uint256",
          "name": "offerId",
          "type": "uint256"
        },
        {
          "indexed": true,
          "internalType": "bytes32",
          "name": "takerIntmaxAddress",
          "type": "bytes32"
        }
      ],
      "name": "OfferTakerUpdated",
      "type": "event"
    },
    {
      "inputs": [
        {
          "internalType": "uint256",
          "name": "offerId",
          "type": "uint256"
        }
      ],
      "name": "activate",
      "outputs": [
        {
          "internalType": "bool",
          "name": "",
          "type": "bool"
        }
      ],
      "stateMutability": "payable",
      "type": "function"
    },
    {
      "inputs": [
        {
          "internalType": "uint256",
          "name": "offerId",
          "type": "uint256"
        }
      ],
      "name": "deactivate",
      "outputs": [
        {
          "internalType": "bool",
          "name": "",
          "type": "bool"
        }
      ],
      "stateMutability": "nonpayable",
      "type": "function"
    },
    {
      "inputs": [
        {
          "internalType": "uint256",
          "name": "offerId",
          "type": "uint256"
        }
      ],
      "name": "getOffer",
      "outputs": [
        {
          "internalType": "address",
          "name": "maker",
          "type": "address"
        },
        {
          "internalType": "bytes32",
          "name": "makerIntmaxAddress",
          "type": "bytes32"
        },
        {
          "internalType": "uint256",
          "name": "makerAssetId",
          "type": "uint256"
        },
        {
          "internalType": "uint256",
          "name": "makerAmount",
          "type": "uint256"
        },
        {
          "internalType": "address",
          "name": "taker",
          "type": "address"
        },
        {
          "internalType": "bytes32",
          "name": "takerIntmaxAddress",
          "type": "bytes32"
        },
        {
          "internalType": "address",
          "name": "takerTokenAddress",
          "type": "address"
        },
        {
          "internalType": "uint256",
          "name": "takerAmount",
          "type": "uint256"
        },
        {
          "internalType": "bool",
          "name": "activated",
          "type": "bool"
        }
      ],
      "stateMutability": "view",
      "type": "function"
    },
    {
      "inputs": [
        {
          "internalType": "uint256",
          "name": "offerId",
          "type": "uint256"
        }
      ],
      "name": "isActivated",
      "outputs": [
        {
          "internalType": "bool",
          "name": "",
          "type": "bool"
        }
      ],
      "stateMutability": "view",
      "type": "function"
    },
    {
      "inputs": [
        {
          "internalType": "uint256",
          "name": "offerId",
          "type": "uint256"
        }
      ],
      "name": "isRegistered",
      "outputs": [
        {
          "internalType": "bool",
          "name": "",
          "type": "bool"
        }
      ],
      "stateMutability": "view",
      "type": "function"
    },
    {
      "inputs": [],
      "name": "nextOfferId",
      "outputs": [
        {
          "internalType": "uint256",
          "name": "",
          "type": "uint256"
        }
      ],
      "stateMutability": "view",
      "type": "function"
    },
    {
      "inputs": [
        {
          "internalType": "bytes32",
          "name": "makerIntmaxAddress",
          "type": "bytes32"
        },
        {
          "internalType": "uint256",
          "name": "makerAssetId",
          "type": "uint256"
        },
        {
          "internalType": "uint256",
          "name": "makerAmount",
          "type": "uint256"
        },
        {
          "internalType": "address",
          "name": "taker",
          "type": "address"
        },
        {
          "internalType": "bytes32",
          "name": "takerIntmaxAddress",
          "type": "bytes32"
        },
        {
          "internalType": "address",
          "name": "takerTokenAddress",
          "type": "address"
        },
        {
          "internalType": "uint256",
          "name": "takerAmount",
          "type": "uint256"
        }
      ],
      "name": "register",
      "outputs": [
        {
          "internalType": "uint256",
          "name": "offerId",
          "type": "uint256"
        }
      ],
      "stateMutability": "nonpayable",
      "type": "function"
    },
    {
      "inputs": [
        {
          "internalType": "uint256",
          "name": "offerId",
          "type": "uint256"
        },
        {
          "internalType": "bytes32",
          "name": "newTakerIntmaxAddress",
          "type": "bytes32"
        }
      ],
      "name": "updateTaker",
      "outputs": [],
      "stateMutability": "nonpayable",
      "type": "function"
    }
  ],
  "bytecode": "0x60806040526000805534801561001457600080fd5b50611c3c806100246000396000f3fe60806040526004361061007b5760003560e01c80635f5d06551161004e5780635f5d065514610168578063916b9bef14610193578063b260c42a146101d0578063b75c3c01146102005761007b565b806331809dcf1461008057806337805585146100bd5780634579268a146100e6578063579a69881461012b575b600080fd5b34801561008c57600080fd5b506100a760048036038101906100a2919061106d565b61023d565b6040516100b491906110b5565b60405180910390f35b3480156100c957600080fd5b506100e460048036038101906100df9190611106565b61026a565b005b3480156100f257600080fd5b5061010d6004803603810190610108919061106d565b6103eb565b604051610122999897969594939291906111a5565b60405180910390f35b34801561013757600080fd5b50610152600480360381019061014d919061106d565b6104c9565b60405161015f91906110b5565b60405180910390f35b34801561017457600080fd5b5061017d610538565b60405161018a9190611232565b60405180910390f35b34801561019f57600080fd5b506101ba60048036038101906101b5919061106d565b61053e565b6040516101c791906110b5565b60405180910390f35b6101ea60048036038101906101e5919061106d565b6105f6565b6040516101f791906110b5565b60405180910390f35b34801561020c57600080fd5b5061022760048036038101906102229190611279565b610a3f565b6040516102349190611232565b60405180910390f35b60006001600083815260200190815260200160002060080160009054906101000a900460ff169050919050565b610273826104c9565b6102b2576040517f08c379a00000000000000000000000000000000000000000000000000000000081526004016102a99061139e565b60405180910390fd5b6001600083815260200190815260200160002060000160009054906101000a900473ffffffffffffffffffffffffffffffffffffffff1673ffffffffffffffffffffffffffffffffffffffff163373ffffffffffffffffffffffffffffffffffffffff1614610356576040517f08c379a000000000000000000000000000000000000000000000000000000000815260040161034d90611430565b60405180910390fd5b61035f81610b49565b61039e576040517f08c379a0000000000000000000000000000000000000000000000000000000008152600401610395906114c2565b60405180910390fd5b80600160008481526020019081526020016000206005018190555080827f78f1204b0d8f130e8e8cdf9c2380aa132af9ea05233199057b67ca9ca952940160405160405180910390a35050565b600080600080600080600080600080600160008c815260200190815260200160002090508060000160009054906101000a900473ffffffffffffffffffffffffffffffffffffffff1699508060010154985080600201549750806003015496508060040160009054906101000a900473ffffffffffffffffffffffffffffffffffffffff169550806005015494508060060160009054906101000a900473ffffffffffffffffffffffffffffffffffffffff169350806007015492508060080160009054906101000a900460ff169150509193959799909294969850565b60008073ffffffffffffffffffffffffffffffffffffffff166001600084815260200190815260200160002060000160009054906101000a900473ffffffffffffffffffffffffffffffffffffffff1673ffffffffffffffffffffffffffffffffffffffff1614159050919050565b60005481565b60006001600083815260200190815260200160002060000160009054906101000a900473ffffffffffffffffffffffffffffffffffffffff1673ffffffffffffffffffffffffffffffffffffffff163373ffffffffffffffffffffffffffffffffffffffff16146105e4576040517f08c379a00000000000000000000000000000000000000000000000000000000081526004016105db90611554565b60405180910390fd5b6105ed82610b59565b60019050919050565b6000806001600084815260200190815260200160002060040160009054906101000a900473ffffffffffffffffffffffffffffffffffffffff169050600073ffffffffffffffffffffffffffffffffffffffff168173ffffffffffffffffffffffffffffffffffffffff16146106d5578073ffffffffffffffffffffffffffffffffffffffff163373ffffffffffffffffffffffffffffffffffffffff16146106d4576040517f08c379a00000000000000000000000000000000000000000000000000000000081526004016106cb906115e6565b60405180910390fd5b5b600060016000858152602001908152602001600020604051806101200160405290816000820160009054906101000a900473ffffffffffffffffffffffffffffffffffffffff1673ffffffffffffffffffffffffffffffffffffffff1673ffffffffffffffffffffffffffffffffffffffff1681526020016001820154815260200160028201548152602001600382015481526020016004820160009054906101000a900473ffffffffffffffffffffffffffffffffffffffff1673ffffffffffffffffffffffffffffffffffffffff1673ffffffffffffffffffffffffffffffffffffffff168152602001600582015481526020016006820160009054906101000a900473ffffffffffffffffffffffffffffffffffffffff1673ffffffffffffffffffffffffffffffffffffffff1673ffffffffffffffffffffffffffffffffffffffff168152602001600782015481526020016008820160009054906101000a900460ff16151515158152505090508060e0015134101561088e576040517f08c379a000000000000000000000000000000000000000000000000000000000815260040161088590611678565b60405180910390fd5b61089784610b92565b600073ffffffffffffffffffffffffffffffffffffffff168160c0015173ffffffffffffffffffffffffffffffffffffffff160361091f57806000015173ffffffffffffffffffffffffffffffffffffffff166108fc349081150290604051600060405180830381858888f19350505050158015610919573d6000803e3d6000fd5b50610a34565b60003414610962576040517f08c379a00000000000000000000000000000000000000000000000000000000081526004016109599061170a565b60405180910390fd5b60008160c0015173ffffffffffffffffffffffffffffffffffffffff166323b872dd3384600001518560e001516040518463ffffffff1660e01b81526004016109ad9392919061172a565b6020604051808303816000875af11580156109cc573d6000803e3d6000fd5b505050506040513d601f19601f820116820180604052508101906109f0919061178d565b905080610a32576040517f08c379a0000000000000000000000000000000000000000000000000000000008152600401610a2990611806565b60405180910390fd5b505b600192505050919050565b60008073ffffffffffffffffffffffffffffffffffffffff168373ffffffffffffffffffffffffffffffffffffffff1614610b2c5760008373ffffffffffffffffffffffffffffffffffffffff166318160ddd6040518163ffffffff1660e01b8152600401602060405180830381865afa158015610ac1573d6000803e3d6000fd5b505050506040513d601f19601f82011682018060405250810190610ae5919061183b565b905060008103610b2a576040517f08c379a0000000000000000000000000000000000000000000000000000000008152600401610b21906118da565b60405180910390fd5b505b610b3c3389898989898989610be2565b9050979650505050505050565b60008060001b8214159050919050565b610b6281610f1e565b807ff1b44e492f69c0888dede3ae9e5f0d48199df4e7735ccc87be8c98aa12f8113060405160405180910390a250565b610b9b81610f1e565b6001600082815260200190815260200160002060050154817fd24204a0846309eb47a4c7152aa297a8bbde01aedbf11b47790f2abd9da76c3160405160405180910390a350565b60008073ffffffffffffffffffffffffffffffffffffffff168973ffffffffffffffffffffffffffffffffffffffff1603610c52576040517f08c379a0000000000000000000000000000000000000000000000000000000008152600401610c499061196c565b60405180910390fd5b6000549050610c60816104c9565b15610ca0576040517f08c379a0000000000000000000000000000000000000000000000000000000008152600401610c97906119fe565b60405180910390fd5b60006040518061012001604052808b73ffffffffffffffffffffffffffffffffffffffff1681526020018a81526020018981526020018881526020018773ffffffffffffffffffffffffffffffffffffffff1681526020018681526020018573ffffffffffffffffffffffffffffffffffffffff168152602001848152602001600015158152509050610d3281610fe0565b806001600084815260200190815260200160002060008201518160000160006101000a81548173ffffffffffffffffffffffffffffffffffffffff021916908373ffffffffffffffffffffffffffffffffffffffff16021790555060208201518160010155604082015181600201556060820151816003015560808201518160040160006101000a81548173ffffffffffffffffffffffffffffffffffffffff021916908373ffffffffffffffffffffffffffffffffffffffff16021790555060a0820151816005015560c08201518160060160006101000a81548173ffffffffffffffffffffffffffffffffffffffff021916908373ffffffffffffffffffffffffffffffffffffffff16021790555060e082015181600701556101008201518160080160006101000a81548160ff0219169083151502179055509050506001600080828254610e839190611a4d565b925050819055508973ffffffffffffffffffffffffffffffffffffffff16827f97e91b5b77af37d6c0e8b82837d7263b92cf6ce511d8129330589df1e11394978b8b8b8b8a8a604051610edb96959493929190611a81565b60405180910390a384827f78f1204b0d8f130e8e8cdf9c2380aa132af9ea05233199057b67ca9ca952940160405160405180910390a35098975050505050505050565b610f27816104c9565b610f66576040517f08c379a0000000000000000000000000000000000000000000000000000000008152600401610f5d9061139e565b60405180910390fd5b610f6f8161023d565b15610faf576040517f08c379a0000000000000000000000000000000000000000000000000000000008152600401610fa690611b54565b60405180910390fd5b600180600083815260200190815260200160002060080160006101000a81548160ff02191690831515021790555050565b67ffffffff000000008160600151111561102f576040517f08c379a000000000000000000000000000000000000000000000000000000000815260040161102690611be6565b60405180910390fd5b50565b600080fd5b6000819050919050565b61104a81611037565b811461105557600080fd5b50565b60008135905061106781611041565b92915050565b60006020828403121561108357611082611032565b5b600061109184828501611058565b91505092915050565b60008115159050919050565b6110af8161109a565b82525050565b60006020820190506110ca60008301846110a6565b92915050565b6000819050919050565b6110e3816110d0565b81146110ee57600080fd5b50565b600081359050611100816110da565b92915050565b6000806040838503121561111d5761111c611032565b5b600061112b85828601611058565b925050602061113c858286016110f1565b9150509250929050565b600073ffffffffffffffffffffffffffffffffffffffff82169050919050565b600061117182611146565b9050919050565b61118181611166565b82525050565b611190816110d0565b82525050565b61119f81611037565b82525050565b6000610120820190506111bb600083018c611178565b6111c8602083018b611187565b6111d5604083018a611196565b6111e26060830189611196565b6111ef6080830188611178565b6111fc60a0830187611187565b61120960c0830186611178565b61121660e0830185611196565b6112246101008301846110a6565b9a9950505050505050505050565b60006020820190506112476000830184611196565b92915050565b61125681611166565b811461126157600080fd5b50565b6000813590506112738161124d565b92915050565b600080600080600080600060e0888a03121561129857611297611032565b5b60006112a68a828b016110f1565b97505060206112b78a828b01611058565b96505060406112c88a828b01611058565b95505060606112d98a828b01611264565b94505060806112ea8a828b016110f1565b93505060a06112fb8a828b01611264565b92505060c061130c8a828b01611058565b91505092959891949750929550565b600082825260208201905092915050565b7f54686973206f6666657220494420686173206e6f74206265656e20726567697360008201527f74657265642e0000000000000000000000000000000000000000000000000000602082015250565b600061138860268361131b565b91506113938261132c565b604082019050919050565b600060208201905081810360008301526113b78161137b565b9050919050565b7f6f66666572732063616e206265207570646174656420627920697473206d616b60008201527f6572000000000000000000000000000000000000000000000000000000000000602082015250565b600061141a60228361131b565b9150611425826113be565b604082019050919050565b600060208201905081810360008301526114498161140d565b9050919050565b7f606e657754616b6572496e746d617841646472657373602073686f756c64206e60008201527f6f74206265207a65726f00000000000000000000000000000000000000000000602082015250565b60006114ac602a8361131b565b91506114b782611450565b604082019050919050565b600060208201905081810360008301526114db8161149f565b9050919050565b7f6f6e6c7920746865206d616b6572206f6620616e206f666665722063616e206460008201527f6561637469766174652069740000000000000000000000000000000000000000602082015250565b600061153e602c8361131b565b9150611549826114e2565b604082019050919050565b6000602082019050818103600083015261156d81611531565b9050919050565b7f6f66666572732063616e2062652061637469766174656420627920697473207460008201527f616b657200000000000000000000000000000000000000000000000000000000602082015250565b60006115d060248361131b565b91506115db82611574565b604082019050919050565b600060208201905081810360008301526115ff816115c3565b9050919050565b7f706c656173652073656e6420656e6f756768206d6f6e657920746f206163746960008201527f7661746500000000000000000000000000000000000000000000000000000000602082015250565b600061166260248361131b565b915061166d82611606565b604082019050919050565b6000602082019050818103600083015261169181611655565b9050919050565b7f7472616e736d697373696f6e206d6574686f64206f74686572207468616e204560008201527f5448206973207370656369666965640000000000000000000000000000000000602082015250565b60006116f4602f8361131b565b91506116ff82611698565b604082019050919050565b60006020820190508181036000830152611723816116e7565b9050919050565b600060608201905061173f6000830186611178565b61174c6020830185611178565b6117596040830184611196565b949350505050565b61176a8161109a565b811461177557600080fd5b50565b60008151905061178781611761565b92915050565b6000602082840312156117a3576117a2611032565b5b60006117b184828501611778565b91505092915050565b7f6661696c20746f207472616e7366657220455243323020746f6b656e00000000600082015250565b60006117f0601c8361131b565b91506117fb826117ba565b602082019050919050565b6000602082019050818103600083015261181f816117e3565b9050919050565b60008151905061183581611041565b92915050565b60006020828403121561185157611850611032565b5b600061185f84828501611826565b91505092915050565b7f74686520746f74616c20737570706c79206f66204552433230206d757374206e60008201527f6f74206265207a65726f00000000000000000000000000000000000000000000602082015250565b60006118c4602a8361131b565b91506118cf82611868565b604082019050919050565b600060208201905081810360008301526118f3816118b7565b9050919050565b7f546865206d616b6572206d757374206e6f74206265207a65726f20616464726560008201527f73732e0000000000000000000000000000000000000000000000000000000000602082015250565b600061195660238361131b565b9150611961826118fa565b604082019050919050565b6000602082019050818103600083015261198581611949565b9050919050565b7f54686973206f6666657220494420697320616c7265616479207265676973746560008201527f7265642e00000000000000000000000000000000000000000000000000000000602082015250565b60006119e860248361131b565b91506119f38261198c565b604082019050919050565b60006020820190508181036000830152611a17816119db565b9050919050565b7f4e487b7100000000000000000000000000000000000000000000000000000000600052601160045260246000fd5b6000611a5882611037565b9150611a6383611037565b9250828201905080821115611a7b57611a7a611a1e565b5b92915050565b600060c082019050611a966000830189611187565b611aa36020830188611196565b611ab06040830187611196565b611abd6060830186611178565b611aca6080830185611178565b611ad760a0830184611196565b979650505050505050565b7f54686973206f6666657220494420697320616c7265616479206163746976617460008201527f65642e0000000000000000000000000000000000000000000000000000000000602082015250565b6000611b3e60238361131b565b9150611b4982611ae2565b604082019050919050565b60006020820190508181036000830152611b6d81611b31565b9050919050565b7f496e76616c6964206f6666657220616d6f756e743a2065786365656473206d6160008201527f78696d756d2072656d697474616e636520616d6f756e742e0000000000000000602082015250565b6000611bd060388361131b565b9150611bdb82611b74565b604082019050919050565b60006020820190508181036000830152611bff81611bc3565b905091905056fea2646970667358221220066e10d6748adac6a398504785a142cadbd02f5e4ecbde09cca38bf7d22f756f64736f6c63430008110033",
  "linkReferences": {},
  "deployedLinkReferences": {}
}