{
  "_format": "hh-sol-artifact-1",
  "contractName": "OfferManager",
  "sourceName": "contracts/OfferManager.sol",
  "abi": [
    {
      "anonymous": false,
      "inputs": [
        {
          "indexed": false,
          "internalType": "uint8",
          "name": "version",
          "type": "uint8"
        }
      ],
      "name": "Initialized",
      "type": "event"
    },
    {
      "anonymous": false,
      "inputs": [
        {
          "indexed": true,
          "internalType": "uint256",
          "name": "offerId",
          "type": "uint256"
        },
        {
          "indexed": true,
          "internalType": "bytes32",
          "name": "takerIntmaxAddress",
          "type": "bytes32"
        }
      ],
      "name": "OfferActivated",
      "type": "event"
    },
    {
      "anonymous": false,
      "inputs": [
        {
          "indexed": true,
          "internalType": "uint256",
          "name": "offerId",
          "type": "uint256"
        }
      ],
      "name": "OfferDeactivated",
      "type": "event"
    },
    {
      "anonymous": false,
      "inputs": [
        {
          "indexed": true,
          "internalType": "uint256",
          "name": "offerId",
          "type": "uint256"
        },
        {
          "indexed": true,
          "internalType": "address",
          "name": "maker",
          "type": "address"
        },
        {
          "indexed": false,
          "internalType": "bytes32",
          "name": "makerIntmaxAddress",
          "type": "bytes32"
        },
        {
          "indexed": false,
          "internalType": "uint256",
          "name": "makerAssetId",
          "type": "uint256"
        },
        {
          "indexed": false,
          "internalType": "uint256",
          "name": "makerAmount",
          "type": "uint256"
        },
        {
          "indexed": false,
          "internalType": "address",
          "name": "taker",
          "type": "address"
        },
        {
          "indexed": false,
          "internalType": "address",
          "name": "takerTokenAddress",
          "type": "address"
        },
        {
          "indexed": false,
          "internalType": "uint256",
          "name": "takerAmount",
          "type": "uint256"
        }
      ],
      "name": "OfferRegistered",
      "type": "event"
    },
    {
      "anonymous": false,
      "inputs": [
        {
          "indexed": true,
          "internalType": "uint256",
          "name": "offerId",
          "type": "uint256"
        },
        {
          "indexed": true,
          "internalType": "bytes32",
          "name": "takerIntmaxAddress",
          "type": "bytes32"
        }
      ],
      "name": "OfferTakerUpdated",
      "type": "event"
    },
    {
      "inputs": [
        {
          "internalType": "uint256",
          "name": "offerId",
          "type": "uint256"
        }
      ],
      "name": "activate",
      "outputs": [
        {
          "internalType": "bool",
          "name": "",
          "type": "bool"
        }
      ],
      "stateMutability": "payable",
      "type": "function"
    },
    {
      "inputs": [
        {
          "internalType": "uint256",
          "name": "offerId",
          "type": "uint256"
        }
      ],
      "name": "deactivate",
      "outputs": [
        {
          "internalType": "bool",
          "name": "",
          "type": "bool"
        }
      ],
      "stateMutability": "nonpayable",
      "type": "function"
    },
    {
      "inputs": [
        {
          "internalType": "uint256",
          "name": "offerId",
          "type": "uint256"
        }
      ],
      "name": "getOffer",
      "outputs": [
        {
          "internalType": "address",
          "name": "maker",
          "type": "address"
        },
        {
          "internalType": "bytes32",
          "name": "makerIntmaxAddress",
          "type": "bytes32"
        },
        {
          "internalType": "uint256",
          "name": "makerAssetId",
          "type": "uint256"
        },
        {
          "internalType": "uint256",
          "name": "makerAmount",
          "type": "uint256"
        },
        {
          "internalType": "address",
          "name": "taker",
          "type": "address"
        },
        {
          "internalType": "bytes32",
          "name": "takerIntmaxAddress",
          "type": "bytes32"
        },
        {
          "internalType": "address",
          "name": "takerTokenAddress",
          "type": "address"
        },
        {
          "internalType": "uint256",
          "name": "takerAmount",
          "type": "uint256"
        },
        {
          "internalType": "bool",
          "name": "activated",
          "type": "bool"
        }
      ],
      "stateMutability": "view",
      "type": "function"
    },
    {
      "inputs": [],
      "name": "initialize",
      "outputs": [],
      "stateMutability": "nonpayable",
      "type": "function"
    },
    {
      "inputs": [
        {
          "internalType": "uint256",
          "name": "offerId",
          "type": "uint256"
        }
      ],
      "name": "isActivated",
      "outputs": [
        {
          "internalType": "bool",
          "name": "",
          "type": "bool"
        }
      ],
      "stateMutability": "view",
      "type": "function"
    },
    {
      "inputs": [
        {
          "internalType": "uint256",
          "name": "offerId",
          "type": "uint256"
        }
      ],
      "name": "isRegistered",
      "outputs": [
        {
          "internalType": "bool",
          "name": "",
          "type": "bool"
        }
      ],
      "stateMutability": "view",
      "type": "function"
    },
    {
      "inputs": [],
      "name": "nextOfferId",
      "outputs": [
        {
          "internalType": "uint256",
          "name": "offerId",
          "type": "uint256"
        }
      ],
      "stateMutability": "view",
      "type": "function"
    },
    {
      "inputs": [
        {
          "internalType": "bytes32",
          "name": "makerIntmaxAddress",
          "type": "bytes32"
        },
        {
          "internalType": "uint256",
          "name": "makerAssetId",
          "type": "uint256"
        },
        {
          "internalType": "uint256",
          "name": "makerAmount",
          "type": "uint256"
        },
        {
          "internalType": "address",
          "name": "taker",
          "type": "address"
        },
        {
          "internalType": "bytes32",
          "name": "takerIntmaxAddress",
          "type": "bytes32"
        },
        {
          "internalType": "address",
          "name": "takerTokenAddress",
          "type": "address"
        },
        {
          "internalType": "uint256",
          "name": "takerAmount",
          "type": "uint256"
        }
      ],
      "name": "register",
      "outputs": [
        {
          "internalType": "uint256",
          "name": "offerId",
          "type": "uint256"
        }
      ],
      "stateMutability": "nonpayable",
      "type": "function"
    },
    {
      "inputs": [
        {
          "internalType": "uint256",
          "name": "offerId",
          "type": "uint256"
        },
        {
          "internalType": "bytes32",
          "name": "newTakerIntmaxAddress",
          "type": "bytes32"
        }
      ],
      "name": "updateTaker",
      "outputs": [],
      "stateMutability": "nonpayable",
      "type": "function"
    }
  ],
  "bytecode": "0x608060405234801561001057600080fd5b50610fd7806100206000396000f3fe6080604052600436106100865760003560e01c80635f5d0655116100595780635f5d0655146101fe5780638129fc1c1461021d578063916b9bef14610232578063b260c42a14610252578063b75c3c011461026557600080fd5b806331809dcf1461008b57806337805585146100d35780634579268a146100f5578063579a6988146101c6575b600080fd5b34801561009757600080fd5b506100be6100a6366004610e5f565b60009081526001602052604090206008015460ff1690565b60405190151581526020015b60405180910390f35b3480156100df57600080fd5b506100f36100ee366004610e78565b610285565b005b34801561010157600080fd5b50610170610110366004610e5f565b60009081526001602081905260409091208054918101546002820154600383015460048401546005850154600686015460078701546008909701546001600160a01b03988916999698959794969386169592949190921692909160ff1690565b604080516001600160a01b039a8b16815260208101999099528801969096526060870194909452918616608086015260a085015290931660c083015260e0820192909252901515610100820152610120016100ca565b3480156101d257600080fd5b506100be6101e1366004610e5f565b6000908152600160205260409020546001600160a01b0316151590565b34801561020a57600080fd5b506000545b6040519081526020016100ca565b34801561022957600080fd5b506100f36103de565b34801561023e57600080fd5b506100be61024d366004610e5f565b6104ef565b6100be610260366004610e5f565b610584565b34801561027157600080fd5b5061020f610280366004610eb6565b6108a8565b6000828152600160205260409020546001600160a01b03166102c25760405162461bcd60e51b81526004016102b990610f19565b60405180910390fd5b6000828152600160205260409020546001600160a01b0316336001600160a01b03161461033c5760405162461bcd60e51b815260206004820152602260248201527f6f66666572732063616e206265207570646174656420627920697473206d616b60448201526132b960f11b60648201526084016102b9565b8061039c5760405162461bcd60e51b815260206004820152602a60248201527f606e657754616b6572496e746d617841646472657373602073686f756c64206e6044820152696f74206265207a65726f60b01b60648201526084016102b9565b60008281526001602052604080822060050183905551829184917f78f1204b0d8f130e8e8cdf9c2380aa132af9ea05233199057b67ca9ca95294019190a35050565b600254610100900460ff16158080156103fe5750600254600160ff909116105b806104185750303b158015610418575060025460ff166001145b61047b5760405162461bcd60e51b815260206004820152602e60248201527f496e697469616c697a61626c653a20636f6e747261637420697320616c72656160448201526d191e481a5b9a5d1a585b1a5e995960921b60648201526084016102b9565b6002805460ff19166001179055801561049e576002805461ff0019166101001790555b6104a66109a0565b80156104ec576002805461ff0019169055604051600181527f7f26b83ff96e1f2b6a682f133852f6798a09c465da95921460cefb38474024989060200160405180910390a15b50565b6000818152600160205260408120546001600160a01b0316336001600160a01b0316146105735760405162461bcd60e51b815260206004820152602c60248201527f6f6e6c7920746865206d616b6572206f6620616e206f666665722063616e206460448201526b195858dd1a5d985d19481a5d60a21b60648201526084016102b9565b61057c82610a0d565b506001919050565b6000818152600160205260408120600401546001600160a01b0316801561060957336001600160a01b038216146106095760405162461bcd60e51b8152602060048201526024808201527f6f66666572732063616e2062652061637469766174656420627920697473207460448201526330b5b2b960e11b60648201526084016102b9565b60008381526001602081815260409283902083516101208101855281546001600160a01b039081168252938201549281019290925260028101549382019390935260038301546060820152600483015482166080820152600583015460a0820152600683015490911660c0820152600782015460e0820181905260089092015460ff161515610100820152903410156106f05760405162461bcd60e51b8152602060048201526024808201527f706c656173652073656e6420656e6f756768206d6f6e657920746f20616374696044820152637661746560e01b60648201526084016102b9565b6106f984610a44565b60c08101516001600160a01b03166107495780516040516001600160a01b03909116903480156108fc02916000818181858888f19350505050158015610743573d6000803e3d6000fd5b5061089e565b34156107af5760405162461bcd60e51b815260206004820152602f60248201527f7472616e736d697373696f6e206d6574686f64206f74686572207468616e204560448201526e1512081a5cc81cdc1958da599a5959608a1b60648201526084016102b9565b60008160c001516001600160a01b03166323b872dd6107cb3390565b845160e0808701516040519185901b6001600160e01b03191682526001600160a01b03938416600483015292909116602482015260448101919091526064016020604051808303816000875af1158015610829573d6000803e3d6000fd5b505050506040513d601f19601f8201168201806040525081019061084d9190610f5f565b90508061089c5760405162461bcd60e51b815260206004820152601c60248201527f6661696c20746f207472616e7366657220455243323020746f6b656e0000000060448201526064016102b9565b505b5060019392505050565b60006001600160a01b03831615610984576000836001600160a01b03166318160ddd6040518163ffffffff1660e01b8152600401602060405180830381865afa1580156108f9573d6000803e3d6000fd5b505050506040513d601f19601f8201168201806040525081019061091d9190610f88565b9050806000036109825760405162461bcd60e51b815260206004820152602a60248201527f74686520746f74616c20737570706c79206f66204552433230206d757374206e6044820152696f74206265207a65726f60b01b60648201526084016102b9565b505b6109943389898989898989610a8d565b98975050505050505050565b600254610100900460ff16610a0b5760405162461bcd60e51b815260206004820152602b60248201527f496e697469616c697a61626c653a20636f6e7472616374206973206e6f74206960448201526a6e697469616c697a696e6760a81b60648201526084016102b9565b565b610a1681610d1a565b60405181907ff1b44e492f69c0888dede3ae9e5f0d48199df4e7735ccc87be8c98aa12f8113090600090a250565b610a4d81610d1a565b600081815260016020526040808220600501549051909183917fd24204a0846309eb47a4c7152aa297a8bbde01aedbf11b47790f2abd9da76c319190a350565b60006001600160a01b038916610af15760405162461bcd60e51b815260206004820152602360248201527f546865206d616b6572206d757374206e6f74206265207a65726f20616464726560448201526239b99760e91b60648201526084016102b9565b506000805480825260016020526040909120546001600160a01b031615610b665760405162461bcd60e51b8152602060048201526024808201527f54686973206f6666657220494420697320616c726561647920726567697374656044820152633932b21760e11b60648201526084016102b9565b60006040518061012001604052808b6001600160a01b031681526020018a8152602001898152602001888152602001876001600160a01b03168152602001868152602001856001600160a01b03168152602001848152602001600015158152509050610bd181610ddd565b6000828152600160208181526040808420855181546001600160a01b03199081166001600160a01b039283161783559387015182860155918601516002820155606086015160038201556080860151600482018054851691841691909117905560a0860151600582015560c086015160068201805490941692169190911790915560e084015160078201556101008401516008909101805460ff19169115159190911790558154019055604080518a8152602081018a90529081018890526001600160a01b038781166060830152858116608083015260a082018590528b169083907f97e91b5b77af37d6c0e8b82837d7263b92cf6ce511d8129330589df1e11394979060c00160405180910390a3604051859083907f78f1204b0d8f130e8e8cdf9c2380aa132af9ea05233199057b67ca9ca952940190600090a35098975050505050505050565b6000818152600160205260409020546001600160a01b0316610d4e5760405162461bcd60e51b81526004016102b990610f19565b60008181526001602052604090206008015460ff1615610dbc5760405162461bcd60e51b815260206004820152602360248201527f54686973206f6666657220494420697320616c7265616479206163746976617460448201526232b21760e91b60648201526084016102b9565b6000908152600160208190526040909120600801805460ff19169091179055565b67ffffffff00000000816060015111156104ec5760405162461bcd60e51b815260206004820152603860248201527f496e76616c6964206f6666657220616d6f756e743a2065786365656473206d6160448201527f78696d756d2072656d697474616e636520616d6f756e742e000000000000000060648201526084016102b9565b600060208284031215610e7157600080fd5b5035919050565b60008060408385031215610e8b57600080fd5b50508035926020909101359150565b80356001600160a01b0381168114610eb157600080fd5b919050565b600080600080600080600060e0888a031215610ed157600080fd5b873596506020880135955060408801359450610eef60608901610e9a565b935060808801359250610f0460a08901610e9a565b915060c0880135905092959891949750929550565b60208082526026908201527f54686973206f6666657220494420686173206e6f74206265656e2072656769736040820152653a32b932b21760d11b606082015260800190565b600060208284031215610f7157600080fd5b81518015158114610f8157600080fd5b9392505050565b600060208284031215610f9a57600080fd5b505191905056fea26469706673582212205c205efd5cab4e64b035a80f406d075e581e33382d345dc6e6d48e06ebad3bc064736f6c63430008110033",
  "linkReferences": {},
  "deployedLinkReferences": {}
}