{
  "_format": "hh-sol-artifact-1",
  "contractName": "OfferManager",
  "sourceName": "contracts/OfferManager.sol",
  "abi": [
    {
      "anonymous": false,
      "inputs": [
        {
          "indexed": false,
          "internalType": "uint8",
          "name": "version",
          "type": "uint8"
        }
      ],
      "name": "Initialized",
      "type": "event"
    },
    {
      "anonymous": false,
      "inputs": [
        {
          "indexed": true,
          "internalType": "uint256",
          "name": "offerId",
          "type": "uint256"
        },
        {
          "indexed": true,
          "internalType": "bytes32",
          "name": "takerIntmaxAddress",
          "type": "bytes32"
        }
      ],
      "name": "OfferActivated",
      "type": "event"
    },
    {
      "anonymous": false,
      "inputs": [
        {
          "indexed": true,
          "internalType": "uint256",
          "name": "offerId",
          "type": "uint256"
        }
      ],
      "name": "OfferDeactivated",
      "type": "event"
    },
    {
      "anonymous": false,
      "inputs": [
        {
          "indexed": true,
          "internalType": "uint256",
          "name": "offerId",
          "type": "uint256"
        },
        {
          "indexed": true,
          "internalType": "address",
          "name": "maker",
          "type": "address"
        },
        {
          "indexed": false,
          "internalType": "bytes32",
          "name": "makerIntmaxAddress",
          "type": "bytes32"
        },
        {
          "indexed": false,
          "internalType": "uint256",
          "name": "makerAssetId",
          "type": "uint256"
        },
        {
          "indexed": false,
          "internalType": "uint256",
          "name": "makerAmount",
          "type": "uint256"
        },
        {
          "indexed": false,
          "internalType": "address",
          "name": "taker",
          "type": "address"
        },
        {
          "indexed": false,
          "internalType": "address",
          "name": "takerTokenAddress",
          "type": "address"
        },
        {
          "indexed": false,
          "internalType": "uint256",
          "name": "takerAmount",
          "type": "uint256"
        }
      ],
      "name": "OfferRegistered",
      "type": "event"
    },
    {
      "anonymous": false,
      "inputs": [
        {
          "indexed": true,
          "internalType": "uint256",
          "name": "offerId",
          "type": "uint256"
        },
        {
          "indexed": true,
          "internalType": "bytes32",
          "name": "takerIntmaxAddress",
          "type": "bytes32"
        }
      ],
      "name": "OfferTakerUpdated",
      "type": "event"
    },
    {
      "inputs": [
        {
          "internalType": "uint256",
          "name": "offerId",
          "type": "uint256"
        }
      ],
      "name": "activate",
      "outputs": [
        {
          "internalType": "bool",
          "name": "",
          "type": "bool"
        }
      ],
      "stateMutability": "payable",
      "type": "function"
    },
    {
      "inputs": [
        {
          "internalType": "uint256",
          "name": "offerId",
          "type": "uint256"
        }
      ],
      "name": "deactivate",
      "outputs": [
        {
          "internalType": "bool",
          "name": "",
          "type": "bool"
        }
      ],
      "stateMutability": "nonpayable",
      "type": "function"
    },
    {
      "inputs": [
        {
          "internalType": "uint256",
          "name": "offerId",
          "type": "uint256"
        }
      ],
      "name": "getOffer",
      "outputs": [
        {
          "internalType": "address",
          "name": "maker",
          "type": "address"
        },
        {
          "internalType": "bytes32",
          "name": "makerIntmaxAddress",
          "type": "bytes32"
        },
        {
          "internalType": "uint256",
          "name": "makerAssetId",
          "type": "uint256"
        },
        {
          "internalType": "uint256",
          "name": "makerAmount",
          "type": "uint256"
        },
        {
          "internalType": "address",
          "name": "taker",
          "type": "address"
        },
        {
          "internalType": "bytes32",
          "name": "takerIntmaxAddress",
          "type": "bytes32"
        },
        {
          "internalType": "address",
          "name": "takerTokenAddress",
          "type": "address"
        },
        {
          "internalType": "uint256",
          "name": "takerAmount",
          "type": "uint256"
        },
        {
          "internalType": "bool",
          "name": "activated",
          "type": "bool"
        }
      ],
      "stateMutability": "view",
      "type": "function"
    },
    {
      "inputs": [],
      "name": "initialize",
      "outputs": [],
      "stateMutability": "nonpayable",
      "type": "function"
    },
    {
      "inputs": [
        {
          "internalType": "uint256",
          "name": "offerId",
          "type": "uint256"
        }
      ],
      "name": "isActivated",
      "outputs": [
        {
          "internalType": "bool",
          "name": "",
          "type": "bool"
        }
      ],
      "stateMutability": "view",
      "type": "function"
    },
    {
      "inputs": [
        {
          "internalType": "uint256",
          "name": "offerId",
          "type": "uint256"
        }
      ],
      "name": "isRegistered",
      "outputs": [
        {
          "internalType": "bool",
          "name": "",
          "type": "bool"
        }
      ],
      "stateMutability": "view",
      "type": "function"
    },
    {
      "inputs": [],
      "name": "nextOfferId",
      "outputs": [
        {
          "internalType": "uint256",
          "name": "offerId",
          "type": "uint256"
        }
      ],
      "stateMutability": "view",
      "type": "function"
    },
    {
      "inputs": [
        {
          "internalType": "uint256",
          "name": "offerId",
          "type": "uint256"
        }
      ],
      "name": "offers",
      "outputs": [
        {
          "components": [
            {
              "internalType": "address",
              "name": "maker",
              "type": "address"
            },
            {
              "internalType": "bytes32",
              "name": "makerIntmaxAddress",
              "type": "bytes32"
            },
            {
              "internalType": "uint256",
              "name": "makerAssetId",
              "type": "uint256"
            },
            {
              "internalType": "uint256",
              "name": "makerAmount",
              "type": "uint256"
            },
            {
              "internalType": "address",
              "name": "taker",
              "type": "address"
            },
            {
              "internalType": "bytes32",
              "name": "takerIntmaxAddress",
              "type": "bytes32"
            },
            {
              "internalType": "address",
              "name": "takerTokenAddress",
              "type": "address"
            },
            {
              "internalType": "uint256",
              "name": "takerAmount",
              "type": "uint256"
            },
            {
              "internalType": "bool",
              "name": "isActivated",
              "type": "bool"
            }
          ],
          "internalType": "struct OfferManagerBaseInterface.Offer",
          "name": "",
          "type": "tuple"
        }
      ],
      "stateMutability": "view",
      "type": "function"
    },
    {
      "inputs": [
        {
          "internalType": "bytes32",
          "name": "makerIntmaxAddress",
          "type": "bytes32"
        },
        {
          "internalType": "uint256",
          "name": "makerAssetId",
          "type": "uint256"
        },
        {
          "internalType": "uint256",
          "name": "makerAmount",
          "type": "uint256"
        },
        {
          "internalType": "address",
          "name": "taker",
          "type": "address"
        },
        {
          "internalType": "bytes32",
          "name": "takerIntmaxAddress",
          "type": "bytes32"
        },
        {
          "internalType": "address",
          "name": "takerTokenAddress",
          "type": "address"
        },
        {
          "internalType": "uint256",
          "name": "takerAmount",
          "type": "uint256"
        }
      ],
      "name": "register",
      "outputs": [
        {
          "internalType": "uint256",
          "name": "offerId",
          "type": "uint256"
        }
      ],
      "stateMutability": "nonpayable",
      "type": "function"
    },
    {
      "inputs": [
        {
          "internalType": "uint256",
          "name": "offerId",
          "type": "uint256"
        },
        {
          "internalType": "bytes32",
          "name": "newTakerIntmaxAddress",
          "type": "bytes32"
        }
      ],
      "name": "updateTaker",
      "outputs": [],
      "stateMutability": "nonpayable",
      "type": "function"
    }
  ],
  "bytecode": "0x608060405234801561001057600080fd5b5061115d806100206000396000f3fe6080604052600436106100915760003560e01c80638129fc1c116100595780638129fc1c146102285780638a72ea6a1461023d578063916b9bef1461033b578063b260c42a1461035b578063b75c3c011461036e57600080fd5b806331809dcf1461009657806337805585146100de5780634579268a14610100578063579a6988146101d15780635f5d065514610209575b600080fd5b3480156100a257600080fd5b506100c96100b1366004610f68565b60009081526001602052604090206008015460ff1690565b60405190151581526020015b60405180910390f35b3480156100ea57600080fd5b506100fe6100f9366004610f81565b61038e565b005b34801561010c57600080fd5b5061017b61011b366004610f68565b60009081526001602081905260409091208054918101546002820154600383015460048401546005850154600686015460078701546008909701546001600160a01b03988916999698959794969386169592949190921692909160ff1690565b604080516001600160a01b039a8b16815260208101999099528801969096526060870194909452918616608086015260a085015290931660c083015260e0820192909252901515610100820152610120016100d5565b3480156101dd57600080fd5b506100c96101ec366004610f68565b6000908152600160205260409020546001600160a01b0316151590565b34801561021557600080fd5b506000545b6040519081526020016100d5565b34801561023457600080fd5b506100fe6104e7565b34801561024957600080fd5b5061032e610258366004610f68565b6040805161012081018252600080825260208201819052918101829052606081018290526080810182905260a0810182905260c0810182905260e081018290526101008101919091525060009081526001602081815260409283902083516101208101855281546001600160a01b039081168252938201549281019290925260028101549382019390935260038301546060820152600483015482166080820152600583015460a0820152600683015490911660c0820152600782015460e082015260089091015460ff16151561010082015290565b6040516100d59190610fa3565b34801561034757600080fd5b506100c9610356366004610f68565b6105f8565b6100c9610369366004610f68565b61068d565b34801561037a57600080fd5b5061021a61038936600461103c565b6109b1565b6000828152600160205260409020546001600160a01b03166103cb5760405162461bcd60e51b81526004016103c29061109f565b60405180910390fd5b6000828152600160205260409020546001600160a01b0316336001600160a01b0316146104455760405162461bcd60e51b815260206004820152602260248201527f6f66666572732063616e206265207570646174656420627920697473206d616b60448201526132b960f11b60648201526084016103c2565b806104a55760405162461bcd60e51b815260206004820152602a60248201527f606e657754616b6572496e746d617841646472657373602073686f756c64206e6044820152696f74206265207a65726f60b01b60648201526084016103c2565b60008281526001602052604080822060050183905551829184917f78f1204b0d8f130e8e8cdf9c2380aa132af9ea05233199057b67ca9ca95294019190a35050565b600254610100900460ff16158080156105075750600254600160ff909116105b806105215750303b158015610521575060025460ff166001145b6105845760405162461bcd60e51b815260206004820152602e60248201527f496e697469616c697a61626c653a20636f6e747261637420697320616c72656160448201526d191e481a5b9a5d1a585b1a5e995960921b60648201526084016103c2565b6002805460ff1916600117905580156105a7576002805461ff0019166101001790555b6105af610aa9565b80156105f5576002805461ff0019169055604051600181527f7f26b83ff96e1f2b6a682f133852f6798a09c465da95921460cefb38474024989060200160405180910390a15b50565b6000818152600160205260408120546001600160a01b0316336001600160a01b03161461067c5760405162461bcd60e51b815260206004820152602c60248201527f6f6e6c7920746865206d616b6572206f6620616e206f666665722063616e206460448201526b195858dd1a5d985d19481a5d60a21b60648201526084016103c2565b61068582610b16565b506001919050565b6000818152600160205260408120600401546001600160a01b0316801561071257336001600160a01b038216146107125760405162461bcd60e51b8152602060048201526024808201527f6f66666572732063616e2062652061637469766174656420627920697473207460448201526330b5b2b960e11b60648201526084016103c2565b60008381526001602081815260409283902083516101208101855281546001600160a01b039081168252938201549281019290925260028101549382019390935260038301546060820152600483015482166080820152600583015460a0820152600683015490911660c0820152600782015460e0820181905260089092015460ff161515610100820152903410156107f95760405162461bcd60e51b8152602060048201526024808201527f706c656173652073656e6420656e6f756768206d6f6e657920746f20616374696044820152637661746560e01b60648201526084016103c2565b61080284610b4d565b60c08101516001600160a01b03166108525780516040516001600160a01b03909116903480156108fc02916000818181858888f1935050505015801561084c573d6000803e3d6000fd5b506109a7565b34156108b85760405162461bcd60e51b815260206004820152602f60248201527f7472616e736d697373696f6e206d6574686f64206f74686572207468616e204560448201526e1512081a5cc81cdc1958da599a5959608a1b60648201526084016103c2565b60008160c001516001600160a01b03166323b872dd6108d43390565b845160e0808701516040519185901b6001600160e01b03191682526001600160a01b03938416600483015292909116602482015260448101919091526064016020604051808303816000875af1158015610932573d6000803e3d6000fd5b505050506040513d601f19601f8201168201806040525081019061095691906110e5565b9050806109a55760405162461bcd60e51b815260206004820152601c60248201527f6661696c20746f207472616e7366657220455243323020746f6b656e0000000060448201526064016103c2565b505b5060019392505050565b60006001600160a01b03831615610a8d576000836001600160a01b03166318160ddd6040518163ffffffff1660e01b8152600401602060405180830381865afa158015610a02573d6000803e3d6000fd5b505050506040513d601f19601f82011682018060405250810190610a26919061110e565b905080600003610a8b5760405162461bcd60e51b815260206004820152602a60248201527f74686520746f74616c20737570706c79206f66204552433230206d757374206e6044820152696f74206265207a65726f60b01b60648201526084016103c2565b505b610a9d3389898989898989610b96565b98975050505050505050565b600254610100900460ff16610b145760405162461bcd60e51b815260206004820152602b60248201527f496e697469616c697a61626c653a20636f6e7472616374206973206e6f74206960448201526a6e697469616c697a696e6760a81b60648201526084016103c2565b565b610b1f81610e23565b60405181907ff1b44e492f69c0888dede3ae9e5f0d48199df4e7735ccc87be8c98aa12f8113090600090a250565b610b5681610e23565b600081815260016020526040808220600501549051909183917fd24204a0846309eb47a4c7152aa297a8bbde01aedbf11b47790f2abd9da76c319190a350565b60006001600160a01b038916610bfa5760405162461bcd60e51b815260206004820152602360248201527f546865206d616b6572206d757374206e6f74206265207a65726f20616464726560448201526239b99760e91b60648201526084016103c2565b506000805480825260016020526040909120546001600160a01b031615610c6f5760405162461bcd60e51b8152602060048201526024808201527f54686973206f6666657220494420697320616c726561647920726567697374656044820152633932b21760e11b60648201526084016103c2565b60006040518061012001604052808b6001600160a01b031681526020018a8152602001898152602001888152602001876001600160a01b03168152602001868152602001856001600160a01b03168152602001848152602001600015158152509050610cda81610ee6565b6000828152600160208181526040808420855181546001600160a01b03199081166001600160a01b039283161783559387015182860155918601516002820155606086015160038201556080860151600482018054851691841691909117905560a0860151600582015560c086015160068201805490941692169190911790915560e084015160078201556101008401516008909101805460ff19169115159190911790558154019055604080518a8152602081018a90529081018890526001600160a01b038781166060830152858116608083015260a082018590528b169083907f97e91b5b77af37d6c0e8b82837d7263b92cf6ce511d8129330589df1e11394979060c00160405180910390a3604051859083907f78f1204b0d8f130e8e8cdf9c2380aa132af9ea05233199057b67ca9ca952940190600090a35098975050505050505050565b6000818152600160205260409020546001600160a01b0316610e575760405162461bcd60e51b81526004016103c29061109f565b60008181526001602052604090206008015460ff1615610ec55760405162461bcd60e51b815260206004820152602360248201527f54686973206f6666657220494420697320616c7265616479206163746976617460448201526232b21760e91b60648201526084016103c2565b6000908152600160208190526040909120600801805460ff19169091179055565b67ffffffff00000000816060015111156105f55760405162461bcd60e51b815260206004820152603860248201527f496e76616c6964206f6666657220616d6f756e743a2065786365656473206d6160448201527f78696d756d2072656d697474616e636520616d6f756e742e000000000000000060648201526084016103c2565b600060208284031215610f7a57600080fd5b5035919050565b60008060408385031215610f9457600080fd5b50508035926020909101359150565b81516001600160a01b03908116825260208084015190830152604080840151908301526060808401519083015260808084015182169083015260a0838101519083015260c080840151918216908301526101208201905060e083015160e0830152610100808401516110188285018215159052565b505092915050565b80356001600160a01b038116811461103757600080fd5b919050565b600080600080600080600060e0888a03121561105757600080fd5b87359650602088013595506040880135945061107560608901611020565b93506080880135925061108a60a08901611020565b915060c0880135905092959891949750929550565b60208082526026908201527f54686973206f6666657220494420686173206e6f74206265656e2072656769736040820152653a32b932b21760d11b606082015260800190565b6000602082840312156110f757600080fd5b8151801515811461110757600080fd5b9392505050565b60006020828403121561112057600080fd5b505191905056fea26469706673582212207697266df445bfa21bb8bace39937640fb05e06d3ec3f5a632dd90f9425bf09364736f6c63430008110033",
  "linkReferences": {},
  "deployedLinkReferences": {}
}