{
  "_format": "hh-sol-artifact-1",
  "contractName": "OfferManager",
  "sourceName": "contracts/OfferManager.sol",
  "abi": [
    {
      "anonymous": false,
      "inputs": [
        {
          "indexed": false,
          "internalType": "uint8",
          "name": "version",
          "type": "uint8"
        }
      ],
      "name": "Initialized",
      "type": "event"
    },
    {
      "anonymous": false,
      "inputs": [
        {
          "indexed": true,
          "internalType": "uint256",
          "name": "offerId",
          "type": "uint256"
        },
        {
          "indexed": true,
          "internalType": "bytes32",
          "name": "takerIntmaxAddress",
          "type": "bytes32"
        }
      ],
      "name": "OfferActivated",
      "type": "event"
    },
    {
      "anonymous": false,
      "inputs": [
        {
          "indexed": true,
          "internalType": "uint256",
          "name": "offerId",
          "type": "uint256"
        }
      ],
      "name": "OfferDeactivated",
      "type": "event"
    },
    {
      "anonymous": false,
      "inputs": [
        {
          "indexed": true,
          "internalType": "uint256",
          "name": "offerId",
          "type": "uint256"
        },
        {
          "indexed": true,
          "internalType": "address",
          "name": "maker",
          "type": "address"
        },
        {
          "indexed": false,
          "internalType": "bytes32",
          "name": "makerIntmaxAddress",
          "type": "bytes32"
        },
        {
          "indexed": false,
          "internalType": "uint256",
          "name": "makerAssetId",
          "type": "uint256"
        },
        {
          "indexed": false,
          "internalType": "uint256",
          "name": "makerAmount",
          "type": "uint256"
        },
        {
          "indexed": false,
          "internalType": "address",
          "name": "taker",
          "type": "address"
        },
        {
          "indexed": false,
          "internalType": "address",
          "name": "takerTokenAddress",
          "type": "address"
        },
        {
          "indexed": false,
          "internalType": "uint256",
          "name": "takerAmount",
          "type": "uint256"
        }
      ],
      "name": "OfferRegistered",
      "type": "event"
    },
    {
      "anonymous": false,
      "inputs": [
        {
          "indexed": true,
          "internalType": "uint256",
          "name": "offerId",
          "type": "uint256"
        },
        {
          "indexed": true,
          "internalType": "bytes32",
          "name": "takerIntmaxAddress",
          "type": "bytes32"
        }
      ],
      "name": "OfferTakerUpdated",
      "type": "event"
    },
    {
      "inputs": [
        {
          "internalType": "uint256",
          "name": "offerId",
          "type": "uint256"
        }
      ],
      "name": "activate",
      "outputs": [
        {
          "internalType": "bool",
          "name": "",
          "type": "bool"
        }
      ],
      "stateMutability": "payable",
      "type": "function"
    },
    {
      "inputs": [
        {
          "internalType": "uint256",
          "name": "offerId",
          "type": "uint256"
        }
      ],
      "name": "deactivate",
      "outputs": [
        {
          "internalType": "bool",
          "name": "",
          "type": "bool"
        }
      ],
      "stateMutability": "nonpayable",
      "type": "function"
    },
    {
      "inputs": [
        {
          "internalType": "uint256",
          "name": "offerId",
          "type": "uint256"
        }
      ],
      "name": "getOffer",
      "outputs": [
        {
          "internalType": "address",
          "name": "maker",
          "type": "address"
        },
        {
          "internalType": "bytes32",
          "name": "makerIntmaxAddress",
          "type": "bytes32"
        },
        {
          "internalType": "uint256",
          "name": "makerAssetId",
          "type": "uint256"
        },
        {
          "internalType": "uint256",
          "name": "makerAmount",
          "type": "uint256"
        },
        {
          "internalType": "address",
          "name": "taker",
          "type": "address"
        },
        {
          "internalType": "bytes32",
          "name": "takerIntmaxAddress",
          "type": "bytes32"
        },
        {
          "internalType": "address",
          "name": "takerTokenAddress",
          "type": "address"
        },
        {
          "internalType": "uint256",
          "name": "takerAmount",
          "type": "uint256"
        },
        {
          "internalType": "bool",
          "name": "activated",
          "type": "bool"
        }
      ],
      "stateMutability": "view",
      "type": "function"
    },
    {
      "inputs": [],
      "name": "initialize",
      "outputs": [],
      "stateMutability": "nonpayable",
      "type": "function"
    },
    {
      "inputs": [
        {
          "internalType": "uint256",
          "name": "offerId",
          "type": "uint256"
        }
      ],
      "name": "isActivated",
      "outputs": [
        {
          "internalType": "bool",
          "name": "",
          "type": "bool"
        }
      ],
      "stateMutability": "view",
      "type": "function"
    },
    {
      "inputs": [
        {
          "internalType": "uint256",
          "name": "offerId",
          "type": "uint256"
        }
      ],
      "name": "isRegistered",
      "outputs": [
        {
          "internalType": "bool",
          "name": "",
          "type": "bool"
        }
      ],
      "stateMutability": "view",
      "type": "function"
    },
    {
      "inputs": [],
      "name": "nextOfferId",
      "outputs": [
        {
          "internalType": "uint256",
          "name": "offerId",
          "type": "uint256"
        }
      ],
      "stateMutability": "view",
      "type": "function"
    },
    {
      "inputs": [
        {
          "internalType": "bytes32",
          "name": "makerIntmaxAddress",
          "type": "bytes32"
        },
        {
          "internalType": "uint256",
          "name": "makerAssetId",
          "type": "uint256"
        },
        {
          "internalType": "uint256",
          "name": "makerAmount",
          "type": "uint256"
        },
        {
          "internalType": "address",
          "name": "taker",
          "type": "address"
        },
        {
          "internalType": "bytes32",
          "name": "takerIntmaxAddress",
          "type": "bytes32"
        },
        {
          "internalType": "address",
          "name": "takerTokenAddress",
          "type": "address"
        },
        {
          "internalType": "uint256",
          "name": "takerAmount",
          "type": "uint256"
        }
      ],
      "name": "register",
      "outputs": [
        {
          "internalType": "uint256",
          "name": "offerId",
          "type": "uint256"
        }
      ],
      "stateMutability": "nonpayable",
      "type": "function"
    },
    {
      "inputs": [
        {
          "internalType": "uint256",
          "name": "offerId",
          "type": "uint256"
        },
        {
          "internalType": "bytes32",
          "name": "newTakerIntmaxAddress",
          "type": "bytes32"
        }
      ],
      "name": "updateTaker",
      "outputs": [],
      "stateMutability": "nonpayable",
      "type": "function"
    }
  ],
  "bytecode": "0x608060405234801561001057600080fd5b50611f97806100206000396000f3fe6080604052600436106100865760003560e01c80635f5d0655116100595780635f5d0655146101735780638129fc1c1461019e578063916b9bef146101b5578063b260c42a146101f2578063b75c3c011461022257610086565b806331809dcf1461008b57806337805585146100c85780634579268a146100f1578063579a698814610136575b600080fd5b34801561009757600080fd5b506100b260048036038101906100ad919061129a565b61025f565b6040516100bf91906112e2565b60405180910390f35b3480156100d457600080fd5b506100ef60048036038101906100ea9190611333565b61028c565b005b3480156100fd57600080fd5b506101186004803603810190610113919061129a565b610414565b60405161012d999897969594939291906113d2565b60405180910390f35b34801561014257600080fd5b5061015d6004803603810190610158919061129a565b6104f2565b60405161016a91906112e2565b60405180910390f35b34801561017f57600080fd5b50610188610561565b604051610195919061145f565b60405180910390f35b3480156101aa57600080fd5b506101b3610572565b005b3480156101c157600080fd5b506101dc60048036038101906101d7919061129a565b6106b7565b6040516101e991906112e2565b60405180910390f35b61020c6004803603810190610207919061129a565b610776565b60405161021991906112e2565b60405180910390f35b34801561022e57600080fd5b50610249600480360381019061024491906114a6565b610bcd565b604051610256919061145f565b60405180910390f35b60006001600083815260200190815260200160002060080160009054906101000a900460ff169050919050565b610295826104f2565b6102d4576040517f08c379a00000000000000000000000000000000000000000000000000000000081526004016102cb906115cb565b60405180910390fd5b6001600083815260200190815260200160002060000160009054906101000a900473ffffffffffffffffffffffffffffffffffffffff1673ffffffffffffffffffffffffffffffffffffffff16610329610cde565b73ffffffffffffffffffffffffffffffffffffffff161461037f576040517f08c379a00000000000000000000000000000000000000000000000000000000081526004016103769061165d565b60405180910390fd5b61038881610ce6565b6103c7576040517f08c379a00000000000000000000000000000000000000000000000000000000081526004016103be906116ef565b60405180910390fd5b80600160008481526020019081526020016000206005018190555080827f78f1204b0d8f130e8e8cdf9c2380aa132af9ea05233199057b67ca9ca952940160405160405180910390a35050565b600080600080600080600080600080600160008c815260200190815260200160002090508060000160009054906101000a900473ffffffffffffffffffffffffffffffffffffffff1699508060010154985080600201549750806003015496508060040160009054906101000a900473ffffffffffffffffffffffffffffffffffffffff169550806005015494508060060160009054906101000a900473ffffffffffffffffffffffffffffffffffffffff169350806007015492508060080160009054906101000a900460ff169150509193959799909294969850565b60008073ffffffffffffffffffffffffffffffffffffffff166001600084815260200190815260200160002060000160009054906101000a900473ffffffffffffffffffffffffffffffffffffffff1673ffffffffffffffffffffffffffffffffffffffff1614159050919050565b600061056d6000610cf6565b905090565b6000600260019054906101000a900460ff161590508080156105a657506001600260009054906101000a900460ff1660ff16105b806105d557506105b530610d04565b1580156105d457506001600260009054906101000a900460ff1660ff16145b5b610614576040517f08c379a000000000000000000000000000000000000000000000000000000000815260040161060b90611781565b60405180910390fd5b6001600260006101000a81548160ff021916908360ff1602179055508015610652576001600260016101000a81548160ff0219169083151502179055505b61065a610d27565b80156106b4576000600260016101000a81548160ff0219169083151502179055507f7f26b83ff96e1f2b6a682f133852f6798a09c465da95921460cefb384740249860016040516106ab91906117f3565b60405180910390a15b50565b60006001600083815260200190815260200160002060000160009054906101000a900473ffffffffffffffffffffffffffffffffffffffff1673ffffffffffffffffffffffffffffffffffffffff1661070e610cde565b73ffffffffffffffffffffffffffffffffffffffff1614610764576040517f08c379a000000000000000000000000000000000000000000000000000000000815260040161075b90611880565b60405180910390fd5b61076d82610d78565b60019050919050565b6000806001600084815260200190815260200160002060040160009054906101000a900473ffffffffffffffffffffffffffffffffffffffff169050600073ffffffffffffffffffffffffffffffffffffffff168173ffffffffffffffffffffffffffffffffffffffff161461085c578073ffffffffffffffffffffffffffffffffffffffff16610805610cde565b73ffffffffffffffffffffffffffffffffffffffff161461085b576040517f08c379a000000000000000000000000000000000000000000000000000000000815260040161085290611912565b60405180910390fd5b5b600060016000858152602001908152602001600020604051806101200160405290816000820160009054906101000a900473ffffffffffffffffffffffffffffffffffffffff1673ffffffffffffffffffffffffffffffffffffffff1673ffffffffffffffffffffffffffffffffffffffff1681526020016001820154815260200160028201548152602001600382015481526020016004820160009054906101000a900473ffffffffffffffffffffffffffffffffffffffff1673ffffffffffffffffffffffffffffffffffffffff1673ffffffffffffffffffffffffffffffffffffffff168152602001600582015481526020016006820160009054906101000a900473ffffffffffffffffffffffffffffffffffffffff1673ffffffffffffffffffffffffffffffffffffffff1673ffffffffffffffffffffffffffffffffffffffff168152602001600782015481526020016008820160009054906101000a900460ff16151515158152505090508060e00151341015610a15576040517f08c379a0000000000000000000000000000000000000000000000000000000008152600401610a0c906119a4565b60405180910390fd5b610a1e84610db1565b600073ffffffffffffffffffffffffffffffffffffffff168160c0015173ffffffffffffffffffffffffffffffffffffffff1603610aa657806000015173ffffffffffffffffffffffffffffffffffffffff166108fc349081150290604051600060405180830381858888f19350505050158015610aa0573d6000803e3d6000fd5b50610bc2565b60003414610ae9576040517f08c379a0000000000000000000000000000000000000000000000000000000008152600401610ae090611a36565b60405180910390fd5b60008160c0015173ffffffffffffffffffffffffffffffffffffffff166323b872dd610b13610cde565b84600001518560e001516040518463ffffffff1660e01b8152600401610b3b93929190611a56565b6020604051808303816000875af1158015610b5a573d6000803e3d6000fd5b505050506040513d601f19601f82011682018060405250810190610b7e9190611ab9565b905080610bc0576040517f08c379a0000000000000000000000000000000000000000000000000000000008152600401610bb790611b32565b60405180910390fd5b505b600192505050919050565b60008073ffffffffffffffffffffffffffffffffffffffff168373ffffffffffffffffffffffffffffffffffffffff1614610cba5760008373ffffffffffffffffffffffffffffffffffffffff166318160ddd6040518163ffffffff1660e01b8152600401602060405180830381865afa158015610c4f573d6000803e3d6000fd5b505050506040513d601f19601f82011682018060405250810190610c739190611b67565b905060008103610cb8576040517f08c379a0000000000000000000000000000000000000000000000000000000008152600401610caf90611c06565b60405180910390fd5b505b610cd1610cc5610cde565b89898989898989610e01565b9050979650505050505050565b600033905090565b60008060001b8214159050919050565b600081600001549050919050565b6000808273ffffffffffffffffffffffffffffffffffffffff163b119050919050565b600260019054906101000a900460ff16610d76576040517f08c379a0000000000000000000000000000000000000000000000000000000008152600401610d6d90611c98565b60405180910390fd5b565b610d8181611135565b807ff1b44e492f69c0888dede3ae9e5f0d48199df4e7735ccc87be8c98aa12f8113060405160405180910390a250565b610dba81611135565b6001600082815260200190815260200160002060050154817fd24204a0846309eb47a4c7152aa297a8bbde01aedbf11b47790f2abd9da76c3160405160405180910390a350565b60008073ffffffffffffffffffffffffffffffffffffffff168973ffffffffffffffffffffffffffffffffffffffff1603610e71576040517f08c379a0000000000000000000000000000000000000000000000000000000008152600401610e6890611d2a565b60405180910390fd5b610e7b6000610cf6565b9050610e86816104f2565b15610ec6576040517f08c379a0000000000000000000000000000000000000000000000000000000008152600401610ebd90611dbc565b60405180910390fd5b60006040518061012001604052808b73ffffffffffffffffffffffffffffffffffffffff1681526020018a81526020018981526020018881526020018773ffffffffffffffffffffffffffffffffffffffff1681526020018681526020018573ffffffffffffffffffffffffffffffffffffffff168152602001848152602001600015158152509050610f58816111f7565b806001600084815260200190815260200160002060008201518160000160006101000a81548173ffffffffffffffffffffffffffffffffffffffff021916908373ffffffffffffffffffffffffffffffffffffffff16021790555060208201518160010155604082015181600201556060820151816003015560808201518160040160006101000a81548173ffffffffffffffffffffffffffffffffffffffff021916908373ffffffffffffffffffffffffffffffffffffffff16021790555060a0820151816005015560c08201518160060160006101000a81548173ffffffffffffffffffffffffffffffffffffffff021916908373ffffffffffffffffffffffffffffffffffffffff16021790555060e082015181600701556101008201518160080160006101000a81548160ff0219169083151502179055509050506110a16000611249565b8973ffffffffffffffffffffffffffffffffffffffff16827f97e91b5b77af37d6c0e8b82837d7263b92cf6ce511d8129330589df1e11394978b8b8b8b8a8a6040516110f296959493929190611ddc565b60405180910390a384827f78f1204b0d8f130e8e8cdf9c2380aa132af9ea05233199057b67ca9ca952940160405160405180910390a35098975050505050505050565b61113e816104f2565b61117d576040517f08c379a0000000000000000000000000000000000000000000000000000000008152600401611174906115cb565b60405180910390fd5b6111868161025f565b156111c6576040517f08c379a00000000000000000000000000000000000000000000000000000000081526004016111bd90611eaf565b60405180910390fd5b600180600083815260200190815260200160002060080160006101000a81548160ff02191690831515021790555050565b67ffffffff0000000081606001511115611246576040517f08c379a000000000000000000000000000000000000000000000000000000000815260040161123d90611f41565b60405180910390fd5b50565b6001816000016000828254019250508190555050565b600080fd5b6000819050919050565b61127781611264565b811461128257600080fd5b50565b6000813590506112948161126e565b92915050565b6000602082840312156112b0576112af61125f565b5b60006112be84828501611285565b91505092915050565b60008115159050919050565b6112dc816112c7565b82525050565b60006020820190506112f760008301846112d3565b92915050565b6000819050919050565b611310816112fd565b811461131b57600080fd5b50565b60008135905061132d81611307565b92915050565b6000806040838503121561134a5761134961125f565b5b600061135885828601611285565b92505060206113698582860161131e565b9150509250929050565b600073ffffffffffffffffffffffffffffffffffffffff82169050919050565b600061139e82611373565b9050919050565b6113ae81611393565b82525050565b6113bd816112fd565b82525050565b6113cc81611264565b82525050565b6000610120820190506113e8600083018c6113a5565b6113f5602083018b6113b4565b611402604083018a6113c3565b61140f60608301896113c3565b61141c60808301886113a5565b61142960a08301876113b4565b61143660c08301866113a5565b61144360e08301856113c3565b6114516101008301846112d3565b9a9950505050505050505050565b600060208201905061147460008301846113c3565b92915050565b61148381611393565b811461148e57600080fd5b50565b6000813590506114a08161147a565b92915050565b600080600080600080600060e0888a0312156114c5576114c461125f565b5b60006114d38a828b0161131e565b97505060206114e48a828b01611285565b96505060406114f58a828b01611285565b95505060606115068a828b01611491565b94505060806115178a828b0161131e565b93505060a06115288a828b01611491565b92505060c06115398a828b01611285565b91505092959891949750929550565b600082825260208201905092915050565b7f54686973206f6666657220494420686173206e6f74206265656e20726567697360008201527f74657265642e0000000000000000000000000000000000000000000000000000602082015250565b60006115b5602683611548565b91506115c082611559565b604082019050919050565b600060208201905081810360008301526115e4816115a8565b9050919050565b7f6f66666572732063616e206265207570646174656420627920697473206d616b60008201527f6572000000000000000000000000000000000000000000000000000000000000602082015250565b6000611647602283611548565b9150611652826115eb565b604082019050919050565b600060208201905081810360008301526116768161163a565b9050919050565b7f606e657754616b6572496e746d617841646472657373602073686f756c64206e60008201527f6f74206265207a65726f00000000000000000000000000000000000000000000602082015250565b60006116d9602a83611548565b91506116e48261167d565b604082019050919050565b60006020820190508181036000830152611708816116cc565b9050919050565b7f496e697469616c697a61626c653a20636f6e747261637420697320616c72656160008201527f647920696e697469616c697a6564000000000000000000000000000000000000602082015250565b600061176b602e83611548565b91506117768261170f565b604082019050919050565b6000602082019050818103600083015261179a8161175e565b9050919050565b6000819050919050565b600060ff82169050919050565b6000819050919050565b60006117dd6117d86117d3846117a1565b6117b8565b6117ab565b9050919050565b6117ed816117c2565b82525050565b600060208201905061180860008301846117e4565b92915050565b7f6f6e6c7920746865206d616b6572206f6620616e206f666665722063616e206460008201527f6561637469766174652069740000000000000000000000000000000000000000602082015250565b600061186a602c83611548565b91506118758261180e565b604082019050919050565b600060208201905081810360008301526118998161185d565b9050919050565b7f6f66666572732063616e2062652061637469766174656420627920697473207460008201527f616b657200000000000000000000000000000000000000000000000000000000602082015250565b60006118fc602483611548565b9150611907826118a0565b604082019050919050565b6000602082019050818103600083015261192b816118ef565b9050919050565b7f706c656173652073656e6420656e6f756768206d6f6e657920746f206163746960008201527f7661746500000000000000000000000000000000000000000000000000000000602082015250565b600061198e602483611548565b915061199982611932565b604082019050919050565b600060208201905081810360008301526119bd81611981565b9050919050565b7f7472616e736d697373696f6e206d6574686f64206f74686572207468616e204560008201527f5448206973207370656369666965640000000000000000000000000000000000602082015250565b6000611a20602f83611548565b9150611a2b826119c4565b604082019050919050565b60006020820190508181036000830152611a4f81611a13565b9050919050565b6000606082019050611a6b60008301866113a5565b611a7860208301856113a5565b611a8560408301846113c3565b949350505050565b611a96816112c7565b8114611aa157600080fd5b50565b600081519050611ab381611a8d565b92915050565b600060208284031215611acf57611ace61125f565b5b6000611add84828501611aa4565b91505092915050565b7f6661696c20746f207472616e7366657220455243323020746f6b656e00000000600082015250565b6000611b1c601c83611548565b9150611b2782611ae6565b602082019050919050565b60006020820190508181036000830152611b4b81611b0f565b9050919050565b600081519050611b618161126e565b92915050565b600060208284031215611b7d57611b7c61125f565b5b6000611b8b84828501611b52565b91505092915050565b7f74686520746f74616c20737570706c79206f66204552433230206d757374206e60008201527f6f74206265207a65726f00000000000000000000000000000000000000000000602082015250565b6000611bf0602a83611548565b9150611bfb82611b94565b604082019050919050565b60006020820190508181036000830152611c1f81611be3565b9050919050565b7f496e697469616c697a61626c653a20636f6e7472616374206973206e6f74206960008201527f6e697469616c697a696e67000000000000000000000000000000000000000000602082015250565b6000611c82602b83611548565b9150611c8d82611c26565b604082019050919050565b60006020820190508181036000830152611cb181611c75565b9050919050565b7f546865206d616b6572206d757374206e6f74206265207a65726f20616464726560008201527f73732e0000000000000000000000000000000000000000000000000000000000602082015250565b6000611d14602383611548565b9150611d1f82611cb8565b604082019050919050565b60006020820190508181036000830152611d4381611d07565b9050919050565b7f54686973206f6666657220494420697320616c7265616479207265676973746560008201527f7265642e00000000000000000000000000000000000000000000000000000000602082015250565b6000611da6602483611548565b9150611db182611d4a565b604082019050919050565b60006020820190508181036000830152611dd581611d99565b9050919050565b600060c082019050611df160008301896113b4565b611dfe60208301886113c3565b611e0b60408301876113c3565b611e1860608301866113a5565b611e2560808301856113a5565b611e3260a08301846113c3565b979650505050505050565b7f54686973206f6666657220494420697320616c7265616479206163746976617460008201527f65642e0000000000000000000000000000000000000000000000000000000000602082015250565b6000611e99602383611548565b9150611ea482611e3d565b604082019050919050565b60006020820190508181036000830152611ec881611e8c565b9050919050565b7f496e76616c6964206f6666657220616d6f756e743a2065786365656473206d6160008201527f78696d756d2072656d697474616e636520616d6f756e742e0000000000000000602082015250565b6000611f2b603883611548565b9150611f3682611ecf565b604082019050919050565b60006020820190508181036000830152611f5a81611f1e565b905091905056fea2646970667358221220554eded02604825f07db0027982a398eb31bc49828614f9d2985780c4b98168164736f6c63430008110033",
  "linkReferences": {},
  "deployedLinkReferences": {}
}